{
    "contractName": "QuestionFactory",
    "abi": [
        {
            "constant": true,
            "inputs": [],
            "name": "getDeployedQuestions",
            "outputs": [
                {
                    "name": "",
                    "type": "address[]"
                }
            ],
            "payable": false,
            "stateMutability": "view",
            "type": "function"
        },
        {
            "constant": false,
            "inputs": [
                {
                    "name": "_question",
                    "type": "address"
                },
                {
                    "name": "_reply",
                    "type": "string"
                },
                {
                    "name": "_fileHashes",
                    "type": "string[]"
                },
                {
                    "name": "_fileNames",
                    "type": "string[]"
                },
                {
                    "name": "_parent",
                    "type": "int256"
                }
            ],
            "name": "createAnswer",
            "outputs": [],
            "payable": false,
            "stateMutability": "nonpayable",
            "type": "function"
        },
        {
            "constant": false,
            "inputs": [
                {
                    "name": "_user",
                    "type": "address"
                }
            ],
            "name": "getProfile",
            "outputs": [
                {
                    "name": "",
                    "type": "address"
                }
            ],
            "payable": false,
            "stateMutability": "nonpayable",
            "type": "function"
        },
        {
            "constant": false,
            "inputs": [
                {
                    "name": "_question",
                    "type": "address"
                }
            ],
            "name": "shareTokenAt",
            "outputs": [],
            "payable": true,
            "stateMutability": "payable",
            "type": "function"
        },
        {
            "constant": false,
            "inputs": [
                {
                    "name": "_question",
                    "type": "address"
                },
                {
                    "name": "_ratingAnswer",
                    "type": "uint256"
                },
                {
                    "name": "_index",
                    "type": "uint256"
                }
            ],
            "name": "ratingAnswerAt",
            "outputs": [],
            "payable": true,
            "stateMutability": "payable",
            "type": "function"
        },
        {
            "constant": false,
            "inputs": [
                {
                    "name": "_question",
                    "type": "address"
                },
                {
                    "name": "_ratingQuestion",
                    "type": "uint256"
                }
            ],
            "name": "ratingQuestionAt",
            "outputs": [],
            "payable": true,
            "stateMutability": "payable",
            "type": "function"
        },
        {
            "constant": false,
            "inputs": [
                {
                    "name": "category",
                    "type": "string"
                },
                {
                    "name": "questionTitle",
                    "type": "string"
                },
                {
                    "name": "description",
                    "type": "string"
                },
                {
                    "name": "deposit",
                    "type": "uint256"
                },
                {
                    "name": "maxDuration",
                    "type": "uint256"
                },
                {
                    "name": "fileHashesQuestion",
                    "type": "string[]"
                },
                {
                    "name": "fileNamesQuestion",
                    "type": "string[]"
                }
            ],
            "name": "createQuestion",
            "outputs": [],
            "payable": true,
            "stateMutability": "payable",
            "type": "function"
        },
        {
            "constant": false,
            "inputs": [
                {
                    "name": "_user",
                    "type": "address"
                }
            ],
            "name": "hasProfile",
            "outputs": [
                {
                    "name": "",
                    "type": "bool"
                }
            ],
            "payable": false,
            "stateMutability": "nonpayable",
            "type": "function"
        },
        {
            "constant": true,
            "inputs": [
                {
                    "name": "",
                    "type": "address"
                }
            ],
            "name": "users",
            "outputs": [
                {
                    "name": "",
                    "type": "address"
                }
            ],
            "payable": false,
            "stateMutability": "view",
            "type": "function"
        }
    ],
    "bytecode": "608060405234801561001057600080fd5b50613f15806100206000396000f300608060405260043610620000885763ffffffff60e060020a6000350416620e078f81146200008d578063090abfc514620000bd5780630f53a47014620000e4578063320345c51462000118578063356b35e4146200012f57806361e62f8a14620001465780637badea3f146200015d578063a787c80b1462000174578063a87430ba14620001a8575b600080fd5b3480156200009a57600080fd5b50620000a5620001cd565b604051620000b4919062001405565b60405180910390f35b348015620000ca57600080fd5b50620000e2620000dc36600462000fe9565b62000231565b005b348015620000f157600080fd5b50620001096200010336600462000fc0565b620003e2565b604051620000b49190620013ef565b620000e26200012936600462000fc0565b6200042d565b620000e262000140366004620010f3565b6200051c565b620000e262000157366004620010b4565b6200076a565b620000e26200016e36600462001168565b62000a9c565b3480156200018157600080fd5b50620001996200019336600462000fc0565b62000e43565b604051620000b4919062001418565b348015620001b557600080fd5b5062000109620001c736600462000fc0565b62000e79565b606060008054806020026020016040519081016040528092919081815260200182805480156200022757602002820191906000526020600020905b8154600160a060020a0316815260019091019060200180831162000208575b5050505050905090565b336000908152600160205260408120548190600160a060020a03161515620002c057336200025e62000e94565b6200026a9190620013ef565b604051809103906000f08015801562000287573d6000803e3d6000fd5b50336000908152600160205260409020805473ffffffffffffffffffffffffffffffffffffffff1916600160a060020a03831617905591505b5033600081815260016020526040908190205490517f49bd924c0000000000000000000000000000000000000000000000000000000081528892600160a060020a03808516936349bd924c9362000325938c938c938c939116908b9060040162001476565b600060405180830381600087803b1580156200034057600080fd5b505af115801562000355573d6000803e3d6000fd5b5050336000908152600160205260408082205481517f0a91553d0000000000000000000000000000000000000000000000000000000081529151600160a060020a039091169450630a91553d93506004808301939282900301818387803b158015620003c057600080fd5b505af1158015620003d5573d6000803e3d6000fd5b5050505050505050505050565b600160a060020a0380821660009081526001602052604081205490911615156200040b57600080fd5b50600160a060020a03808216600090815260016020526040902054165b919050565b336000908152600160205260408120548190600160a060020a03161515620004bc57336200045a62000e94565b620004669190620013ef565b604051809103906000f08015801562000483573d6000803e3d6000fd5b50336000908152600160205260409020805473ffffffffffffffffffffffffffffffffffffffff1916600160a060020a03831617905591505b82905080600160a060020a0316636c9fa59e6040518163ffffffff1660e060020a028152600401600060405180830381600087803b158015620004fe57600080fd5b505af115801562000513573d6000803e3d6000fd5b50505050505050565b336000908152600160205260408120548190600160a060020a03161515620005ab57336200054962000e94565b620005559190620013ef565b604051809103906000f08015801562000572573d6000803e3d6000fd5b50336000908152600160205260409020805473ffffffffffffffffffffffffffffffffffffffff1916600160a060020a03831617905591505b506040518490600160a060020a038216903480156108fc02916000818181858888f19350505050158015620005e4573d6000803e3d6000fd5b506040517f97b16ab9000000000000000000000000000000000000000000000000000000008152600160a060020a038216906397b16ab9906200062e9087908790600401620015b8565b600060405180830381600087803b1580156200064957600080fd5b505af11580156200065e573d6000803e3d6000fd5b50506040517f7ba354ff000000000000000000000000000000000000000000000000000000008152600160a060020a0384169250637ba354ff9150620006a9908690600401620015a8565b602060405180830381600087803b158015620006c457600080fd5b505af1158015620006d9573d6000803e3d6000fd5b505050506040513d601f19601f82011682018060405250620006ff919081019062001147565b600160a060020a031663b3d6e1d2856040518263ffffffff1660e060020a0281526004016200072f9190620015a8565b600060405180830381600087803b1580156200074a57600080fd5b505af11580156200075f573d6000803e3d6000fd5b505050505050505050565b336000908152600160205260408120548190600160a060020a03161515620007f957336200079762000e94565b620007a39190620013ef565b604051809103906000f080158015620007c0573d6000803e3d6000fd5b50336000908152600160205260409020805473ffffffffffffffffffffffffffffffffffffffff1916600160a060020a03831617905591505b506040518390600160a060020a038216903480156108fc02916000818181858888f1935050505015801562000832573d6000803e3d6000fd5b506040517ff0d339f6000000000000000000000000000000000000000000000000000000008152600160a060020a0382169063f0d339f6906200087a908690600401620015a8565b600060405180830381600087803b1580156200089557600080fd5b505af1158015620008aa573d6000803e3d6000fd5b50506040517f72267ab8000000000000000000000000000000000000000000000000000000008152600160a060020a03841692506372267ab89150620008f69060019060040162001466565b600060405180830381600087803b1580156200091157600080fd5b505af115801562000926573d6000803e3d6000fd5b50503360009081526001602081905260408083205490517fc12d1d82000000000000000000000000000000000000000000000000000000008152600160a060020a03909116945063c12d1d8293506200098492919060040162001428565b600060405180830381600087803b1580156200099f57600080fd5b505af1158015620009b4573d6000803e3d6000fd5b5050505080600160a060020a031663cb90a3946040518163ffffffff1660e060020a028152600401602060405180830381600087803b158015620009f757600080fd5b505af115801562000a0c573d6000803e3d6000fd5b505050506040513d601f19601f8201168201806040525062000a32919081019062001147565b600160a060020a031663e999309c846040518263ffffffff1660e060020a02815260040162000a629190620015a8565b600060405180830381600087803b15801562000a7d57600080fd5b505af115801562000a92573d6000803e3d6000fd5b5050505050505050565b3360009081526001602052604081205481908190600160a060020a0316151562000b2d573362000acb62000e94565b62000ad79190620013ef565b604051809103906000f08015801562000af4573d6000803e3d6000fd5b50336000908152600160205260409020805473ffffffffffffffffffffffffffffffffffffffff1916600160a060020a03831617905592505b3360009081526001602090815260408083205481517f21df0da70000000000000000000000000000000000000000000000000000000081529151600160a060020a03909116936321df0da793600480850194919392918390030190829087803b15801562000b9a57600080fd5b505af115801562000baf573d6000803e3d6000fd5b505050506040513d601f19601f8201168201806040525062000bd591908101906200128f565b871062000be157600080fd5b336000818152600160205260409020548b918b918b918b918b918b918b9190600160a060020a031662000c1362000ea5565b62000c2799989796959493929190620014ef565b604051809103906000f08015801562000c44573d6000803e3d6000fd5b50600080546001810182558180527f290decd9548b62a8d60345a988386fc84ba6bc95484008f6362f93160ef3e563018054600160a060020a03841673ffffffffffffffffffffffffffffffffffffffff199091168117909155604051929450849350913480156108fc0292909190818181858888f1935050505015801562000cd1573d6000803e3d6000fd5b50336000908152600160205260408082205490517fc12d1d82000000000000000000000000000000000000000000000000000000008152600160a060020a039091169163c12d1d829162000d2b91908b9060040162001447565b600060405180830381600087803b15801562000d4657600080fd5b505af115801562000d5b573d6000803e3d6000fd5b5050336000908152600160205260408082205481517f6ac99b480000000000000000000000000000000000000000000000000000000081529151600160a060020a039091169450636ac99b4893506004808301939282900301818387803b15801562000dc657600080fd5b505af115801562000ddb573d6000803e3d6000fd5b5050505080600160a060020a03166308f7e68f6040518163ffffffff1660e060020a028152600401600060405180830381600087803b15801562000e1e57600080fd5b505af115801562000e33573d6000803e3d6000fd5b5050505050505050505050505050565b600160a060020a03808216600090815260016020526040812054909116151562000e705750600062000428565b50600162000428565b600160205260009081526040902054600160a060020a031681565b6040516104fd80620016bd83390190565b6040516123228062001bba83390190565b600062000ec4823562001645565b9392505050565b6000601f8201831362000edd57600080fd5b813562000ef462000eee82620015f0565b620015c8565b81815260209384019390925082018360005b8381101562000f36578135860162000f1f888262000f5c565b845250602092830192919091019060010162000f06565b5050505092915050565b600062000ec4825162001659565b600062000ec4823562001656565b6000601f8201831362000f6e57600080fd5b813562000f7f62000eee8262001612565b9150808252602083016020830185838301111562000f9c57600080fd5b62000fa983828462001673565b50505092915050565b600062000ec4825162001656565b60006020828403121562000fd357600080fd5b600062000fe1848462000eb6565b949350505050565b600080600080600060a086880312156200100257600080fd5b600062001010888862000eb6565b955050602086013567ffffffffffffffff8111156200102e57600080fd5b6200103c8882890162000f5c565b945050604086013567ffffffffffffffff8111156200105a57600080fd5b620010688882890162000ecb565b935050606086013567ffffffffffffffff8111156200108657600080fd5b620010948882890162000ecb565b9250506080620010a78882890162000f4e565b9150509295509295909350565b60008060408385031215620010c857600080fd5b6000620010d6858562000eb6565b9250506020620010e98582860162000f4e565b9150509250929050565b6000806000606084860312156200110957600080fd5b600062001117868662000eb6565b93505060206200112a8682870162000f4e565b92505060406200113d8682870162000f4e565b9150509250925092565b6000602082840312156200115a57600080fd5b600062000fe1848462000f40565b600080600080600080600060e0888a0312156200118457600080fd5b873567ffffffffffffffff8111156200119c57600080fd5b620011aa8a828b0162000f5c565b975050602088013567ffffffffffffffff811115620011c857600080fd5b620011d68a828b0162000f5c565b965050604088013567ffffffffffffffff811115620011f457600080fd5b620012028a828b0162000f5c565b9550506060620012158a828b0162000f4e565b9450506080620012288a828b0162000f4e565b93505060a088013567ffffffffffffffff8111156200124657600080fd5b620012548a828b0162000ecb565b92505060c088013567ffffffffffffffff8111156200127257600080fd5b620012808a828b0162000ecb565b91505092959891949750929550565b600060208284031215620012a257600080fd5b600062000fe1848462000fb2565b620012bb8162001645565b82525050565b6000620012ce8262001641565b808452602084019350620012e2836200163b565b60005b828110156200131857620012fb868351620012b0565b62001306826200163b565b602096909601959150600101620012e5565b5093949350505050565b60006200132f8262001641565b808452602084019350836020820285016200134a856200163b565b60005b848110156200138757838303885262001368838351620013b4565b925062001375826200163b565b6020989098019791506001016200134d565b50909695505050505050565b620012bb8162001651565b620012bb8162001656565b620012bb8162001666565b6000620013c18262001641565b808452620013d78160208601602086016200167f565b620013e281620016b2565b9093016020019392505050565b60208101620013ff8284620012b0565b92915050565b6020808252810162000ec48184620012c1565b60208101620013ff828462001393565b60408101620014388285620013a9565b62000ec46020830184620013a9565b60408101620014578285620013a9565b62000ec460208301846200139e565b60208101620013ff8284620013a9565b60c08082528101620014898189620013b4565b905081810360208301526200149f818862001322565b90508181036040830152620014b5818762001322565b9050620014c66060830186620012b0565b620014d56080830185620012b0565b620014e460a08301846200139e565b979650505050505050565b610120808252810162001503818c620013b4565b9050818103602083015262001519818b620013b4565b905081810360408301526200152f818a620013b4565b90506200154060608301896200139e565b6200154f60808301886200139e565b81810360a083015262001563818762001322565b905081810360c083015262001579818662001322565b90506200158a60e0830185620012b0565b6200159a610100830184620012b0565b9a9950505050505050505050565b60208101620013ff82846200139e565b604081016200145782856200139e565b60405181810167ffffffffffffffff81118282101715620015e857600080fd5b604052919050565b600067ffffffffffffffff8211156200160857600080fd5b5060209081020190565b600067ffffffffffffffff8211156200162a57600080fd5b506020601f91909101601f19160190565b60200190565b5190565b600160a060020a031690565b151590565b90565b6000620013ff8262001645565b6000620013ff8262001656565b82818337506000910152565b60005b838110156200169c57818101518382015260200162001682565b83811115620016ac576000848401525b50505050565b601f01601f19169056006080604052600a60005534801561001557600080fd5b506040516020806104fd8339810180604052610034919081019061006c565b60058054600160a060020a031916600160a060020a039290921691909117905561009e565b60006100658251610092565b9392505050565b60006020828403121561007e57600080fd5b600061008a8484610059565b949350505050565b600160a060020a031690565b610450806100ad6000396000f3006080604052600436106100e55763ffffffff7c01000000000000000000000000000000000000000000000000000000006000350416630a91553d81146100ea578063199a595f146101015780631aca7a801461012c57806321df0da7146101415780632d0b49ae14610156578063352173e21461016b5780634f8632ba146101805780635bf20a8c146101a25780636ac99b48146101b7578063a0c54fe5146101cc578063b3d6e1d2146101e1578063b908904714610201578063c12d1d8214610216578063e999309c14610236578063fc0c546a14610256578063ff9af5781461026b575b600080fd5b3480156100f657600080fd5b506100ff610280565b005b34801561010d57600080fd5b5061011661028b565b60405161012391906103ec565b60405180910390f35b34801561013857600080fd5b50610116610291565b34801561014d57600080fd5b50610116610297565b34801561016257600080fd5b5061011661029d565b34801561017757600080fd5b506101166102a3565b34801561018c57600080fd5b506101956102bc565b60405161012391906103d8565b3480156101ae57600080fd5b506101166102d8565b3480156101c357600080fd5b506100ff6102de565b3480156101d857600080fd5b506101166102e8565b3480156101ed57600080fd5b506100ff6101fc366004610360565b6102fa565b34801561020d57600080fd5b50610116610305565b34801561022257600080fd5b506100ff610231366004610386565b61030b565b34801561024257600080fd5b506100ff610251366004610360565b610336565b34801561026257600080fd5b50610116610341565b34801561027757600080fd5b50610116610347565b600380546001019055565b60025481565b60015490565b60005490565b60045481565b6000806001546002548115156102b557fe5b0492915050565b60055473ffffffffffffffffffffffffffffffffffffffff1681565b60015481565b6001805481019055565b6000806003546004548115156102b557fe5b600480549091019055565b60035490565b8160011415610321576000805482019055610332565b811515610332576000805482900390555b5050565b600280549091019055565b60005481565b60035481565b60006103598235610413565b9392505050565b60006020828403121561037257600080fd5b600061037e848461034d565b949350505050565b6000806040838503121561039957600080fd5b60006103a5858561034d565b92505060206103b68582860161034d565b9150509250929050565b6103c9816103fa565b82525050565b6103c981610413565b602081016103e682846103c0565b92915050565b602081016103e682846103cf565b73ffffffffffffffffffffffffffffffffffffffff1690565b905600a265627a7a72305820c4a201fb3aadfac8f0097e1c51e84059c8c3c10e3876fbf39641ff622f1c3e5c6c6578706572696d656e74616cf500376080604052600d805460ff1916905560006012553480156200002057600080fd5b50604051620023223803806200232283398101806040526200004691908101906200035e565b88516200005b9060119060208c0190620000f8565b508751620000719060039060208b0190620000f8565b508651620000879060049060208a0190620000f8565b50600586905560068590558351620000a79060019060208701906200017d565b508251620000bd9060029060208601906200017d565b5060078054600160a060020a03938416600160a060020a03199182161790915560088054929093169116179055506200055b95505050505050565b828054600181600116156101000203166002900490600052602060002090601f016020900481019282601f106200013b57805160ff19168380011785556200016b565b828001600101855582156200016b579182015b828111156200016b5782518255916020019190600101906200014e565b5062000179929150620001dd565b5090565b828054828255906000526020600020908101928215620001cf579160200282015b82811115620001cf5782518051620001be918491602090910190620000f8565b50916020019190600101906200019e565b5062000179929150620001fd565b620001fa91905b80821115620001795760008155600101620001e4565b90565b620001fa91905b80821115620001795760006200021b828262000225565b5060010162000204565b50805460018160011615610100020316600290046000825580601f106200024d57506200026d565b601f0160209004906000526020600020908101906200026d9190620001dd565b50565b60006200027e82516200051c565b9392505050565b6000601f820183136200029757600080fd5b8151620002ae620002a882620004d3565b620004ac565b81815260209384019390925082018360005b83811015620002f05781518601620002d98882620002fa565b8452506020928301929190910190600101620002c0565b5050505092915050565b6000601f820183136200030c57600080fd5b81516200031d620002a882620004f4565b915080825260208301602083018583830111156200033a57600080fd5b6200034783828462000528565b50505092915050565b60006200027e8251620001fa565b60008060008060008060008060006101208a8c0312156200037e57600080fd5b89516001604060020a038111156200039557600080fd5b620003a38c828d01620002fa565b99505060208a01516001604060020a03811115620003c057600080fd5b620003ce8c828d01620002fa565b98505060408a01516001604060020a03811115620003eb57600080fd5b620003f98c828d01620002fa565b97505060606200040c8c828d0162000350565b96505060806200041f8c828d0162000350565b95505060a08a01516001604060020a038111156200043c57600080fd5b6200044a8c828d0162000285565b94505060c08a01516001604060020a038111156200046757600080fd5b620004758c828d0162000285565b93505060e0620004888c828d0162000270565b9250506101006200049c8c828d0162000270565b9150509295985092959850929598565b6040518181016001604060020a0381118282101715620004cb57600080fd5b604052919050565b60006001604060020a03821115620004ea57600080fd5b5060209081020190565b60006001604060020a038211156200050b57600080fd5b506020601f91909101601f19160190565b600160a060020a031690565b60005b83811015620005455781810151838201526020016200052b565b8381111562000555576000848401525b50505050565b611db7806200056b6000396000f3006080604052600436106101d65763ffffffff7c0100000000000000000000000000000000000000000000000000000000600035041662a70eee81146101d857806306661abd1461020357806308f7e68f1461022557806326ce12841461023a5780632a412fdf1461024f5780633531fde8146102645780633b957317146102865780634051ddac1461029b57806349bd924c146102c357806352704204146102e3578063557ed1ba146102f857806356dde0b61461031c5780635b4246d414610331578063632b1ae114610346578063693f4b07146103685780636c9fa59e146103885780636db5c8fd1461039d5780636ec39c95146103b257806372267ab8146103d25780637284e416146103f25780637ba354ff1461040757806380258e47146104345780638896377114610449578063893d20e81461045e5780638da5cb5b1461048057806390b47d3e1461049557806397b16ab9146104aa578063b1259505146104ca578063be9a6555146104ea578063c399ec88146104ff578063c9930ee014610514578063cb90a39414610549578063ce8acbad1461055e578063d04f119a14610573578063d0e30db014610588578063d4efc2511461059d578063ef430aa6146105b2578063f0d339f6146105c7575b005b3480156101e457600080fd5b506101ed6105e7565b6040516101fa9190611b0c565b60405180910390f35b34801561020f57600080fd5b506102186105f2565b6040516101fa9190611b28565b34801561023157600080fd5b506101d66105f8565b34801561024657600080fd5b506102186105fe565b34801561025b57600080fd5b50610218610604565b34801561027057600080fd5b5061027961060a565b6040516101fa9190611afb565b34801561029257600080fd5b506101ed61090f565b3480156102a757600080fd5b506102b0610923565b6040516101fa9796959493929190611b62565b3480156102cf57600080fd5b506101d66102de36600461173f565b610c37565b3480156102ef57600080fd5b50610218610dda565b34801561030457600080fd5b5061030d610de0565b6040516101fa93929190611c6e565b34801561032857600080fd5b506101ed610deb565b34801561033d57600080fd5b50610218610e46565b34801561035257600080fd5b5061035b610e4c565b6040516101fa9190611b51565b34801561037457600080fd5b5061021861038336600461180d565b610eda565b34801561039457600080fd5b506101d6610f03565b3480156103a957600080fd5b5061021861104f565b3480156103be57600080fd5b5061035b6103cd36600461180d565b611055565b3480156103de57600080fd5b506101d66103ed36600461180d565b6110c9565b3480156103fe57600080fd5b5061035b6110d4565b34801561041357600080fd5b5061042761042236600461180d565b61112f565b6040516101fa9190611b1a565b34801561044057600080fd5b5061035b611162565b34801561045557600080fd5b506102186111f8565b34801561046a57600080fd5b506104736111fe565b6040516101fa9190611ae7565b34801561048c57600080fd5b5061047361120d565b3480156104a157600080fd5b5061042761121c565b3480156104b657600080fd5b506101d66104c5366004611833565b61122b565b3480156104d657600080fd5b5061035b6104e536600461180d565b6112ec565b3480156104f657600080fd5b506102186112fa565b34801561050b57600080fd5b50610218611300565b34801561052057600080fd5b5061053461052f36600461180d565b611306565b6040516101fa99989796959493929190611be3565b34801561055557600080fd5b506104276113f7565b34801561056a57600080fd5b50610218611406565b34801561057f57600080fd5b506101ed61140c565b34801561059457600080fd5b50610218611415565b3480156105a957600080fd5b5061021861141b565b3480156105be57600080fd5b5061035b611421565b3480156105d357600080fd5b506101d66105e236600461180d565b61147c565b600d5460ff16155b90565b60125481565b42600955565b600a5490565b600a5481565b60606000805480602002602001604051908101604052809291908181526020016000905b8282101561090657600084815260209081902060408051600b8602909201805460026001821615610100026000190190911604601f810185900490940283016101809081019092526101608301848152929390928492909184918401828280156106d95780601f106106ae576101008083540402835291602001916106d9565b820191906000526020600020905b8154815290600101906020018083116106bc57829003601f168201915b5050505050815260200160018201805480602002602001604051908101604052809291908181526020016000905b828210156107b25760008481526020908190208301805460408051601f600260001961010060018716150201909416939093049283018590048502810185019091528181529283018282801561079e5780601f106107735761010080835404028352916020019161079e565b820191906000526020600020905b81548152906001019060200180831161078157829003601f168201915b505050505081526020019060010190610707565b50505050815260200160028201805480602002602001604051908101604052809291908181526020016000905b8282101561088a5760008481526020908190208301805460408051601f60026000196101006001871615020190941693909304928301859004850281018501909152818152928301828280156108765780601f1061084b57610100808354040283529160200191610876565b820191906000526020600020905b81548152906001019060200180831161085957829003601f168201915b5050505050815260200190600101906107df565b505050908252506003820154600160a060020a03908116602080840191909152600484015490911660408301526005830154606083015260068301546080830152600783015460a0830152600883015460c0830152600983015460e0830152600a9092015461010090910152908252600192909201910161062e565b50505050905090565b6009546006544291909103908111905b5090565b606080600080600060608060036004600554600654600760009054906101000a9004600160a060020a031660016002868054600181600116156101000203166002900480601f0160208091040260200160405190810160405280929190818152602001828054600181600116156101000203166002900480156109e75780601f106109bc576101008083540402835291602001916109e7565b820191906000526020600020905b8154815290600101906020018083116109ca57829003601f168201915b5050895460408051602060026001851615610100026000190190941693909304601f8101849004840282018401909252818152959c508b945092508401905082828015610a755780601f10610a4a57610100808354040283529160200191610a75565b820191906000526020600020905b815481529060010190602001808311610a5857829003601f168201915b5050505050955081805480602002602001604051908101604052809291908181526020016000905b82821015610b485760008481526020908190208301805460408051601f6002600019610100600187161502019094169390930492830185900485028101850190915281815292830182828015610b345780601f10610b0957610100808354040283529160200191610b34565b820191906000526020600020905b815481529060010190602001808311610b1757829003601f168201915b505050505081526020019060010190610a9d565b50505050915080805480602002602001604051908101604052809291908181526020016000905b82821015610c1a5760008481526020908190208301805460408051601f6002600019610100600187161502019094169390930492830185900485028101850190915281815292830182828015610c065780601f10610bdb57610100808354040283529160200191610c06565b820191906000526020600020905b815481529060010190602001808311610be957829003601f168201915b505050505081526020019060010190610b6f565b505050509050965096509650965096509650965090919293949596565b6000610c416114a1565b826000191415610c5d5760128054600181019091559150610c63565b60001991505b5060408051610160810182528881526020808201899052918101879052600160a060020a038087166060830152851660808201524260a0820152600060c0820181905260e0820181905261010082018190526101208201859052610140820184905280546001810180835591805282518051939492938593600b9093027f290decd9548b62a8d60345a988386fc84ba6bc95484008f6362f93160ef3e5630192610d1192849291019061150e565b506020828101518051610d2a9260018501920190611588565b5060408201518051610d46916002840191602090910190611588565b506060820151600382018054600160a060020a0392831673ffffffffffffffffffffffffffffffffffffffff1991821617909155608084015160048401805491909316911617905560a0820151600582015560c0820151600682015560e082015160078201556101008201516008820155610120820151600982015561014090910151600a90910155505050505050505050565b600b5481565b600954600654429192565b60008080600054811015610e41576004600082815481101515610e0a57fe5b90600052602060002090600b020160060154101515610e2a576001909101905b6000821115610e3c5760019250610e41565b600092505b505090565b600f5481565b6003805460408051602060026001851615610100026000190190941693909304601f81018490048402820184019092528181529291830182828015610ed25780601f10610ea757610100808354040283529160200191610ed2565b820191906000526020600020905b815481529060010190602001808311610eb557829003601f168201915b505050505081565b60008082815481101515610eea57fe5b90600052602060002090600b0201600601549050919050565b60005b600054811015610f4c576004600082815481101515610f2157fe5b90600052602060002090600b020160060154101515610f44576010805460010190555b600101610f06565b601054600554811515610f5b57fe5b04600f555060005b60005481101561103f576004600082815481101515610f7e57fe5b90600052602060002090600b020160060154101515611037576000805482908110610fa557fe5b600091825260209091206004600b90920201810154600f546040517fc12d1d82000000000000000000000000000000000000000000000000000000008152600160a060020a039092169263c12d1d829261100492600192909101611b36565b600060405180830381600087803b15801561101e57600080fd5b505af1158015611032573d6000803e3d6000fd5b505050505b600101610f63565b50600d805460ff19166001179055565b60065481565b600280548290811061106357fe5b600091825260209182902001805460408051601f6002600019610100600187161502019094169390930492830185900485028101850190915281815293509091830182828015610ed25780601f10610ea757610100808354040283529160200191610ed2565b600580549091019055565b6004805460408051602060026001851615610100026000190190941693909304601f81018490048402820184019092528181529291830182828015610ed25780601f10610ea757610100808354040283529160200191610ed2565b6000808281548110151561113f57fe5b60009182526020909120600b9091020160040154600160a060020a031692915050565b60118054604080516020601f60026000196101006001881615020190951694909404938401819004810282018101909252828152606093909290918301828280156111ee5780601f106111c3576101008083540402835291602001916111ee565b820191906000526020600020905b8154815290600101906020018083116111d157829003601f168201915b5050505050905090565b600e5481565b600754600160a060020a031690565b600754600160a060020a031681565b600854600160a060020a031681565b600080548290811061123957fe5b6000918252602082206007600b90920201018054600101905580548391908390811061126157fe5b6000918252602082206008600b9092020101805490920190915580548290811061128757fe5b90600052602060002090600b0201600701546000828154811015156112a857fe5b90600052602060002090600b0201600801548115156112c357fe5b046000828154811015156112d357fe5b90600052602060002090600b0201600601819055505050565b600180548290811061106357fe5b60095481565b60055490565b600080548290811061131457fe5b6000918252602091829020600b919091020180546040805160026001841615610100026000190190931692909204601f8101859004850283018501909152808252919350918391908301828280156113ad5780601f10611382576101008083540402835291602001916113ad565b820191906000526020600020905b81548152906001019060200180831161139057829003601f168201915b50505060038401546004850154600586015460068701546007880154600889015460098a0154600a909a01549899600160a060020a03968716999590961697509295509093909289565b600854600160a060020a031690565b60105481565b600d5460ff1681565b60055481565b600c5481565b6011805460408051602060026001851615610100026000190190941693909304601f81018490048402820184019092528181529291830182828015610ed25780601f10610ea757610100808354040283529160200191610ed2565b600b805460010190819055600c805483019081905581151561149a57fe5b04600a5550565b610160604051908101604052806060815260200160608152602001606081526020016000600160a060020a031681526020016000600160a060020a031681526020016000815260200160008152602001600081526020016000815260200160008152602001600081525090565b828054600181600116156101000203166002900490600052602060002090601f016020900481019282601f1061154f57805160ff191683800117855561157c565b8280016001018555821561157c579182015b8281111561157c578251825591602001919060010190611561565b5061091f9291506115e1565b8280548282559060005260206000209081019282156115d5579160200282015b828111156115d557825180516115c591849160209091019061150e565b50916020019190600101906115a8565b5061091f9291506115fb565b6105ef91905b8082111561091f57600081556001016115e7565b6105ef91905b8082111561091f576000611615828261161e565b50600101611601565b50805460018160011615610100020316600290046000825580601f106116445750611662565b601f01602090049060005260206000209081019061166291906115e1565b50565b60006116718235611d10565b9392505050565b6000601f8201831361168957600080fd5b813561169c61169782611cbd565b611c96565b81815260209384019390925082018360005b838110156116da57813586016116c488826116f0565b84525060209283019291909101906001016116ae565b5050505092915050565b600061167182356105ef565b6000601f8201831361170157600080fd5b813561170f61169782611cde565b9150808252602083016020830185838301111561172b57600080fd5b611736838284611d37565b50505092915050565b60008060008060008060c0878903121561175857600080fd5b863567ffffffffffffffff81111561176f57600080fd5b61177b89828a016116f0565b965050602087013567ffffffffffffffff81111561179857600080fd5b6117a489828a01611678565b955050604087013567ffffffffffffffff8111156117c157600080fd5b6117cd89828a01611678565b94505060606117de89828a01611665565b93505060806117ef89828a01611665565b92505060a061180089828a016116e4565b9150509295509295509295565b60006020828403121561181f57600080fd5b600061182b84846116e4565b949350505050565b6000806040838503121561184657600080fd5b600061185285856116e4565b9250506020611863858286016116e4565b9150509250929050565b61187681611d10565b82525050565b600061188782611d0c565b808452602084019350836020820285016118a085611d06565b60005b848110156118d75783830388526118bb8383516119bd565b92506118c682611d06565b6020989098019791506001016118a3565b50909695505050505050565b60006118ee82611d0c565b8084526020840193508360208202850161190785611d06565b60005b848110156118d75783830388526119228383516119bd565b925061192d82611d06565b60209890980197915060010161190a565b600061194982611d0c565b8084526020840193508360208202850161196285611d06565b60005b848110156118d757838303885261197d8383516119f2565b925061198882611d06565b602098909801979150600101611965565b61187681611d1c565b61187681611d21565b611876816105ef565b61187681611d2c565b60006119c882611d0c565b8084526119dc816020860160208601611d43565b6119e581611d73565b9093016020019392505050565b805161016080845260009190840190611a0b82826119bd565b91505060208301518482036020860152611a2582826118e3565b91505060408301518482036040860152611a3f82826118e3565b9150506060830151611a54606086018261186d565b506080830151611a6760808601826119a2565b5060a0830151611a7a60a08601826119ab565b5060c0830151611a8d60c08601826119ab565b5060e0830151611aa060e08601826119ab565b50610100830151611ab56101008601826119ab565b50610120830151611aca6101208601826119ab565b50610140830151611adf6101408601826119ab565b509392505050565b60208101611af5828461186d565b92915050565b60208082528101611671818461193e565b60208101611af58284611999565b60208101611af582846119a2565b60208101611af582846119ab565b60408101611b4482856119b4565b61167160208301846119ab565b6020808252810161167181846119bd565b60e08082528101611b73818a6119bd565b90508181036020830152611b8781896119bd565b9050611b9660408301886119ab565b611ba360608301876119ab565b611bb0608083018661186d565b81810360a0830152611bc2818561187c565b905081810360c0830152611bd6818461187c565b9998505050505050505050565b6101208082528101611bf5818c6119bd565b9050611c04602083018b61186d565b611c11604083018a6119a2565b611c1e60608301896119ab565b611c2b60808301886119ab565b611c3860a08301876119ab565b611c4560c08301866119ab565b611c5260e08301856119ab565b611c606101008301846119ab565b9a9950505050505050505050565b60608101611c7c82866119ab565b611c8960208301856119ab565b61182b60408301846119ab565b60405181810167ffffffffffffffff81118282101715611cb557600080fd5b604052919050565b600067ffffffffffffffff821115611cd457600080fd5b5060209081020190565b600067ffffffffffffffff821115611cf557600080fd5b506020601f91909101601f19160190565b60200190565b5190565b600160a060020a031690565b151590565b6000611af582611d10565b6000611af5826105ef565b82818337506000910152565b60005b83811015611d5e578181015183820152602001611d46565b83811115611d6d576000848401525b50505050565b601f01601f1916905600a265627a7a7230582088829630c95b3be8e6700af8d3980f6a3a9a981c762889d1d7d47f4adda64ada6c6578706572696d656e74616cf50037a265627a7a7230582031a5c19169ed6a34fd8ea6cb613fabba19ed16bc76e95c7f4407e6e4e60e23ad6c6578706572696d656e74616cf50037",
    "sourcePath": "/Users/joelytj/Desktop/EtherLearn/contracts/Question.sol",
    "compiler": {
        "name": "solc",
        "version": "0.4.25+commit.59dbf8f1"
    },
    "functionHashes": {
        "createAnswer(address,string,string[],string[],int256)": "090abfc5",
        "createQuestion(string,string,string,uint256,uint256,string[],string[])": "7badea3f",
        "getDeployedQuestions()": "000e078f",
        "getProfile(address)": "0f53a470",
        "hasProfile(address)": "a787c80b",
        "ratingAnswerAt(address,uint256,uint256)": "356b35e4",
        "ratingQuestionAt(address,uint256)": "61e62f8a",
        "shareTokenAt(address)": "320345c5",
        "users(address)": "a87430ba"
    },
    "gasEstimates": {
        "creation": {
            "codeDepositCost": "3229800",
            "executionCost": "3579",
            "totalCost": "3233379"
        },
        "external": {
            "createAnswer(address,string,string[],string[],int256)": "infinite",
            "createQuestion(string,string,string,uint256,uint256,string[],string[])": "infinite",
            "getDeployedQuestions()": "infinite",
            "getProfile(address)": "infinite",
            "hasProfile(address)": "1140",
            "ratingAnswerAt(address,uint256,uint256)": "infinite",
            "ratingQuestionAt(address,uint256)": "infinite",
            "shareTokenAt(address)": "infinite",
            "users(address)": "infinite"
        }
    }
}