{
  "contractName": "Profile",
  "abi": [
    {
      "constant": true,
      "inputs": [],
      "name": "sumOfQuesRate",
      "outputs": [
        {
          "name": "",
          "type": "uint256"
        }
      ],
      "payable": false,
      "stateMutability": "view",
      "type": "function"
    },
    {
      "constant": true,
      "inputs": [],
      "name": "sumOfAnsRate",
      "outputs": [
        {
          "name": "",
          "type": "uint256"
        }
      ],
      "payable": false,
      "stateMutability": "view",
      "type": "function"
    },
    {
      "constant": true,
      "inputs": [],
      "name": "user",
      "outputs": [
        {
          "name": "",
          "type": "address"
        }
      ],
      "payable": false,
      "stateMutability": "view",
      "type": "function"
    },
    {
      "constant": true,
      "inputs": [],
      "name": "numOfQues",
      "outputs": [
        {
          "name": "",
          "type": "uint256"
        }
      ],
      "payable": false,
      "stateMutability": "view",
      "type": "function"
    },
    {
      "constant": true,
      "inputs": [],
      "name": "token",
      "outputs": [
        {
          "name": "",
          "type": "uint256"
        }
      ],
      "payable": false,
      "stateMutability": "view",
      "type": "function"
    },
    {
      "constant": true,
      "inputs": [],
      "name": "numOfAns",
      "outputs": [
        {
          "name": "",
          "type": "uint256"
        }
      ],
      "payable": false,
      "stateMutability": "view",
      "type": "function"
    },
    {
      "inputs": [
        {
          "name": "_user",
          "type": "address"
        }
      ],
      "payable": false,
      "stateMutability": "nonpayable",
      "type": "constructor"
    },
    {
      "constant": false,
      "inputs": [],
      "name": "increaseNumOfQues",
      "outputs": [],
      "payable": false,
      "stateMutability": "nonpayable",
      "type": "function"
    },
    {
      "constant": false,
      "inputs": [],
      "name": "increaseNumOfAns",
      "outputs": [],
      "payable": false,
      "stateMutability": "nonpayable",
      "type": "function"
    },
    {
      "constant": false,
      "inputs": [
        {
          "name": "_rate",
          "type": "uint256"
        }
      ],
      "name": "increaseSumOfQuesRate",
      "outputs": [],
      "payable": false,
      "stateMutability": "nonpayable",
      "type": "function"
    },
    {
      "constant": false,
      "inputs": [
        {
          "name": "_rate",
          "type": "uint256"
        }
      ],
      "name": "increaseSumOfAnsRate",
      "outputs": [],
      "payable": false,
      "stateMutability": "nonpayable",
      "type": "function"
    },
    {
      "constant": false,
      "inputs": [],
      "name": "getavgQuesRate",
      "outputs": [
        {
          "name": "",
          "type": "uint256"
        }
      ],
      "payable": false,
      "stateMutability": "nonpayable",
      "type": "function"
    },
    {
      "constant": false,
      "inputs": [],
      "name": "getavgAnsRate",
      "outputs": [
        {
          "name": "",
          "type": "uint256"
        }
      ],
      "payable": false,
      "stateMutability": "nonpayable",
      "type": "function"
    },
    {
      "constant": false,
      "inputs": [],
      "name": "getNumOfQues",
      "outputs": [
        {
          "name": "",
          "type": "uint256"
        }
      ],
      "payable": false,
      "stateMutability": "nonpayable",
      "type": "function"
    },
    {
      "constant": false,
      "inputs": [],
      "name": "getNumOfAns",
      "outputs": [
        {
          "name": "",
          "type": "uint256"
        }
      ],
      "payable": false,
      "stateMutability": "nonpayable",
      "type": "function"
    },
    {
      "constant": false,
      "inputs": [
        {
          "name": "addOrSub",
          "type": "uint256"
        },
        {
          "name": "_token",
          "type": "uint256"
        }
      ],
      "name": "updateToken",
      "outputs": [],
      "payable": false,
      "stateMutability": "nonpayable",
      "type": "function"
    },
    {
      "constant": false,
      "inputs": [],
      "name": "getToken",
      "outputs": [
        {
          "name": "",
          "type": "uint256"
        }
      ],
      "payable": false,
      "stateMutability": "nonpayable",
      "type": "function"
    }
  ],
  "bytecode": "0x6080604052600a60005534801561001557600080fd5b506040516020806104fd8339810180604052610034919081019061006c565b60058054600160a060020a031916600160a060020a039290921691909117905561009e565b60006100658251610092565b9392505050565b60006020828403121561007e57600080fd5b600061008a8484610059565b949350505050565b600160a060020a031690565b610450806100ad6000396000f3006080604052600436106100e55763ffffffff7c01000000000000000000000000000000000000000000000000000000006000350416630a91553d81146100ea578063199a595f146101015780631aca7a801461012c57806321df0da7146101415780632d0b49ae14610156578063352173e21461016b5780634f8632ba146101805780635bf20a8c146101a25780636ac99b48146101b7578063a0c54fe5146101cc578063b3d6e1d2146101e1578063b908904714610201578063c12d1d8214610216578063e999309c14610236578063fc0c546a14610256578063ff9af5781461026b575b600080fd5b3480156100f657600080fd5b506100ff610280565b005b34801561010d57600080fd5b5061011661028b565b60405161012391906103ec565b60405180910390f35b34801561013857600080fd5b50610116610291565b34801561014d57600080fd5b50610116610297565b34801561016257600080fd5b5061011661029d565b34801561017757600080fd5b506101166102a3565b34801561018c57600080fd5b506101956102bc565b60405161012391906103d8565b3480156101ae57600080fd5b506101166102d8565b3480156101c357600080fd5b506100ff6102de565b3480156101d857600080fd5b506101166102e8565b3480156101ed57600080fd5b506100ff6101fc366004610360565b6102fa565b34801561020d57600080fd5b50610116610305565b34801561022257600080fd5b506100ff610231366004610386565b61030b565b34801561024257600080fd5b506100ff610251366004610360565b610336565b34801561026257600080fd5b50610116610341565b34801561027757600080fd5b50610116610347565b600380546001019055565b60025481565b60015490565b60005490565b60045481565b6000806001546002548115156102b557fe5b0492915050565b60055473ffffffffffffffffffffffffffffffffffffffff1681565b60015481565b6001805481019055565b6000806003546004548115156102b557fe5b600480549091019055565b60035490565b8160011415610321576000805482019055610332565b811515610332576000805482900390555b5050565b600280549091019055565b60005481565b60035481565b60006103598235610413565b9392505050565b60006020828403121561037257600080fd5b600061037e848461034d565b949350505050565b6000806040838503121561039957600080fd5b60006103a5858561034d565b92505060206103b68582860161034d565b9150509250929050565b6103c9816103fa565b82525050565b6103c981610413565b602081016103e682846103c0565b92915050565b602081016103e682846103cf565b73ffffffffffffffffffffffffffffffffffffffff1690565b905600a265627a7a723058201e969cde98ea0cea4698c5766f131794a466b4c2758a47fb0c02bb8cc3d8d41a6c6578706572696d656e74616cf50037",
  "source": "pragma solidity ^0.4.25;\npragma experimental ABIEncoderV2;\n\ncontract QuestionFactory {\n    address[] private deployedQuestions;\n    mapping(address => address) public users;\n\n    function createQuestion(string category, string questionTitle, string description, uint deposit, \n                    uint maxDuration, string[] fileHashesQuestion, string[] fileNamesQuestion) public payable {\n        if (users[msg.sender] == 0) {\n            address profile = new Profile(msg.sender);\n            users[msg.sender] = profile;\n        }    \n        require(deposit<Profile(users[msg.sender]).getToken());\n        address newQuestion = new Question(category, questionTitle, description, deposit, maxDuration,\n                                    fileHashesQuestion, fileNamesQuestion, msg.sender, users[msg.sender]);\n        deployedQuestions.push(newQuestion);\n        \n        Question question = Question(newQuestion);\n        question.transfer(msg.value);\n        Profile(users[msg.sender]).updateToken(0, deposit); //subtract deposit from number of tokens of profile\n        Profile(users[msg.sender]).increaseNumOfQues();\n        question.postQuestion();  //Save posted time here\n        \n    }\n\n    function createAnswer(address _question, string _reply, string[] _fileHashes, string[] _fileNames, int _parent) public {\n        if (users[msg.sender] == 0) {\n            address profile = new Profile(msg.sender);\n            users[msg.sender] = profile;\n        }   \n        Question question = Question(_question);\n        question.answer(_reply, _fileHashes, _fileNames, msg.sender, users[msg.sender], _parent);\n        Profile(users[msg.sender]).increaseNumOfAns();\n    }\n\n    function ratingQuestionAt(address _question, uint _ratingQuestion) public payable{\n        if (users[msg.sender] == 0) {\n            address profile = new Profile(msg.sender);\n            users[msg.sender] = profile;\n        }\n\n        Question question = Question(_question);\n        question.transfer(msg.value);\n        question.ratingQuestion(_ratingQuestion); \n        question.updateDeposite(1);\n        Profile(users[msg.sender]).updateToken(0, 1);\n        Profile(question.getOwnerP()).increaseSumOfQuesRate(_ratingQuestion);\n    }\n\n    function ratingAnswerAt(address _question, uint _ratingAnswer, uint _index) public payable {\n        if (users[msg.sender] == 0) {\n            address profile = new Profile(msg.sender);\n            users[msg.sender] = profile;\n        }\n\n        Question question = Question(_question);\n        question.transfer(msg.value);\n        question.updateAnswerRate(_ratingAnswer, _index);\n        Profile(question.getAnswererP(_index)).increaseSumOfAnsRate(_ratingAnswer);\n    }\n\n\n    function shareTokenAt(address _question) public payable {\n        if (users[msg.sender] == 0) {\n            address profile = new Profile(msg.sender);\n            users[msg.sender] = profile;\n        }\n\n        Question question = Question(_question);\n        question.shareToken();\n    }\n\n    function hasProfile(address _user) public returns(bool) {\n        if (users[_user] == 0) {\n            return false;\n        } else {\n            return true;\n        }\n    }\n\n    function getProfile(address _user) public returns(address) {\n        require(users[_user] != 0);\n        return users[_user];\n    }\n    \n    function getDeployedQuestions() public view returns(address[]) {\n        return deployedQuestions;\n    }\n}    \n\n\ncontract Question {\n\n    struct Answer {\n        string replyHash;\n        string[] fileHashes;\n        string[] fileNames;\n        address answerer;\n        Profile answererP;\n        uint answerTime;\n        uint answerRate; \n        uint answerNumRate;\n        uint answerSumRate;\n        int parent;\n        int id;       //Keep track parent answers\n    }\n\n    Answer[] public answerList; \n    string[] public fileHashesQuestion;\n    string[] public fileNamesQuestion;\n    string public questionTitle;\n    string public description;\n    uint public deposit;\n    uint public maxDuration;\n    address public owner;\n    Profile public ownerP;\n    uint public start;\n    uint public questionRate;\n    uint public numRate;\n    uint public sumRate;\n    bool public alreadyShareToken = false;\n    uint public tokenSum;\n    uint public proportion;\n    uint public numPeople;\n    string public category;\n    int public count = 0;\n\n    function() payable { }\n    \n    function Question (string _category, string _questionTitle, string _description, uint _deposit, uint _maxDuration, string[] _fileHashesQuestion, string[] _fileNamesQuestion, address _owner, address _ownerP) public {\n        category = _category;\n        questionTitle = _questionTitle;\n        description = _description;\n        deposit = _deposit;\n        maxDuration = _maxDuration;\n        fileHashesQuestion = _fileHashesQuestion;\n        fileNamesQuestion = _fileNamesQuestion;\n        owner = _owner;\n        ownerP = Profile(_ownerP);\n    }\n\n    function getSummary() public view returns (\n        string, string, uint, uint, address, string[], string[]\n    ) {\n        return(\n            questionTitle,\n            description,\n            deposit,\n            maxDuration,\n            owner,\n            fileHashesQuestion,\n            fileNamesQuestion\n        );\n    }\n\n    function getCategory() public view returns (string) {\n        return category;\n    }\n\n    function getOwner() public view returns (address){\n        return owner;\n    }\n\n    function getOwnerP() public view returns (Profile){\n        return ownerP;\n    }\n    \n    function getAnswererP(uint _index) public view returns (Profile){\n        return answerList[_index].answererP;\n    }\n\n    function getTime() public view returns (uint, uint, uint) {\n        return(\n            start,\n            now,\n            maxDuration\n        );\n    }\n\n    function ratingQuestion(uint _ratingQuestion) public {\n        numRate++;\n        sumRate = sumRate + _ratingQuestion;\n        questionRate = sumRate/numRate;\n    }\n\n    function getRatingQuestion() public returns (uint){\n        return questionRate;\n    }\n\n    function updateDeposite(uint _value) public {\n        deposit = deposit + _value;\n    }\n\n    function getDeposit() public returns (uint){\n        return deposit;\n    }\n\n    function isOverdue() public returns (bool) {\n        uint publishingTime = now - start;\n        return publishingTime > maxDuration;\n    }\n\n    function getCheckShareToken() returns(bool){\n        return (!alreadyShareToken);\n    }\n\n    function getNumAnswer4() returns (bool){\n        uint getNumAnswer4;\n        for (uint i = 0;i < answerList.length;i++) {\n            if(answerList[i].answerRate >= 4) \n                getNumAnswer4++;\n            if(getNumAnswer4>0) return true; \n            else return false;\n        }\n    }\n\n    function shareToken() public {\n        for (uint i = 0;i < answerList.length;i++) {\n            if(answerList[i].answerRate >= 4){ \n                numPeople++;\n            }\n        }\n        proportion = deposit/numPeople;\n        for (i = 0; i < answerList.length;i++) {\n            if(answerList[i].answerRate >= 4){ //Only take 4 stars above into account\n                answerList[i].answererP.updateToken(1, proportion);\n            }\n        }\n\n        alreadyShareToken = true;\n    }\n    \n    function postQuestion() public {\n        start = now;   \n    }\n\n    function answer(string _reply, string[] _fileHashes, string[] _fileNames, address _answerer, address _answererP, int _parent) public {\n        int _id;\n        if (_parent == -1) {   //a parent answer\n            _id = count;   \n            count++;\n        } else {               //a child answer\n            _id = -1;\n        }\n\n        Answer memory newAnswer = Answer({\n            replyHash: _reply,\n            fileHashes: _fileHashes,\n            fileNames: _fileNames,\n            answerer: _answerer,\n            answererP: Profile(_answererP),\n            answerTime: now,\n            answerRate: 0,\n            answerNumRate: 0,\n            answerSumRate: 0,\n            parent: _parent,\n            id: _id\n        }); \n        \n        answerList.push(newAnswer);\n    } \n\n\n    function getAnswerList() public view returns (Answer[]) {\n        return answerList;\n    }\n\n    function updateAnswerRate(uint _value, uint index) public {\n        answerList[index].answerNumRate ++;\n        answerList[index].answerSumRate += _value;\n        answerList[index].answerRate = answerList[index].answerSumRate/answerList[index].answerNumRate;\n    }\n\n    function getAnswerRate(uint index) public view returns (uint) {\n        return answerList[index].answerRate;\n    }\n\n}\n\ncontract Profile {\n\n    uint public token = 10;\n    uint public numOfQues;\n    uint public sumOfQuesRate;\n    uint public numOfAns;\n    uint public sumOfAnsRate;\n    address public user;\n\n    function Profile (address _user) public {\n        user = _user;\n    }\n\n    function increaseNumOfQues() public {\n        numOfQues++;\n    }\n\n    function increaseNumOfAns() public {\n        numOfAns++;\n    }\n\n    function increaseSumOfQuesRate(uint _rate) public {\n        sumOfQuesRate += _rate;\n    }\n\n    function increaseSumOfAnsRate(uint _rate) public {\n        sumOfAnsRate += _rate;\n    }\n\n    function getavgQuesRate() public returns (uint){\n        uint avgQuesRate = sumOfQuesRate/numOfQues;\n        return avgQuesRate;\n    }\n\n    function getavgAnsRate() public returns (uint){\n        uint avgAnsRate = sumOfAnsRate/numOfAns;\n        return avgAnsRate;\n    }\n\n    function getNumOfQues() public returns (uint){\n        return numOfQues;\n    }\n\n    function getNumOfAns() public returns (uint){\n        return numOfAns;\n    }\n\n    function updateToken(uint addOrSub, uint _token) public {\n        if (addOrSub==1){ //1 is add\n            token += (_token);\n        }\n        else if(addOrSub==0){ // 0 is sub\n            token -= (_token);\n        }\n    }\n\n    function getToken() public returns(uint){\n        return token;\n    }\n}\n",
  "sourcePath": "/Users/joelytj/Desktop/EtherLearn/contracts/Question.sol",
  "compiler": {
    "name": "solc",
    "version": "0.4.26+commit.4563c3fc.Emscripten.clang"
  },
  "schemaVersion": "3.4.1",
  "updatedAt": "2021-05-26T06:55:58.529Z",
  "devdoc": {
    "methods": {}
  },
  "userdoc": {
    "methods": {}
  }
}