{
  "contractName": "QuestionFactory",
  "abi": [
    {
      "constant": true,
      "inputs": [],
      "name": "contractbinstance",
      "outputs": [
        {
          "name": "",
          "type": "address"
        }
      ],
      "payable": false,
      "stateMutability": "view",
      "type": "function"
    },
    {
      "constant": true,
      "inputs": [
        {
          "name": "",
          "type": "address"
        }
      ],
      "name": "owner",
      "outputs": [
        {
          "name": "",
          "type": "address"
        }
      ],
      "payable": false,
      "stateMutability": "view",
      "type": "function"
    },
    {
      "constant": true,
      "inputs": [
        {
          "name": "",
          "type": "address"
        }
      ],
      "name": "users",
      "outputs": [
        {
          "name": "",
          "type": "address"
        }
      ],
      "payable": false,
      "stateMutability": "view",
      "type": "function"
    },
    {
      "constant": false,
      "inputs": [
        {
          "name": "category",
          "type": "string"
        },
        {
          "name": "questionTitle",
          "type": "string"
        },
        {
          "name": "description",
          "type": "string"
        },
        {
          "name": "deposit",
          "type": "uint256"
        },
        {
          "name": "maxDuration",
          "type": "uint256"
        },
        {
          "name": "fileHashesQuestion",
          "type": "string[]"
        },
        {
          "name": "fileNamesQuestion",
          "type": "string[]"
        }
      ],
      "name": "createQuestion",
      "outputs": [],
      "payable": false,
      "stateMutability": "nonpayable",
      "type": "function"
    },
    {
      "constant": false,
      "inputs": [
        {
          "name": "_question",
          "type": "address"
        },
        {
          "name": "_reply",
          "type": "string"
        },
        {
          "name": "_fileHashes",
          "type": "string[]"
        },
        {
          "name": "_fileNames",
          "type": "string[]"
        },
        {
          "name": "_parent",
          "type": "int256"
        }
      ],
      "name": "createAnswer",
      "outputs": [],
      "payable": false,
      "stateMutability": "nonpayable",
      "type": "function"
    },
    {
      "constant": false,
      "inputs": [
        {
          "name": "_question",
          "type": "address"
        },
        {
          "name": "_ratingQuestion",
          "type": "uint256"
        }
      ],
      "name": "ratingQuestionAt",
      "outputs": [],
      "payable": true,
      "stateMutability": "payable",
      "type": "function"
    },
    {
      "constant": false,
      "inputs": [
        {
          "name": "_question",
          "type": "address"
        },
        {
          "name": "_ratingAnswer",
          "type": "uint256"
        },
        {
          "name": "_index",
          "type": "uint256"
        }
      ],
      "name": "ratingAnswerAt",
      "outputs": [],
      "payable": true,
      "stateMutability": "payable",
      "type": "function"
    },
    {
      "constant": false,
      "inputs": [
        {
          "name": "_question",
          "type": "address"
        }
      ],
      "name": "shareTokenAt",
      "outputs": [],
      "payable": true,
      "stateMutability": "payable",
      "type": "function"
    },
    {
      "constant": false,
      "inputs": [
        {
          "name": "_question",
          "type": "address"
        }
      ],
      "name": "returnDepositAt",
      "outputs": [],
      "payable": true,
      "stateMutability": "payable",
      "type": "function"
    },
    {
      "constant": false,
      "inputs": [
        {
          "name": "_user",
          "type": "address"
        }
      ],
      "name": "hasProfile",
      "outputs": [
        {
          "name": "",
          "type": "bool"
        }
      ],
      "payable": false,
      "stateMutability": "nonpayable",
      "type": "function"
    },
    {
      "constant": false,
      "inputs": [
        {
          "name": "_user",
          "type": "address"
        }
      ],
      "name": "getProfile",
      "outputs": [
        {
          "name": "",
          "type": "address"
        }
      ],
      "payable": false,
      "stateMutability": "nonpayable",
      "type": "function"
    },
    {
      "constant": true,
      "inputs": [],
      "name": "getDeployedQuestions",
      "outputs": [
        {
          "name": "",
          "type": "address[]"
        }
      ],
      "payable": false,
      "stateMutability": "view",
      "type": "function"
    }
  ],
  "bytecode": "0x608060405260048054600160a060020a0319167374bb56b2ea8f4784acb6878fa8f9577dcdb1a0a317905534801561003657600080fd5b50615550806100466000396000f300608060405260043610620000ac5763ffffffff60e060020a6000350416620e078f8114620000b1578063090abfc514620000e15780630f53a470146200010857806319cd05db146200013c578063320345c51462000153578063356b35e4146200016a57806356abef18146200018157806361e62f8a1462000199578063666e1b3914620001b05780637badea3f14620001d5578063a787c80b14620001fa578063a87430ba146200022e575b600080fd5b348015620000be57600080fd5b50620000c962000253565b604051620000d8919062001ac1565b60405180910390f35b348015620000ee57600080fd5b5062000106620001003660046200158a565b620002b7565b005b3480156200011557600080fd5b506200012d6200012736600462001540565b6200045b565b604051620000d8919062001a11565b620001066200014d36600462001540565b620004a6565b620001066200016436600462001540565b62000588565b620001066200017b36600462001694565b6200064c565b3480156200018e57600080fd5b506200012d62000856565b62000106620001aa36600462001655565b62000865565b348015620001bd57600080fd5b506200012d620001cf36600462001540565b62000e79565b348015620001e257600080fd5b5062000106620001f43660046200172a565b62000e94565b3480156200020757600080fd5b506200021f6200021936600462001540565b620013a7565b604051620000d8919062001ad4565b3480156200023b57600080fd5b506200012d6200024d36600462001540565b620013dd565b60606000805480602002602001604051908101604052809291908181526020018280548015620002ad57602002820191906000526020600020905b8154600160a060020a031681526001909101906020018083116200028e575b5050505050905090565b336000908152600160205260408120548190600160a060020a03161515620003395733620002e4620013f8565b620002f0919062001a11565b604051809103906000f0801580156200030d573d6000803e3d6000fd5b503360009081526001602052604090208054600160a060020a031916600160a060020a03831617905591505b5033600081815260016020526040908190205490517f49bd924c0000000000000000000000000000000000000000000000000000000081528892600160a060020a03808516936349bd924c936200039e938c938c938c939116908b9060040162001b04565b600060405180830381600087803b158015620003b957600080fd5b505af1158015620003ce573d6000803e3d6000fd5b5050336000908152600160205260408082205481517f0a91553d0000000000000000000000000000000000000000000000000000000081529151600160a060020a039091169450630a91553d93506004808301939282900301818387803b1580156200043957600080fd5b505af11580156200044e573d6000803e3d6000fd5b5050505050505050505050565b600160a060020a0380821660009081526001602052604081205490911615156200048457600080fd5b50600160a060020a03808216600090815260016020526040902054165b919050565b336000908152600160205260408120548190600160a060020a03161515620005285733620004d3620013f8565b620004df919062001a11565b604051809103906000f080158015620004fc573d6000803e3d6000fd5b503360009081526001602052604090208054600160a060020a031916600160a060020a03831617905591505b82905080600160a060020a0316637e88f6036040518163ffffffff1660e060020a028152600401600060405180830381600087803b1580156200056a57600080fd5b505af11580156200057f573d6000803e3d6000fd5b50505050505050565b336000908152600160205260408120548190600160a060020a031615156200060a5733620005b5620013f8565b620005c1919062001a11565b604051809103906000f080158015620005de573d6000803e3d6000fd5b503360009081526001602052604090208054600160a060020a031916600160a060020a03831617905591505b82905080600160a060020a0316636c9fa59e6040518163ffffffff1660e060020a028152600401600060405180830381600087803b1580156200056a57600080fd5b336000908152600160205260408120548190600160a060020a03161515620006ce573362000679620013f8565b62000685919062001a11565b604051809103906000f080158015620006a2573d6000803e3d6000fd5b503360009081526001602052604090208054600160a060020a031916600160a060020a03831617905591505b506040517f97b16ab90000000000000000000000000000000000000000000000000000000081528490600160a060020a038216906397b16ab9906200071a908790879060040162001c6a565b600060405180830381600087803b1580156200073557600080fd5b505af11580156200074a573d6000803e3d6000fd5b50506040517f7ba354ff000000000000000000000000000000000000000000000000000000008152600160a060020a0384169250637ba354ff91506200079590869060040162001c5a565b602060405180830381600087803b158015620007b057600080fd5b505af1158015620007c5573d6000803e3d6000fd5b505050506040513d601f19601f82011682018060405250620007eb919081019062001709565b600160a060020a031663b3d6e1d2856040518263ffffffff1660e060020a0281526004016200081b919062001c5a565b600060405180830381600087803b1580156200083657600080fd5b505af11580156200084b573d6000803e3d6000fd5b505050505050505050565b600354600160a060020a031681565b336000908152600160205260408120548190600160a060020a03161515620008e7573362000892620013f8565b6200089e919062001a11565b604051809103906000f080158015620008bb573d6000803e3d6000fd5b503360009081526001602052604090208054600160a060020a031916600160a060020a03831617905591505b83905080600160a060020a031663c0013a7b6040518163ffffffff1660e060020a028152600401602060405180830381600087803b1580156200092957600080fd5b505af11580156200093e573d6000803e3d6000fd5b505050506040513d601f19601f8201168201806040525062000964919081019062001569565b60038054600160a060020a031916600160a060020a0392831617905533600081815260016020526040908190205490517f59770438000000000000000000000000000000000000000000000000000000008152921691635977043891620009ce9160040162001a11565b602060405180830381600087803b158015620009e957600080fd5b505af1158015620009fe573d6000803e3d6000fd5b505050506040513d601f19601f8201168201806040525062000a24919081019062001851565b60011062000a69576040517f08c379a000000000000000000000000000000000000000000000000000000000815260040162000a609062001c48565b60405180910390fd5b600480546003546040517fe1f21c67000000000000000000000000000000000000000000000000000000008152600160a060020a039283169363e1f21c679362000abc9333939116916001910162001a27565b602060405180830381600087803b15801562000ad757600080fd5b505af115801562000aec573d6000803e3d6000fd5b505050506040513d601f19601f8201168201806040525062000b129190810190620016e8565b506003546040517f47e7ef24000000000000000000000000000000000000000000000000000000008152600160a060020a03909116906347e7ef249062000b6190339060019060040162001a83565b600060405180830381600087803b15801562000b7c57600080fd5b505af115801562000b91573d6000803e3d6000fd5b50506040517ff0d339f6000000000000000000000000000000000000000000000000000000008152600160a060020a038416925063f0d339f6915062000bdc90869060040162001c5a565b600060405180830381600087803b15801562000bf757600080fd5b505af115801562000c0c573d6000803e3d6000fd5b50506040517f72267ab8000000000000000000000000000000000000000000000000000000008152600160a060020a03841692506372267ab8915062000c589060019060040162001af4565b600060405180830381600087803b15801562000c7357600080fd5b505af115801562000c88573d6000803e3d6000fd5b50503360009081526001602081905260408083205490517fc12d1d82000000000000000000000000000000000000000000000000000000008152600160a060020a03909116945063c12d1d82935062000ce692919060040162001ae4565b600060405180830381600087803b15801562000d0157600080fd5b505af115801562000d16573d6000803e3d6000fd5b5050505080600160a060020a031663cb90a3946040518163ffffffff1660e060020a028152600401602060405180830381600087803b15801562000d5957600080fd5b505af115801562000d6e573d6000803e3d6000fd5b505050506040513d601f19601f8201168201806040525062000d94919081019062001709565b600160a060020a031663e999309c846040518263ffffffff1660e060020a02815260040162000dc4919062001c5a565b600060405180830381600087803b15801562000ddf57600080fd5b505af115801562000df4573d6000803e3d6000fd5b50506040517f0d03b85e000000000000000000000000000000000000000000000000000000008152600160a060020a0384169250630d03b85e915062000e3f90339060040162001a11565b600060405180830381600087803b15801562000e5a57600080fd5b505af115801562000e6f573d6000803e3d6000fd5b5050505050505050565b600260205260009081526040902054600160a060020a031681565b3360009081526001602052604081205481908190600160a060020a0316151562000f18573362000ec3620013f8565b62000ecf919062001a11565b604051809103906000f08015801562000eec573d6000803e3d6000fd5b503360009081526001602052604090208054600160a060020a031916600160a060020a03831617905592505b6000871162000f55576040517f08c379a000000000000000000000000000000000000000000000000000000000815260040162000a609062001c36565b33600081815260016020526040908190205490517f59770438000000000000000000000000000000000000000000000000000000008152600160a060020a039091169163597704389162000fad919060040162001a11565b602060405180830381600087803b15801562000fc857600080fd5b505af115801562000fdd573d6000803e3d6000fd5b505050506040513d601f19601f8201168201806040525062001003919081019062001851565b8711156200103f576040517f08c379a000000000000000000000000000000000000000000000000000000000815260040162000a609062001c48565b336000818152600160205260409020548b918b918b918b918b918b918b9190600160a060020a03166200107162001409565b620010859998979695949392919062001b7d565b604051809103906000f080158015620010a2573d6000803e3d6000fd5b50600080546001810182558180527f290decd9548b62a8d60345a988386fc84ba6bc95484008f6362f93160ef3e563018054600160a060020a031916600160a060020a038416908117909155604080517fc0013a7b0000000000000000000000000000000000000000000000000000000081529051939550859450909263c0013a7b92600480840193602093929083900390910190829087803b1580156200114957600080fd5b505af11580156200115e573d6000803e3d6000fd5b505050506040513d601f19601f8201168201806040525062001184919081019062001569565b60038054600160a060020a031916600160a060020a039283161790819055600480546040517fe1f21c670000000000000000000000000000000000000000000000000000000081529084169363e1f21c6793620011eb93339391909216918d910162001a55565b602060405180830381600087803b1580156200120657600080fd5b505af11580156200121b573d6000803e3d6000fd5b505050506040513d601f19601f82011682018060405250620012419190810190620016e8565b506003546040517f47e7ef24000000000000000000000000000000000000000000000000000000008152600160a060020a03909116906347e7ef24906200128f9033908b9060040162001aa2565b600060405180830381600087803b158015620012aa57600080fd5b505af1158015620012bf573d6000803e3d6000fd5b5050336000908152600160205260408082205481517f6ac99b480000000000000000000000000000000000000000000000000000000081529151600160a060020a039091169450636ac99b4893506004808301939282900301818387803b1580156200132a57600080fd5b505af11580156200133f573d6000803e3d6000fd5b5050505080600160a060020a03166308f7e68f6040518163ffffffff1660e060020a028152600401600060405180830381600087803b1580156200138257600080fd5b505af115801562001397573d6000803e3d6000fd5b5050505050505050505050505050565b600160a060020a038082166000908152600160205260408120549091161515620013d457506000620004a1565b506001620004a1565b600160205260009081526040902054600160a060020a031681565b6040516107228062001d6f83390190565b604051613086806200249183390190565b600062001428823562001cf7565b9392505050565b600062001428825162001cf7565b6000601f820183136200144f57600080fd5b813562001466620014608262001ca2565b62001c7a565b81815260209384019390925082018360005b83811015620014a85781358601620014918882620014dc565b845250602092830192919091019060010162001478565b5050505092915050565b600062001428825162001d03565b600062001428825162001d0b565b600062001428823562001d08565b6000601f82018313620014ee57600080fd5b8135620014ff620014608262001cc4565b915080825260208301602083018583830111156200151c57600080fd5b6200152983828462001d25565b50505092915050565b600062001428825162001d08565b6000602082840312156200155357600080fd5b60006200156184846200141a565b949350505050565b6000602082840312156200157c57600080fd5b60006200156184846200142f565b600080600080600060a08688031215620015a357600080fd5b6000620015b188886200141a565b955050602086013567ffffffffffffffff811115620015cf57600080fd5b620015dd88828901620014dc565b945050604086013567ffffffffffffffff811115620015fb57600080fd5b62001609888289016200143d565b935050606086013567ffffffffffffffff8111156200162757600080fd5b62001635888289016200143d565b92505060806200164888828901620014ce565b9150509295509295909350565b600080604083850312156200166957600080fd5b60006200167785856200141a565b92505060206200168a85828601620014ce565b9150509250929050565b600080600060608486031215620016aa57600080fd5b6000620016b886866200141a565b9350506020620016cb86828701620014ce565b9250506040620016de86828701620014ce565b9150509250925092565b600060208284031215620016fb57600080fd5b6000620015618484620014b2565b6000602082840312156200171c57600080fd5b6000620015618484620014c0565b600080600080600080600060e0888a0312156200174657600080fd5b873567ffffffffffffffff8111156200175e57600080fd5b6200176c8a828b01620014dc565b975050602088013567ffffffffffffffff8111156200178a57600080fd5b620017988a828b01620014dc565b965050604088013567ffffffffffffffff811115620017b657600080fd5b620017c48a828b01620014dc565b9550506060620017d78a828b01620014ce565b9450506080620017ea8a828b01620014ce565b93505060a088013567ffffffffffffffff8111156200180857600080fd5b620018168a828b016200143d565b92505060c088013567ffffffffffffffff8111156200183457600080fd5b620018428a828b016200143d565b91505092959891949750929550565b6000602082840312156200186457600080fd5b600062001561848462001532565b6200187d8162001cf7565b82525050565b6000620018908262001cf3565b808452602084019350620018a48362001ced565b60005b82811015620018da57620018bd86835162001872565b620018c88262001ced565b602096909601959150600101620018a7565b5093949350505050565b6000620018f18262001cf3565b808452602084019350836020820285016200190c8562001ced565b60005b84811015620019495783830388526200192a83835162001976565b9250620019378262001ced565b6020989098019791506001016200190f565b50909695505050505050565b6200187d8162001d03565b6200187d8162001d08565b6200187d8162001d18565b6000620019838262001cf3565b8084526200199981602086016020860162001d31565b620019a48162001d64565b9093016020019392505050565b601381527f4465706f7369742063616e6e6f74206265203000000000000000000000000000602082015260400190565b601381527f496e73756666696369656e7420746f6b656e7300000000000000000000000000602082015260400190565b6020810162001a21828462001872565b92915050565b6060810162001a37828662001872565b62001a46602083018562001872565b6200156160408301846200196b565b6060810162001a65828662001872565b62001a74602083018562001872565b62001561604083018462001960565b6040810162001a93828562001872565b6200142860208301846200196b565b6040810162001ab2828562001872565b62001428602083018462001960565b6020808252810162001428818462001883565b6020810162001a21828462001955565b6040810162001a9382856200196b565b6020810162001a2182846200196b565b60c0808252810162001b17818962001976565b9050818103602083015262001b2d8188620018e4565b9050818103604083015262001b438187620018e4565b905062001b54606083018662001872565b62001b63608083018562001872565b62001b7260a083018462001960565b979650505050505050565b610120808252810162001b91818c62001976565b9050818103602083015262001ba7818b62001976565b9050818103604083015262001bbd818a62001976565b905062001bce606083018962001960565b62001bdd608083018862001960565b81810360a083015262001bf18187620018e4565b905081810360c083015262001c078186620018e4565b905062001c1860e083018562001872565b62001c2861010083018462001872565b9a9950505050505050505050565b6020808252810162001a2181620019b1565b6020808252810162001a2181620019e1565b6020810162001a21828462001960565b6040810162001ab2828562001960565b60405181810167ffffffffffffffff8111828210171562001c9a57600080fd5b604052919050565b600067ffffffffffffffff82111562001cba57600080fd5b5060209081020190565b600067ffffffffffffffff82111562001cdc57600080fd5b506020601f91909101601f19160190565b60200190565b5190565b600160a060020a031690565b151590565b90565b600062001a218262001cf7565b600062001a218262001d08565b82818337506000910152565b60005b8381101562001d4e57818101518382015260200162001d34565b8381111562001d5e576000848401525b50505050565b601f01601f1916905600608060405260008054600160a060020a0319167374bb56b2ea8f4784acb6878fa8f9577dcdb1a0a317905534801561003657600080fd5b506040516020806107228339810180604052610055919081019061008d565b60088054600160a060020a031916600160a060020a03929092169190911790556100bf565b600061008682516100b3565b9392505050565b60006020828403121561009f57600080fd5b60006100ab848461007a565b949350505050565b600160a060020a031690565b610654806100ce6000396000f3006080604052600436106101065763ffffffff7c01000000000000000000000000000000000000000000000000000000006000350416630a91553d811461010b578063118e764f14610122578063199a595f1461014d5780631aca7a80146101625780632d0b49ae14610177578063352173e21461018c5780634f8632ba146101a157806355a373d6146101c357806359770438146101e55780635bf20a8c146102055780636ac99b481461021a578063a0c54fe51461022f578063b3d6e1d214610244578063b908904714610264578063c12d1d8214610279578063e999309c14610299578063f807e49b146102b9578063fc0c546a146102ce578063ff9af578146102e3575b600080fd5b34801561011757600080fd5b506101206102f8565b005b34801561012e57600080fd5b50610137610303565b60405161014491906105e8565b60405180910390f35b34801561015957600080fd5b50610137610309565b34801561016e57600080fd5b5061013761030f565b34801561018357600080fd5b50610137610316565b34801561019857600080fd5b5061013761031c565b3480156101ad57600080fd5b506101b6610352565b60405161014491906105c6565b3480156101cf57600080fd5b506101d861036e565b60405161014491906105da565b3480156101f157600080fd5b50610137610200366004610509565b61038a565b34801561021157600080fd5b5061013761043e565b34801561022657600080fd5b50610120610444565b34801561023b57600080fd5b5061013761044f565b34801561025057600080fd5b5061012061025f36600461052f565b610485565b34801561027057600080fd5b50610137610490565b34801561028557600080fd5b5061012061029436600461056b565b610496565b3480156102a557600080fd5b506101206102b436600461052f565b6104c1565b3480156102c557600080fd5b506101376104cc565b3480156102da57600080fd5b506101376104d2565b3480156102ef57600080fd5b506101376104d8565b600480546001019055565b60075481565b60035481565b6002545b90565b60055481565b600060025460001415610336575060006006819055610313565b60025460035481151561034557fe5b0460068190559050610313565b60085473ffffffffffffffffffffffffffffffffffffffff1681565b60005473ffffffffffffffffffffffffffffffffffffffff1681565b600080546040517f70a0823100000000000000000000000000000000000000000000000000000000815273ffffffffffffffffffffffffffffffffffffffff909116906370a08231906103e19085906004016105c6565b602060405180830381600087803b1580156103fb57600080fd5b505af115801561040f573d6000803e3d6000fd5b505050506040513d601f19601f82011682018060405250610433919081019061054d565b600181905592915050565b60025481565b600280546001019055565b600060045460001415610469575060006007819055610313565b60045460055481151561047857fe5b0460078190559050610313565b600580549091019055565b60045490565b81600114156104ac5760018054820190556104bd565b8115156104bd576001805482900390555b5050565b600380549091019055565b60065481565b60015481565b60045481565b60006104ea82356105f6565b9392505050565b60006104ea8235610313565b60006104ea8251610313565b60006020828403121561051b57600080fd5b600061052784846104de565b949350505050565b60006020828403121561054157600080fd5b600061052784846104f1565b60006020828403121561055f57600080fd5b600061052784846104fd565b6000806040838503121561057e57600080fd5b600061058a85856104f1565b925050602061059b858286016104f1565b9150509250929050565b6105ae816105f6565b82525050565b6105ae8161060f565b6105ae81610313565b602081016105d482846105a5565b92915050565b602081016105d482846105b4565b602081016105d482846105bd565b73ffffffffffffffffffffffffffffffffffffffff1690565b60006105d4826105f65600a265627a7a72305820a1a217ae56ad331cb1b067f48ce852eac864c3aa4a542cc4205d29c7034176316c6578706572696d656e74616cf500376080604052600d805461ffff19169055600060125560178054600160a060020a0319167374bb56b2ea8f4784acb6878fa8f9577dcdb1a0a31790553480156200004757600080fd5b50604051620030863803806200308683398101806040526200006d91908101906200041c565b8851600090620000859060119060208d0190620001a5565b5088516200009b9060039060208c0190620001a5565b508751620000b19060049060208b0190620001a5565b50600587905560068690558451620000d19060019060208801906200022a565b508351620000e79060029060208701906200022a565b5060078054600160a060020a03808616600160a060020a031992831617909255600880548584169216919091179055306000908152601460205260409020541615156200019557620001386200028a565b604051809103906000f08015801562000155573d6000803e3d6000fd5b5060138054600160a060020a03808416600160a060020a031992831617928390553060009081526014602052604090208054909216921691909117905590505b5050505050505050505062000619565b828054600181600116156101000203166002900490600052602060002090601f016020900481019282601f10620001e857805160ff191683800117855562000218565b8280016001018555821562000218579182015b8281111562000218578251825591602001919060010190620001fb565b50620002269291506200029b565b5090565b8280548282559060005260206000209081019282156200027c579160200282015b828111156200027c57825180516200026b918491602090910190620001a5565b50916020019190600101906200024b565b5062000226929150620002bb565b60405161048e8062002bf883390190565b620002b891905b80821115620002265760008155600101620002a2565b90565b620002b891905b8082111562000226576000620002d98282620002e3565b50600101620002c2565b50805460018160011615610100020316600290046000825580601f106200030b57506200032b565b601f0160209004906000526020600020908101906200032b91906200029b565b50565b60006200033c8251620005da565b9392505050565b6000601f820183136200035557600080fd5b81516200036c620003668262000591565b6200056a565b81815260209384019390925082018360005b83811015620003ae5781518601620003978882620003b8565b84525060209283019291909101906001016200037e565b5050505092915050565b6000601f82018313620003ca57600080fd5b8151620003db6200036682620005b2565b91508082526020830160208301858383011115620003f857600080fd5b62000405838284620005e6565b50505092915050565b60006200033c8251620002b8565b60008060008060008060008060006101208a8c0312156200043c57600080fd5b89516001604060020a038111156200045357600080fd5b620004618c828d01620003b8565b99505060208a01516001604060020a038111156200047e57600080fd5b6200048c8c828d01620003b8565b98505060408a01516001604060020a03811115620004a957600080fd5b620004b78c828d01620003b8565b9750506060620004ca8c828d016200040e565b9650506080620004dd8c828d016200040e565b95505060a08a01516001604060020a03811115620004fa57600080fd5b620005088c828d0162000343565b94505060c08a01516001604060020a038111156200052557600080fd5b620005338c828d0162000343565b93505060e0620005468c828d016200032e565b9250506101006200055a8c828d016200032e565b9150509295985092959850929598565b6040518181016001604060020a03811182821017156200058957600080fd5b604052919050565b60006001604060020a03821115620005a857600080fd5b5060209081020190565b60006001604060020a03821115620005c957600080fd5b506020601f91909101601f19160190565b600160a060020a031690565b60005b8381101562000603578181015183820152602001620005e9565b8381111562000613576000848401525b50505050565b6125cf80620006296000396000f3006080604052600436106102365763ffffffff60e060020a600035041662a70eee811461023857806306661abd1461026357806308f7e68f146102855780630d03b85e1461029a57806326ce1284146102ba5780632a412fdf146102cf5780633531fde8146102e45780633b957317146103065780634051ddac1461031b57806346d9b43914610343578063472393531461035857806349bd924c1461036d578063527042041461038d578063557ed1ba146103a257806356abef18146103c657806356dde0b6146103e85780635b4246d4146103fd578063632b1ae114610412578063693f4b07146104345780636c9fa59e146104545780636db5c8fd146104695780636ec39c951461047e57806372267ab81461049e5780637284e416146104be5780637ba354ff146104d35780637e88f6031461050057806380258e4714610515578063889637711461052a578063893d20e81461053f5780638da5cb5b1461055457806390b47d3e1461056957806397b16ab91461057e578063ab4fbb1f1461059e578063b1259505146105be578063bb17ed08146105de578063be9a6555146105fe578063c0013a7b14610613578063c399ec8814610628578063c9930ee01461063d578063cb90a39414610672578063ce8acbad14610687578063d04f119a1461069c578063d0e30db0146106b1578063d4efc251146106c6578063e037f889146106db578063e1cd8b2f146106f0578063e901a6591461071d578063ef430aa614610732578063f0d339f614610747575b005b34801561024457600080fd5b5061024d610767565b60405161025a919061234c565b60405180910390f35b34801561026f57600080fd5b50610278610772565b60405161025a9190612368565b34801561029157600080fd5b50610236610778565b3480156102a657600080fd5b506102366102b5366004611e36565b61077e565b3480156102c657600080fd5b506102786107ca565b3480156102db57600080fd5b506102786107d0565b3480156102f057600080fd5b506102f96107d6565b60405161025a919061233b565b34801561031257600080fd5b5061024d610adb565b34801561032757600080fd5b50610330610aef565b60405161025a9796959493929190612387565b34801561034f57600080fd5b5061024d610e03565b34801561036457600080fd5b5061024d610e11565b34801561037957600080fd5b50610236610388366004611eb4565b610e20565b34801561039957600080fd5b50610278610fc3565b3480156103ae57600080fd5b506103b7610fc9565b60405161025a93929190612493565b3480156103d257600080fd5b506103db610fd4565b60405161025a9190612290565b3480156103f457600080fd5b5061024d610fe3565b34801561040957600080fd5b5061027861105b565b34801561041e57600080fd5b50610427611061565b60405161025a9190612376565b34801561044057600080fd5b5061027861044f366004611f82565b6110ef565b34801561046057600080fd5b50610236611118565b34801561047557600080fd5b5061027861132e565b34801561048a57600080fd5b50610427610499366004611f82565b611334565b3480156104aa57600080fd5b506102366104b9366004611f82565b6113a8565b3480156104ca57600080fd5b506104276113b3565b3480156104df57600080fd5b506104f36104ee366004611f82565b61140e565b60405161025a919061235a565b34801561050c57600080fd5b50610236611441565b34801561052157600080fd5b50610427611754565b34801561053657600080fd5b506102786117ea565b34801561054b57600080fd5b506103db6117f0565b34801561056057600080fd5b506103db6117ff565b34801561057557600080fd5b506104f361180e565b34801561058a57600080fd5b50610236610599366004611fa0565b61181d565b3480156105aa57600080fd5b506103db6105b9366004611e36565b6118de565b3480156105ca57600080fd5b506104276105d9366004611f82565b6118f9565b3480156105ea57600080fd5b506103db6105f9366004611e5c565b611907565b34801561060a57600080fd5b5061027861193e565b34801561061f57600080fd5b506103db611944565b34801561063457600080fd5b50610278611960565b34801561064957600080fd5b5061065d610658366004611f82565b611966565b60405161025a99989796959493929190612408565b34801561067e57600080fd5b506104f3611a57565b34801561069357600080fd5b50610278611a66565b3480156106a857600080fd5b5061024d611a6c565b3480156106bd57600080fd5b50610278611a75565b3480156106d257600080fd5b50610278611a7b565b3480156106e757600080fd5b50610278611a81565b3480156106fc57600080fd5b5061071061070b366004611e36565b611a87565b60405161025a919061232a565b34801561072957600080fd5b5061024d611afd565b34801561073e57600080fd5b50610427611b0c565b34801561075357600080fd5b50610236610762366004611f82565b611b67565b600d5460ff16155b90565b60125481565b42600955565b30600090815260156020908152604082208054600181018255908352912001805473ffffffffffffffffffffffffffffffffffffffff1916600160a060020a0392909216919091179055565b600a5490565b600a5481565b60606000805480602002602001604051908101604052809291908181526020016000905b82821015610ad257600084815260209081902060408051600b8602909201805460026001821615610100026000190190911604601f810185900490940283016101809081019092526101608301848152929390928492909184918401828280156108a55780601f1061087a576101008083540402835291602001916108a5565b820191906000526020600020905b81548152906001019060200180831161088857829003601f168201915b5050505050815260200160018201805480602002602001604051908101604052809291908181526020016000905b8282101561097e5760008481526020908190208301805460408051601f600260001961010060018716150201909416939093049283018590048502810185019091528181529283018282801561096a5780601f1061093f5761010080835404028352916020019161096a565b820191906000526020600020905b81548152906001019060200180831161094d57829003601f168201915b5050505050815260200190600101906108d3565b50505050815260200160028201805480602002602001604051908101604052809291908181526020016000905b82821015610a565760008481526020908190208301805460408051601f6002600019610100600187161502019094169390930492830185900485028101850190915281815292830182828015610a425780601f10610a1757610100808354040283529160200191610a42565b820191906000526020600020905b815481529060010190602001808311610a2557829003601f168201915b5050505050815260200190600101906109ab565b505050908252506003820154600160a060020a03908116602080840191909152600484015490911660408301526005830154606083015260068301546080830152600783015460a0830152600883015460c0830152600983015460e0830152600a909201546101009091015290825260019290920191016107fa565b50505050905090565b6009546006544291909103908111905b5090565b606080600080600060608060036004600554600654600760009054906101000a9004600160a060020a031660016002868054600181600116156101000203166002900480601f016020809104026020016040519081016040528092919081815260200182805460018160011615610100020316600290048015610bb35780601f10610b8857610100808354040283529160200191610bb3565b820191906000526020600020905b815481529060010190602001808311610b9657829003601f168201915b5050895460408051602060026001851615610100026000190190941693909304601f8101849004840282018401909252818152959c508b945092508401905082828015610c415780601f10610c1657610100808354040283529160200191610c41565b820191906000526020600020905b815481529060010190602001808311610c2457829003601f168201915b5050505050955081805480602002602001604051908101604052809291908181526020016000905b82821015610d145760008481526020908190208301805460408051601f6002600019610100600187161502019094169390930492830185900485028101850190915281815292830182828015610d005780601f10610cd557610100808354040283529160200191610d00565b820191906000526020600020905b815481529060010190602001808311610ce357829003601f168201915b505050505081526020019060010190610c69565b50505050915080805480602002602001604051908101604052809291908181526020016000905b82821015610de65760008481526020908190208301805460408051601f6002600019610100600187161502019094169390930492830185900485028101850190915281815292830182828015610dd25780601f10610da757610100808354040283529160200191610dd2565b820191906000526020600020905b815481529060010190602001808311610db557829003601f168201915b505050505081526020019060010190610d3b565b505050509050965096509650965096509650965090919293949596565b600d54610100900460ff1681565b600d54610100900460ff161590565b6000610e2a611b8c565b826000191415610e465760128054600181019091559150610e4c565b60001991505b5060408051610160810182528881526020808201899052918101879052600160a060020a038087166060830152851660808201524260a0820152600060c0820181905260e0820181905261010082018190526101208201859052610140820184905280546001810180835591805282518051939492938593600b9093027f290decd9548b62a8d60345a988386fc84ba6bc95484008f6362f93160ef3e5630192610efa928492910190611bf9565b506020828101518051610f139260018501920190611c73565b5060408201518051610f2f916002840191602090910190611c73565b506060820151600382018054600160a060020a0392831673ffffffffffffffffffffffffffffffffffffffff1991821617909155608084015160048401805491909316911617905560a0820151600582015560c0820151600682015560e082015160078201556101008201516008820155610120820151600982015561014090910151600a90910155505050505050505050565b600b5481565b600954600654429192565b601354600160a060020a031681565b6000808060005481101561105657600460008281548110151561100257fe5b90600052602060002090600b020160060154101515611022576001909101905b600082111561104557600d805462ff000019166201000017905560019250611056565b600d805462ff000019169055600092505b505090565b600f5481565b6003805460408051602060026001851615610100026000190190941693909304601f810184900484028201840190925281815292918301828280156110e75780601f106110bc576101008083540402835291602001916110e7565b820191906000526020600020905b8154815290600101906020018083116110ca57829003601f168201915b505050505081565b600080828154811015156110ff57fe5b90600052602060002090600b0201600601549050919050565b60005b60005481101561116157600460008281548110151561113657fe5b90600052602060002090600b020160060154101515611159576010805460010190555b60010161111b565b60105460055481151561117057fe5b04600f555060005b60005481101561131e57600460008281548110151561119357fe5b90600052602060002090600b02016006015410151561131657601754306000908152601460205260408120548154600160a060020a039384169363e1f21c679392169190859081106111e157fe5b600091825260209091206003600b909202010154600f5460405160e060020a63ffffffff86160281526112229392600160a060020a031691906004016122cc565b602060405180830381600087803b15801561123c57600080fd5b505af1158015611250573d6000803e3d6000fd5b505050506040513d601f19601f820116820180604052506112749190810190611e96565b50306000908152601460205260408120548154600160a060020a039091169163ded6338b91849081106112a357fe5b600091825260209091206003600b909202010154600f5460405160e060020a63ffffffff85160281526112e392600160a060020a0316919060040161230f565b600060405180830381600087803b1580156112fd57600080fd5b505af1158015611311573d6000803e3d6000fd5b505050505b600101611178565b50600d805460ff19166001179055565b60065481565b600280548290811061134257fe5b600091825260209182902001805460408051601f60026000196101006001871615020190941693909304928301859004850281018501909152818152935090918301828280156110e75780601f106110bc576101008083540402835291602001916110e7565b600580549091019055565b6004805460408051602060026001851615610100026000190190941693909304601f810184900484028201840190925281815292918301828280156110e75780601f106110bc576101008083540402835291602001916110e7565b6000808281548110151561141e57fe5b60009182526020909120600b9091020160040154600160a060020a031692915050565b60008060095442039150600654821115611741575060005b306000908152601560205260409020548110156115e9576017543060009081526014602090815260408083205460159092529091208054600160a060020a039384169363e1f21c6793169190859081106114af57fe5b60009182526020909120015460405160e060020a63ffffffff85160281526114e79291600160a060020a0316906001906004016122a4565b602060405180830381600087803b15801561150157600080fd5b505af1158015611515573d6000803e3d6000fd5b505050506040513d601f19601f820116820180604052506115399190810190611e96565b503060009081526014602090815260408083205460159092529091208054600160a060020a039092169163ded6338b91908490811061157457fe5b60009182526020909120015460405160e060020a63ffffffff84160281526115ab91600160a060020a0316906001906004016122f4565b600060405180830381600087803b1580156115c557600080fd5b505af11580156115d9573d6000803e3d6000fd5b5050600190920191506114599050565b306000908152601560209081526040808320546005540360168190556017546014909352928190205460075491517fe1f21c67000000000000000000000000000000000000000000000000000000008152600160a060020a039384169463e1f21c679461165e949381169316916004016122cc565b602060405180830381600087803b15801561167857600080fd5b505af115801561168c573d6000803e3d6000fd5b505050506040513d601f19601f820116820180604052506116b09190810190611e96565b5030600090815260146020526040908190205460075460165492517fded6338b000000000000000000000000000000000000000000000000000000008152600160a060020a039283169363ded6338b9361170e93169160040161230f565b600060405180830381600087803b15801561172857600080fd5b505af115801561173c573d6000803e3d6000fd5b505050505b5050600d805461ff001916610100179055565b60118054604080516020601f60026000196101006001881615020190951694909404938401819004810282018101909252828152606093909290918301828280156117e05780601f106117b5576101008083540402835291602001916117e0565b820191906000526020600020905b8154815290600101906020018083116117c357829003601f168201915b5050505050905090565b600e5481565b600754600160a060020a031690565b600754600160a060020a031681565b600854600160a060020a031681565b600080548290811061182b57fe5b6000918252602082206007600b90920201018054600101905580548391908390811061185357fe5b6000918252602082206008600b9092020101805490920190915580548290811061187957fe5b90600052602060002090600b02016007015460008281548110151561189a57fe5b90600052602060002090600b0201600801548115156118b557fe5b046000828154811015156118c557fe5b90600052602060002090600b0201600601819055505050565b601460205260009081526040902054600160a060020a031681565b600180548290811061134257fe5b60156020528160005260406000208181548110151561192257fe5b600091825260209091200154600160a060020a03169150829050565b60095481565b30600090815260146020526040902054600160a060020a031690565b60055490565b600080548290811061197457fe5b6000918252602091829020600b919091020180546040805160026001841615610100026000190190931692909204601f810185900485028301850190915280825291935091839190830182828015611a0d5780601f106119e257610100808354040283529160200191611a0d565b820191906000526020600020905b8154815290600101906020018083116119f057829003601f168201915b50505060038401546004850154600586015460068701546007880154600889015460098a0154600a909a01549899600160a060020a03968716999590961697509295509093909289565b600854600160a060020a031690565b60105481565b600d5460ff1681565b60055481565b600c5481565b60165481565b600160a060020a038116600090815260156020908152604091829020805483518184028101840190945280845260609392830182828015611af157602002820191906000526020600020905b8154600160a060020a03168152600190910190602001808311611ad3575b50505050509050919050565b600d5462010000900460ff1681565b6011805460408051602060026001851615610100026000190190941693909304601f810184900484028201840190925281815292918301828280156110e75780601f106110bc576101008083540402835291602001916110e7565b600b805460010190819055600c8054830190819055811515611b8557fe5b04600a5550565b610160604051908101604052806060815260200160608152602001606081526020016000600160a060020a031681526020016000600160a060020a031681526020016000815260200160008152602001600081526020016000815260200160008152602001600081525090565b828054600181600116156101000203166002900490600052602060002090601f016020900481019282601f10611c3a57805160ff1916838001178555611c67565b82800160010185558215611c67579182015b82811115611c67578251825591602001919060010190611c4c565b50610aeb929150611ccc565b828054828255906000526020600020908101928215611cc0579160200282015b82811115611cc05782518051611cb0918491602090910190611bf9565b5091602001919060010190611c93565b50610aeb929150611ce6565b61076f91905b80821115610aeb5760008155600101611cd2565b61076f91905b80821115610aeb576000611d008282611d09565b50600101611cec565b50805460018160011615610100020316600290046000825580601f10611d2f5750611d4d565b601f016020900490600052602060002090810190611d4d9190611ccc565b50565b6000611d5c8235612528565b9392505050565b6000601f82018313611d7457600080fd5b8135611d87611d82826124d5565b6124ae565b81815260209384019390925082018360005b83811015611dc55781358601611daf8882611de7565b8452506020928301929190910190600101611d99565b5050505092915050565b6000611d5c8251612534565b6000611d5c823561076f565b6000601f82018313611df857600080fd5b8135611e06611d82826124f6565b91508082526020830160208301858383011115611e2257600080fd5b611e2d83828461254f565b50505092915050565b600060208284031215611e4857600080fd5b6000611e548484611d50565b949350505050565b60008060408385031215611e6f57600080fd5b6000611e7b8585611d50565b9250506020611e8c85828601611ddb565b9150509250929050565b600060208284031215611ea857600080fd5b6000611e548484611dcf565b60008060008060008060c08789031215611ecd57600080fd5b863567ffffffffffffffff811115611ee457600080fd5b611ef089828a01611de7565b965050602087013567ffffffffffffffff811115611f0d57600080fd5b611f1989828a01611d63565b955050604087013567ffffffffffffffff811115611f3657600080fd5b611f4289828a01611d63565b9450506060611f5389828a01611d50565b9350506080611f6489828a01611d50565b92505060a0611f7589828a01611ddb565b9150509295509295509295565b600060208284031215611f9457600080fd5b6000611e548484611ddb565b60008060408385031215611fb357600080fd5b6000611e7b8585611ddb565b611fc881612528565b82525050565b6000611fd982612524565b808452602084019350611feb8361251e565b60005b8281101561201b57612001868351611fbf565b61200a8261251e565b602096909601959150600101611fee565b5093949350505050565b600061203082612524565b808452602084019350836020820285016120498561251e565b60005b84811015612080578383038852612064838351612166565b925061206f8261251e565b60209890980197915060010161204c565b50909695505050505050565b600061209782612524565b808452602084019350836020820285016120b08561251e565b60005b848110156120805783830388526120cb838351612166565b92506120d68261251e565b6020989098019791506001016120b3565b60006120f282612524565b8084526020840193508360208202850161210b8561251e565b60005b8481101561208057838303885261212683835161219b565b92506121318261251e565b60209890980197915060010161210e565b611fc881612534565b611fc881612539565b611fc88161076f565b611fc881612544565b600061217182612524565b80845261218581602086016020860161255b565b61218e8161258b565b9093016020019392505050565b8051610160808452600091908401906121b48282612166565b915050602083015184820360208601526121ce828261208c565b915050604083015184820360408601526121e8828261208c565b91505060608301516121fd6060860182611fbf565b506080830151612210608086018261214b565b5060a083015161222360a0860182612154565b5060c083015161223660c0860182612154565b5060e083015161224960e0860182612154565b5061010083015161225e610100860182612154565b50610120830151612273610120860182612154565b50610140830151612288610140860182612154565b509392505050565b6020810161229e8284611fbf565b92915050565b606081016122b28286611fbf565b6122bf6020830185611fbf565b611e54604083018461215d565b606081016122da8286611fbf565b6122e76020830185611fbf565b611e546040830184612154565b604081016123028285611fbf565b611d5c602083018461215d565b6040810161231d8285611fbf565b611d5c6020830184612154565b60208082528101611d5c8184611fce565b60208082528101611d5c81846120e7565b6020810161229e8284612142565b6020810161229e828461214b565b6020810161229e8284612154565b60208082528101611d5c8184612166565b60e08082528101612398818a612166565b905081810360208301526123ac8189612166565b90506123bb6040830188612154565b6123c86060830187612154565b6123d56080830186611fbf565b81810360a08301526123e78185612025565b905081810360c08301526123fb8184612025565b9998505050505050505050565b610120808252810161241a818c612166565b9050612429602083018b611fbf565b612436604083018a61214b565b6124436060830189612154565b6124506080830188612154565b61245d60a0830187612154565b61246a60c0830186612154565b61247760e0830185612154565b612485610100830184612154565b9a9950505050505050505050565b606081016124a18286612154565b6122e76020830185612154565b60405181810167ffffffffffffffff811182821017156124cd57600080fd5b604052919050565b600067ffffffffffffffff8211156124ec57600080fd5b5060209081020190565b600067ffffffffffffffff82111561250d57600080fd5b506020601f91909101601f19160190565b60200190565b5190565b600160a060020a031690565b151590565b600061229e82612528565b600061229e8261076f565b82818337506000910152565b60005b8381101561257657818101518382015260200161255e565b83811115612585576000848401525b50505050565b601f01601f1916905600a265627a7a723058204cd34d0324335cd07fc37f84120fba3e87e79d57a0b4899b83c79777662c93586c6578706572696d656e74616cf50037608060405260008054600160a060020a0319167374bb56b2ea8f4784acb6878fa8f9577dcdb1a0a317905534801561003657600080fd5b50610448806100466000396000f3006080604052600436106100615763ffffffff7c010000000000000000000000000000000000000000000000000000000060003504166327e235e3811461006657806347e7ef241461009c578063d3ef7740146100be578063ded6338b146100de575b600080fd5b34801561007257600080fd5b5061008661008136600461031b565b6100fe565b60405161009391906103d9565b60405180910390f35b3480156100a857600080fd5b506100bc6100b7366004610341565b610110565b005b3480156100ca57600080fd5b506100bc6100d936600461031b565b6101d6565b3480156100ea57600080fd5b506100bc6100f9366004610341565b610296565b60016020526000908152604090205481565b73ffffffffffffffffffffffffffffffffffffffff808316600090815260016020526040808220805485019055905490517f23b872dd0000000000000000000000000000000000000000000000000000000081529116906323b872dd9061017f908590309086906004016103b1565b602060405180830381600087803b15801561019957600080fd5b505af11580156101ad573d6000803e3d6000fd5b505050506040513d601f19601f820116820180604052506101d1919081019061037b565b505050565b73ffffffffffffffffffffffffffffffffffffffff808216600090815260016020526040808220829055815490517f23b872dd0000000000000000000000000000000000000000000000000000000081529216916323b872dd9161024091309186916004016103b1565b602060405180830381600087803b15801561025a57600080fd5b505af115801561026e573d6000803e3d6000fd5b505050506040513d601f19601f82011682018060405250610292919081019061037b565b5050565b6000546040517f23b872dd00000000000000000000000000000000000000000000000000000000815273ffffffffffffffffffffffffffffffffffffffff909116906323b872dd9061017f903090869086906004016103b1565b60006102fc82356103ed565b9392505050565b60006102fc8251610409565b60006102fc8235610406565b60006020828403121561032d57600080fd5b600061033984846102f0565b949350505050565b6000806040838503121561035457600080fd5b600061036085856102f0565b92505060206103718582860161030f565b9150509250929050565b60006020828403121561038d57600080fd5b60006103398484610303565b6103a2816103ed565b82525050565b6103a281610406565b606081016103bf8286610399565b6103cc6020830185610399565b61033960408301846103a8565b602081016103e782846103a8565b92915050565b73ffffffffffffffffffffffffffffffffffffffff1690565b90565b1515905600a265627a7a723058204e4dc841a777ad08dd5167e2f0d158b8281f478646b09ae30e44226dbc961ab76c6578706572696d656e74616cf50037a265627a7a72305820fb9c9475721f3a3b70b4e57191fdf43cc95528ef81c8733b36f24fd48cda32666c6578706572696d656e74616cf50037",
  "source": "pragma solidity ^0.4.25;\npragma experimental ABIEncoderV2;\nimport \"./ETLToken.sol\";\n\ncontract contractB {\n    ETLToken tokenContract = ETLToken(0x74Bb56B2Ea8F4784acB6878FA8f9577dCdb1a0a3);\n    mapping ( address => uint256 ) public balances;\n\n    function deposit(address _user, uint tokens) public {\n\n        // add the deposited tokens into existing balance \n        balances[_user]+= tokens;\n\n        // transfer the tokens from the sender to this contract\n        tokenContract.transferFrom(_user, address(this), tokens);\n    }\n\n    function share(address _user, uint tokens) public {\n        tokenContract.transferFrom(address(this), _user, tokens);\n    }\n\n    function returnTokens(address _user) public {\n        balances[_user] = 0;\n        tokenContract.transferFrom(address(this), _user, balances[_user]);\n    }\n\n}\n\ncontract QuestionFactory {\n    address[] private deployedQuestions;\n    mapping(address => address) public users;\n    mapping(address => address) public owner;\n    address public contractbinstance;\n\n    ETLToken tokenContract = ETLToken(0x74Bb56B2Ea8F4784acB6878FA8f9577dCdb1a0a3);\n\n    function createQuestion(string category, string questionTitle, string description, uint deposit, \n                    uint maxDuration, string[] fileHashesQuestion, string[] fileNamesQuestion) public {\n        if (users[msg.sender] == 0) {\n            address profile = new Profile(msg.sender);\n            users[msg.sender] = profile;\n        }\n\n        require(deposit>0, \"Deposit cannot be 0\");\n        require(deposit<=Profile(users[msg.sender]).getToken(msg.sender), \"Insufficient tokens\");\n        address newQuestion = new Question(category, questionTitle, description, deposit, maxDuration,\n                                    fileHashesQuestion, fileNamesQuestion, msg.sender, users[msg.sender]);\n        deployedQuestions.push(newQuestion);\n        \n        Question question = Question(newQuestion);\n        //transfer deposit from user to contractB instance\n        contractbinstance = question.getContractBInstance();\n        tokenContract.approve(msg.sender, contractbinstance, deposit); \n        contractB(contractbinstance).deposit(msg.sender, deposit);\n\n        Profile(users[msg.sender]).increaseNumOfQues();\n        question.postQuestion();  //Save posted time here\n        \n\n    }\n\n    function createAnswer(address _question, string _reply, string[] _fileHashes, string[] _fileNames, int _parent) public {\n        if (users[msg.sender] == 0) {\n            address profile = new Profile(msg.sender);\n            users[msg.sender] = profile;\n        }   \n        Question question = Question(_question);\n        question.answer(_reply, _fileHashes, _fileNames, msg.sender, users[msg.sender], _parent);\n        Profile(users[msg.sender]).increaseNumOfAns();\n    }\n\n    function ratingQuestionAt(address _question, uint _ratingQuestion) public payable{\n        if (users[msg.sender] == 0) {\n            address profile = new Profile(msg.sender);\n            users[msg.sender] = profile;\n        }\n\n        Question question = Question(_question);\n        contractbinstance = question.getContractBInstance();\n        //Require user to have at least one token to rate question\n        require(1<Profile(users[msg.sender]).getToken(msg.sender), \"Insufficient tokens\");\n        \n        //transfer 1 token as deposit from user to contractB instance to rate question\n        tokenContract.approve(msg.sender, contractbinstance, 1); \n        contractB(contractbinstance).deposit(msg.sender, 1);\n        \n        question.ratingQuestion(_ratingQuestion); \n        question.updateDeposite(1);\n        Profile(users[msg.sender]).updateToken(0, 1);\n        Profile(question.getOwnerP()).increaseSumOfQuesRate(_ratingQuestion);\n        \n        //store who deposited tokens\n        question.setQuestionDepositers(msg.sender);\n    \n    }\n\n    function ratingAnswerAt(address _question, uint _ratingAnswer, uint _index) public payable {\n        if (users[msg.sender] == 0) {\n            address profile = new Profile(msg.sender);\n            users[msg.sender] = profile;\n        }\n\n        Question question = Question(_question);\n        //rating answer doesnt require deposit\n        question.updateAnswerRate(_ratingAnswer, _index);\n        Profile(question.getAnswererP(_index)).increaseSumOfAnsRate(_ratingAnswer);\n    }\n\n\n    function shareTokenAt(address _question) public payable {\n        if (users[msg.sender] == 0) {\n            address profile = new Profile(msg.sender);\n            users[msg.sender] = profile;\n        }\n\n        Question question = Question(_question);\n        question.shareToken();\n    }\n\n    function returnDepositAt(address _question) public payable {\n        if (users[msg.sender] == 0) {\n            address profile = new Profile(msg.sender);\n            users[msg.sender] = profile;\n        }\n\n        Question question = Question(_question);\n        question.returnDeposit();\n    }\n\n    function hasProfile(address _user) public returns(bool) {\n        if (users[_user] == 0) {\n            return false;\n        } else {\n            return true;\n        }\n    }\n\n    function getProfile(address _user) public returns(address) {\n        require(users[_user] != 0);\n        return users[_user];\n    }\n    \n    function getDeployedQuestions() public view returns(address[]) {\n        return deployedQuestions;\n    }\n\n}    \n\n\ncontract Question {\n\n    struct Answer {\n        string replyHash;\n        string[] fileHashes;\n        string[] fileNames;\n        address answerer;\n        Profile answererP;\n        uint answerTime;\n        uint answerRate; \n        uint answerNumRate;\n        uint answerSumRate;\n        int parent;\n        int id;       //Keep track parent answers\n    }\n\n    Answer[] public answerList; \n    string[] public fileHashesQuestion;\n    string[] public fileNamesQuestion;\n    string public questionTitle;\n    string public description;\n    uint public deposit;\n    uint public maxDuration;\n    address public owner;\n    Profile public ownerP;\n    uint public start;\n    uint public questionRate;\n    uint public numRate;\n    uint public sumRate;\n    bool public alreadyShareToken = false;\n    bool public alreadyReturnDeposit =  false;\n    bool public numAnswer4Bool;\n    uint public tokenSum;\n    uint public proportion;\n    uint public numPeople;\n    string public category;\n    int public count = 0;\n    address public contractbinstance;\n    //map each question to its own contractB instance\n    mapping(address => address) public questionContractB;\n    mapping(address => address[]) public questionDepositers;\n    uint256 public initialDeposit;\n    ETLToken tokenContract = ETLToken(0x74Bb56B2Ea8F4784acB6878FA8f9577dCdb1a0a3);\n\n\n    //fallback function\n    function() payable { }\n    \n    function Question (string _category, string _questionTitle, string _description, uint _deposit, uint _maxDuration, string[] _fileHashesQuestion, string[] _fileNamesQuestion, address _owner, address _ownerP) public {\n        category = _category;\n        questionTitle = _questionTitle;\n        description = _description;\n        deposit = _deposit;\n        maxDuration = _maxDuration;\n        fileHashesQuestion = _fileHashesQuestion;\n        fileNamesQuestion = _fileNamesQuestion;\n        owner = _owner;\n        ownerP = Profile(_ownerP);\n        \n        //create contractB instance each time a new Question is created\n        if (questionContractB[this] == 0) {\n            contractB contractb = new contractB();\n            contractbinstance = contractb;\n            questionContractB[this] = contractbinstance;\n        }\n         \n    }\n    \n    function getContractBInstance() public returns (address) {\n        return questionContractB[this];\n    }\n\n    function getSummary() public view returns (\n        string, string, uint, uint, address, string[], string[]\n    ) {\n        return(\n            questionTitle,\n            description,\n            deposit,\n            maxDuration,\n            owner,\n            fileHashesQuestion,\n            fileNamesQuestion\n        );\n    }\n\n    function getCategory() public view returns (string) {\n        return category;\n    }\n\n    function getOwner() public view returns (address){\n        return owner;\n    }\n\n    function getOwnerP() public view returns (Profile){\n        return ownerP;\n    }\n    \n    function getAnswererP(uint _index) public view returns (Profile){\n        return answerList[_index].answererP;\n    }\n\n    function getTime() public view returns (uint, uint, uint) {\n        return(\n            start,\n            now,\n            maxDuration\n        );\n    }\n\n    function ratingQuestion(uint _ratingQuestion) public {\n        numRate++;\n        sumRate = sumRate + _ratingQuestion;\n        questionRate = sumRate/numRate;\n    }\n\n    function getRatingQuestion() public returns (uint){\n        return questionRate;\n    }\n\n    function updateDeposite(uint _value) public {\n        deposit = deposit + _value;\n    }\n\n    function getDeposit() public returns (uint){\n        return deposit;\n    }\n    \n    function getQuestionDepositers(address _question) public view returns (address[]) {\n        return questionDepositers[_question];\n    }\n    \n    function setQuestionDepositers(address _questionDepositer) public {\n        questionDepositers[this].push(_questionDepositer);\n    }\n\n    function isOverdue() public returns (bool) {\n        uint publishingTime = now - start;\n\n        return publishingTime > maxDuration;\n\n    }\n\n    function getCheckShareToken() returns(bool){\n        return (!alreadyShareToken);\n    }\n\n    function getCheckReturnDeposit() returns(bool) {\n        return(!alreadyReturnDeposit);\n    }\n\n    function getNumAnswer4() public view returns (bool){\n        uint getNumAnswer4;\n        for (uint i = 0;i < answerList.length;i++) {\n            if(answerList[i].answerRate >= 4) \n                getNumAnswer4++;\n            if(getNumAnswer4>0) {\n                numAnswer4Bool = true;\n                return true; \n            }\n            else {\n                numAnswer4Bool = false;\n                return false;\n            }\n        }\n    }\n\n    function returnDeposit() public {\n        uint publishingTime = now - start;\n\n        if (publishingTime > maxDuration) {\n            for (uint i=0; i<questionDepositers[this].length;i++) {\n                tokenContract.approve(questionContractB[this], questionDepositers[this][i], 1); \n                contractB(questionContractB[this]).share(questionDepositers[this][i], 1);\n            }\n            //transfer initial deposit back to owner of question\n            initialDeposit = deposit - questionDepositers[this].length;\n            tokenContract.approve(questionContractB[this], owner, initialDeposit); \n            contractB(questionContractB[this]).share(owner, initialDeposit);\n        \n        }\n\n        alreadyReturnDeposit = true;\n    }\n\n    function shareToken() public {\n        for (uint i = 0;i < answerList.length;i++) {\n            if(answerList[i].answerRate >= 4){ \n                numPeople++;\n            }\n        }\n        proportion = deposit/numPeople;\n        for (i = 0; i < answerList.length;i++) {\n            if(answerList[i].answerRate >= 4){ //Only take 4 stars above into account\n                tokenContract.approve(questionContractB[this], answerList[i].answerer, proportion); \n                contractB(questionContractB[this]).share(answerList[i].answerer, proportion);\n\n            }\n        }\n\n        alreadyShareToken = true;\n    }\n    \n    function postQuestion() public {\n        start = now;   \n    }\n\n    function answer(string _reply, string[] _fileHashes, string[] _fileNames, address _answerer, address _answererP, int _parent) public {\n        int _id;\n        if (_parent == -1) {   //a parent answer\n            _id = count;   \n            count++;\n        } else {               //a child answer\n            _id = -1;\n        }\n\n        Answer memory newAnswer = Answer({\n            replyHash: _reply,\n            fileHashes: _fileHashes,\n            fileNames: _fileNames,\n            answerer: _answerer,\n            answererP: Profile(_answererP),\n            answerTime: now,\n            answerRate: 0,\n            answerNumRate: 0,\n            answerSumRate: 0,\n            parent: _parent,\n            id: _id\n        }); \n        \n        answerList.push(newAnswer);\n    } \n\n\n    function getAnswerList() public view returns (Answer[]) {\n        return answerList;\n    }\n\n    function updateAnswerRate(uint _value, uint index) public {\n        answerList[index].answerNumRate ++;\n        answerList[index].answerSumRate += _value;\n        answerList[index].answerRate = answerList[index].answerSumRate/answerList[index].answerNumRate;\n    }\n\n    function getAnswerRate(uint index) public view returns (uint) {\n        return answerList[index].answerRate;\n    }\n\n}\n\ncontract Profile {\n    ETLToken public tokenContract = ETLToken(0x74Bb56B2Ea8F4784acB6878FA8f9577dCdb1a0a3);\n    uint public token;\n    uint public numOfQues;\n    uint public sumOfQuesRate;\n    uint public numOfAns;\n    uint public sumOfAnsRate;\n    uint public avgQuesRate;\n    uint public avgAnsRate;\n    address public user;\n    \n    function Profile (address _user) public {\n        user = _user;\n    }\n\n    function increaseNumOfQues() public {\n        numOfQues++;\n    }\n\n    function increaseNumOfAns() public {\n        numOfAns++;\n    }\n\n    function increaseSumOfQuesRate(uint _rate) public {\n        sumOfQuesRate += _rate;\n    }\n\n    function increaseSumOfAnsRate(uint _rate) public {\n        sumOfAnsRate += _rate;\n    }\n\n    function getavgQuesRate() public returns (uint){\n        if (numOfQues == 0) {\n            avgQuesRate = 0;\n            return avgQuesRate;\n        }\n        else {\n            avgQuesRate = sumOfQuesRate/numOfQues;\n            return avgQuesRate;\n        }\n    }\n\n    function getavgAnsRate() public returns (uint){\n        if (numOfAns == 0) {\n            avgAnsRate = 0;\n            return avgAnsRate;\n        }\n        else {\n            avgAnsRate = sumOfAnsRate/numOfAns;\n            return avgAnsRate;\n        }\n    }\n\n    function getNumOfQues() public returns (uint){\n        return numOfQues;\n    }\n\n    function getNumOfAns() public returns (uint){\n        return numOfAns;\n    }\n\n    function updateToken(uint addOrSub, uint _token) public {\n        if (addOrSub==1){ //1 is add\n            token += (_token);\n        }\n        else if(addOrSub==0){ // 0 is sub\n            token -= (_token);\n        }\n    }\n\n    function getToken(address _user) public returns(uint){\n        token = tokenContract.balanceOf(_user);\n        \n        return token;\n\n\n    }\n\n\n}\n\n\n\n\n",
  "sourcePath": "/Users/joelytj/Desktop/EtherLearn/contracts/Question.sol",
  "compiler": {
    "name": "solc",
    "version": "0.4.26+commit.4563c3fc.Emscripten.clang"
  },
  "schemaVersion": "3.4.1",
  "updatedAt": "2021-07-06T10:38:03.335Z",
  "networkType": "ethereum",
  "devdoc": {
    "methods": {}
  },
  "userdoc": {
    "methods": {}
  }
}