{
  "contractName": "contractB",
  "abi": [
    {
      "constant": true,
      "inputs": [
        {
          "name": "",
          "type": "address"
        }
      ],
      "name": "balances",
      "outputs": [
        {
          "name": "",
          "type": "uint256"
        }
      ],
      "payable": false,
      "stateMutability": "view",
      "type": "function"
    },
    {
      "constant": true,
      "inputs": [],
      "name": "thisAddress",
      "outputs": [
        {
          "name": "",
          "type": "address"
        }
      ],
      "payable": false,
      "stateMutability": "view",
      "type": "function"
    },
    {
      "constant": true,
      "inputs": [],
      "name": "msgSender",
      "outputs": [
        {
          "name": "",
          "type": "address"
        }
      ],
      "payable": false,
      "stateMutability": "view",
      "type": "function"
    },
    {
      "constant": false,
      "inputs": [
        {
          "name": "tokens",
          "type": "uint256"
        }
      ],
      "name": "depositing",
      "outputs": [],
      "payable": false,
      "stateMutability": "nonpayable",
      "type": "function"
    },
    {
      "constant": false,
      "inputs": [],
      "name": "returnTokens",
      "outputs": [],
      "payable": false,
      "stateMutability": "nonpayable",
      "type": "function"
    }
  ],
  "bytecode": "0x608060405260008054600160a060020a03199081163317909155600180548216301790556002805490911673d9145cce52d386f254917e481eb44e9943f3913817905534801561004e57600080fd5b5061045f8061005e6000396000f30060806040526004361061006c5763ffffffff7c010000000000000000000000000000000000000000000000000000000060003504166327e235e381146100715780632e191766146100a7578063d4dca69b146100c9578063d737d0c7146100eb578063f9718fc814610100575b600080fd5b34801561007d57600080fd5b5061009161008c366004610311565b610115565b60405161009e91906103eb565b60405180910390f35b3480156100b357600080fd5b506100c76100c2366004610355565b610127565b005b3480156100d557600080fd5b506100de6101f6565b60405161009e9190610394565b3480156100f757600080fd5b506100de610212565b34801561010c57600080fd5b506100c761022e565b60036020526000908152604090205481565b336000818152600360205260409081902080548401905560025490517f23b872dd00000000000000000000000000000000000000000000000000000000815273ffffffffffffffffffffffffffffffffffffffff909116916323b872dd916101969190309086906004016103a8565b602060405180830381600087803b1580156101b057600080fd5b505af11580156101c4573d6000803e3d6000fd5b505050506040513d601f19601f820116820180604052506101e89190810190610337565b15156101f357600080fd5b50565b60015473ffffffffffffffffffffffffffffffffffffffff1681565b60005473ffffffffffffffffffffffffffffffffffffffff1681565b3360008181526003602052604080822082905560025490517fa9059cbb00000000000000000000000000000000000000000000000000000000815273ffffffffffffffffffffffffffffffffffffffff9091169263a9059cbb92610294926004016103d0565b602060405180830381600087803b1580156102ae57600080fd5b505af11580156102c2573d6000803e3d6000fd5b505050506040513d601f19601f820116820180604052506101f39190810190610337565b60006102f282356103f9565b9392505050565b60006102f28251610415565b60006102f28235610412565b60006020828403121561032357600080fd5b600061032f84846102e6565b949350505050565b60006020828403121561034957600080fd5b600061032f84846102f9565b60006020828403121561036757600080fd5b600061032f8484610305565b61037c816103f9565b82525050565b61037c8161041a565b61037c81610412565b602081016103a28284610373565b92915050565b606081016103b68286610373565b6103c36020830185610382565b61032f604083018461038b565b604081016103de8285610373565b6102f2602083018461038b565b602081016103a2828461038b565b73ffffffffffffffffffffffffffffffffffffffff1690565b90565b151590565b60006103a2826103f95600a265627a7a723058209c4932afb8ee2bdf8bc10f2340e5cc941a9dcad472c83018895896953f0699db6c6578706572696d656e74616cf50037",
  "source": "pragma solidity ^0.4.25;\npragma experimental ABIEncoderV2;\nimport \"./ETLToken.sol\";\n// import \"https://github.com/OpenZeppelin/openzeppelin-contracts/blob/v3.1.0/contracts/token/ERC20/ERC20.sol\";\n// import \"./IERC20.sol\";\n// import './QKC.sol';\n\ncontract TransferToken {\n    address public msgSender = msg.sender;\n\n    function transfer() external {\n        ETLToken tokenContract = ETLToken(0x29e5416B784E71Fd157E898E9cfc767ec3149972);\n        tokenContract.transfer(msg.sender, 100);\n    }\n\n    function transferFrom(address _recipient, uint _amount) external {\n        ETLToken tokenContract = ETLToken(0x29e5416B784E71Fd157E898E9cfc767ec3149972);\n        tokenContract.transferFrom(msg.sender, _recipient, _amount);\n    }\n}\n\ncontract contractB {\n    address public msgSender = msg.sender;\n    address public thisAddress = this;\n    ETLToken tokenContract = ETLToken(0xd9145CCE52D386f254917e481eB44e9943F39138);\n    mapping ( address => uint256 ) public balances;\n\n    function depositing(uint tokens) public {\n\n        // add the deposited tokens into existing balance \n        balances[msg.sender]+= tokens;\n\n        // transfer the tokens from the sender to this contract\n        require(tokenContract.transferFrom(msg.sender, this, tokens));\n    }\n\n    function returnTokens() public {\n        balances[msg.sender] = 0;\n        tokenContract.transfer(msg.sender, balances[msg.sender]);\n    }\n\n}\n\ncontract QuestionFactory {\n    address[] private deployedQuestions;\n    mapping(address => address) public users;\n    address public msgSender = msg.sender;\n    ETLToken tokenContract = ETLToken(0xd9145CCE52D386f254917e481eB44e9943F39138);\n\n    function createQuestion(string category, string questionTitle, string description, uint deposit, \n                    uint maxDuration, string[] fileHashesQuestion, string[] fileNamesQuestion) public {\n        if (users[msg.sender] == 0) {\n            //default value 0 means no assigned value; create a profile for the user address\n            address profile = new Profile(msg.sender);\n            users[msg.sender] = profile;\n        }    \n        // require(deposit<Profile(users[msg.sender]).getToken(), \"deposit<getToken error\"); //think have to fix this line \n        address newQuestion = new Question(category, questionTitle, description, deposit, maxDuration,\n                                    fileHashesQuestion, fileNamesQuestion, msg.sender, users[msg.sender]);\n        deployedQuestions.push(newQuestion);\n        \n        Question question = Question(newQuestion);\n\n        contractB contractb = contractB(0x9E627DaBdaC07A61A281A2c9d650A5983f064708);\n        require(tokenContract.approve(0x9E627DaBdaC07A61A281A2c9d650A5983f064708, deposit));\n        contractb.depositing(deposit);\n\n\n        // question.transfer(address(this), deposit);\n        \n        //\n        // ETLToken tokenContract = ETLToken(0xF81A07E1257Db8a259631c3Bf8555279696ed7E1);\n\n        // require(tokenContract.approve(address(this), deposit), \"gg\");\n        // require(tokenContract.transferFrom(msg.sender, address(this), deposit),\"gg\");\n        // tokenContract.approve(address(this), deposit);\n        // tokenContract.transferFrom(msg.sender, address(this), deposit);\n        //\n\n        // tokenContract.approveAndCall(msg.sender, deposit);\n\n        // question.transfer(msg.value); //uses question because of fallback function () payable {}\n        // question.transfer(msg.sender, deposit);\n        Profile(users[msg.sender]).updateToken(0, deposit); //0 is subtract deposit from number of tokens of profile\n        Profile(users[msg.sender]).increaseNumOfQues();\n        question.postQuestion();  //Save posted time here\n        \n    }\n\n    // function receiveApproval(address _sender, uint256 _value, ETLToken _tokenContract) public {\n    //     require(_tokenContract == tokenContract);\n    //     require(tokenContract.transferFrom(_sender, address(this), _value));\n    // }\n\n    function createAnswer(address _question, string _reply, string[] _fileHashes, string[] _fileNames, int _parent) public {\n        if (users[msg.sender] == 0) {\n            address profile = new Profile(msg.sender);\n            users[msg.sender] = profile;\n        }   \n        Question question = Question(_question);\n        question.answer(_reply, _fileHashes, _fileNames, msg.sender, users[msg.sender], _parent);\n        Profile(users[msg.sender]).increaseNumOfAns();\n    }\n\n    function ratingQuestionAt(address _question, uint _ratingQuestion) public payable{\n        if (users[msg.sender] == 0) {\n            address profile = new Profile(msg.sender);\n            users[msg.sender] = profile;\n        }\n\n        Question question = Question(_question);\n        question.transfer(msg.value);\n        question.ratingQuestion(_ratingQuestion); \n        question.updateDeposite(1);\n        Profile(users[msg.sender]).updateToken(0, 1);\n        Profile(question.getOwnerP()).increaseSumOfQuesRate(_ratingQuestion);\n    }\n\n    function ratingAnswerAt(address _question, uint _ratingAnswer, uint _index) public payable {\n        if (users[msg.sender] == 0) {\n            address profile = new Profile(msg.sender);\n            users[msg.sender] = profile;\n        }\n\n        Question question = Question(_question);\n        question.transfer(msg.value);\n        question.updateAnswerRate(_ratingAnswer, _index);\n        Profile(question.getAnswererP(_index)).increaseSumOfAnsRate(_ratingAnswer);\n    }\n\n\n    function shareTokenAt(address _question) public payable {\n        if (users[msg.sender] == 0) {\n            address profile = new Profile(msg.sender);\n            users[msg.sender] = profile;\n        }\n\n        Question question = Question(_question);\n        question.shareToken();\n    }\n\n    function hasProfile(address _user) public returns(bool) {\n        if (users[_user] == 0) {\n            return false;\n        } else {\n            return true;\n        }\n    }\n\n    function getProfile(address _user) public returns(address) {\n        require(users[_user] != 0);\n        return users[_user];\n    }\n    \n    function getDeployedQuestions() public view returns(address[]) {\n        return deployedQuestions;\n    }\n\n\n}    \n\n\ncontract Question {\n\n    struct Answer {\n        string replyHash;\n        string[] fileHashes;\n        string[] fileNames;\n        address answerer;\n        Profile answererP;\n        uint answerTime;\n        uint answerRate; \n        uint answerNumRate;\n        uint answerSumRate;\n        int parent;\n        int id;       //Keep track parent answers\n    }\n\n    Answer[] public answerList; \n    string[] public fileHashesQuestion;\n    string[] public fileNamesQuestion;\n    string public questionTitle;\n    string public description;\n    uint public deposit;\n    uint public maxDuration;\n    address public owner;\n    Profile public ownerP;\n    uint public start;\n    uint public questionRate;\n    uint public numRate;\n    uint public sumRate;\n    bool public alreadyShareToken = false;\n    uint public tokenSum;\n    uint public proportion;\n    uint public numPeople;\n    string public category;\n    int public count = 0;\n\n    function() payable { }\n    \n    function Question (string _category, string _questionTitle, string _description, uint _deposit, uint _maxDuration, string[] _fileHashesQuestion, string[] _fileNamesQuestion, address _owner, address _ownerP) public {\n        category = _category;\n        questionTitle = _questionTitle;\n        description = _description;\n        deposit = _deposit;\n        maxDuration = _maxDuration;\n        fileHashesQuestion = _fileHashesQuestion;\n        fileNamesQuestion = _fileNamesQuestion;\n        owner = _owner;\n        ownerP = Profile(_ownerP);\n    }\n\n    function getSummary() public view returns (\n        string, string, uint, uint, address, string[], string[]\n    ) {\n        return(\n            questionTitle,\n            description,\n            deposit,\n            maxDuration,\n            owner,\n            fileHashesQuestion,\n            fileNamesQuestion\n        );\n    }\n\n    function getCategory() public view returns (string) {\n        return category;\n    }\n\n    function getOwner() public view returns (address){\n        return owner;\n    }\n\n    function getOwnerP() public view returns (Profile){\n        return ownerP;\n    }\n    \n    function getAnswererP(uint _index) public view returns (Profile){\n        return answerList[_index].answererP;\n    }\n\n    function getTime() public view returns (uint, uint, uint) {\n        return(\n            start,\n            now,\n            maxDuration\n        );\n    }\n\n    function ratingQuestion(uint _ratingQuestion) public {\n        numRate++;\n        sumRate = sumRate + _ratingQuestion;\n        questionRate = sumRate/numRate;\n    }\n\n    function getRatingQuestion() public returns (uint){\n        return questionRate;\n    }\n\n    function updateDeposite(uint _value) public {\n        deposit = deposit + _value;\n    }\n\n    function getDeposit() public returns (uint){\n        return deposit;\n    }\n\n    function isOverdue() public returns (bool) {\n        uint publishingTime = now - start;\n        return publishingTime > maxDuration;\n    }\n\n    function getCheckShareToken() returns(bool){\n        return (!alreadyShareToken);\n    }\n\n    function getNumAnswer4() returns (bool){\n        uint getNumAnswer4;\n        for (uint i = 0;i < answerList.length;i++) {\n            if(answerList[i].answerRate >= 4) \n                getNumAnswer4++;\n            if(getNumAnswer4>0) return true; \n            else return false;\n        }\n    }\n\n    function shareToken() public {\n        for (uint i = 0;i < answerList.length;i++) {\n            if(answerList[i].answerRate >= 4){ \n                numPeople++;\n            }\n        }\n        proportion = deposit/numPeople;\n        for (i = 0; i < answerList.length;i++) {\n            if(answerList[i].answerRate >= 4){ //Only take 4 stars above into account\n                answerList[i].answererP.updateToken(1, proportion);\n            }\n        }\n\n        alreadyShareToken = true;\n    }\n    \n    function postQuestion() public {\n        start = now;   \n    }\n\n    function answer(string _reply, string[] _fileHashes, string[] _fileNames, address _answerer, address _answererP, int _parent) public {\n        int _id;\n        if (_parent == -1) {   //a parent answer\n            _id = count;   \n            count++;\n        } else {               //a child answer\n            _id = -1;\n        }\n\n        Answer memory newAnswer = Answer({\n            replyHash: _reply,\n            fileHashes: _fileHashes,\n            fileNames: _fileNames,\n            answerer: _answerer,\n            answererP: Profile(_answererP),\n            answerTime: now,\n            answerRate: 0,\n            answerNumRate: 0,\n            answerSumRate: 0,\n            parent: _parent,\n            id: _id\n        }); \n        \n        answerList.push(newAnswer);\n    } \n\n\n    function getAnswerList() public view returns (Answer[]) {\n        return answerList;\n    }\n\n    function updateAnswerRate(uint _value, uint index) public {\n        answerList[index].answerNumRate ++;\n        answerList[index].answerSumRate += _value;\n        answerList[index].answerRate = answerList[index].answerSumRate/answerList[index].answerNumRate;\n    }\n\n    function getAnswerRate(uint index) public view returns (uint) {\n        return answerList[index].answerRate;\n    }\n\n\n    // function transfer(address _recipient, uint256 _amount) external {\n    //     ETLToken tokenContract = ETLToken(0xF81A07E1257Db8a259631c3Bf8555279696ed7E1);\n    //     tokenContract.approve(address(this), _amount); //correct but maybe need hardcode question / profile address?\n\n    //     TransferToken transferToken = TransferToken(0xc4a989967bd361f173667eb08886E95574525417); //(address(this))\n    //     transferToken.transferFrom(_recipient, _amount);\n\n    // }\n}\n\ncontract Profile {\n    // ETLToken public tokenContract = ETLToken(0xFF02F838ef1031B08a62a8AB24E3AC02328957d2);\n    // uint public token = tokenContract.balanceOf(msg.sender);\n    uint public token = 10;\n    uint public numOfQues;\n    uint public sumOfQuesRate;\n    uint public numOfAns;\n    uint public sumOfAnsRate;\n    address public user;\n    // constructor(ETLToken etl) public {\n    //     tokenContract = ETLToken(etl);\n    // }\n    \n    function Profile (address _user) public {\n        user = _user;\n    }\n\n    function increaseNumOfQues() public {\n        numOfQues++;\n    }\n\n    function increaseNumOfAns() public {\n        numOfAns++;\n    }\n\n    function increaseSumOfQuesRate(uint _rate) public {\n        sumOfQuesRate += _rate;\n    }\n\n    function increaseSumOfAnsRate(uint _rate) public {\n        sumOfAnsRate += _rate;\n    }\n\n    function getavgQuesRate() public returns (uint){\n        require(numOfQues != 0);\n        uint avgQuesRate = sumOfQuesRate/numOfQues;\n        return avgQuesRate;\n    }\n\n    function getavgAnsRate() public returns (uint){\n        require(numOfAns != 0);\n        uint avgAnsRate = sumOfAnsRate/numOfAns;\n        return avgAnsRate;\n    }\n\n    function getNumOfQues() public returns (uint){\n        return numOfQues;\n    }\n\n    function getNumOfAns() public returns (uint){\n        return numOfAns;\n    }\n\n    function updateToken(uint addOrSub, uint _token) public {\n        if (addOrSub==1){ //1 is add\n            token += (_token);\n        }\n        else if(addOrSub==0){ // 0 is sub\n            token -= (_token);\n        }\n    }\n\n    function getToken() public returns(uint){\n        // token = tokenContract.balanceOf(msg.sender);\n        // balance = tokenContract.balanceOf(msg.sender);\n        // return balance;\n        \n        return token;\n\n\n    }\n\n\n    // function transfer(address _recipient, uint256 _amount) external {\n    //     // ETLToken tokenContract = ETLToken(0xF81A07E1257Db8a259631c3Bf8555279696ed7E1);\n    //     tokenContract.approve(address(this), _amount);\n\n    //     TransferToken transferToken = TransferToken(0xc4a989967bd361f173667eb08886E95574525417);\n    //     transferToken.transferFrom(_recipient, _amount);\n\n    // }\n\n}\n\n\n\n\n",
  "sourcePath": "/Users/joelytj/Desktop/EtherLearn/contracts/Question.sol",
  "compiler": {
    "name": "solc",
    "version": "0.4.26+commit.4563c3fc.Emscripten.clang"
  },
  "schemaVersion": "3.4.1",
  "updatedAt": "2021-06-08T02:44:19.333Z",
  "networkType": "ethereum",
  "devdoc": {
    "methods": {}
  },
  "userdoc": {
    "methods": {}
  }
}