{
  "contractName": "contractB",
  "abi": [
    {
      "inputs": [
        {
          "internalType": "address",
          "name": "",
          "type": "address"
        }
      ],
      "name": "balances",
      "outputs": [
        {
          "internalType": "uint256",
          "name": "",
          "type": "uint256"
        }
      ],
      "stateMutability": "view",
      "type": "function",
      "constant": true
    },
    {
      "inputs": [
        {
          "internalType": "address",
          "name": "_user",
          "type": "address"
        },
        {
          "internalType": "uint256",
          "name": "tokens",
          "type": "uint256"
        }
      ],
      "name": "deposit",
      "outputs": [],
      "stateMutability": "nonpayable",
      "type": "function"
    },
    {
      "inputs": [
        {
          "internalType": "address",
          "name": "_user",
          "type": "address"
        },
        {
          "internalType": "uint256",
          "name": "tokens",
          "type": "uint256"
        }
      ],
      "name": "share",
      "outputs": [],
      "stateMutability": "nonpayable",
      "type": "function"
    },
    {
      "inputs": [
        {
          "internalType": "address",
          "name": "_user",
          "type": "address"
        }
      ],
      "name": "returnTokens",
      "outputs": [],
      "stateMutability": "nonpayable",
      "type": "function"
    }
  ],
  "bytecode": "0x6080604052600080546001600160a01b0319167306c3cafae04f15851be7e3b72dea2da3e0f696e017905534801561003657600080fd5b50610346806100466000396000f3fe608060405234801561001057600080fd5b506004361061004c5760003560e01c806327e235e31461005157806347e7ef2414610083578063d3ef774014610098578063ded6338b146100ab575b600080fd5b61007161005f36600461027c565b60016020526000908152604090205481565b60405190815260200160405180910390f35b61009661009136600461029e565b6100be565b005b6100966100a636600461027c565b61017d565b6100966100b936600461029e565b610221565b6001600160a01b038216600090815260016020526040812080548392906100e69084906102c8565b90915550506000546040516323b872dd60e01b81526001600160a01b03848116600483015230602483015260448201849052909116906323b872dd906064015b602060405180830381600087803b15801561014057600080fd5b505af1158015610154573d6000803e3d6000fd5b505050506040513d601f19601f8201168201806040525081019061017891906102ee565b505050565b6001600160a01b03818116600081815260016020526040808220829055815490516323b872dd60e01b815230600482015260248101939093526044830191909152909116906323b872dd90606401602060405180830381600087803b1580156101e557600080fd5b505af11580156101f9573d6000803e3d6000fd5b505050506040513d601f19601f8201168201806040525081019061021d91906102ee565b5050565b6000546040516323b872dd60e01b81523060048201526001600160a01b03848116602483015260448201849052909116906323b872dd90606401610126565b80356001600160a01b038116811461027757600080fd5b919050565b60006020828403121561028e57600080fd5b61029782610260565b9392505050565b600080604083850312156102b157600080fd5b6102ba83610260565b946020939093013593505050565b600082198211156102e957634e487b7160e01b600052601160045260246000fd5b500190565b60006020828403121561030057600080fd5b8151801515811461029757600080fdfea2646970667358221220ffec157bdea7f721f3eab2cb002fcd86c89e665f16508506a0a4e8f98ea10fcf64736f6c63430008090033",
  "immutableReferences": {},
  "source": "pragma solidity ^0.8.0;\npragma experimental ABIEncoderV2;\nimport \"./ETLToken.sol\";\n\ncontract contractB {\n    ETLToken tokenContract = ETLToken(0x06c3caFae04F15851be7E3B72deA2dA3E0f696E0); \n    mapping ( address => uint256 ) public balances;\n\n    function deposit(address _user, uint tokens) public {\n\n        // add the deposited tokens into existing balance \n        balances[_user]+= tokens;\n\n        // transfer the tokens from the sender to this contract\n        tokenContract.transferFrom(_user, address(this), tokens);\n    }\n\n    function share(address _user, uint tokens) public {\n        tokenContract.transferFrom(address(this), _user, tokens);\n    }\n\n    function returnTokens(address _user) public {\n        balances[_user] = 0;\n        tokenContract.transferFrom(address(this), _user, balances[_user]);\n    }\n\n}\n\ncontract QuestionFactory {\n    address[] private deployedQuestions;\n    mapping(address => address) public users;\n    mapping(address => address) public owner;\n    address public contractbinstance;\n\n    ETLToken tokenContract = ETLToken(0x06c3caFae04F15851be7E3B72deA2dA3E0f696E0);\n\n    function createQuestion(string memory category, string memory questionTitle, string memory description, uint deposit, \n                    uint maxDuration, string[] memory fileHashesQuestion, string[] memory fileNamesQuestion) public {\n        if (users[msg.sender] == address(0x0)) {\n            Profile profile = new Profile(msg.sender);\n            users[msg.sender] = address(profile);\n        }\n\n        require(deposit>0, \"Deposit cannot be 0\");\n        require((deposit/10**4)<=Profile(users[msg.sender]).getToken(msg.sender), \"Insufficient tokens\");\n        Question newQuestion = new Question(category, questionTitle, description, deposit, maxDuration,\n                                    fileHashesQuestion, fileNamesQuestion, msg.sender, users[msg.sender]);\n        deployedQuestions.push(address(newQuestion));\n        \n        Question question = Question(newQuestion);\n        //transfer deposit from user to contractB instance\n        contractbinstance = question.getContractBInstance();\n        tokenContract.approve(msg.sender, contractbinstance, deposit); \n        contractB(contractbinstance).deposit(msg.sender, deposit);\n\n        Profile(users[msg.sender]).increaseNumOfQues();\n        question.postQuestion();  //Save posted time here\n        \n\n    }\n\n    function createAnswer(address _question, string memory _reply, string[] memory _fileHashes, string[] memory _fileNames, int _parent) public {\n        if (users[msg.sender] == address(0x0)) {\n            Profile profile = new Profile(msg.sender);\n            users[msg.sender] = address(profile);\n        }   \n        Question question = Question(_question);\n        question.answer(_reply, _fileHashes, _fileNames, msg.sender, users[msg.sender], _parent);\n        Profile(users[msg.sender]).increaseNumOfAns();\n    }\n\n    function ratingQuestionAt(address _question, uint _ratingQuestion) public payable{\n        if (users[msg.sender] == address(0x0)) {\n            Profile profile = new Profile(msg.sender);\n            users[msg.sender] = address(profile);\n        }\n\n        Question question = Question(_question);\n        contractbinstance = question.getContractBInstance();\n        //Require user to have at least one token to rate question\n        require(1<Profile(users[msg.sender]).getToken(msg.sender), \"Insufficient tokens\");\n        \n        //transfer 1 token as deposit from user to contractB instance to rate question\n        tokenContract.approve(msg.sender, contractbinstance, 1*10**2); \n        contractB(contractbinstance).deposit(msg.sender, 1*10**2);\n        \n        question.ratingQuestion(_ratingQuestion); \n        question.updateDeposite(1*10**2);\n        Profile(users[msg.sender]).updateToken(0, 1*10**2);\n        Profile(question.getOwnerP()).increaseSumOfQuesRate(_ratingQuestion);\n        \n        //store who deposited tokens\n        question.setQuestionDepositers(msg.sender);\n    \n    }\n\n    function ratingAnswerAt(address _question, uint _ratingAnswer, uint _index) public payable {\n        if (users[msg.sender] == address(0x0)) {\n            Profile profile = new Profile(msg.sender);\n            users[msg.sender] = address(profile);\n        }\n\n        Question question = Question(_question);\n        //rating answer doesnt require deposit\n        question.updateAnswerRate(_ratingAnswer, _index);\n        Profile(question.getAnswererP(_index)).increaseSumOfAnsRate(_ratingAnswer);\n    }\n\n\n    function shareTokenAt(address _question) public payable {\n        if (users[msg.sender] == address(0x0)) {\n            Profile profile = new Profile(msg.sender);\n            users[msg.sender] = address(profile);\n        }\n\n        Question question = Question(_question);\n        question.shareToken();\n    }\n\n    function returnDepositAt(address _question) public payable {\n        if (users[msg.sender] == address(0x0)) {\n            Profile profile = new Profile(msg.sender);\n            users[msg.sender] = address(profile);\n        }\n\n        Question question = Question(_question);\n        question.returnDeposit();\n    }\n\n    function hasProfile(address _user) public returns(bool) {\n        if (users[_user] == address(0x0)) {\n            return false;\n        } else {\n            return true;\n        }\n    }\n\n    function getProfile(address _user) public returns(address) {\n        require(users[_user] != address(0x0));\n        return users[_user];\n    }\n    \n    function getDeployedQuestions() public view returns(address[] memory) {\n        return deployedQuestions;\n    }\n\n}    \n\n\ncontract Question {\n\n    struct Answer {\n        string replyHash;\n        string[] fileHashes;\n        string[] fileNames;\n        address answerer;\n        Profile answererP;\n        uint answerTime;\n        uint answerRate; \n        uint answerNumRate;\n        uint answerSumRate;\n        int parent;\n        int id;       //Keep track parent answers\n    }\n\n    Answer[] public answerList; \n    string[] public fileHashesQuestion;\n    string[] public fileNamesQuestion;\n    string public questionTitle;\n    string public description;\n    uint public deposit;\n    uint public maxDuration;\n    address public owner;\n    Profile public ownerP;\n    uint public start;\n    uint public questionRate;\n    uint public numRate;\n    uint public sumRate;\n    bool public alreadyShareToken = false;\n    bool public alreadyReturnDeposit =  false;\n    bool public numAnswer4Bool;\n    uint public tokenSum;\n    uint public proportion;\n    uint public numPeople;\n    string public category;\n    int public count = 0;\n    address public contractbinstance;\n    //map each question to its own contractB instance\n    mapping(address => address) public questionContractB;\n    mapping(address => address[]) public questionDepositers;\n    uint public initialDeposit;\n    ETLToken tokenContract = ETLToken(0x06c3caFae04F15851be7E3B72deA2dA3E0f696E0);\n\n\n    constructor (string memory _category, string memory _questionTitle, string memory _description, uint _deposit, uint _maxDuration, string[] memory _fileHashesQuestion, string[] memory _fileNamesQuestion, address _owner, address _ownerP) public {\n        category = _category;\n        questionTitle = _questionTitle;\n        description = _description;\n        deposit = _deposit;\n        maxDuration = _maxDuration;\n        fileHashesQuestion = _fileHashesQuestion;\n        fileNamesQuestion = _fileNamesQuestion;\n        owner = _owner;\n        ownerP = Profile(_ownerP);\n        \n        //create contractB instance each time a new Question is created\n        if (questionContractB[address(this)] == address(0x0)) {\n            contractB contractb = new contractB();\n            contractbinstance = address(contractb);\n            questionContractB[address(this)] = contractbinstance;\n        }\n         \n    }\n    \n    function getContractBInstance() public returns (address) {\n        return questionContractB[address(this)];\n    }\n\n    function getSummary() public view returns (\n        string memory, string memory, uint, uint, address, string[] memory, string[] memory\n    ) {\n        return(\n            questionTitle,\n            description,\n            deposit,\n            maxDuration,\n            owner,\n            fileHashesQuestion,\n            fileNamesQuestion\n        );\n    }\n\n    function getCategory() public view returns (string memory) {\n        return category;\n    }\n\n    function getOwner() public view returns (address){\n        return owner;\n    }\n\n    function getOwnerP() public view returns (Profile){\n        return ownerP;\n    }\n    \n    function getAnswererP(uint _index) public view returns (Profile){\n        return answerList[_index].answererP;\n    }\n\n    function getTime() public view returns (uint, uint, uint) {\n        return(\n            start,\n            block.timestamp,\n            maxDuration\n        );\n    }\n\n    function ratingQuestion(uint _ratingQuestion) public {\n        numRate++;\n        sumRate = sumRate + _ratingQuestion;\n        questionRate = sumRate/numRate;\n    }\n\n    function getRatingQuestion() public returns (uint){\n        return questionRate;\n    }\n\n    function updateDeposite(uint _value) public {\n        deposit = deposit + _value;\n    }\n\n    function getDeposit() public returns (uint){\n        return deposit;\n    }\n    \n    function getQuestionDepositers(address _question) public view returns (address[] memory) {\n        return questionDepositers[_question];\n    }\n    \n    function setQuestionDepositers(address _questionDepositer) public {\n        questionDepositers[address(this)].push(_questionDepositer);\n    }\n\n    function isOverdue() public returns (bool) {\n        uint publishingTime = block.timestamp - start;\n\n        return publishingTime > maxDuration;\n\n    }\n\n    function getCheckShareToken() public returns(bool){\n        return (!alreadyShareToken);\n    }\n\n    function getCheckReturnDeposit() public returns(bool) {\n        return(!alreadyReturnDeposit);\n    }\n\n    function getNumAnswer4() public returns (bool){\n        uint getNumAnswer4;\n        for (uint i = 0;i < answerList.length;i++) {\n            if(answerList[i].answerRate >= 4) \n                getNumAnswer4++;\n            if(getNumAnswer4>0) {\n                numAnswer4Bool = true;\n                return true; \n            }\n            else {\n                numAnswer4Bool = false;\n                return false;\n            }\n        }\n    }\n\n    function returnDeposit() public {\n        uint publishingTime = block.timestamp - start;\n\n        if (publishingTime > maxDuration) {\n            for (uint i=0; i<questionDepositers[address(this)].length;i++) {\n                tokenContract.approve(questionContractB[address(this)], questionDepositers[address(this)][i], 1*10**2); \n                contractB(questionContractB[address(this)]).share(questionDepositers[address(this)][i], 1*10**2);\n            }\n            //transfer initial deposit back to owner of question\n            initialDeposit = deposit - (questionDepositers[address(this)].length * 10**2);\n            tokenContract.approve(questionContractB[address(this)], owner, initialDeposit); \n            contractB(questionContractB[address(this)]).share(owner, initialDeposit);\n        \n        }\n\n        alreadyReturnDeposit = true;\n    }\n\n    function shareToken() public {\n        for (uint i = 0;i < answerList.length;i++) {\n            if(answerList[i].answerRate >= 4){ \n                numPeople++;\n            }\n        }\n        \n        proportion = (deposit) / numPeople; //if uint solidity rounds down eg 1/6 * 100 = 16 (not 16.23.)\n        for (uint i = 0; i < answerList.length;i++) {\n            if(answerList[i].answerRate >= 4){ //Only take 4 stars above into account\n                tokenContract.approve(questionContractB[address(this)], answerList[i].answerer, proportion); \n                contractB(questionContractB[address(this)]).share(answerList[i].answerer, proportion);\n\n            }\n        }\n\n        alreadyShareToken = true;\n    }\n    \n    function postQuestion() public {\n        start = block.timestamp;   \n    }\n\n    function answer(string memory _reply, string[] memory _fileHashes, string[] memory _fileNames, address _answerer, address _answererP, int _parent) public {\n        int _id;\n        if (_parent == -1) {   //a parent answer\n            _id = count;   \n            count++;\n        } else {               //a child answer\n            _id = -1;\n        }\n\n        Answer memory newAnswer = Answer({\n            replyHash: _reply,\n            fileHashes: _fileHashes,\n            fileNames: _fileNames,\n            answerer: _answerer,\n            answererP: Profile(_answererP),\n            answerTime: block.timestamp,\n            answerRate: 0,\n            answerNumRate: 0,\n            answerSumRate: 0,\n            parent: _parent,\n            id: _id\n        }); \n        \n        answerList.push(newAnswer);\n    } \n\n\n    function getAnswerList() public view returns (Answer[] memory) {\n        return answerList;\n    }\n\n    function updateAnswerRate(uint _value, uint index) public {\n        answerList[index].answerNumRate ++;\n        answerList[index].answerSumRate += _value;\n        answerList[index].answerRate = answerList[index].answerSumRate/answerList[index].answerNumRate;\n    }\n\n    function getAnswerRate(uint index) public view returns (uint) {\n        return answerList[index].answerRate;\n    }\n\n}\n\ncontract Profile {\n    ETLToken public tokenContract = ETLToken(0x06c3caFae04F15851be7E3B72deA2dA3E0f696E0);\n    uint public token;\n    uint public numOfQues;\n    uint public sumOfQuesRate;\n    uint public numOfAns;\n    uint public sumOfAnsRate;\n    uint public avgQuesRate;\n    uint public avgAnsRate;\n    address public user;\n    \n    constructor (address _user) public {\n        user = _user;\n    }\n\n    function increaseNumOfQues() public {\n        numOfQues++;\n    }\n\n    function increaseNumOfAns() public {\n        numOfAns++;\n    }\n\n    function increaseSumOfQuesRate(uint _rate) public {\n        sumOfQuesRate += _rate;\n    }\n\n    function increaseSumOfAnsRate(uint _rate) public {\n        sumOfAnsRate += _rate;\n    }\n\n    function getavgQuesRate() public returns (uint){\n        if (numOfQues == 0) {\n            avgQuesRate = 0;\n            return avgQuesRate;\n        }\n        else {\n            avgQuesRate = sumOfQuesRate/numOfQues;\n            return avgQuesRate;\n        }\n    }\n\n    function getavgAnsRate() public returns (uint){\n        if (numOfAns == 0) {\n            avgAnsRate = 0;\n            return avgAnsRate;\n        }\n        else {\n            avgAnsRate = sumOfAnsRate/numOfAns;\n            return avgAnsRate;\n        }\n    }\n\n    function getNumOfQues() public returns (uint){\n        return numOfQues;\n    }\n\n    function getNumOfAns() public returns (uint){\n        return numOfAns;\n    }\n\n    function updateToken(uint addOrSub, uint _token) public {\n        if (addOrSub==1){ //1 is add\n            token += (_token);\n        }\n        else if(addOrSub==0){ // 0 is sub\n            token -= (_token);\n        }\n    }\n\n    function getToken(address _user) public returns(uint){\n        token = tokenContract.balanceOf(_user); //removed /10**2 => => 5 token == 500\n        \n        return token;\n\n\n    }\n\n\n}\n\n\n\n\n",
  "sourcePath": "/Users/joelytj/Desktop/EtherLearn/contracts/Question.sol",
  "compiler": {
    "name": "solc",
    "version": "0.8.9+commit.e5eed63a.Emscripten.clang"
  },
  "schemaVersion": "3.3.4",
  "updatedAt": "2021-09-30T16:46:49.956Z",
  "networkType": "ethereum",
  "devdoc": {
    "kind": "dev",
    "methods": {},
    "version": 1
  },
  "userdoc": {
    "kind": "user",
    "methods": {},
    "version": 1
  }
}