{
  "contractName": "contractB",
  "abi": [
    {
      "constant": true,
      "inputs": [
        {
          "name": "",
          "type": "address"
        }
      ],
      "name": "balances",
      "outputs": [
        {
          "name": "",
          "type": "uint256"
        }
      ],
      "payable": false,
      "stateMutability": "view",
      "type": "function"
    },
    {
      "constant": false,
      "inputs": [
        {
          "name": "_user",
          "type": "address"
        },
        {
          "name": "tokens",
          "type": "uint256"
        }
      ],
      "name": "deposit",
      "outputs": [],
      "payable": false,
      "stateMutability": "nonpayable",
      "type": "function"
    },
    {
      "constant": false,
      "inputs": [
        {
          "name": "_user",
          "type": "address"
        },
        {
          "name": "tokens",
          "type": "uint256"
        }
      ],
      "name": "share",
      "outputs": [],
      "payable": false,
      "stateMutability": "nonpayable",
      "type": "function"
    },
    {
      "constant": false,
      "inputs": [
        {
          "name": "_user",
          "type": "address"
        }
      ],
      "name": "returnTokens",
      "outputs": [],
      "payable": false,
      "stateMutability": "nonpayable",
      "type": "function"
    }
  ],
  "bytecode": "0x608060405260008054600160a060020a0319167374bb56b2ea8f4784acb6878fa8f9577dcdb1a0a317905534801561003657600080fd5b50610448806100466000396000f3006080604052600436106100615763ffffffff7c010000000000000000000000000000000000000000000000000000000060003504166327e235e3811461006657806347e7ef241461009c578063d3ef7740146100be578063ded6338b146100de575b600080fd5b34801561007257600080fd5b5061008661008136600461031b565b6100fe565b60405161009391906103d9565b60405180910390f35b3480156100a857600080fd5b506100bc6100b7366004610341565b610110565b005b3480156100ca57600080fd5b506100bc6100d936600461031b565b6101d6565b3480156100ea57600080fd5b506100bc6100f9366004610341565b610296565b60016020526000908152604090205481565b73ffffffffffffffffffffffffffffffffffffffff808316600090815260016020526040808220805485019055905490517f23b872dd0000000000000000000000000000000000000000000000000000000081529116906323b872dd9061017f908590309086906004016103b1565b602060405180830381600087803b15801561019957600080fd5b505af11580156101ad573d6000803e3d6000fd5b505050506040513d601f19601f820116820180604052506101d1919081019061037b565b505050565b73ffffffffffffffffffffffffffffffffffffffff808216600090815260016020526040808220829055815490517f23b872dd0000000000000000000000000000000000000000000000000000000081529216916323b872dd9161024091309186916004016103b1565b602060405180830381600087803b15801561025a57600080fd5b505af115801561026e573d6000803e3d6000fd5b505050506040513d601f19601f82011682018060405250610292919081019061037b565b5050565b6000546040517f23b872dd00000000000000000000000000000000000000000000000000000000815273ffffffffffffffffffffffffffffffffffffffff909116906323b872dd9061017f903090869086906004016103b1565b60006102fc82356103ed565b9392505050565b60006102fc8251610409565b60006102fc8235610406565b60006020828403121561032d57600080fd5b600061033984846102f0565b949350505050565b6000806040838503121561035457600080fd5b600061036085856102f0565b92505060206103718582860161030f565b9150509250929050565b60006020828403121561038d57600080fd5b60006103398484610303565b6103a2816103ed565b82525050565b6103a281610406565b606081016103bf8286610399565b6103cc6020830185610399565b61033960408301846103a8565b602081016103e782846103a8565b92915050565b73ffffffffffffffffffffffffffffffffffffffff1690565b90565b1515905600a265627a7a723058204e4dc841a777ad08dd5167e2f0d158b8281f478646b09ae30e44226dbc961ab76c6578706572696d656e74616cf50037",
  "source": "pragma solidity ^0.4.25;\npragma experimental ABIEncoderV2;\nimport \"./ETLToken.sol\";\n\ncontract contractB {\n    ETLToken tokenContract = ETLToken(0x74Bb56B2Ea8F4784acB6878FA8f9577dCdb1a0a3);\n    mapping ( address => uint256 ) public balances;\n\n    function deposit(address _user, uint tokens) public {\n\n        // add the deposited tokens into existing balance \n        balances[_user]+= tokens;\n\n        // transfer the tokens from the sender to this contract\n        tokenContract.transferFrom(_user, address(this), tokens);\n    }\n\n    function share(address _user, uint tokens) public {\n        tokenContract.transferFrom(address(this), _user, tokens);\n    }\n\n    function returnTokens(address _user) public {\n        balances[_user] = 0;\n        tokenContract.transferFrom(address(this), _user, balances[_user]);\n    }\n\n}\n\ncontract QuestionFactory {\n    address[] private deployedQuestions;\n    mapping(address => address) public users;\n    mapping(address => address) public owner;\n    address public contractbinstance;\n\n    ETLToken tokenContract = ETLToken(0x74Bb56B2Ea8F4784acB6878FA8f9577dCdb1a0a3);\n\n    function createQuestion(string category, string questionTitle, string description, uint deposit, \n                    uint maxDuration, string[] fileHashesQuestion, string[] fileNamesQuestion) public {\n        if (users[msg.sender] == 0) {\n            address profile = new Profile(msg.sender);\n            users[msg.sender] = profile;\n        }\n\n        require(deposit>0, \"Deposit cannot be 0\");\n        require(deposit<=Profile(users[msg.sender]).getToken(msg.sender), \"Insufficient tokens\");\n        address newQuestion = new Question(category, questionTitle, description, deposit, maxDuration,\n                                    fileHashesQuestion, fileNamesQuestion, msg.sender, users[msg.sender]);\n        deployedQuestions.push(newQuestion);\n        \n        Question question = Question(newQuestion);\n        //transfer deposit from user to contractB instance\n        contractbinstance = question.getContractBInstance();\n        tokenContract.approve(msg.sender, contractbinstance, deposit); \n        contractB(contractbinstance).deposit(msg.sender, deposit);\n\n        Profile(users[msg.sender]).increaseNumOfQues();\n        question.postQuestion();  //Save posted time here\n        \n\n    }\n\n    function createAnswer(address _question, string _reply, string[] _fileHashes, string[] _fileNames, int _parent) public {\n        if (users[msg.sender] == 0) {\n            address profile = new Profile(msg.sender);\n            users[msg.sender] = profile;\n        }   \n        Question question = Question(_question);\n        question.answer(_reply, _fileHashes, _fileNames, msg.sender, users[msg.sender], _parent);\n        Profile(users[msg.sender]).increaseNumOfAns();\n    }\n\n    function ratingQuestionAt(address _question, uint _ratingQuestion) public payable{\n        if (users[msg.sender] == 0) {\n            address profile = new Profile(msg.sender);\n            users[msg.sender] = profile;\n        }\n\n        Question question = Question(_question);\n        contractbinstance = question.getContractBInstance();\n        //Require user to have at least one token to rate question\n        require(1<Profile(users[msg.sender]).getToken(msg.sender), \"Insufficient tokens\");\n        \n        //transfer 1 token as deposit from user to contractB instance to rate question\n        tokenContract.approve(msg.sender, contractbinstance, 1); \n        contractB(contractbinstance).deposit(msg.sender, 1);\n        \n        question.ratingQuestion(_ratingQuestion); \n        question.updateDeposite(1);\n        Profile(users[msg.sender]).updateToken(0, 1);\n        Profile(question.getOwnerP()).increaseSumOfQuesRate(_ratingQuestion);\n        \n        //store who deposited tokens\n        question.setQuestionDepositers(msg.sender);\n    \n    }\n\n    function ratingAnswerAt(address _question, uint _ratingAnswer, uint _index) public payable {\n        if (users[msg.sender] == 0) {\n            address profile = new Profile(msg.sender);\n            users[msg.sender] = profile;\n        }\n\n        Question question = Question(_question);\n        //rating answer doesnt require deposit\n        question.updateAnswerRate(_ratingAnswer, _index);\n        Profile(question.getAnswererP(_index)).increaseSumOfAnsRate(_ratingAnswer);\n    }\n\n\n    function shareTokenAt(address _question) public payable {\n        if (users[msg.sender] == 0) {\n            address profile = new Profile(msg.sender);\n            users[msg.sender] = profile;\n        }\n\n        Question question = Question(_question);\n        question.shareToken();\n    }\n\n    function returnDepositAt(address _question) public payable {\n        if (users[msg.sender] == 0) {\n            address profile = new Profile(msg.sender);\n            users[msg.sender] = profile;\n        }\n\n        Question question = Question(_question);\n        question.returnDeposit();\n    }\n\n    function hasProfile(address _user) public returns(bool) {\n        if (users[_user] == 0) {\n            return false;\n        } else {\n            return true;\n        }\n    }\n\n    function getProfile(address _user) public returns(address) {\n        require(users[_user] != 0);\n        return users[_user];\n    }\n    \n    function getDeployedQuestions() public view returns(address[]) {\n        return deployedQuestions;\n    }\n\n}    \n\n\ncontract Question {\n\n    struct Answer {\n        string replyHash;\n        string[] fileHashes;\n        string[] fileNames;\n        address answerer;\n        Profile answererP;\n        uint answerTime;\n        uint answerRate; \n        uint answerNumRate;\n        uint answerSumRate;\n        int parent;\n        int id;       //Keep track parent answers\n    }\n\n    Answer[] public answerList; \n    string[] public fileHashesQuestion;\n    string[] public fileNamesQuestion;\n    string public questionTitle;\n    string public description;\n    uint public deposit;\n    uint public maxDuration;\n    address public owner;\n    Profile public ownerP;\n    uint public start;\n    uint public questionRate;\n    uint public numRate;\n    uint public sumRate;\n    bool public alreadyShareToken = false;\n    bool public alreadyReturnDeposit =  false;\n    bool public numAnswer4Bool;\n    uint public tokenSum;\n    uint public proportion;\n    uint public numPeople;\n    string public category;\n    int public count = 0;\n    address public contractbinstance;\n    //map each question to its own contractB instance\n    mapping(address => address) public questionContractB;\n    mapping(address => address[]) public questionDepositers;\n    uint256 public initialDeposit;\n    ETLToken tokenContract = ETLToken(0x74Bb56B2Ea8F4784acB6878FA8f9577dCdb1a0a3);\n\n\n    //fallback function\n    function() payable { }\n    \n    function Question (string _category, string _questionTitle, string _description, uint _deposit, uint _maxDuration, string[] _fileHashesQuestion, string[] _fileNamesQuestion, address _owner, address _ownerP) public {\n        category = _category;\n        questionTitle = _questionTitle;\n        description = _description;\n        deposit = _deposit;\n        maxDuration = _maxDuration;\n        fileHashesQuestion = _fileHashesQuestion;\n        fileNamesQuestion = _fileNamesQuestion;\n        owner = _owner;\n        ownerP = Profile(_ownerP);\n        \n        //create contractB instance each time a new Question is created\n        if (questionContractB[this] == 0) {\n            contractB contractb = new contractB();\n            contractbinstance = contractb;\n            questionContractB[this] = contractbinstance;\n        }\n         \n    }\n    \n    function getContractBInstance() public returns (address) {\n        return questionContractB[this];\n    }\n\n    function getSummary() public view returns (\n        string, string, uint, uint, address, string[], string[]\n    ) {\n        return(\n            questionTitle,\n            description,\n            deposit,\n            maxDuration,\n            owner,\n            fileHashesQuestion,\n            fileNamesQuestion\n        );\n    }\n\n    function getCategory() public view returns (string) {\n        return category;\n    }\n\n    function getOwner() public view returns (address){\n        return owner;\n    }\n\n    function getOwnerP() public view returns (Profile){\n        return ownerP;\n    }\n    \n    function getAnswererP(uint _index) public view returns (Profile){\n        return answerList[_index].answererP;\n    }\n\n    function getTime() public view returns (uint, uint, uint) {\n        return(\n            start,\n            now,\n            maxDuration\n        );\n    }\n\n    function ratingQuestion(uint _ratingQuestion) public {\n        numRate++;\n        sumRate = sumRate + _ratingQuestion;\n        questionRate = sumRate/numRate;\n    }\n\n    function getRatingQuestion() public returns (uint){\n        return questionRate;\n    }\n\n    function updateDeposite(uint _value) public {\n        deposit = deposit + _value;\n    }\n\n    function getDeposit() public returns (uint){\n        return deposit;\n    }\n    \n    function getQuestionDepositers(address _question) public view returns (address[]) {\n        return questionDepositers[_question];\n    }\n    \n    function setQuestionDepositers(address _questionDepositer) public {\n        questionDepositers[this].push(_questionDepositer);\n    }\n\n    function isOverdue() public returns (bool) {\n        uint publishingTime = now - start;\n\n        return publishingTime > maxDuration;\n\n    }\n\n    function getCheckShareToken() returns(bool){\n        return (!alreadyShareToken);\n    }\n\n    function getCheckReturnDeposit() returns(bool) {\n        return(!alreadyReturnDeposit);\n    }\n\n    function getNumAnswer4() public view returns (bool){\n        uint getNumAnswer4;\n        for (uint i = 0;i < answerList.length;i++) {\n            if(answerList[i].answerRate >= 4) \n                getNumAnswer4++;\n            if(getNumAnswer4>0) {\n                numAnswer4Bool = true;\n                return true; \n            }\n            else {\n                numAnswer4Bool = false;\n                return false;\n            }\n        }\n    }\n\n    function returnDeposit() public {\n        uint publishingTime = now - start;\n\n        if (publishingTime > maxDuration) {\n            for (uint i=0; i<questionDepositers[this].length;i++) {\n                tokenContract.approve(questionContractB[this], questionDepositers[this][i], 1); \n                contractB(questionContractB[this]).share(questionDepositers[this][i], 1);\n            }\n            //transfer initial deposit back to owner of question\n            initialDeposit = deposit - questionDepositers[this].length;\n            tokenContract.approve(questionContractB[this], owner, initialDeposit); \n            contractB(questionContractB[this]).share(owner, initialDeposit);\n        \n        }\n\n        alreadyReturnDeposit = true;\n    }\n\n    function shareToken() public {\n        for (uint i = 0;i < answerList.length;i++) {\n            if(answerList[i].answerRate >= 4){ \n                numPeople++;\n            }\n        }\n        proportion = deposit/numPeople;\n        for (i = 0; i < answerList.length;i++) {\n            if(answerList[i].answerRate >= 4){ //Only take 4 stars above into account\n                tokenContract.approve(questionContractB[this], answerList[i].answerer, proportion); \n                contractB(questionContractB[this]).share(answerList[i].answerer, proportion);\n\n            }\n        }\n\n        alreadyShareToken = true;\n    }\n    \n    function postQuestion() public {\n        start = now;   \n    }\n\n    function answer(string _reply, string[] _fileHashes, string[] _fileNames, address _answerer, address _answererP, int _parent) public {\n        int _id;\n        if (_parent == -1) {   //a parent answer\n            _id = count;   \n            count++;\n        } else {               //a child answer\n            _id = -1;\n        }\n\n        Answer memory newAnswer = Answer({\n            replyHash: _reply,\n            fileHashes: _fileHashes,\n            fileNames: _fileNames,\n            answerer: _answerer,\n            answererP: Profile(_answererP),\n            answerTime: now,\n            answerRate: 0,\n            answerNumRate: 0,\n            answerSumRate: 0,\n            parent: _parent,\n            id: _id\n        }); \n        \n        answerList.push(newAnswer);\n    } \n\n\n    function getAnswerList() public view returns (Answer[]) {\n        return answerList;\n    }\n\n    function updateAnswerRate(uint _value, uint index) public {\n        answerList[index].answerNumRate ++;\n        answerList[index].answerSumRate += _value;\n        answerList[index].answerRate = answerList[index].answerSumRate/answerList[index].answerNumRate;\n    }\n\n    function getAnswerRate(uint index) public view returns (uint) {\n        return answerList[index].answerRate;\n    }\n\n}\n\ncontract Profile {\n    ETLToken public tokenContract = ETLToken(0x74Bb56B2Ea8F4784acB6878FA8f9577dCdb1a0a3);\n    uint public token;\n    uint public numOfQues;\n    uint public sumOfQuesRate;\n    uint public numOfAns;\n    uint public sumOfAnsRate;\n    uint public avgQuesRate;\n    uint public avgAnsRate;\n    address public user;\n    \n    function Profile (address _user) public {\n        user = _user;\n    }\n\n    function increaseNumOfQues() public {\n        numOfQues++;\n    }\n\n    function increaseNumOfAns() public {\n        numOfAns++;\n    }\n\n    function increaseSumOfQuesRate(uint _rate) public {\n        sumOfQuesRate += _rate;\n    }\n\n    function increaseSumOfAnsRate(uint _rate) public {\n        sumOfAnsRate += _rate;\n    }\n\n    function getavgQuesRate() public returns (uint){\n        if (numOfQues == 0) {\n            avgQuesRate = 0;\n            return avgQuesRate;\n        }\n        else {\n            avgQuesRate = sumOfQuesRate/numOfQues;\n            return avgQuesRate;\n        }\n    }\n\n    function getavgAnsRate() public returns (uint){\n        if (numOfAns == 0) {\n            avgAnsRate = 0;\n            return avgAnsRate;\n        }\n        else {\n            avgAnsRate = sumOfAnsRate/numOfAns;\n            return avgAnsRate;\n        }\n    }\n\n    function getNumOfQues() public returns (uint){\n        return numOfQues;\n    }\n\n    function getNumOfAns() public returns (uint){\n        return numOfAns;\n    }\n\n    function updateToken(uint addOrSub, uint _token) public {\n        if (addOrSub==1){ //1 is add\n            token += (_token);\n        }\n        else if(addOrSub==0){ // 0 is sub\n            token -= (_token);\n        }\n    }\n\n    function getToken(address _user) public returns(uint){\n        token = tokenContract.balanceOf(_user);\n        \n        return token;\n\n\n    }\n\n\n}\n\n\n\n\n",
  "sourcePath": "/Users/joelytj/Desktop/EtherLearn/contracts/Question.sol",
  "compiler": {
    "name": "solc",
    "version": "0.4.26+commit.4563c3fc.Emscripten.clang"
  },
  "schemaVersion": "3.4.1",
  "updatedAt": "2021-07-06T07:48:33.082Z",
  "networkType": "ethereum",
  "devdoc": {
    "methods": {}
  },
  "userdoc": {
    "methods": {}
  }
}