{
  "contractName": "ETLNFT",
  "abi": [
    {
      "inputs": [
        {
          "internalType": "string",
          "name": "_name",
          "type": "string"
        },
        {
          "internalType": "string",
          "name": "_symbol",
          "type": "string"
        },
        {
          "internalType": "string",
          "name": "_initBaseURI",
          "type": "string"
        }
      ],
      "stateMutability": "nonpayable",
      "type": "constructor"
    },
    {
      "anonymous": false,
      "inputs": [
        {
          "indexed": true,
          "internalType": "address",
          "name": "owner",
          "type": "address"
        },
        {
          "indexed": true,
          "internalType": "address",
          "name": "approved",
          "type": "address"
        },
        {
          "indexed": true,
          "internalType": "uint256",
          "name": "tokenId",
          "type": "uint256"
        }
      ],
      "name": "Approval",
      "type": "event"
    },
    {
      "anonymous": false,
      "inputs": [
        {
          "indexed": true,
          "internalType": "address",
          "name": "owner",
          "type": "address"
        },
        {
          "indexed": true,
          "internalType": "address",
          "name": "operator",
          "type": "address"
        },
        {
          "indexed": false,
          "internalType": "bool",
          "name": "approved",
          "type": "bool"
        }
      ],
      "name": "ApprovalForAll",
      "type": "event"
    },
    {
      "anonymous": false,
      "inputs": [
        {
          "indexed": true,
          "internalType": "address",
          "name": "previousOwner",
          "type": "address"
        },
        {
          "indexed": true,
          "internalType": "address",
          "name": "newOwner",
          "type": "address"
        }
      ],
      "name": "OwnershipTransferred",
      "type": "event"
    },
    {
      "anonymous": false,
      "inputs": [
        {
          "indexed": true,
          "internalType": "address",
          "name": "from",
          "type": "address"
        },
        {
          "indexed": true,
          "internalType": "address",
          "name": "to",
          "type": "address"
        },
        {
          "indexed": true,
          "internalType": "uint256",
          "name": "tokenId",
          "type": "uint256"
        }
      ],
      "name": "Transfer",
      "type": "event"
    },
    {
      "inputs": [
        {
          "internalType": "address",
          "name": "to",
          "type": "address"
        },
        {
          "internalType": "uint256",
          "name": "tokenId",
          "type": "uint256"
        }
      ],
      "name": "approve",
      "outputs": [],
      "stateMutability": "nonpayable",
      "type": "function"
    },
    {
      "inputs": [
        {
          "internalType": "address",
          "name": "owner",
          "type": "address"
        }
      ],
      "name": "balanceOf",
      "outputs": [
        {
          "internalType": "uint256",
          "name": "",
          "type": "uint256"
        }
      ],
      "stateMutability": "view",
      "type": "function",
      "constant": true
    },
    {
      "inputs": [],
      "name": "baseExtension",
      "outputs": [
        {
          "internalType": "string",
          "name": "",
          "type": "string"
        }
      ],
      "stateMutability": "view",
      "type": "function",
      "constant": true
    },
    {
      "inputs": [],
      "name": "baseURI",
      "outputs": [
        {
          "internalType": "string",
          "name": "",
          "type": "string"
        }
      ],
      "stateMutability": "view",
      "type": "function",
      "constant": true
    },
    {
      "inputs": [],
      "name": "cost",
      "outputs": [
        {
          "internalType": "uint256",
          "name": "",
          "type": "uint256"
        }
      ],
      "stateMutability": "view",
      "type": "function",
      "constant": true
    },
    {
      "inputs": [
        {
          "internalType": "uint256",
          "name": "tokenId",
          "type": "uint256"
        }
      ],
      "name": "getApproved",
      "outputs": [
        {
          "internalType": "address",
          "name": "",
          "type": "address"
        }
      ],
      "stateMutability": "view",
      "type": "function",
      "constant": true
    },
    {
      "inputs": [
        {
          "internalType": "address",
          "name": "owner",
          "type": "address"
        },
        {
          "internalType": "address",
          "name": "operator",
          "type": "address"
        }
      ],
      "name": "isApprovedForAll",
      "outputs": [
        {
          "internalType": "bool",
          "name": "",
          "type": "bool"
        }
      ],
      "stateMutability": "view",
      "type": "function",
      "constant": true
    },
    {
      "inputs": [],
      "name": "maxMintAmount",
      "outputs": [
        {
          "internalType": "uint256",
          "name": "",
          "type": "uint256"
        }
      ],
      "stateMutability": "view",
      "type": "function",
      "constant": true
    },
    {
      "inputs": [],
      "name": "maxSupply",
      "outputs": [
        {
          "internalType": "uint256",
          "name": "",
          "type": "uint256"
        }
      ],
      "stateMutability": "view",
      "type": "function",
      "constant": true
    },
    {
      "inputs": [],
      "name": "name",
      "outputs": [
        {
          "internalType": "string",
          "name": "",
          "type": "string"
        }
      ],
      "stateMutability": "view",
      "type": "function",
      "constant": true
    },
    {
      "inputs": [],
      "name": "owner",
      "outputs": [
        {
          "internalType": "address",
          "name": "",
          "type": "address"
        }
      ],
      "stateMutability": "view",
      "type": "function",
      "constant": true
    },
    {
      "inputs": [
        {
          "internalType": "uint256",
          "name": "tokenId",
          "type": "uint256"
        }
      ],
      "name": "ownerOf",
      "outputs": [
        {
          "internalType": "address",
          "name": "",
          "type": "address"
        }
      ],
      "stateMutability": "view",
      "type": "function",
      "constant": true
    },
    {
      "inputs": [],
      "name": "paused",
      "outputs": [
        {
          "internalType": "bool",
          "name": "",
          "type": "bool"
        }
      ],
      "stateMutability": "view",
      "type": "function",
      "constant": true
    },
    {
      "inputs": [],
      "name": "renounceOwnership",
      "outputs": [],
      "stateMutability": "nonpayable",
      "type": "function"
    },
    {
      "inputs": [
        {
          "internalType": "address",
          "name": "from",
          "type": "address"
        },
        {
          "internalType": "address",
          "name": "to",
          "type": "address"
        },
        {
          "internalType": "uint256",
          "name": "tokenId",
          "type": "uint256"
        }
      ],
      "name": "safeTransferFrom",
      "outputs": [],
      "stateMutability": "nonpayable",
      "type": "function"
    },
    {
      "inputs": [
        {
          "internalType": "address",
          "name": "from",
          "type": "address"
        },
        {
          "internalType": "address",
          "name": "to",
          "type": "address"
        },
        {
          "internalType": "uint256",
          "name": "tokenId",
          "type": "uint256"
        },
        {
          "internalType": "bytes",
          "name": "_data",
          "type": "bytes"
        }
      ],
      "name": "safeTransferFrom",
      "outputs": [],
      "stateMutability": "nonpayable",
      "type": "function"
    },
    {
      "inputs": [
        {
          "internalType": "address",
          "name": "operator",
          "type": "address"
        },
        {
          "internalType": "bool",
          "name": "approved",
          "type": "bool"
        }
      ],
      "name": "setApprovalForAll",
      "outputs": [],
      "stateMutability": "nonpayable",
      "type": "function"
    },
    {
      "inputs": [
        {
          "internalType": "bytes4",
          "name": "interfaceId",
          "type": "bytes4"
        }
      ],
      "name": "supportsInterface",
      "outputs": [
        {
          "internalType": "bool",
          "name": "",
          "type": "bool"
        }
      ],
      "stateMutability": "view",
      "type": "function",
      "constant": true
    },
    {
      "inputs": [],
      "name": "symbol",
      "outputs": [
        {
          "internalType": "string",
          "name": "",
          "type": "string"
        }
      ],
      "stateMutability": "view",
      "type": "function",
      "constant": true
    },
    {
      "inputs": [
        {
          "internalType": "uint256",
          "name": "index",
          "type": "uint256"
        }
      ],
      "name": "tokenByIndex",
      "outputs": [
        {
          "internalType": "uint256",
          "name": "",
          "type": "uint256"
        }
      ],
      "stateMutability": "view",
      "type": "function",
      "constant": true
    },
    {
      "inputs": [
        {
          "internalType": "address",
          "name": "owner",
          "type": "address"
        },
        {
          "internalType": "uint256",
          "name": "index",
          "type": "uint256"
        }
      ],
      "name": "tokenOfOwnerByIndex",
      "outputs": [
        {
          "internalType": "uint256",
          "name": "",
          "type": "uint256"
        }
      ],
      "stateMutability": "view",
      "type": "function",
      "constant": true
    },
    {
      "inputs": [],
      "name": "totalSupply",
      "outputs": [
        {
          "internalType": "uint256",
          "name": "",
          "type": "uint256"
        }
      ],
      "stateMutability": "view",
      "type": "function",
      "constant": true
    },
    {
      "inputs": [
        {
          "internalType": "address",
          "name": "from",
          "type": "address"
        },
        {
          "internalType": "address",
          "name": "to",
          "type": "address"
        },
        {
          "internalType": "uint256",
          "name": "tokenId",
          "type": "uint256"
        }
      ],
      "name": "transferFrom",
      "outputs": [],
      "stateMutability": "nonpayable",
      "type": "function"
    },
    {
      "inputs": [
        {
          "internalType": "address",
          "name": "newOwner",
          "type": "address"
        }
      ],
      "name": "transferOwnership",
      "outputs": [],
      "stateMutability": "nonpayable",
      "type": "function"
    },
    {
      "inputs": [
        {
          "internalType": "address",
          "name": "_to",
          "type": "address"
        },
        {
          "internalType": "uint256",
          "name": "_mintAmount",
          "type": "uint256"
        }
      ],
      "name": "mint",
      "outputs": [],
      "stateMutability": "payable",
      "type": "function",
      "payable": true
    },
    {
      "inputs": [
        {
          "internalType": "address",
          "name": "_owner",
          "type": "address"
        }
      ],
      "name": "walletOfOwner",
      "outputs": [
        {
          "internalType": "uint256[]",
          "name": "",
          "type": "uint256[]"
        }
      ],
      "stateMutability": "view",
      "type": "function",
      "constant": true
    },
    {
      "inputs": [
        {
          "internalType": "uint256",
          "name": "tokenId",
          "type": "uint256"
        }
      ],
      "name": "tokenURI",
      "outputs": [
        {
          "internalType": "string",
          "name": "",
          "type": "string"
        }
      ],
      "stateMutability": "view",
      "type": "function",
      "constant": true
    },
    {
      "inputs": [
        {
          "internalType": "uint256",
          "name": "_newCost",
          "type": "uint256"
        }
      ],
      "name": "setCost",
      "outputs": [],
      "stateMutability": "nonpayable",
      "type": "function"
    },
    {
      "inputs": [
        {
          "internalType": "uint256",
          "name": "_newmaxMintAmount",
          "type": "uint256"
        }
      ],
      "name": "setmaxMintAmount",
      "outputs": [],
      "stateMutability": "nonpayable",
      "type": "function"
    },
    {
      "inputs": [
        {
          "internalType": "string",
          "name": "_newBaseURI",
          "type": "string"
        }
      ],
      "name": "setBaseURI",
      "outputs": [],
      "stateMutability": "nonpayable",
      "type": "function"
    },
    {
      "inputs": [
        {
          "internalType": "string",
          "name": "_newBaseExtension",
          "type": "string"
        }
      ],
      "name": "setBaseExtension",
      "outputs": [],
      "stateMutability": "nonpayable",
      "type": "function"
    },
    {
      "inputs": [
        {
          "internalType": "bool",
          "name": "_state",
          "type": "bool"
        }
      ],
      "name": "pause",
      "outputs": [],
      "stateMutability": "nonpayable",
      "type": "function"
    },
    {
      "inputs": [],
      "name": "withdraw",
      "outputs": [],
      "stateMutability": "payable",
      "type": "function",
      "payable": true
    }
  ],
  "bytecode": "0x60c06040526005608081905264173539b7b760d91b60a09081526200002891600c9190620008f6565b5065b5e620f48000600d556103e8600e556014600f556010805460ff191690553480156200005557600080fd5b5060405162002ee838038062002ee8833981016040819052620000789162000a72565b82518390839062000091906000906020850190620008f6565b508051620000a7906001906020840190620008f6565b505050620000c4620000be620000e560201b60201c565b620000e9565b620000cf816200013b565b620000dc336001620001b4565b50505062000c80565b3390565b600a80546001600160a01b038381166001600160a01b0319831681179093556040519116919082907f8be0079c531659141344cd1fd0a4f28419497f9722a3daafe3b4186f6b6457e090600090a35050565b600a546001600160a01b031633146200019b5760405162461bcd60e51b815260206004820181905260248201527f4f776e61626c653a2063616c6c6572206973206e6f7420746865206f776e657260448201526064015b60405180910390fd5b8051620001b090600b906020840190620008f6565b5050565b6000620001c060085490565b60105490915060ff1615620001d457600080fd5b60008211620001e257600080fd5b600f54821115620001f257600080fd5b600e5462000201838362000b19565b11156200020d57600080fd5b600a546001600160a01b031633146200023d5781600d5462000230919062000b34565b3410156200023d57600080fd5b60015b82811162000274576200025f8462000259838562000b19565b6200027a565b806200026b8162000b56565b91505062000240565b50505050565b620001b08282604051806020016040528060008152506200029c60201b60201c565b620002a8838362000314565b620002b760008484846200046a565b6200030f5760405162461bcd60e51b8152602060048201526032602482015260008051602062002ec883398151915260448201527131b2b4bb32b91034b6b83632b6b2b73a32b960711b606482015260840162000192565b505050565b6001600160a01b0382166200036c5760405162461bcd60e51b815260206004820181905260248201527f4552433732313a206d696e7420746f20746865207a65726f2061646472657373604482015260640162000192565b6000818152600260205260409020546001600160a01b031615620003d35760405162461bcd60e51b815260206004820152601c60248201527f4552433732313a20746f6b656e20616c7265616479206d696e74656400000000604482015260640162000192565b620003e160008383620005d3565b6001600160a01b03821660009081526003602052604081208054600192906200040c90849062000b19565b909155505060008181526002602052604080822080546001600160a01b0319166001600160a01b03861690811790915590518392907fddf252ad1be2c89b69c2b068fc378daa952ba7f163c4a11628f55a4df523b3ef908290a45050565b60006200048b846001600160a01b0316620006af60201b620010f61760201c565b15620005c757604051630a85bd0160e11b81526001600160a01b0385169063150b7a0290620004c590339089908890889060040162000b74565b602060405180830381600087803b158015620004e057600080fd5b505af192505050801562000513575060408051601f3d908101601f19168201909252620005109181019062000bca565b60015b620005ac573d80801562000544576040519150601f19603f3d011682016040523d82523d6000602084013e62000549565b606091505b508051620005a45760405162461bcd60e51b8152602060048201526032602482015260008051602062002ec883398151915260448201527131b2b4bb32b91034b6b83632b6b2b73a32b960711b606482015260840162000192565b805181602001fd5b6001600160e01b031916630a85bd0160e11b149050620005cb565b5060015b949350505050565b620005eb8383836200030f60201b620008af1760201c565b6001600160a01b03831662000649576200064381600880546000838152600960205260408120829055600182018355919091527ff3f7a9fe364faab93b216da50a3214154f22a0a2b415b23a84c8169e8b636ee30155565b6200066f565b816001600160a01b0316836001600160a01b0316146200066f576200066f8382620006b5565b6001600160a01b03821662000689576200030f8162000762565b826001600160a01b0316826001600160a01b0316146200030f576200030f82826200081c565b3b151590565b60006001620006cf846200086d60201b62000d431760201c565b620006db919062000bfd565b6000838152600760205260409020549091508082146200072f576001600160a01b03841660009081526006602090815260408083208584528252808320548484528184208190558352600790915290208190555b5060009182526007602090815260408084208490556001600160a01b039094168352600681528383209183525290812055565b600854600090620007769060019062000bfd565b60008381526009602052604081205460088054939450909284908110620007a157620007a162000c17565b906000526020600020015490508060088381548110620007c557620007c562000c17565b600091825260208083209091019290925582815260099091526040808220849055858252812055600880548062000800576200080062000c2d565b6001900381819060005260206000200160009055905550505050565b600062000834836200086d60201b62000d431760201c565b6001600160a01b039093166000908152600660209081526040808320868452825280832085905593825260079052919091209190915550565b60006001600160a01b038216620008da5760405162461bcd60e51b815260206004820152602a60248201527f4552433732313a2062616c616e636520717565727920666f7220746865207a65604482015269726f206164647265737360b01b606482015260840162000192565b506001600160a01b031660009081526003602052604090205490565b828054620009049062000c43565b90600052602060002090601f01602090048101928262000928576000855562000973565b82601f106200094357805160ff191683800117855562000973565b8280016001018555821562000973579182015b828111156200097357825182559160200191906001019062000956565b506200098192915062000985565b5090565b5b8082111562000981576000815560010162000986565b634e487b7160e01b600052604160045260246000fd5b60005b83811015620009cf578181015183820152602001620009b5565b83811115620002745750506000910152565b600082601f830112620009f357600080fd5b81516001600160401b038082111562000a105762000a106200099c565b604051601f8301601f19908116603f0116810190828211818310171562000a3b5762000a3b6200099c565b8160405283815286602085880101111562000a5557600080fd5b62000a68846020830160208901620009b2565b9695505050505050565b60008060006060848603121562000a8857600080fd5b83516001600160401b038082111562000aa057600080fd5b62000aae87838801620009e1565b9450602086015191508082111562000ac557600080fd5b62000ad387838801620009e1565b9350604086015191508082111562000aea57600080fd5b5062000af986828701620009e1565b9150509250925092565b634e487b7160e01b600052601160045260246000fd5b6000821982111562000b2f5762000b2f62000b03565b500190565b600081600019048311821515161562000b515762000b5162000b03565b500290565b600060001982141562000b6d5762000b6d62000b03565b5060010190565b600060018060a01b03808716835280861660208401525083604083015260806060830152825180608084015262000bb38160a0850160208701620009b2565b601f01601f19169190910160a00195945050505050565b60006020828403121562000bdd57600080fd5b81516001600160e01b03198116811462000bf657600080fd5b9392505050565b60008282101562000c125762000c1262000b03565b500390565b634e487b7160e01b600052603260045260246000fd5b634e487b7160e01b600052603160045260246000fd5b600181811c9082168062000c5857607f821691505b6020821081141562000c7a57634e487b7160e01b600052602260045260246000fd5b50919050565b6122388062000c906000396000f3fe6080604052600436106101ee5760003560e01c806355f804b31161010d57806395d89b41116100a0578063c87b56dd1161006f578063c87b56dd14610547578063d5abeb0114610567578063da3ef23f1461057d578063e985e9c51461059d578063f2fde38b146105e657600080fd5b806395d89b41146104dd578063a22cb465146104f2578063b88d4fde14610512578063c66828621461053257600080fd5b806370a08231116100dc57806370a082311461046a578063715018a61461048a5780637f00c7a61461049f5780638da5cb5b146104bf57600080fd5b806355f804b3146103fb5780635c975abb1461041b5780636352211e146104355780636c0360eb1461045557600080fd5b806323b872dd1161018557806342842e0e1161015457806342842e0e1461036e578063438b63001461038e57806344a0d68a146103bb5780634f6ccce7146103db57600080fd5b806323b872dd146103135780632f745c59146103335780633ccfd60b1461035357806340c10f191461035b57600080fd5b8063095ea7b3116101c1578063095ea7b3146102a457806313faede6146102c457806318160ddd146102e8578063239c70ae146102fd57600080fd5b806301ffc9a7146101f357806302329a291461022857806306fdde031461024a578063081812fc1461026c575b600080fd5b3480156101ff57600080fd5b5061021361020e366004611b8d565b610606565b60405190151581526020015b60405180910390f35b34801561023457600080fd5b50610248610243366004611bbf565b610631565b005b34801561025657600080fd5b5061025f610677565b60405161021f9190611c32565b34801561027857600080fd5b5061028c610287366004611c45565b610709565b6040516001600160a01b03909116815260200161021f565b3480156102b057600080fd5b506102486102bf366004611c75565b61079e565b3480156102d057600080fd5b506102da600d5481565b60405190815260200161021f565b3480156102f457600080fd5b506008546102da565b34801561030957600080fd5b506102da600f5481565b34801561031f57600080fd5b5061024861032e366004611c9f565b6108b4565b34801561033f57600080fd5b506102da61034e366004611c75565b6108e5565b61024861097b565b610248610369366004611c75565b6109cb565b34801561037a57600080fd5b50610248610389366004611c9f565b610a7e565b34801561039a57600080fd5b506103ae6103a9366004611cdb565b610a99565b60405161021f9190611cf6565b3480156103c757600080fd5b506102486103d6366004611c45565b610b3b565b3480156103e757600080fd5b506102da6103f6366004611c45565b610b6a565b34801561040757600080fd5b50610248610416366004611dc6565b610bfd565b34801561042757600080fd5b506010546102139060ff1681565b34801561044157600080fd5b5061028c610450366004611c45565b610c3e565b34801561046157600080fd5b5061025f610cb5565b34801561047657600080fd5b506102da610485366004611cdb565b610d43565b34801561049657600080fd5b50610248610dca565b3480156104ab57600080fd5b506102486104ba366004611c45565b610dfe565b3480156104cb57600080fd5b50600a546001600160a01b031661028c565b3480156104e957600080fd5b5061025f610e2d565b3480156104fe57600080fd5b5061024861050d366004611e0f565b610e3c565b34801561051e57600080fd5b5061024861052d366004611e42565b610f01565b34801561053e57600080fd5b5061025f610f33565b34801561055357600080fd5b5061025f610562366004611c45565b610f40565b34801561057357600080fd5b506102da600e5481565b34801561058957600080fd5b50610248610598366004611dc6565b61101e565b3480156105a957600080fd5b506102136105b8366004611ebe565b6001600160a01b03918216600090815260056020908152604080832093909416825291909152205460ff1690565b3480156105f257600080fd5b50610248610601366004611cdb565b61105b565b60006001600160e01b0319821663780e9d6360e01b148061062b575061062b826110fc565b92915050565b600a546001600160a01b031633146106645760405162461bcd60e51b815260040161065b90611ee8565b60405180910390fd5b6010805460ff1916911515919091179055565b60606000805461068690611f1d565b80601f01602080910402602001604051908101604052809291908181526020018280546106b290611f1d565b80156106ff5780601f106106d4576101008083540402835291602001916106ff565b820191906000526020600020905b8154815290600101906020018083116106e257829003601f168201915b5050505050905090565b6000818152600260205260408120546001600160a01b03166107825760405162461bcd60e51b815260206004820152602c60248201527f4552433732313a20617070726f76656420717565727920666f72206e6f6e657860448201526b34b9ba32b73a103a37b5b2b760a11b606482015260840161065b565b506000908152600460205260409020546001600160a01b031690565b60006107a982610c3e565b9050806001600160a01b0316836001600160a01b031614156108175760405162461bcd60e51b815260206004820152602160248201527f4552433732313a20617070726f76616c20746f2063757272656e74206f776e656044820152603960f91b606482015260840161065b565b336001600160a01b0382161480610833575061083381336105b8565b6108a55760405162461bcd60e51b815260206004820152603860248201527f4552433732313a20617070726f76652063616c6c6572206973206e6f74206f7760448201527f6e6572206e6f7220617070726f76656420666f7220616c6c0000000000000000606482015260840161065b565b6108af838361114c565b505050565b6108be33826111ba565b6108da5760405162461bcd60e51b815260040161065b90611f58565b6108af8383836112b1565b60006108f083610d43565b82106109525760405162461bcd60e51b815260206004820152602b60248201527f455243373231456e756d657261626c653a206f776e657220696e646578206f7560448201526a74206f6620626f756e647360a81b606482015260840161065b565b506001600160a01b03919091166000908152600660209081526040808320938352929052205490565b600a546001600160a01b031633146109a55760405162461bcd60e51b815260040161065b90611ee8565b60405133904780156108fc02916000818181858888f193505050506109c957600080fd5b565b60006109d660085490565b60105490915060ff16156109e957600080fd5b600082116109f657600080fd5b600f54821115610a0557600080fd5b600e54610a128383611fbf565b1115610a1d57600080fd5b600a546001600160a01b03163314610a495781600d54610a3d9190611fd7565b341015610a4957600080fd5b60015b828111610a7857610a6684610a618385611fbf565b61145c565b80610a7081611ff6565b915050610a4c565b50505050565b6108af83838360405180602001604052806000815250610f01565b60606000610aa683610d43565b905060008167ffffffffffffffff811115610ac357610ac3611d3a565b604051908082528060200260200182016040528015610aec578160200160208202803683370190505b50905060005b82811015610b3357610b0485826108e5565b828281518110610b1657610b16612011565b602090810291909101015280610b2b81611ff6565b915050610af2565b509392505050565b600a546001600160a01b03163314610b655760405162461bcd60e51b815260040161065b90611ee8565b600d55565b6000610b7560085490565b8210610bd85760405162461bcd60e51b815260206004820152602c60248201527f455243373231456e756d657261626c653a20676c6f62616c20696e646578206f60448201526b7574206f6620626f756e647360a01b606482015260840161065b565b60088281548110610beb57610beb612011565b90600052602060002001549050919050565b600a546001600160a01b03163314610c275760405162461bcd60e51b815260040161065b90611ee8565b8051610c3a90600b906020840190611ade565b5050565b6000818152600260205260408120546001600160a01b03168061062b5760405162461bcd60e51b815260206004820152602960248201527f4552433732313a206f776e657220717565727920666f72206e6f6e657869737460448201526832b73a103a37b5b2b760b91b606482015260840161065b565b600b8054610cc290611f1d565b80601f0160208091040260200160405190810160405280929190818152602001828054610cee90611f1d565b8015610d3b5780601f10610d1057610100808354040283529160200191610d3b565b820191906000526020600020905b815481529060010190602001808311610d1e57829003601f168201915b505050505081565b60006001600160a01b038216610dae5760405162461bcd60e51b815260206004820152602a60248201527f4552433732313a2062616c616e636520717565727920666f7220746865207a65604482015269726f206164647265737360b01b606482015260840161065b565b506001600160a01b031660009081526003602052604090205490565b600a546001600160a01b03163314610df45760405162461bcd60e51b815260040161065b90611ee8565b6109c96000611476565b600a546001600160a01b03163314610e285760405162461bcd60e51b815260040161065b90611ee8565b600f55565b60606001805461068690611f1d565b6001600160a01b038216331415610e955760405162461bcd60e51b815260206004820152601960248201527f4552433732313a20617070726f766520746f2063616c6c657200000000000000604482015260640161065b565b3360008181526005602090815260408083206001600160a01b03871680855290835292819020805460ff191686151590811790915590519081529192917f17307eab39ab6107e8899845ad3d59bd9653f200f220920489ca2b5937696c31910160405180910390a35050565b610f0b33836111ba565b610f275760405162461bcd60e51b815260040161065b90611f58565b610a78848484846114c8565b600c8054610cc290611f1d565b6000818152600260205260409020546060906001600160a01b0316610fbf5760405162461bcd60e51b815260206004820152602f60248201527f4552433732314d657461646174613a2055524920717565727920666f72206e6f60448201526e3732bc34b9ba32b73a103a37b5b2b760891b606482015260840161065b565b6000610fc96114fb565b90506000815111610fe95760405180602001604052806000815250611017565b80610ff38461150a565b600c60405160200161100793929190612027565b6040516020818303038152906040525b9392505050565b600a546001600160a01b031633146110485760405162461bcd60e51b815260040161065b90611ee8565b8051610c3a90600c906020840190611ade565b600a546001600160a01b031633146110855760405162461bcd60e51b815260040161065b90611ee8565b6001600160a01b0381166110ea5760405162461bcd60e51b815260206004820152602660248201527f4f776e61626c653a206e6577206f776e657220697320746865207a65726f206160448201526564647265737360d01b606482015260840161065b565b6110f381611476565b50565b3b151590565b60006001600160e01b031982166380ac58cd60e01b148061112d57506001600160e01b03198216635b5e139f60e01b145b8061062b57506301ffc9a760e01b6001600160e01b031983161461062b565b600081815260046020526040902080546001600160a01b0319166001600160a01b038416908117909155819061118182610c3e565b6001600160a01b03167f8c5be1e5ebec7d5bd14f71427d1e84f3dd0314c0f7b2291e5b200ac8c7c3b92560405160405180910390a45050565b6000818152600260205260408120546001600160a01b03166112335760405162461bcd60e51b815260206004820152602c60248201527f4552433732313a206f70657261746f7220717565727920666f72206e6f6e657860448201526b34b9ba32b73a103a37b5b2b760a11b606482015260840161065b565b600061123e83610c3e565b9050806001600160a01b0316846001600160a01b031614806112795750836001600160a01b031661126e84610709565b6001600160a01b0316145b806112a957506001600160a01b0380821660009081526005602090815260408083209388168352929052205460ff165b949350505050565b826001600160a01b03166112c482610c3e565b6001600160a01b03161461132c5760405162461bcd60e51b815260206004820152602960248201527f4552433732313a207472616e73666572206f6620746f6b656e2074686174206960448201526839903737ba1037bbb760b91b606482015260840161065b565b6001600160a01b03821661138e5760405162461bcd60e51b8152602060048201526024808201527f4552433732313a207472616e7366657220746f20746865207a65726f206164646044820152637265737360e01b606482015260840161065b565b611399838383611608565b6113a460008261114c565b6001600160a01b03831660009081526003602052604081208054600192906113cd9084906120eb565b90915550506001600160a01b03821660009081526003602052604081208054600192906113fb908490611fbf565b909155505060008181526002602052604080822080546001600160a01b0319166001600160a01b0386811691821790925591518493918716917fddf252ad1be2c89b69c2b068fc378daa952ba7f163c4a11628f55a4df523b3ef91a4505050565b610c3a8282604051806020016040528060008152506116c0565b600a80546001600160a01b038381166001600160a01b0319831681179093556040519116919082907f8be0079c531659141344cd1fd0a4f28419497f9722a3daafe3b4186f6b6457e090600090a35050565b6114d38484846112b1565b6114df848484846116f3565b610a785760405162461bcd60e51b815260040161065b90612102565b6060600b805461068690611f1d565b60608161152e5750506040805180820190915260018152600360fc1b602082015290565b8160005b8115611558578061154281611ff6565b91506115519050600a8361216a565b9150611532565b60008167ffffffffffffffff81111561157357611573611d3a565b6040519080825280601f01601f19166020018201604052801561159d576020820181803683370190505b5090505b84156112a9576115b26001836120eb565b91506115bf600a8661217e565b6115ca906030611fbf565b60f81b8183815181106115df576115df612011565b60200101906001600160f81b031916908160001a905350611601600a8661216a565b94506115a1565b6001600160a01b0383166116635761165e81600880546000838152600960205260408120829055600182018355919091527ff3f7a9fe364faab93b216da50a3214154f22a0a2b415b23a84c8169e8b636ee30155565b611686565b816001600160a01b0316836001600160a01b031614611686576116868382611800565b6001600160a01b03821661169d576108af8161189d565b826001600160a01b0316826001600160a01b0316146108af576108af828261194c565b6116ca8383611990565b6116d760008484846116f3565b6108af5760405162461bcd60e51b815260040161065b90612102565b60006001600160a01b0384163b156117f557604051630a85bd0160e11b81526001600160a01b0385169063150b7a0290611737903390899088908890600401612192565b602060405180830381600087803b15801561175157600080fd5b505af1925050508015611781575060408051601f3d908101601f1916820190925261177e918101906121cf565b60015b6117db573d8080156117af576040519150601f19603f3d011682016040523d82523d6000602084013e6117b4565b606091505b5080516117d35760405162461bcd60e51b815260040161065b90612102565b805181602001fd5b6001600160e01b031916630a85bd0160e11b1490506112a9565b506001949350505050565b6000600161180d84610d43565b61181791906120eb565b60008381526007602052604090205490915080821461186a576001600160a01b03841660009081526006602090815260408083208584528252808320548484528184208190558352600790915290208190555b5060009182526007602090815260408084208490556001600160a01b039094168352600681528383209183525290812055565b6008546000906118af906001906120eb565b600083815260096020526040812054600880549394509092849081106118d7576118d7612011565b9060005260206000200154905080600883815481106118f8576118f8612011565b6000918252602080832090910192909255828152600990915260408082208490558582528120556008805480611930576119306121ec565b6001900381819060005260206000200160009055905550505050565b600061195783610d43565b6001600160a01b039093166000908152600660209081526040808320868452825280832085905593825260079052919091209190915550565b6001600160a01b0382166119e65760405162461bcd60e51b815260206004820181905260248201527f4552433732313a206d696e7420746f20746865207a65726f2061646472657373604482015260640161065b565b6000818152600260205260409020546001600160a01b031615611a4b5760405162461bcd60e51b815260206004820152601c60248201527f4552433732313a20746f6b656e20616c7265616479206d696e74656400000000604482015260640161065b565b611a5760008383611608565b6001600160a01b0382166000908152600360205260408120805460019290611a80908490611fbf565b909155505060008181526002602052604080822080546001600160a01b0319166001600160a01b03861690811790915590518392907fddf252ad1be2c89b69c2b068fc378daa952ba7f163c4a11628f55a4df523b3ef908290a45050565b828054611aea90611f1d565b90600052602060002090601f016020900481019282611b0c5760008555611b52565b82601f10611b2557805160ff1916838001178555611b52565b82800160010185558215611b52579182015b82811115611b52578251825591602001919060010190611b37565b50611b5e929150611b62565b5090565b5b80821115611b5e5760008155600101611b63565b6001600160e01b0319811681146110f357600080fd5b600060208284031215611b9f57600080fd5b813561101781611b77565b80358015158114611bba57600080fd5b919050565b600060208284031215611bd157600080fd5b61101782611baa565b60005b83811015611bf5578181015183820152602001611bdd565b83811115610a785750506000910152565b60008151808452611c1e816020860160208601611bda565b601f01601f19169290920160200192915050565b6020815260006110176020830184611c06565b600060208284031215611c5757600080fd5b5035919050565b80356001600160a01b0381168114611bba57600080fd5b60008060408385031215611c8857600080fd5b611c9183611c5e565b946020939093013593505050565b600080600060608486031215611cb457600080fd5b611cbd84611c5e565b9250611ccb60208501611c5e565b9150604084013590509250925092565b600060208284031215611ced57600080fd5b61101782611c5e565b6020808252825182820181905260009190848201906040850190845b81811015611d2e57835183529284019291840191600101611d12565b50909695505050505050565b634e487b7160e01b600052604160045260246000fd5b600067ffffffffffffffff80841115611d6b57611d6b611d3a565b604051601f8501601f19908116603f01168101908282118183101715611d9357611d93611d3a565b81604052809350858152868686011115611dac57600080fd5b858560208301376000602087830101525050509392505050565b600060208284031215611dd857600080fd5b813567ffffffffffffffff811115611def57600080fd5b8201601f81018413611e0057600080fd5b6112a984823560208401611d50565b60008060408385031215611e2257600080fd5b611e2b83611c5e565b9150611e3960208401611baa565b90509250929050565b60008060008060808587031215611e5857600080fd5b611e6185611c5e565b9350611e6f60208601611c5e565b925060408501359150606085013567ffffffffffffffff811115611e9257600080fd5b8501601f81018713611ea357600080fd5b611eb287823560208401611d50565b91505092959194509250565b60008060408385031215611ed157600080fd5b611eda83611c5e565b9150611e3960208401611c5e565b6020808252818101527f4f776e61626c653a2063616c6c6572206973206e6f7420746865206f776e6572604082015260600190565b600181811c90821680611f3157607f821691505b60208210811415611f5257634e487b7160e01b600052602260045260246000fd5b50919050565b60208082526031908201527f4552433732313a207472616e736665722063616c6c6572206973206e6f74206f6040820152701ddb995c881b9bdc88185c1c1c9bdd9959607a1b606082015260800190565b634e487b7160e01b600052601160045260246000fd5b60008219821115611fd257611fd2611fa9565b500190565b6000816000190483118215151615611ff157611ff1611fa9565b500290565b600060001982141561200a5761200a611fa9565b5060010190565b634e487b7160e01b600052603260045260246000fd5b60008451602061203a8285838a01611bda565b85519184019161204d8184848a01611bda565b8554920191600090600181811c908083168061206a57607f831692505b85831081141561208857634e487b7160e01b85526022600452602485fd5b80801561209c57600181146120ad576120da565b60ff198516885283880195506120da565b60008b81526020902060005b858110156120d25781548a8201529084019088016120b9565b505083880195505b50939b9a5050505050505050505050565b6000828210156120fd576120fd611fa9565b500390565b60208082526032908201527f4552433732313a207472616e7366657220746f206e6f6e20455243373231526560408201527131b2b4bb32b91034b6b83632b6b2b73a32b960711b606082015260800190565b634e487b7160e01b600052601260045260246000fd5b60008261217957612179612154565b500490565b60008261218d5761218d612154565b500690565b6001600160a01b03858116825284166020820152604081018390526080606082018190526000906121c590830184611c06565b9695505050505050565b6000602082840312156121e157600080fd5b815161101781611b77565b634e487b7160e01b600052603160045260246000fdfea2646970667358221220db710c2efde82e2806c7bff21666545416c62ef3a3aa27f49097e8121798885d64736f6c634300080900334552433732313a207472616e7366657220746f206e6f6e204552433732315265",
  "immutableReferences": {},
  "source": "// SPDX-License-Identifier: MIT\npragma solidity ^0.8.0;\nimport \"@openzeppelin/contracts/token/ERC721/extensions/ERC721Enumerable.sol\";\nimport \"@openzeppelin/contracts/access/Ownable.sol\";\n\ncontract ETLNFT is ERC721Enumerable, Ownable {\n  using Strings for uint256;\n\n  string public baseURI;\n  string public baseExtension = \".json\";\n  uint256 public cost = 0.0002 ether;\n  uint256 public maxSupply = 1000;\n  uint256 public maxMintAmount = 20;\n  bool public paused = false;\n\n  constructor(\n    string memory _name,\n    string memory _symbol,\n    string memory _initBaseURI\n  ) ERC721(_name, _symbol) {\n    setBaseURI(_initBaseURI);\n    mint(msg.sender, 1);\n  }\n\n  // internal\n  function _baseURI() internal view virtual override returns (string memory) {\n    return baseURI;\n  }\n\n  // public\n  function mint(address _to, uint256 _mintAmount) public payable {\n    uint256 supply = totalSupply();\n    require(!paused);\n    require(_mintAmount > 0);\n    require(_mintAmount <= maxMintAmount);\n    require(supply + _mintAmount <= maxSupply);\n\n    if (msg.sender != owner()) {\n      require(msg.value >= cost * _mintAmount);\n    }\n\n    for (uint256 i = 1; i <= _mintAmount; i++) {\n      _safeMint(_to, supply + i);\n    }\n  }\n\n  function walletOfOwner(address _owner)\n    public\n    view\n    returns (uint256[] memory)\n  {\n    uint256 ownerTokenCount = balanceOf(_owner);\n    uint256[] memory tokenIds = new uint256[](ownerTokenCount);\n    for (uint256 i; i < ownerTokenCount; i++) {\n      tokenIds[i] = tokenOfOwnerByIndex(_owner, i);\n    }\n    return tokenIds;\n  }\n\n  function tokenURI(uint256 tokenId)\n    public\n    view\n    virtual\n    override\n    returns (string memory)\n  {\n    require(\n      _exists(tokenId),\n      \"ERC721Metadata: URI query for nonexistent token\"\n    );\n\n    string memory currentBaseURI = _baseURI();\n    return bytes(currentBaseURI).length > 0\n        ? string(abi.encodePacked(currentBaseURI, tokenId.toString(), baseExtension))\n        : \"\";\n  }\n\n  // only owner\n  function setCost(uint256 _newCost) public onlyOwner() {\n    cost = _newCost;\n  }\n\n  function setmaxMintAmount(uint256 _newmaxMintAmount) public onlyOwner() {\n    maxMintAmount = _newmaxMintAmount;\n  }\n\n  function setBaseURI(string memory _newBaseURI) public onlyOwner {\n    baseURI = _newBaseURI;\n  }\n\n  function setBaseExtension(string memory _newBaseExtension) public onlyOwner {\n    baseExtension = _newBaseExtension;\n  }\n\n  function pause(bool _state) public onlyOwner {\n    paused = _state;\n  }\n\n  function withdraw() public payable onlyOwner {\n    require(payable(msg.sender).send(address(this).balance));\n  }\n}",
  "sourcePath": "/Users/joelytj/Desktop/EtherLearn/contracts/ETLNFT.sol",
  "compiler": {
    "name": "solc",
    "version": "0.8.9+commit.e5eed63a.Emscripten.clang"
  },
  "schemaVersion": "3.3.4",
  "updatedAt": "2021-09-30T16:46:50.029Z",
  "networkType": "ethereum",
  "devdoc": {
    "kind": "dev",
    "methods": {
      "approve(address,uint256)": {
        "details": "See {IERC721-approve}."
      },
      "balanceOf(address)": {
        "details": "See {IERC721-balanceOf}."
      },
      "getApproved(uint256)": {
        "details": "See {IERC721-getApproved}."
      },
      "isApprovedForAll(address,address)": {
        "details": "See {IERC721-isApprovedForAll}."
      },
      "name()": {
        "details": "See {IERC721Metadata-name}."
      },
      "owner()": {
        "details": "Returns the address of the current owner."
      },
      "ownerOf(uint256)": {
        "details": "See {IERC721-ownerOf}."
      },
      "renounceOwnership()": {
        "details": "Leaves the contract without owner. It will not be possible to call `onlyOwner` functions anymore. Can only be called by the current owner. NOTE: Renouncing ownership will leave the contract without an owner, thereby removing any functionality that is only available to the owner."
      },
      "safeTransferFrom(address,address,uint256)": {
        "details": "See {IERC721-safeTransferFrom}."
      },
      "safeTransferFrom(address,address,uint256,bytes)": {
        "details": "See {IERC721-safeTransferFrom}."
      },
      "setApprovalForAll(address,bool)": {
        "details": "See {IERC721-setApprovalForAll}."
      },
      "supportsInterface(bytes4)": {
        "details": "See {IERC165-supportsInterface}."
      },
      "symbol()": {
        "details": "See {IERC721Metadata-symbol}."
      },
      "tokenByIndex(uint256)": {
        "details": "See {IERC721Enumerable-tokenByIndex}."
      },
      "tokenOfOwnerByIndex(address,uint256)": {
        "details": "See {IERC721Enumerable-tokenOfOwnerByIndex}."
      },
      "tokenURI(uint256)": {
        "details": "See {IERC721Metadata-tokenURI}."
      },
      "totalSupply()": {
        "details": "See {IERC721Enumerable-totalSupply}."
      },
      "transferFrom(address,address,uint256)": {
        "details": "See {IERC721-transferFrom}."
      },
      "transferOwnership(address)": {
        "details": "Transfers ownership of the contract to a new account (`newOwner`). Can only be called by the current owner."
      }
    },
    "version": 1
  },
  "userdoc": {
    "kind": "user",
    "methods": {},
    "version": 1
  }
}