{
  "contractName": "QuestionFactory",
  "abi": [
    {
      "constant": true,
      "inputs": [],
      "name": "contractbinstance",
      "outputs": [
        {
          "internalType": "address",
          "name": "",
          "type": "address"
        }
      ],
      "payable": false,
      "stateMutability": "view",
      "type": "function"
    },
    {
      "constant": true,
      "inputs": [
        {
          "internalType": "address",
          "name": "",
          "type": "address"
        }
      ],
      "name": "nftClaim",
      "outputs": [
        {
          "internalType": "string",
          "name": "",
          "type": "string"
        }
      ],
      "payable": false,
      "stateMutability": "view",
      "type": "function"
    },
    {
      "constant": true,
      "inputs": [
        {
          "internalType": "address",
          "name": "",
          "type": "address"
        }
      ],
      "name": "owner",
      "outputs": [
        {
          "internalType": "address",
          "name": "",
          "type": "address"
        }
      ],
      "payable": false,
      "stateMutability": "view",
      "type": "function"
    },
    {
      "constant": true,
      "inputs": [
        {
          "internalType": "address",
          "name": "",
          "type": "address"
        }
      ],
      "name": "users",
      "outputs": [
        {
          "internalType": "address",
          "name": "",
          "type": "address"
        }
      ],
      "payable": false,
      "stateMutability": "view",
      "type": "function"
    },
    {
      "constant": false,
      "inputs": [
        {
          "internalType": "string",
          "name": "category",
          "type": "string"
        },
        {
          "internalType": "string",
          "name": "questionTitle",
          "type": "string"
        },
        {
          "internalType": "string",
          "name": "description",
          "type": "string"
        },
        {
          "internalType": "uint256",
          "name": "deposit",
          "type": "uint256"
        },
        {
          "internalType": "uint256",
          "name": "maxDuration",
          "type": "uint256"
        },
        {
          "internalType": "string[]",
          "name": "fileHashesQuestion",
          "type": "string[]"
        },
        {
          "internalType": "string[]",
          "name": "fileNamesQuestion",
          "type": "string[]"
        }
      ],
      "name": "createQuestion",
      "outputs": [],
      "payable": false,
      "stateMutability": "nonpayable",
      "type": "function"
    },
    {
      "constant": false,
      "inputs": [
        {
          "internalType": "address",
          "name": "_question",
          "type": "address"
        },
        {
          "internalType": "string",
          "name": "_reply",
          "type": "string"
        },
        {
          "internalType": "string[]",
          "name": "_fileHashes",
          "type": "string[]"
        },
        {
          "internalType": "string[]",
          "name": "_fileNames",
          "type": "string[]"
        },
        {
          "internalType": "int256",
          "name": "_parent",
          "type": "int256"
        }
      ],
      "name": "createAnswer",
      "outputs": [],
      "payable": false,
      "stateMutability": "nonpayable",
      "type": "function"
    },
    {
      "constant": false,
      "inputs": [
        {
          "internalType": "address",
          "name": "_question",
          "type": "address"
        },
        {
          "internalType": "uint256",
          "name": "_ratingQuestion",
          "type": "uint256"
        }
      ],
      "name": "ratingQuestionAt",
      "outputs": [],
      "payable": true,
      "stateMutability": "payable",
      "type": "function"
    },
    {
      "constant": false,
      "inputs": [
        {
          "internalType": "address",
          "name": "_question",
          "type": "address"
        },
        {
          "internalType": "uint256",
          "name": "_ratingAnswer",
          "type": "uint256"
        },
        {
          "internalType": "uint256",
          "name": "_index",
          "type": "uint256"
        }
      ],
      "name": "ratingAnswerAt",
      "outputs": [],
      "payable": true,
      "stateMutability": "payable",
      "type": "function"
    },
    {
      "constant": false,
      "inputs": [
        {
          "internalType": "address",
          "name": "_question",
          "type": "address"
        }
      ],
      "name": "claimNFTAt",
      "outputs": [],
      "payable": true,
      "stateMutability": "payable",
      "type": "function"
    },
    {
      "constant": false,
      "inputs": [
        {
          "internalType": "address",
          "name": "_question",
          "type": "address"
        }
      ],
      "name": "shareTokenAt",
      "outputs": [],
      "payable": true,
      "stateMutability": "payable",
      "type": "function"
    },
    {
      "constant": false,
      "inputs": [
        {
          "internalType": "address",
          "name": "_question",
          "type": "address"
        }
      ],
      "name": "returnDepositAt",
      "outputs": [],
      "payable": true,
      "stateMutability": "payable",
      "type": "function"
    },
    {
      "constant": false,
      "inputs": [
        {
          "internalType": "address",
          "name": "_user",
          "type": "address"
        }
      ],
      "name": "hasProfile",
      "outputs": [
        {
          "internalType": "bool",
          "name": "",
          "type": "bool"
        }
      ],
      "payable": false,
      "stateMutability": "nonpayable",
      "type": "function"
    },
    {
      "constant": false,
      "inputs": [
        {
          "internalType": "address",
          "name": "_user",
          "type": "address"
        }
      ],
      "name": "getProfile",
      "outputs": [
        {
          "internalType": "address",
          "name": "",
          "type": "address"
        }
      ],
      "payable": false,
      "stateMutability": "nonpayable",
      "type": "function"
    },
    {
      "constant": true,
      "inputs": [],
      "name": "getDeployedQuestions",
      "outputs": [
        {
          "internalType": "address[]",
          "name": "",
          "type": "address[]"
        }
      ],
      "payable": false,
      "stateMutability": "view",
      "type": "function"
    },
    {
      "constant": false,
      "inputs": [
        {
          "internalType": "address",
          "name": "_address",
          "type": "address"
        },
        {
          "internalType": "string",
          "name": "dataUri",
          "type": "string"
        }
      ],
      "name": "setNftClaim",
      "outputs": [],
      "payable": false,
      "stateMutability": "nonpayable",
      "type": "function"
    }
  ],
  "bytecode": "0x6080604052600580546001600160a01b0319167306c3cafae04f15851be7e3b72dea2da3e0f696e017905534801561003657600080fd5b506154e4806100466000396000f3fe608060405260043610620000fd5760003560e01c806356abef1811620000975780637badea3f11620000615780637badea3f146200027f578063a787c80b14620002a4578063a87430ba14620002d8578063c1b3d6ad14620002fd57620000fd565b806356abef18146200020657806361e62f8a146200021e578063666e1b39146200023557806372ab28b5146200025a57620000fd565b806319cd05db11620000d957806319cd05db146200018d5780631f88bc3814620001a4578063320345c514620001d8578063356b35e414620001ef57620000fd565b80620e078f1462000102578063090abfc514620001325780630f53a4701462000159575b600080fd5b3480156200010f57600080fd5b506200011a62000314565b60405162000129919062001c7b565b60405180910390f35b3480156200013f57600080fd5b506200015762000151366004620016fa565b62000379565b005b3480156200016657600080fd5b506200017e6200017836600462001658565b620004ef565b60405162000129919062001bc1565b620001576200019e36600462001658565b62000538565b348015620001b157600080fd5b50620001c9620001c336600462001658565b6200061e565b60405162000129919062001cbe565b62000157620001e936600462001658565b620006bd565b6200015762000200366004620017fa565b62000786565b3480156200021357600080fd5b506200017e6200095d565b620001576200022f366004620017c5565b6200096c565b3480156200024257600080fd5b506200017e6200025436600462001658565b62000eb1565b3480156200026757600080fd5b506200015762000279366004620016a2565b62000ecc565b3480156200028c57600080fd5b50620001576200029e36600462001890565b62000efc565b348015620002b157600080fd5b50620002c9620002c336600462001658565b62001363565b60405162000129919062001c8e565b348015620002e557600080fd5b506200017e620002f736600462001658565b62001397565b620001576200030e36600462001658565b620013b2565b606060008054806020026020016040519081016040528092919081815260200182805480156200036e57602002820191906000526020600020905b81546001600160a01b031681526001909101906020018083116200034f575b505050505090505b90565b336000908152600160205260409020546001600160a01b03166200040157600033604051620003a8906200147b565b620003b4919062001bd1565b604051809103906000f080158015620003d1573d6000803e3d6000fd5b5033600090815260016020526040902080546001600160a01b0319166001600160a01b0392909216919091179055505b336000818152600160205260409081902054905163126f649360e21b815287926001600160a01b03808516936349bd924c936200044c938b938b938b939116908a9060040162001cd1565b600060405180830381600087803b1580156200046757600080fd5b505af11580156200047c573d6000803e3d6000fd5b505033600090815260016020526040808220548151630a91553d60e01b815291516001600160a01b039091169450630a91553d93506004808301939282900301818387803b158015620004ce57600080fd5b505af1158015620004e3573d6000803e3d6000fd5b50505050505050505050565b6001600160a01b038181166000908152600160205260408120549091166200051657600080fd5b506001600160a01b03808216600090815260016020526040902054165b919050565b336000908152600160205260409020546001600160a01b0316620005c05760003360405162000567906200147b565b62000573919062001bd1565b604051809103906000f08015801562000590573d6000803e3d6000fd5b5033600090815260016020526040902080546001600160a01b0319166001600160a01b0392909216919091179055505b6000819050806001600160a01b0316637e88f6036040518163ffffffff1660e01b8152600401600060405180830381600087803b1580156200060157600080fd5b505af115801562000616573d6000803e3d6000fd5b505050505050565b60036020908152600091825260409182902080548351601f600260001961010060018616150201909316929092049182018490048402810184019094528084529091830182828015620006b55780601f106200068957610100808354040283529160200191620006b5565b820191906000526020600020905b8154815290600101906020018083116200069757829003601f168201915b505050505081565b336000908152600160205260409020546001600160a01b03166200074557600033604051620006ec906200147b565b620006f8919062001bd1565b604051809103906000f08015801562000715573d6000803e3d6000fd5b5033600090815260016020526040902080546001600160a01b0319166001600160a01b0392909216919091179055505b6000819050806001600160a01b0316636c9fa59e6040518163ffffffff1660e01b8152600401600060405180830381600087803b1580156200060157600080fd5b336000908152600160205260409020546001600160a01b03166200080e57600033604051620007b5906200147b565b620007c1919062001bd1565b604051809103906000f080158015620007de573d6000803e3d6000fd5b5033600090815260016020526040902080546001600160a01b0319166001600160a01b0392909216919091179055505b6040516397b16ab960e01b815283906001600160a01b038216906397b16ab99062000840908690869060040162001e37565b600060405180830381600087803b1580156200085b57600080fd5b505af115801562000870573d6000803e3d6000fd5b5050604051637ba354ff60e01b81526001600160a01b0384169250637ba354ff9150620008a290859060040162001e27565b60206040518083038186803b158015620008bb57600080fd5b505afa158015620008d0573d6000803e3d6000fd5b505050506040513d601f19601f82011682018060405250620008f691908101906200186f565b6001600160a01b031663b3d6e1d2846040518263ffffffff1660e01b815260040162000923919062001e27565b600060405180830381600087803b1580156200093e57600080fd5b505af115801562000953573d6000803e3d6000fd5b5050505050505050565b6004546001600160a01b031681565b336000908152600160205260409020546001600160a01b0316620009f4576000336040516200099b906200147b565b620009a7919062001bd1565b604051809103906000f080158015620009c4573d6000803e3d6000fd5b5033600090815260016020526040902080546001600160a01b0319166001600160a01b0392909216919091179055505b6000829050806001600160a01b031663c0013a7b6040518163ffffffff1660e01b8152600401602060405180830381600087803b15801562000a3557600080fd5b505af115801562000a4a573d6000803e3d6000fd5b505050506040513d601f19601f8201168201806040525062000a70919081019062001681565b600480546001600160a01b0319166001600160a01b039283161781553360008181526001602052604090819020549051630b2ee08760e31b815293169263597704389262000ac092910162001bd1565b602060405180830381600087803b15801562000adb57600080fd5b505af115801562000af0573d6000803e3d6000fd5b505050506040513d601f19601f8201168201806040525062000b169190810190620019b7565b60011062000b415760405162461bcd60e51b815260040162000b389062001e15565b60405180910390fd5b6005546004805460405163e1f21c6760e01b81526001600160a01b039384169363e1f21c679362000b7b9333939216916064910162001be1565b602060405180830381600087803b15801562000b9657600080fd5b505af115801562000bab573d6000803e3d6000fd5b505050506040513d601f19601f8201168201806040525062000bd191908101906200184e565b50600480546040516311f9fbc960e21b81526001600160a01b03909116916347e7ef249162000c069133916064910162001c3d565b600060405180830381600087803b15801562000c2157600080fd5b505af115801562000c36573d6000803e3d6000fd5b50506040516378699cfb60e11b81526001600160a01b038416925063f0d339f6915062000c6890859060040162001e27565b600060405180830381600087803b15801562000c8357600080fd5b505af115801562000c98573d6000803e3d6000fd5b5050604051630e44cf5760e31b81526001600160a01b03841692506372267ab8915062000ccb9060649060040162001cae565b600060405180830381600087803b15801562000ce657600080fd5b505af115801562000cfb573d6000803e3d6000fd5b5050336000908152600160205260408082205490516360968ec160e11b81526001600160a01b03909116935063c12d1d82925062000d40919060649060040162001c9e565b600060405180830381600087803b15801562000d5b57600080fd5b505af115801562000d70573d6000803e3d6000fd5b50505050806001600160a01b031663cb90a3946040518163ffffffff1660e01b815260040160206040518083038186803b15801562000dae57600080fd5b505afa15801562000dc3573d6000803e3d6000fd5b505050506040513d601f19601f8201168201806040525062000de991908101906200186f565b6001600160a01b031663e999309c836040518263ffffffff1660e01b815260040162000e16919062001e27565b600060405180830381600087803b15801562000e3157600080fd5b505af115801562000e46573d6000803e3d6000fd5b5050604051630681dc2f60e11b81526001600160a01b0384169250630d03b85e915062000e7890339060040162001bd1565b600060405180830381600087803b15801562000e9357600080fd5b505af115801562000ea8573d6000803e3d6000fd5b50505050505050565b6002602052600090815260409020546001600160a01b031681565b6001600160a01b0382166000908152600360209081526040909120825162000ef79284019062001489565b505050565b336000908152600160205260409020546001600160a01b031662000f845760003360405162000f2b906200147b565b62000f37919062001bd1565b604051809103906000f08015801562000f54573d6000803e3d6000fd5b5033600090815260016020526040902080546001600160a01b0319166001600160a01b0392909216919091179055505b6000841162000fa75760405162461bcd60e51b815260040162000b389062001e03565b3360008181526001602052604090819020549051630b2ee08760e31b81526001600160a01b039091169163597704389162000fe6919060040162001bd1565b602060405180830381600087803b1580156200100157600080fd5b505af115801562001016573d6000803e3d6000fd5b505050506040513d601f19601f820116820180604052506200103c9190810190620019b7565b61271085041115620010625760405162461bcd60e51b815260040162000b389062001e15565b3360008181526001602052604080822054905191928a928a928a928a928a928a928a9290916001600160a01b0316906200109c906200150e565b620010b09998979695949392919062001d4a565b604051809103906000f080158015620010cd573d6000803e3d6000fd5b50600080546001810182558180527f290decd9548b62a8d60345a988386fc84ba6bc95484008f6362f93160ef3e5630180546001600160a01b0319166001600160a01b0384169081179091556040805163c0013a7b60e01b815290519394508493919263c0013a7b926004808401936020939083900390910190829087803b1580156200115957600080fd5b505af11580156200116e573d6000803e3d6000fd5b505050506040513d601f19601f8201168201806040525062001194919081019062001681565b600480546001600160a01b0319166001600160a01b039283161780825560055460405163e1f21c6760e01b81529084169363e1f21c6793620011de9333939216918c910162001c0f565b602060405180830381600087803b158015620011f957600080fd5b505af11580156200120e573d6000803e3d6000fd5b505050506040513d601f19601f820116820180604052506200123491908101906200184e565b50600480546040516311f9fbc960e21b81526001600160a01b03909116916347e7ef2491620012689133918b910162001c5c565b600060405180830381600087803b1580156200128357600080fd5b505af115801562001298573d6000803e3d6000fd5b505033600090815260016020526040808220548151630d59336960e31b815291516001600160a01b039091169450636ac99b4893506004808301939282900301818387803b158015620012ea57600080fd5b505af1158015620012ff573d6000803e3d6000fd5b50505050806001600160a01b03166308f7e68f6040518163ffffffff1660e01b8152600401600060405180830381600087803b1580156200133f57600080fd5b505af115801562001354573d6000803e3d6000fd5b50505050505050505050505050565b6001600160a01b038181166000908152600160205260408120549091166200138e5750600062000533565b50600162000533565b6001602052600090815260409020546001600160a01b031681565b336000908152600160205260409020546001600160a01b03166200143a57600033604051620013e1906200147b565b620013ed919062001bd1565b604051809103906000f0801580156200140a573d6000803e3d6000fd5b5033600090815260016020526040902080546001600160a01b0319166001600160a01b0392909216919091179055505b6000819050806001600160a01b031663672756ad6040518163ffffffff1660e01b8152600401600060405180830381600087803b1580156200060157600080fd5b61062f8062001f9783390190565b828054600181600116156101000203166002900490600052602060002090601f016020900481019282601f10620014cc57805160ff1916838001178555620014fc565b82800160010185558215620014fc579182015b82811115620014fc578251825591602001919060010190620014df565b506200150a9291506200151c565b5090565b612edc80620025c683390190565b6200037691905b808211156200150a576000815560010162001523565b8035620015468162001f5b565b92915050565b8051620015468162001f5b565b600082601f8301126200156b57600080fd5b8135620015826200157c8262001e6f565b62001e47565b81815260209384019390925082018360005b83811015620015c45781358601620015ad8882620015f5565b845250602092830192919091019060010162001594565b5050505092915050565b8051620015468162001f75565b8051620015468162001f80565b8035620015468162001f8b565b600082601f8301126200160757600080fd5b8135620016186200157c8262001e91565b915080825260208301602083018583830111156200163557600080fd5b6200164283828462001f12565b50505092915050565b8051620015468162001f8b565b6000602082840312156200166b57600080fd5b600062001679848462001539565b949350505050565b6000602082840312156200169457600080fd5b60006200167984846200154c565b60008060408385031215620016b657600080fd5b6000620016c4858562001539565b925050602083013567ffffffffffffffff811115620016e257600080fd5b620016f085828601620015f5565b9150509250929050565b600080600080600060a086880312156200171357600080fd5b600062001721888862001539565b955050602086013567ffffffffffffffff8111156200173f57600080fd5b6200174d88828901620015f5565b945050604086013567ffffffffffffffff8111156200176b57600080fd5b620017798882890162001559565b935050606086013567ffffffffffffffff8111156200179757600080fd5b620017a58882890162001559565b9250506080620017b888828901620015e8565b9150509295509295909350565b60008060408385031215620017d957600080fd5b6000620017e7858562001539565b9250506020620016f085828601620015e8565b6000806000606084860312156200181057600080fd5b60006200181e868662001539565b93505060206200183186828701620015e8565b92505060406200184486828701620015e8565b9150509250925092565b6000602082840312156200186157600080fd5b6000620016798484620015ce565b6000602082840312156200188257600080fd5b6000620016798484620015db565b600080600080600080600060e0888a031215620018ac57600080fd5b873567ffffffffffffffff811115620018c457600080fd5b620018d28a828b01620015f5565b975050602088013567ffffffffffffffff811115620018f057600080fd5b620018fe8a828b01620015f5565b965050604088013567ffffffffffffffff8111156200191c57600080fd5b6200192a8a828b01620015f5565b95505060606200193d8a828b01620015e8565b9450506080620019508a828b01620015e8565b93505060a088013567ffffffffffffffff8111156200196e57600080fd5b6200197c8a828b0162001559565b92505060c088013567ffffffffffffffff8111156200199a57600080fd5b620019a88a828b0162001559565b91505092959891949750929550565b600060208284031215620019ca57600080fd5b60006200167984846200164b565b6000620019e6838362001a14565b505060200190565b6000620019fc838362001b1f565b9392505050565b62001a0e8162001ef8565b82525050565b62001a0e8162001ecd565b600062001a2c8262001ec0565b62001a38818562001ec4565b935062001a458362001eba565b8060005b8381101562001a7957815162001a608882620019d8565b975062001a6d8362001eba565b92505060010162001a49565b509495945050505050565b600062001a918262001ec0565b62001a9d818562001ec4565b93508360208202850162001ab18562001eba565b8060005b8581101562001af1578484038952815162001ad18582620019ee565b945062001ade8362001eba565b60209a909a019992505060010162001ab5565b5091979650505050505050565b62001a0e8162001eda565b62001a0e8162000376565b62001a0e8162001f05565b600062001b2c8262001ec0565b62001b38818562001ec4565b935062001b4a81856020860162001f1e565b62001b558162001f51565b9093019392505050565b600062001b6e60138362001ec4565b7204465706f7369742063616e6e6f74206265203606c1b815260200192915050565b600062001b9f60138362001ec4565b72496e73756666696369656e7420746f6b656e7360681b815260200192915050565b6020810162001546828462001a14565b6020810162001546828462001a03565b6060810162001bf1828662001a03565b62001c00602083018562001a14565b62001679604083018462001b14565b6060810162001c1f828662001a03565b62001c2e602083018562001a14565b62001679604083018462001b09565b6040810162001c4d828562001a03565b620019fc602083018462001b14565b6040810162001c6c828562001a03565b620019fc602083018462001b09565b60208082528101620019fc818462001a1f565b6020810162001546828462001afe565b6040810162001c4d828562001b14565b6020810162001546828462001b14565b60208082528101620019fc818462001b1f565b60c0808252810162001ce4818962001b1f565b9050818103602083015262001cfa818862001a84565b9050818103604083015262001d10818762001a84565b905062001d21606083018662001a03565b62001d30608083018562001a14565b62001d3f60a083018462001b09565b979650505050505050565b610120808252810162001d5e818c62001b1f565b9050818103602083015262001d74818b62001b1f565b9050818103604083015262001d8a818a62001b1f565b905062001d9b606083018962001b09565b62001daa608083018862001b09565b81810360a083015262001dbe818762001a84565b905081810360c083015262001dd4818662001a84565b905062001de560e083018562001a03565b62001df561010083018462001a14565b9a9950505050505050505050565b60208082528101620015468162001b5f565b60208082528101620015468162001b90565b6020810162001546828462001b09565b6040810162001c6c828562001b09565b60405181810167ffffffffffffffff8111828210171562001e6757600080fd5b604052919050565b600067ffffffffffffffff82111562001e8757600080fd5b5060209081020190565b600067ffffffffffffffff82111562001ea957600080fd5b506020601f91909101601f19160190565b60200190565b5190565b90815260200190565b6000620015468262001eec565b151590565b6000620015468262001ecd565b6001600160a01b031690565b6000620015468262001edf565b6000620015468262000376565b82818337506000910152565b60005b8381101562001f3b57818101518382015260200162001f21565b8381111562001f4b576000848401525b50505050565b601f01601f191690565b62001f668162001ecd565b811462001f7257600080fd5b50565b62001f668162001eda565b62001f668162001edf565b62001f66816200037656fe6080604052600080546001600160a01b0319167306c3cafae04f15851be7e3b72dea2da3e0f696e017905534801561003657600080fd5b5060405161062f38038061062f8339810160408190526100559161008b565b600880546001600160a01b0319166001600160a01b03929092169190911790556100d9565b8051610085816100c2565b92915050565b60006020828403121561009d57600080fd5b60006100a9848461007a565b949350505050565b60006001600160a01b038216610085565b6100cb816100b1565b81146100d657600080fd5b50565b610547806100e86000396000f3fe608060405234801561001057600080fd5b50600436106101215760003560e01c80635bf20a8c116100ad578063c12d1d8211610071578063c12d1d82146101de578063e999309c146101f1578063f807e49b14610204578063fc0c546a1461020c578063ff9af5781461021457610121565b80635bf20a8c146101ab5780636ac99b48146101b3578063a0c54fe5146101bb578063b3d6e1d2146101c3578063b9089047146101d657610121565b80632d0b49ae116100f45780632d0b49ae1461015e578063352173e2146101665780634f8632ba1461016e57806355a373d614610183578063597704381461019857610121565b80630a91553d14610126578063118e764f14610130578063199a595f1461014e5780631aca7a8014610156575b600080fd5b61012e61021c565b005b610138610227565b60405161014591906104ba565b60405180910390f35b61013861022d565b610138610233565b61013861023a565b610138610240565b610176610274565b604051610145919061049e565b61018b610283565b60405161014591906104ac565b6101386101a63660046103e1565b610292565b61013861031e565b61012e610324565b61013861032f565b61012e6101d1366004610407565b610363565b61013861036e565b61012e6101ec366004610443565b610374565b61012e6101ff366004610407565b61039d565b6101386103a8565b6101386103ae565b6101386103b4565b600480546001019055565b60075481565b60035481565b6002545b90565b60055481565b60006002546000141561025a575060006006819055610237565b6002546003548161026757fe5b0460068190559050610237565b6008546001600160a01b031681565b6000546001600160a01b031681565b600080546040516370a0823160e01b81526001600160a01b03909116906370a08231906102c390859060040161049e565b60206040518083038186803b1580156102db57600080fd5b505afa1580156102ef573d6000803e3d6000fd5b505050506040513d601f19601f820116820180604052506103139190810190610425565b600181905592915050565b60025481565b600280546001019055565b600060045460001415610349575060006007819055610237565b6004546005548161035657fe5b0460078190559050610237565b600580549091019055565b60045490565b816001141561038a576001805482019055610399565b81610399576001805482900390555b5050565b600380549091019055565b60065481565b60015481565b60045481565b80356103c5816104e4565b92915050565b80356103c5816104fb565b80516103c5816104fb565b6000602082840312156103f357600080fd5b60006103ff84846103ba565b949350505050565b60006020828403121561041957600080fd5b60006103ff84846103cb565b60006020828403121561043757600080fd5b60006103ff84846103d6565b6000806040838503121561045657600080fd5b600061046285856103cb565b9250506020610473858286016103cb565b9150509250929050565b610486816104c8565b82525050565b610486816104d9565b61048681610237565b602081016103c5828461047d565b602081016103c5828461048c565b602081016103c58284610495565b60006001600160a01b0382166103c5565b60006103c5826104c8565b6104ed816104c8565b81146104f857600080fd5b50565b6104ed8161023756fea365627a7a723158204f5b5d7de572242ad55d53a219e12a06d200d3ab8b04c4cabddffdb42042a9876c6578706572696d656e74616cf564736f6c634300051100406080604052600d805462ffffff191690556000601255601780546001600160a01b0319167306c3cafae04f15851be7e3b72dea2da3e0f696e01790553480156200004857600080fd5b5060405162002edc38038062002edc8339810160408190526200006b9162000411565b8851620000809060119060208c0190620001a0565b508751620000969060039060208b0190620001a0565b508651620000ac9060049060208a0190620001a0565b50600586905560068590558351620000cc90600190602087019062000225565b508251620000e290600290602086019062000225565b50600780546001600160a01b038085166001600160a01b031992831617909255600880548484169216919091179055306000908152601460205260409020541662000191576000604051620001379062000285565b604051809103906000f08015801562000154573d6000803e3d6000fd5b50601380546001600160a01b03199081166001600160a01b0393841617918290553060009081526014602052604090208054929093169116179055505b50505050505050505062000636565b828054600181600116156101000203166002900490600052602060002090601f016020900481019282601f10620001e357805160ff191683800117855562000213565b8280016001018555821562000213579182015b8281111562000213578251825591602001919060010190620001f6565b506200022192915062000293565b5090565b82805482825590600052602060002090810192821562000277579160200282015b8281111562000277578251805162000266918491602090910190620001a0565b509160200191906001019062000246565b5062000221929150620002b3565b6103f98062002ae383390190565b620002b091905b808211156200022157600081556001016200029a565b90565b620002b091905b8082111562000221576000620002d18282620002db565b50600101620002ba565b50805460018160011615610100020316600290046000825580601f1062000303575062000323565b601f01602090049060005260206000209081019062000323919062000293565b50565b8051620003338162000614565b92915050565b600082601f8301126200034b57600080fd5b8151620003626200035c8262000586565b6200055f565b81815260209384019390925082018360005b83811015620003a457815186016200038d8882620003ae565b845250602092830192919091019060010162000374565b5050505092915050565b600082601f830112620003c057600080fd5b8151620003d16200035c82620005a7565b91508082526020830160208301858383011115620003ee57600080fd5b620003fb838284620005e1565b50505092915050565b805162000333816200062b565b60008060008060008060008060006101208a8c0312156200043157600080fd5b89516001600160401b038111156200044857600080fd5b620004568c828d01620003ae565b99505060208a01516001600160401b038111156200047357600080fd5b620004818c828d01620003ae565b98505060408a01516001600160401b038111156200049e57600080fd5b620004ac8c828d01620003ae565b9750506060620004bf8c828d0162000404565b9650506080620004d28c828d0162000404565b95505060a08a01516001600160401b03811115620004ef57600080fd5b620004fd8c828d0162000339565b94505060c08a01516001600160401b038111156200051a57600080fd5b620005288c828d0162000339565b93505060e06200053b8c828d0162000326565b9250506101006200054f8c828d0162000326565b9150509295985092959850929598565b6040518181016001600160401b03811182821017156200057e57600080fd5b604052919050565b60006001600160401b038211156200059d57600080fd5b5060209081020190565b60006001600160401b03821115620005be57600080fd5b506020601f91909101601f19160190565b60006001600160a01b03821662000333565b60005b83811015620005fe578181015183820152602001620005e4565b838111156200060e576000848401525b50505050565b6200061f81620005cf565b81146200032357600080fd5b6200061f81620002b0565b61249d80620006466000396000f3fe608060405234801561001057600080fd5b506004361061030b5760003560e01c80637ba354ff1161019d578063c0013a7b116100e9578063d0e30db0116100a2578063e1cd8b2f1161007c578063e1cd8b2f14610599578063e901a659146105b9578063ef430aa6146105c1578063f0d339f6146105c95761030b565b8063d0e30db014610581578063d4efc25114610589578063e037f889146105915761030b565b8063c0013a7b14610531578063c399ec8814610539578063c9930ee014610541578063cb90a39414610569578063ce8acbad14610571578063d04f119a146105795761030b565b806390b47d3e11610156578063ab4fbb1f11610130578063ab4fbb1f146104f0578063b125950514610503578063bb17ed0814610516578063be9a6555146105295761030b565b806390b47d3e146104cd57806397b16ab9146104d5578063ab212ee0146104e85761030b565b80637ba354ff146104855780637e88f603146104a557806380258e47146104ad57806388963771146104b5578063893d20e8146104bd5780638da5cb5b146104c55761030b565b8063527042041161025c578063672756ad116102155780636db5c8fd116101ef5780636db5c8fd1461044f5780636ec39c951461045757806372267ab81461046a5780637284e4161461047d5761030b565b8063672756ad1461042c578063693f4b07146104345780636c9fa59e146104475761030b565b806352704204146103d3578063557ed1ba146103db57806356abef18146103f257806356dde0b6146104075780635b4246d41461040f578063632b1ae1146104175761030b565b80633531fde8116102c957806346d9b439116102a357806346d9b439146103a857806347239353146103b057806349bd924c146103b8578063526cb9d2146103cb5761030b565b80633531fde8146103705780633b957317146103855780634051ddac1461038d5761030b565b8062a70eee1461031057806306661abd1461032e57806308f7e68f146103435780630d03b85e1461034d57806326ce1284146103605780632a412fdf14610368575b600080fd5b6103186105dc565b60405161032591906121d7565b60405180910390f35b6103366105e7565b60405161032591906121f3565b61034b6105ed565b005b61034b61035b366004611c7c565b6105f3565b610336610632565b610336610638565b61037861063e565b60405161032591906121c6565b610318610943565b610395610952565b6040516103259796959493929190612212565b610318610c66565b610318610c74565b61034b6103c6366004611cfa565b610c83565b610318610e17565b610336610e27565b6103e3610e2d565b6040516103259392919061231e565b6103fa610e38565b6040516103259190612121565b610318610e47565b610336610ec1565b61041f610ec7565b6040516103259190612201565b61034b610f55565b610336610442366004611dc8565b610f68565b61034b610f8f565b61033661119f565b61041f610465366004611dc8565b6111a5565b61034b610478366004611dc8565b611218565b61041f611223565b610498610493366004611dc8565b61127e565b60405161032591906121e5565b61034b6112af565b61041f611598565b61033661162e565b6103fa611634565b6103fa611643565b610498611652565b61034b6104e3366004611de6565b611661565b61031861171b565b6103fa6104fe366004611c7c565b61172a565b61041f610511366004611dc8565b611745565b6103fa610524366004611ca2565b611752565b610336611787565b6103fa61178d565b6103366117a9565b61055461054f366004611dc8565b6117af565b60405161032599989796959493929190612293565b61049861189f565b6103366118ae565b6103186118b4565b6103366118bd565b6103366118c3565b6103366118c9565b6105ac6105a7366004611c7c565b6118cf565b60405161032591906121b5565b610318611945565b61041f611955565b61034b6105d7366004611dc8565b6119b0565b600d5460ff16155b90565b60125481565b42600955565b3060009081526015602090815260408220805460018101825590835291200180546001600160a01b0319166001600160a01b0392909216919091179055565b600a5490565b600a5481565b60606000805480602002602001604051908101604052809291908181526020016000905b8282101561093a57600084815260209081902060408051600b8602909201805460026001821615610100026000190190911604601f8101859004909402830161018090810190925261016083018481529293909284929091849184018282801561070d5780601f106106e25761010080835404028352916020019161070d565b820191906000526020600020905b8154815290600101906020018083116106f057829003601f168201915b5050505050815260200160018201805480602002602001604051908101604052809291908181526020016000905b828210156107e65760008481526020908190208301805460408051601f60026000196101006001871615020190941693909304928301859004850281018501909152818152928301828280156107d25780601f106107a7576101008083540402835291602001916107d2565b820191906000526020600020905b8154815290600101906020018083116107b557829003601f168201915b50505050508152602001906001019061073b565b50505050815260200160028201805480602002602001604051908101604052809291908181526020016000905b828210156108be5760008481526020908190208301805460408051601f60026000196101006001871615020190941693909304928301859004850281018501909152818152928301828280156108aa5780601f1061087f576101008083540402835291602001916108aa565b820191906000526020600020905b81548152906001019060200180831161088d57829003601f168201915b505050505081526020019060010190610813565b5050509082525060038201546001600160a01b03908116602080840191909152600484015490911660408301526005830154606083015260068301546080830152600783015460a0830152600883015460c0830152600983015460e0830152600a90920154610100909101529082526001929092019101610662565b50505050905090565b60095460065442919091031190565b606080600080600060608060036004600554600654600760009054906101000a90046001600160a01b031660016002868054600181600116156101000203166002900480601f016020809104026020016040519081016040528092919081815260200182805460018160011615610100020316600290048015610a165780601f106109eb57610100808354040283529160200191610a16565b820191906000526020600020905b8154815290600101906020018083116109f957829003601f168201915b5050895460408051602060026001851615610100026000190190941693909304601f8101849004840282018401909252818152959c508b945092508401905082828015610aa45780601f10610a7957610100808354040283529160200191610aa4565b820191906000526020600020905b815481529060010190602001808311610a8757829003601f168201915b5050505050955081805480602002602001604051908101604052809291908181526020016000905b82821015610b775760008481526020908190208301805460408051601f6002600019610100600187161502019094169390930492830185900485028101850190915281815292830182828015610b635780601f10610b3857610100808354040283529160200191610b63565b820191906000526020600020905b815481529060010190602001808311610b4657829003601f168201915b505050505081526020019060010190610acc565b50505050915080805480602002602001604051908101604052809291908181526020016000905b82821015610c495760008481526020908190208301805460408051601f6002600019610100600187161502019094169390930492830185900485028101850190915281815292830182828015610c355780601f10610c0a57610100808354040283529160200191610c35565b820191906000526020600020905b815481529060010190602001808311610c1857829003601f168201915b505050505081526020019060010190610b9e565b505050509050965096509650965096509650965090919293949596565b600d54610100900460ff1681565b600d54610100900460ff161590565b6000816000191415610ca057506012805460018101909155610ca5565b506000195b610cad6119d3565b50604080516101608101825288815260208082018990529181018790526001600160a01b038087166060830152851660808201524260a0820152600060c0820181905260e0820181905261010082018190526101208201859052610140820184905280546001810180835591805282518051939492938593600b9093027f290decd9548b62a8d60345a988386fc84ba6bc95484008f6362f93160ef3e5630192610d5b928492910190611a3f565b506020828101518051610d749260018501920190611abd565b5060408201518051610d90916002840191602090910190611abd565b5060608201516003820180546001600160a01b039283166001600160a01b031991821617909155608084015160048401805491909316911617905560a0820151600582015560c0820151600682015560e082015160078201556101008201516008820155610120820151600982015561014090910151600a90910155505050505050505050565b600d5462010000900460ff161590565b600b5481565b600954600654429192565b6013546001600160a01b031681565b60008080600054811015610ebc57600460008281548110610e6457fe5b90600052602060002090600b02016006015410610e82576001909101905b8115610ea5575050600d805463ff000000191663010000001790555060016105e4565b5050600d805463ff000000191690555060006105e4565b505090565b600f5481565b6003805460408051602060026001851615610100026000190190941693909304601f81018490048402820184019092528181529291830182828015610f4d5780601f10610f2257610100808354040283529160200191610f4d565b820191906000526020600020905b815481529060010190602001808311610f3057829003601f168201915b505050505081565b600d805462ff0000191662010000179055565b6000808281548110610f7657fe5b90600052602060002090600b0201600601549050919050565b60005b600054811015610fd457600460008281548110610fab57fe5b90600052602060002090600b02016006015410610fcc576010805460010190555b600101610f92565b5060105460055481610fe257fe5b04600f5560005b60005481101561118f5760046000828154811061100257fe5b90600052602060002090600b02016006015410611187576017543060009081526014602052604081205481546001600160a01b039384169363e1f21c6793921691908590811061104e57fe5b600091825260209091206003600b909202010154600f546040516001600160e01b031960e086901b16815261109193926001600160a01b03169190600401612157565b602060405180830381600087803b1580156110ab57600080fd5b505af11580156110bf573d6000803e3d6000fd5b505050506040513d601f19601f820116820180604052506110e39190810190611cdc565b503060009081526014602052604081205481546001600160a01b039091169163ded6338b918490811061111257fe5b600091825260209091206003600b909202010154600f546040516001600160e01b031960e085901b168152611154926001600160a01b0316919060040161219a565b600060405180830381600087803b15801561116e57600080fd5b505af1158015611182573d6000803e3d6000fd5b505050505b600101610fe9565b50600d805460ff19166001179055565b60065481565b600281815481106111b257fe5b600091825260209182902001805460408051601f6002600019610100600187161502019094169390930492830185900485028101850190915281815293509091830182828015610f4d5780601f10610f2257610100808354040283529160200191610f4d565b600580549091019055565b6004805460408051602060026001851615610100026000190190941693909304601f81018490048402820184019092528181529291830182828015610f4d5780601f10610f2257610100808354040283529160200191610f4d565b600080828154811061128c57fe5b60009182526020909120600b90910201600401546001600160a01b031692915050565b6000600954420390506006548111156115865760005b306000908152601560205260409020548110156114595760175430600090815260146020908152604080832054601590925290912080546001600160a01b039384169363e1f21c67931691908590811061131b57fe5b6000918252602090912001546040516001600160e01b031960e085901b16815261135592916001600160a01b03169060649060040161212f565b602060405180830381600087803b15801561136f57600080fd5b505af1158015611383573d6000803e3d6000fd5b505050506040513d601f19601f820116820180604052506113a79190810190611cdc565b5030600090815260146020908152604080832054601590925290912080546001600160a01b039092169163ded6338b9190849081106113e257fe5b6000918252602090912001546040516001600160e01b031960e084901b16815261141b916001600160a01b03169060649060040161217f565b600060405180830381600087803b15801561143557600080fd5b505af1158015611449573d6000803e3d6000fd5b5050600190920191506112c59050565b503060009081526015602090815260408083205460055460649091029003601681905560175460149093529281902054600754915163e1f21c6760e01b81526001600160a01b039384169463e1f21c67946114bc94938116931691600401612157565b602060405180830381600087803b1580156114d657600080fd5b505af11580156114ea573d6000803e3d6000fd5b505050506040513d601f19601f8201168201806040525061150e9190810190611cdc565b50306000908152601460205260409081902054600754601654925163ded6338b60e01b81526001600160a01b039283169363ded6338b9361155393169160040161219a565b600060405180830381600087803b15801561156d57600080fd5b505af1158015611581573d6000803e3d6000fd5b505050505b50600d805461ff001916610100179055565b60118054604080516020601f60026000196101006001881615020190951694909404938401819004810282018101909252828152606093909290918301828280156116245780601f106115f957610100808354040283529160200191611624565b820191906000526020600020905b81548152906001019060200180831161160757829003601f168201915b5050505050905090565b600e5481565b6007546001600160a01b031690565b6007546001600160a01b031681565b6008546001600160a01b031681565b6000818154811061166e57fe5b6000918252602082206007600b90920201018054600101905580548391908390811061169657fe5b6000918252602082206008600b909202010180549092019091558054829081106116bc57fe5b90600052602060002090600b020160070154600082815481106116db57fe5b90600052602060002090600b020160080154816116f457fe5b046000828154811061170257fe5b90600052602060002090600b0201600601819055505050565b600d5462010000900460ff1681565b6014602052600090815260409020546001600160a01b031681565b600181815481106111b257fe5b6015602052816000526040600020818154811061176b57fe5b6000918252602090912001546001600160a01b03169150829050565b60095481565b306000908152601460205260409020546001600160a01b031690565b60055490565b600081815481106117bc57fe5b6000918252602091829020600b919091020180546040805160026001841615610100026000190190931692909204601f8101859004850283018501909152808252919350918391908301828280156118555780601f1061182a57610100808354040283529160200191611855565b820191906000526020600020905b81548152906001019060200180831161183857829003601f168201915b50505060038401546004850154600586015460068701546007880154600889015460098a0154600a909a015498996001600160a01b03968716999590961697509295509093909289565b6008546001600160a01b031690565b60105481565b600d5460ff1681565b60055481565b600c5481565b60165481565b6001600160a01b03811660009081526015602090815260409182902080548351818402810184019094528084526060939283018282801561193957602002820191906000526020600020905b81546001600160a01b0316815260019091019060200180831161191b575b50505050509050919050565b600d546301000000900460ff1681565b6011805460408051602060026001851615610100026000190190941693909304601f81018490048402820184019092528181529291830182828015610f4d5780601f10610f2257610100808354040283529160200191610f4d565b600b805460010190819055600c8054830190819055816119cc57fe5b04600a5550565b60405180610160016040528060608152602001606081526020016060815260200160006001600160a01b0316815260200160006001600160a01b031681526020016000815260200160008152602001600081526020016000815260200160008152602001600081525090565b828054600181600116156101000203166002900490600052602060002090601f016020900481019282601f10611a8057805160ff1916838001178555611aad565b82800160010185558215611aad579182015b82811115611aad578251825591602001919060010190611a92565b50611ab9929150611b16565b5090565b828054828255906000526020600020908101928215611b0a579160200282015b82811115611b0a5782518051611afa918491602090910190611a3f565b5091602001919060010190611add565b50611ab9929150611b30565b6105e491905b80821115611ab95760008155600101611b1c565b6105e491905b80821115611ab9576000611b4a8282611b53565b50600101611b36565b50805460018160011615610100020316600290046000825580601f10611b795750611b97565b601f016020900490600052602060002090810190611b979190611b16565b50565b8035611ba581612434565b92915050565b600082601f830112611bbc57600080fd5b8135611bcf611bca82612360565b612339565b81815260209384019390925082018360005b83811015611c0d5781358601611bf78882611c2d565b8452506020928301929190910190600101611be1565b5050505092915050565b8051611ba581612448565b8035611ba581612451565b600082601f830112611c3e57600080fd5b8135611c4c611bca82612381565b91508082526020830160208301858383011115611c6857600080fd5b611c738382846123ee565b50505092915050565b600060208284031215611c8e57600080fd5b6000611c9a8484611b9a565b949350505050565b60008060408385031215611cb557600080fd5b6000611cc18585611b9a565b9250506020611cd285828601611c22565b9150509250929050565b600060208284031215611cee57600080fd5b6000611c9a8484611c17565b60008060008060008060c08789031215611d1357600080fd5b863567ffffffffffffffff811115611d2a57600080fd5b611d3689828a01611c2d565b965050602087013567ffffffffffffffff811115611d5357600080fd5b611d5f89828a01611bab565b955050604087013567ffffffffffffffff811115611d7c57600080fd5b611d8889828a01611bab565b9450506060611d9989828a01611b9a565b9350506080611daa89828a01611b9a565b92505060a0611dbb89828a01611c22565b9150509295509295509295565b600060208284031215611dda57600080fd5b6000611c9a8484611c22565b60008060408385031215611df957600080fd5b6000611cc18585611c22565b6000611e118383611e38565b505060200190565b6000611e258383611ff4565b9392505050565b6000611e25838361202c565b611e41816123bc565b82525050565b6000611e52826123af565b611e5c81856123b3565b9350611e67836123a9565b8060005b83811015611e95578151611e7f8882611e05565b9750611e8a836123a9565b925050600101611e6b565b509495945050505050565b6000611eab826123af565b611eb581856123b3565b935083602082028501611ec7856123a9565b8060005b85811015611f015784840389528151611ee48582611e19565b9450611eef836123a9565b60209a909a0199925050600101611ecb565b5091979650505050505050565b6000611f19826123af565b611f2381856123b3565b935083602082028501611f35856123a9565b8060005b85811015611f015784840389528151611f528582611e19565b9450611f5d836123a9565b60209a909a0199925050600101611f39565b6000611f7a826123af565b611f8481856123b3565b935083602082028501611f96856123a9565b8060005b85811015611f015784840389528151611fb38582611e2c565b9450611fbe836123a9565b60209a909a0199925050600101611f9a565b611e41816123c7565b611e41816123d8565b611e41816105e4565b611e41816123e3565b6000611fff826123af565b61200981856123b3565b93506120198185602086016123fa565b6120228161242a565b9093019392505050565b8051610160808452600091908401906120458282611ff4565b9150506020830151848203602086015261205f8282611f0e565b915050604083015184820360408601526120798282611f0e565b915050606083015161208e6060860182611e38565b5060808301516120a16080860182611fd9565b5060a08301516120b460a0860182611fe2565b5060c08301516120c760c0860182611fe2565b5060e08301516120da60e0860182611fe2565b506101008301516120ef610100860182611fe2565b50610120830151612104610120860182611fe2565b50610140830151612119610140860182611fe2565b509392505050565b60208101611ba58284611e38565b6060810161213d8286611e38565b61214a6020830185611e38565b611c9a6040830184611feb565b606081016121658286611e38565b6121726020830185611e38565b611c9a6040830184611fe2565b6040810161218d8285611e38565b611e256020830184611feb565b604081016121a88285611e38565b611e256020830184611fe2565b60208082528101611e258184611e47565b60208082528101611e258184611f6f565b60208101611ba58284611fd0565b60208101611ba58284611fd9565b60208101611ba58284611fe2565b60208082528101611e258184611ff4565b60e08082528101612223818a611ff4565b905081810360208301526122378189611ff4565b90506122466040830188611fe2565b6122536060830187611fe2565b6122606080830186611e38565b81810360a08301526122728185611ea0565b905081810360c08301526122868184611ea0565b9998505050505050505050565b61012080825281016122a5818c611ff4565b90506122b4602083018b611e38565b6122c1604083018a611fd9565b6122ce6060830189611fe2565b6122db6080830188611fe2565b6122e860a0830187611fe2565b6122f560c0830186611fe2565b61230260e0830185611fe2565b612310610100830184611fe2565b9a9950505050505050505050565b6060810161232c8286611fe2565b6121726020830185611fe2565b60405181810167ffffffffffffffff8111828210171561235857600080fd5b604052919050565b600067ffffffffffffffff82111561237757600080fd5b5060209081020190565b600067ffffffffffffffff82111561239857600080fd5b506020601f91909101601f19160190565b60200190565b5190565b90815260200190565b6000611ba5826123cc565b151590565b6001600160a01b031690565b6000611ba5826123bc565b6000611ba5826105e4565b82818337506000910152565b60005b838110156124155781810151838201526020016123fd565b83811115612424576000848401525b50505050565b601f01601f191690565b61243d816123bc565b8114611b9757600080fd5b61243d816123c7565b61243d816105e456fea365627a7a72315820c43b2472998d775b4aaabbad594d425dff884c510788560fc81252cc0e9cdb366c6578706572696d656e74616cf564736f6c634300051100406080604052600080546001600160a01b0319167306c3cafae04f15851be7e3b72dea2da3e0f696e017905534801561003657600080fd5b506103b3806100466000396000f3fe608060405234801561001057600080fd5b506004361061004c5760003560e01c806327e235e31461005157806347e7ef241461007a578063d3ef77401461008f578063ded6338b146100a2575b600080fd5b61006461005f36600461025c565b6100b5565b604051610071919061031a565b60405180910390f35b61008d610088366004610282565b6100c7565b005b61008d61009d36600461025c565b610167565b61008d6100b0366004610282565b610201565b60016020526000908152604090205481565b6001600160a01b03808316600090815260016020526040808220805485019055905490516323b872dd60e01b81529116906323b872dd90610110908590309086906004016102f2565b602060405180830381600087803b15801561012a57600080fd5b505af115801561013e573d6000803e3d6000fd5b505050506040513d601f19601f8201168201806040525061016291908101906102bc565b505050565b6001600160a01b03808216600090815260016020526040808220829055815490516323b872dd60e01b81529216916323b872dd916101ab91309186916004016102f2565b602060405180830381600087803b1580156101c557600080fd5b505af11580156101d9573d6000803e3d6000fd5b505050506040513d601f19601f820116820180604052506101fd91908101906102bc565b5050565b6000546040516323b872dd60e01b81526001600160a01b03909116906323b872dd90610110903090869086906004016102f2565b803561024081610347565b92915050565b80516102408161035e565b803561024081610367565b60006020828403121561026e57600080fd5b600061027a8484610235565b949350505050565b6000806040838503121561029557600080fd5b60006102a18585610235565b92505060206102b285828601610251565b9150509250929050565b6000602082840312156102ce57600080fd5b600061027a8484610246565b6102e381610328565b82525050565b6102e381610344565b6060810161030082866102da565b61030d60208301856102da565b61027a60408301846102e9565b6020810161024082846102e9565b600061024082610338565b151590565b6001600160a01b031690565b90565b61035081610328565b811461035b57600080fd5b50565b61035081610333565b6103508161034456fea365627a7a723158205a2be4c2039cde8352b3c6342088c6cb84d4719412d1afa429f42d258c41fd1c6c6578706572696d656e74616cf564736f6c63430005110040a365627a7a723158204339123e20626b85d1191d507c0ffd2360f892d6cf7f728553c94b7028a429ac6c6578706572696d656e74616cf564736f6c63430005110040",
  "source": "pragma solidity ^0.5.0;\npragma experimental ABIEncoderV2;\nimport \"./ETLToken.sol\";\n\ncontract contractB {\n    ETLToken tokenContract = ETLToken(0x06c3caFae04F15851be7E3B72deA2dA3E0f696E0); \n    mapping ( address => uint256 ) public balances;\n\n    function deposit(address _user, uint tokens) public {\n\n        // add the deposited tokens into existing balance \n        balances[_user]+= tokens;\n\n        // transfer the tokens from the sender to this contract\n        tokenContract.transferFrom(_user, address(this), tokens);\n    }\n\n    function share(address _user, uint tokens) public {\n        tokenContract.transferFrom(address(this), _user, tokens);\n    }\n\n    function returnTokens(address _user) public {\n        balances[_user] = 0;\n        tokenContract.transferFrom(address(this), _user, balances[_user]);\n    }\n\n}\n\ncontract QuestionFactory {\n    address[] private deployedQuestions;\n    mapping(address => address) public users;\n    mapping(address => address) public owner;\n    mapping(address => string) public nftClaim;\n    address public contractbinstance;\n\n    ETLToken tokenContract = ETLToken(0x06c3caFae04F15851be7E3B72deA2dA3E0f696E0);\n\n    function createQuestion(string memory category, string memory questionTitle, string memory description, uint deposit, \n                    uint maxDuration, string[] memory fileHashesQuestion, string[] memory fileNamesQuestion) public {\n        if (users[msg.sender] == address(0x0)) {\n            Profile profile = new Profile(msg.sender);\n            users[msg.sender] = address(profile);\n        }\n\n        require(deposit>0, \"Deposit cannot be 0\");\n        require((deposit/10**4)<=Profile(users[msg.sender]).getToken(msg.sender), \"Insufficient tokens\");\n        Question newQuestion = new Question(category, questionTitle, description, deposit, maxDuration,\n                                    fileHashesQuestion, fileNamesQuestion, msg.sender, users[msg.sender]);\n        deployedQuestions.push(address(newQuestion));\n        \n        Question question = Question(newQuestion);\n        //transfer deposit from user to contractB instance\n        contractbinstance = question.getContractBInstance();\n        tokenContract.approve(msg.sender, contractbinstance, deposit); \n        contractB(contractbinstance).deposit(msg.sender, deposit);\n\n        Profile(users[msg.sender]).increaseNumOfQues();\n        question.postQuestion();  //Save posted time here\n        \n\n    }\n\n    function createAnswer(address _question, string memory _reply, string[] memory _fileHashes, string[] memory _fileNames, int _parent) public {\n        if (users[msg.sender] == address(0x0)) {\n            Profile profile = new Profile(msg.sender);\n            users[msg.sender] = address(profile);\n        }   \n        Question question = Question(_question);\n        question.answer(_reply, _fileHashes, _fileNames, msg.sender, users[msg.sender], _parent);\n        Profile(users[msg.sender]).increaseNumOfAns();\n    }\n\n    function ratingQuestionAt(address _question, uint _ratingQuestion) public payable{\n        if (users[msg.sender] == address(0x0)) {\n            Profile profile = new Profile(msg.sender);\n            users[msg.sender] = address(profile);\n        }\n\n        Question question = Question(_question);\n        contractbinstance = question.getContractBInstance();\n        //Require user to have at least one token to rate question\n        require(1<Profile(users[msg.sender]).getToken(msg.sender), \"Insufficient tokens\");\n        \n        //transfer 1 token as deposit from user to contractB instance to rate question\n        tokenContract.approve(msg.sender, contractbinstance, 1*10**2); \n        contractB(contractbinstance).deposit(msg.sender, 1*10**2);\n        \n        question.ratingQuestion(_ratingQuestion); \n        question.updateDeposite(1*10**2);\n        Profile(users[msg.sender]).updateToken(0, 1*10**2);\n        Profile(question.getOwnerP()).increaseSumOfQuesRate(_ratingQuestion);\n        \n        //store who deposited tokens\n        question.setQuestionDepositers(msg.sender);\n    \n    }\n\n    function ratingAnswerAt(address _question, uint _ratingAnswer, uint _index) public payable {\n        if (users[msg.sender] == address(0x0)) {\n            Profile profile = new Profile(msg.sender);\n            users[msg.sender] = address(profile);\n        }\n\n        Question question = Question(_question);\n        //rating answer doesnt require deposit\n        question.updateAnswerRate(_ratingAnswer, _index);\n        Profile(question.getAnswererP(_index)).increaseSumOfAnsRate(_ratingAnswer);\n    }\n\n    function claimNFTAt(address _question) public payable {\n        if (users[msg.sender] == address(0x0)) {\n            Profile profile = new Profile(msg.sender);\n            users[msg.sender] = address(profile);\n        }\n\n        Question question = Question(_question);\n        question.claimNFT();\n    }\n\n    function shareTokenAt(address _question) public payable {\n        if (users[msg.sender] == address(0x0)) {\n            Profile profile = new Profile(msg.sender);\n            users[msg.sender] = address(profile);\n        }\n\n        Question question = Question(_question);\n        question.shareToken();\n    }\n\n    function returnDepositAt(address _question) public payable {\n        if (users[msg.sender] == address(0x0)) {\n            Profile profile = new Profile(msg.sender);\n            users[msg.sender] = address(profile);\n        }\n\n        Question question = Question(_question);\n        question.returnDeposit();\n    }\n\n    function hasProfile(address _user) public returns(bool) {\n        if (users[_user] == address(0x0)) {\n            return false;\n        } else {\n            return true;\n        }\n    }\n\n    function getProfile(address _user) public returns(address) {\n        require(users[_user] != address(0x0));\n        return users[_user];\n    }\n    \n    function getDeployedQuestions() public view returns(address[] memory) {\n        return deployedQuestions;\n    }\n    \n    function setNftClaim(address _address, string memory dataUri) public {\n        nftClaim[_address] = dataUri;\n    }\n}    \n\n\ncontract Question {\n\n    struct Answer {\n        string replyHash;\n        string[] fileHashes;\n        string[] fileNames;\n        address answerer;\n        Profile answererP;\n        uint answerTime;\n        uint answerRate; \n        uint answerNumRate;\n        uint answerSumRate;\n        int parent;\n        int id;       //Keep track parent answers\n    }\n\n    Answer[] public answerList; \n    string[] public fileHashesQuestion;\n    string[] public fileNamesQuestion;\n    string public questionTitle;\n    string public description;\n    uint public deposit;\n    uint public maxDuration;\n    address public owner;\n    Profile public ownerP;\n    uint public start;\n    uint public questionRate;\n    uint public numRate;\n    uint public sumRate;\n    bool public alreadyShareToken = false;\n    bool public alreadyReturnDeposit =  false;\n    bool public alreadyClaimNFT = false;\n    bool public numAnswer4Bool;\n    uint public tokenSum;\n    uint public proportion;\n    uint public numPeople;\n    string public category;\n    int public count = 0;\n    address public contractbinstance;\n    //map each question to its own contractB instance\n    mapping(address => address) public questionContractB;\n    mapping(address => address[]) public questionDepositers;\n    uint public initialDeposit;\n    ETLToken tokenContract = ETLToken(0x06c3caFae04F15851be7E3B72deA2dA3E0f696E0);\n\n\n    constructor (string memory _category, string memory _questionTitle, string memory _description, uint _deposit, uint _maxDuration, string[] memory _fileHashesQuestion, string[] memory _fileNamesQuestion, address _owner, address _ownerP) public {\n        category = _category;\n        questionTitle = _questionTitle;\n        description = _description;\n        deposit = _deposit;\n        maxDuration = _maxDuration;\n        fileHashesQuestion = _fileHashesQuestion;\n        fileNamesQuestion = _fileNamesQuestion;\n        owner = _owner;\n        ownerP = Profile(_ownerP);\n        \n        //create contractB instance each time a new Question is created\n        if (questionContractB[address(this)] == address(0x0)) {\n            contractB contractb = new contractB();\n            contractbinstance = address(contractb);\n            questionContractB[address(this)] = contractbinstance;\n        }\n         \n    }\n    \n    function getContractBInstance() public returns (address) {\n        return questionContractB[address(this)];\n    }\n\n    function getSummary() public view returns (\n        string memory, string memory, uint, uint, address, string[] memory, string[] memory\n    ) {\n        return(\n            questionTitle,\n            description,\n            deposit,\n            maxDuration,\n            owner,\n            fileHashesQuestion,\n            fileNamesQuestion\n        );\n    }\n\n    function getCategory() public view returns (string memory) {\n        return category;\n    }\n\n    function getOwner() public view returns (address){\n        return owner;\n    }\n\n    function getOwnerP() public view returns (Profile){\n        return ownerP;\n    }\n    \n    function getAnswererP(uint _index) public view returns (Profile){\n        return answerList[_index].answererP;\n    }\n\n    function getTime() public view returns (uint, uint, uint) {\n        return(\n            start,\n            block.timestamp,\n            maxDuration\n        );\n    }\n\n    function ratingQuestion(uint _ratingQuestion) public {\n        numRate++;\n        sumRate = sumRate + _ratingQuestion;\n        questionRate = sumRate/numRate;\n    }\n\n    function getRatingQuestion() public returns (uint){\n        return questionRate;\n    }\n\n    function updateDeposite(uint _value) public {\n        deposit = deposit + _value;\n    }\n\n    function getDeposit() public returns (uint){\n        return deposit;\n    }\n    \n    function getQuestionDepositers(address _question) public view returns (address[] memory) {\n        return questionDepositers[_question];\n    }\n    \n    function setQuestionDepositers(address _questionDepositer) public {\n        questionDepositers[address(this)].push(_questionDepositer);\n    }\n\n    function isOverdue() public returns (bool) {\n        uint publishingTime = block.timestamp - start;\n\n        return publishingTime > maxDuration;\n\n    }\n\n    function getCheckClaimNFT() public returns (bool) {\n        return (!alreadyClaimNFT);\n    }\n\n    function getCheckShareToken() public returns(bool){\n        return (!alreadyShareToken);\n    }\n\n    function getCheckReturnDeposit() public returns(bool) {\n        return(!alreadyReturnDeposit);\n    }\n\n    function getNumAnswer4() public returns (bool){\n        uint getNumAnswer4;\n        for (uint i = 0;i < answerList.length;i++) {\n            if(answerList[i].answerRate >= 4) \n                getNumAnswer4++;\n            if(getNumAnswer4>0) {\n                numAnswer4Bool = true;\n                return true; \n            }\n            else {\n                numAnswer4Bool = false;\n                return false;\n            }\n        }\n    }\n\n    function returnDeposit() public {\n        uint publishingTime = block.timestamp - start;\n\n        if (publishingTime > maxDuration) {\n            for (uint i=0; i<questionDepositers[address(this)].length;i++) {\n                tokenContract.approve(questionContractB[address(this)], questionDepositers[address(this)][i], 1*10**2); \n                contractB(questionContractB[address(this)]).share(questionDepositers[address(this)][i], 1*10**2);\n            }\n            //transfer initial deposit back to owner of question\n            initialDeposit = deposit - (questionDepositers[address(this)].length * 10**2);\n            tokenContract.approve(questionContractB[address(this)], owner, initialDeposit); \n            contractB(questionContractB[address(this)]).share(owner, initialDeposit);\n        \n        }\n\n        alreadyReturnDeposit = true;\n    }\n\n    function claimNFT() public {\n        alreadyClaimNFT = true;\n    }\n\n    function shareToken() public {\n        for (uint i = 0;i < answerList.length;i++) {\n            if(answerList[i].answerRate >= 4){ \n                numPeople++;\n            }\n        }\n        \n        proportion = (deposit) / numPeople; //if uint solidity rounds down eg 1/6 * 100 = 16 (not 16.23.)\n        for (uint i = 0; i < answerList.length;i++) {\n            if(answerList[i].answerRate >= 4){ //Only take 4 stars above into account\n                tokenContract.approve(questionContractB[address(this)], answerList[i].answerer, proportion); \n                contractB(questionContractB[address(this)]).share(answerList[i].answerer, proportion);\n\n            }\n        }\n\n        alreadyShareToken = true;\n    }\n    \n    function postQuestion() public {\n        start = block.timestamp;   \n    }\n\n    function answer(string memory _reply, string[] memory _fileHashes, string[] memory _fileNames, address _answerer, address _answererP, int _parent) public {\n        int _id;\n        if (_parent == -1) {   //a parent answer\n            _id = count;   \n            count++;\n        } else {               //a child answer\n            _id = -1;\n        }\n\n        Answer memory newAnswer = Answer({\n            replyHash: _reply,\n            fileHashes: _fileHashes,\n            fileNames: _fileNames,\n            answerer: _answerer,\n            answererP: Profile(_answererP),\n            answerTime: block.timestamp,\n            answerRate: 0,\n            answerNumRate: 0,\n            answerSumRate: 0,\n            parent: _parent,\n            id: _id\n        }); \n        \n        answerList.push(newAnswer);\n    } \n\n\n    function getAnswerList() public view returns (Answer[] memory) {\n        return answerList;\n    }\n\n    function updateAnswerRate(uint _value, uint index) public {\n        answerList[index].answerNumRate ++;\n        answerList[index].answerSumRate += _value;\n        answerList[index].answerRate = answerList[index].answerSumRate/answerList[index].answerNumRate;\n    }\n\n    function getAnswerRate(uint index) public view returns (uint) {\n        return answerList[index].answerRate;\n    }\n\n}\n\ncontract Profile {\n    ETLToken public tokenContract = ETLToken(0x06c3caFae04F15851be7E3B72deA2dA3E0f696E0);\n    uint public token;\n    uint public numOfQues;\n    uint public sumOfQuesRate;\n    uint public numOfAns;\n    uint public sumOfAnsRate;\n    uint public avgQuesRate;\n    uint public avgAnsRate;\n    address public user;\n    \n    constructor (address _user) public {\n        user = _user;\n    }\n\n    function increaseNumOfQues() public {\n        numOfQues++;\n    }\n\n    function increaseNumOfAns() public {\n        numOfAns++;\n    }\n\n    function increaseSumOfQuesRate(uint _rate) public {\n        sumOfQuesRate += _rate;\n    }\n\n    function increaseSumOfAnsRate(uint _rate) public {\n        sumOfAnsRate += _rate;\n    }\n\n    function getavgQuesRate() public returns (uint){\n        if (numOfQues == 0) {\n            avgQuesRate = 0;\n            return avgQuesRate;\n        }\n        else {\n            avgQuesRate = sumOfQuesRate/numOfQues;\n            return avgQuesRate;\n        }\n    }\n\n    function getavgAnsRate() public returns (uint){\n        if (numOfAns == 0) {\n            avgAnsRate = 0;\n            return avgAnsRate;\n        }\n        else {\n            avgAnsRate = sumOfAnsRate/numOfAns;\n            return avgAnsRate;\n        }\n    }\n\n    function getNumOfQues() public returns (uint){\n        return numOfQues;\n    }\n\n    function getNumOfAns() public returns (uint){\n        return numOfAns;\n    }\n\n    function updateToken(uint addOrSub, uint _token) public {\n        if (addOrSub==1){ //1 is add\n            token += (_token);\n        }\n        else if(addOrSub==0){ // 0 is sub\n            token -= (_token);\n        }\n    }\n\n    function getToken(address _user) public returns(uint){\n        token = tokenContract.balanceOf(_user); \n        \n        return token;\n\n\n    }\n\n\n}\n\n\n\n\n",
  "sourcePath": "/Users/joelytj/Desktop/EtherLearn/contracts/Question.sol",
  "compiler": {
    "name": "solc",
    "version": "0.5.17+commit.d19bba13.Emscripten.clang"
  },
  "schemaVersion": "3.3.4",
  "updatedAt": "2021-12-06T06:19:10.824Z",
  "networkType": "ethereum",
  "devdoc": {
    "methods": {}
  },
  "userdoc": {
    "methods": {}
  }
}