{
  "contractName": "QuestionFactory",
  "abi": [
    {
      "constant": true,
      "inputs": [
        {
          "name": "",
          "type": "address"
        }
      ],
      "name": "users",
      "outputs": [
        {
          "name": "",
          "type": "address"
        }
      ],
      "payable": false,
      "stateMutability": "view",
      "type": "function"
    },
    {
      "constant": true,
      "inputs": [],
      "name": "msgSender",
      "outputs": [
        {
          "name": "",
          "type": "address"
        }
      ],
      "payable": false,
      "stateMutability": "view",
      "type": "function"
    },
    {
      "constant": false,
      "inputs": [
        {
          "name": "category",
          "type": "string"
        },
        {
          "name": "questionTitle",
          "type": "string"
        },
        {
          "name": "description",
          "type": "string"
        },
        {
          "name": "deposit",
          "type": "uint256"
        },
        {
          "name": "maxDuration",
          "type": "uint256"
        },
        {
          "name": "fileHashesQuestion",
          "type": "string[]"
        },
        {
          "name": "fileNamesQuestion",
          "type": "string[]"
        }
      ],
      "name": "createQuestion",
      "outputs": [],
      "payable": false,
      "stateMutability": "nonpayable",
      "type": "function"
    },
    {
      "constant": false,
      "inputs": [
        {
          "name": "_question",
          "type": "address"
        },
        {
          "name": "_reply",
          "type": "string"
        },
        {
          "name": "_fileHashes",
          "type": "string[]"
        },
        {
          "name": "_fileNames",
          "type": "string[]"
        },
        {
          "name": "_parent",
          "type": "int256"
        }
      ],
      "name": "createAnswer",
      "outputs": [],
      "payable": false,
      "stateMutability": "nonpayable",
      "type": "function"
    },
    {
      "constant": false,
      "inputs": [
        {
          "name": "_question",
          "type": "address"
        },
        {
          "name": "_ratingQuestion",
          "type": "uint256"
        }
      ],
      "name": "ratingQuestionAt",
      "outputs": [],
      "payable": true,
      "stateMutability": "payable",
      "type": "function"
    },
    {
      "constant": false,
      "inputs": [
        {
          "name": "_question",
          "type": "address"
        },
        {
          "name": "_ratingAnswer",
          "type": "uint256"
        },
        {
          "name": "_index",
          "type": "uint256"
        }
      ],
      "name": "ratingAnswerAt",
      "outputs": [],
      "payable": true,
      "stateMutability": "payable",
      "type": "function"
    },
    {
      "constant": false,
      "inputs": [
        {
          "name": "_question",
          "type": "address"
        }
      ],
      "name": "shareTokenAt",
      "outputs": [],
      "payable": true,
      "stateMutability": "payable",
      "type": "function"
    },
    {
      "constant": false,
      "inputs": [
        {
          "name": "_user",
          "type": "address"
        }
      ],
      "name": "hasProfile",
      "outputs": [
        {
          "name": "",
          "type": "bool"
        }
      ],
      "payable": false,
      "stateMutability": "nonpayable",
      "type": "function"
    },
    {
      "constant": false,
      "inputs": [
        {
          "name": "_user",
          "type": "address"
        }
      ],
      "name": "getProfile",
      "outputs": [
        {
          "name": "",
          "type": "address"
        }
      ],
      "payable": false,
      "stateMutability": "nonpayable",
      "type": "function"
    },
    {
      "constant": true,
      "inputs": [],
      "name": "getDeployedQuestions",
      "outputs": [
        {
          "name": "",
          "type": "address[]"
        }
      ],
      "payable": false,
      "stateMutability": "view",
      "type": "function"
    }
  ],
  "bytecode": "0x608060405260028054600160a060020a031990811633179091556003805490911673d9145cce52d386f254917e481eb44e9943f3913817905534801561004457600080fd5b50613fdf806100546000396000f300608060405260043610620000945763ffffffff60e060020a6000350416620e078f811462000099578063090abfc514620000c95780630f53a47014620000f0578063320345c51462000124578063356b35e4146200013b57806361e62f8a14620001525780637badea3f1462000169578063a787c80b146200018e578063a87430ba14620001c2578063d737d0c714620001e7575b600080fd5b348015620000a657600080fd5b50620000b1620001ff565b604051620000c09190620014be565b60405180910390f35b348015620000d657600080fd5b50620000ee620000e836600462001083565b62000263565b005b348015620000fd57600080fd5b50620001156200010f3660046200105a565b62000414565b604051620000c0919062001489565b620000ee620001353660046200105a565b6200045f565b620000ee6200014c3660046200118d565b6200054e565b620000ee620001633660046200114e565b6200079c565b3480156200017657600080fd5b50620000ee6200018836600462001223565b62000ace565b3480156200019b57600080fd5b50620001b3620001ad3660046200105a565b62000ece565b604051620000c09190620014d1565b348015620001cf57600080fd5b5062000115620001e13660046200105a565b62000f04565b348015620001f457600080fd5b506200011562000f1f565b606060008054806020026020016040519081016040528092919081815260200182805480156200025957602002820191906000526020600020905b8154600160a060020a031681526001909101906020018083116200023a575b5050505050905090565b336000908152600160205260408120548190600160a060020a03161515620002f257336200029062000f2e565b6200029c919062001489565b604051809103906000f080158015620002b9573d6000803e3d6000fd5b50336000908152600160205260409020805473ffffffffffffffffffffffffffffffffffffffff1916600160a060020a03831617905591505b5033600081815260016020526040908190205490517f49bd924c0000000000000000000000000000000000000000000000000000000081528892600160a060020a03808516936349bd924c9362000357938c938c938c939116908b9060040162001520565b600060405180830381600087803b1580156200037257600080fd5b505af115801562000387573d6000803e3d6000fd5b5050336000908152600160205260408082205481517f0a91553d0000000000000000000000000000000000000000000000000000000081529151600160a060020a039091169450630a91553d93506004808301939282900301818387803b158015620003f257600080fd5b505af115801562000407573d6000803e3d6000fd5b5050505050505050505050565b600160a060020a0380821660009081526001602052604081205490911615156200043d57600080fd5b50600160a060020a03808216600090815260016020526040902054165b919050565b336000908152600160205260408120548190600160a060020a03161515620004ee57336200048c62000f2e565b62000498919062001489565b604051809103906000f080158015620004b5573d6000803e3d6000fd5b50336000908152600160205260409020805473ffffffffffffffffffffffffffffffffffffffff1916600160a060020a03831617905591505b82905080600160a060020a0316636c9fa59e6040518163ffffffff1660e060020a028152600401600060405180830381600087803b1580156200053057600080fd5b505af115801562000545573d6000803e3d6000fd5b50505050505050565b336000908152600160205260408120548190600160a060020a03161515620005dd57336200057b62000f2e565b62000587919062001489565b604051809103906000f080158015620005a4573d6000803e3d6000fd5b50336000908152600160205260409020805473ffffffffffffffffffffffffffffffffffffffff1916600160a060020a03831617905591505b506040518490600160a060020a038216903480156108fc02916000818181858888f1935050505015801562000616573d6000803e3d6000fd5b506040517f97b16ab9000000000000000000000000000000000000000000000000000000008152600160a060020a038216906397b16ab99062000660908790879060040162001662565b600060405180830381600087803b1580156200067b57600080fd5b505af115801562000690573d6000803e3d6000fd5b50506040517f7ba354ff000000000000000000000000000000000000000000000000000000008152600160a060020a0384169250637ba354ff9150620006db90869060040162001652565b602060405180830381600087803b158015620006f657600080fd5b505af11580156200070b573d6000803e3d6000fd5b505050506040513d601f19601f8201168201806040525062000731919081019062001202565b600160a060020a031663b3d6e1d2856040518263ffffffff1660e060020a02815260040162000761919062001652565b600060405180830381600087803b1580156200077c57600080fd5b505af115801562000791573d6000803e3d6000fd5b505050505050505050565b336000908152600160205260408120548190600160a060020a031615156200082b5733620007c962000f2e565b620007d5919062001489565b604051809103906000f080158015620007f2573d6000803e3d6000fd5b50336000908152600160205260409020805473ffffffffffffffffffffffffffffffffffffffff1916600160a060020a03831617905591505b506040518390600160a060020a038216903480156108fc02916000818181858888f1935050505015801562000864573d6000803e3d6000fd5b506040517ff0d339f6000000000000000000000000000000000000000000000000000000008152600160a060020a0382169063f0d339f690620008ac90869060040162001652565b600060405180830381600087803b158015620008c757600080fd5b505af1158015620008dc573d6000803e3d6000fd5b50506040517f72267ab8000000000000000000000000000000000000000000000000000000008152600160a060020a03841692506372267ab89150620009289060019060040162001510565b600060405180830381600087803b1580156200094357600080fd5b505af115801562000958573d6000803e3d6000fd5b50503360009081526001602081905260408083205490517fc12d1d82000000000000000000000000000000000000000000000000000000008152600160a060020a03909116945063c12d1d829350620009b6929190600401620014e1565b600060405180830381600087803b158015620009d157600080fd5b505af1158015620009e6573d6000803e3d6000fd5b5050505080600160a060020a031663cb90a3946040518163ffffffff1660e060020a028152600401602060405180830381600087803b15801562000a2957600080fd5b505af115801562000a3e573d6000803e3d6000fd5b505050506040513d601f19601f8201168201806040525062000a64919081019062001202565b600160a060020a031663e999309c846040518263ffffffff1660e060020a02815260040162000a94919062001652565b600060405180830381600087803b15801562000aaf57600080fd5b505af115801562000ac4573d6000803e3d6000fd5b5050505050505050565b33600090815260016020526040812054819081908190600160a060020a0316151562000b61573362000aff62000f2e565b62000b0b919062001489565b604051809103906000f08015801562000b28573d6000803e3d6000fd5b50336000908152600160205260409020805473ffffffffffffffffffffffffffffffffffffffff1916600160a060020a03831617905593505b336000818152600160205260409020548c918c918c918c918c918c918c9190600160a060020a031662000b9362000f3f565b62000ba79998979695949392919062001599565b604051809103906000f08015801562000bc4573d6000803e3d6000fd5b50600080546001810182559080527f290decd9548b62a8d60345a988386fc84ba6bc95484008f6362f93160ef3e56301805473ffffffffffffffffffffffffffffffffffffffff1916600160a060020a03838116919091179091556003546040517f095ea7b3000000000000000000000000000000000000000000000000000000008152929550859450739e627dabdac07a61a281a2c9d650a5983f0647089350169063095ea7b39062000c7f9084908c906004016200149f565b602060405180830381600087803b15801562000c9a57600080fd5b505af115801562000caf573d6000803e3d6000fd5b505050506040513d601f19601f8201168201806040525062000cd59190810190620011e1565b151562000ce157600080fd5b6040517f2e191766000000000000000000000000000000000000000000000000000000008152600160a060020a03821690632e1917669062000d28908b9060040162001652565b600060405180830381600087803b15801562000d4357600080fd5b505af115801562000d58573d6000803e3d6000fd5b5050336000908152600160205260408082205490517fc12d1d82000000000000000000000000000000000000000000000000000000008152600160a060020a03909116935063c12d1d82925062000db591908c9060040162001500565b600060405180830381600087803b15801562000dd057600080fd5b505af115801562000de5573d6000803e3d6000fd5b5050336000908152600160205260408082205481517f6ac99b480000000000000000000000000000000000000000000000000000000081529151600160a060020a039091169450636ac99b4893506004808301939282900301818387803b15801562000e5057600080fd5b505af115801562000e65573d6000803e3d6000fd5b5050505081600160a060020a03166308f7e68f6040518163ffffffff1660e060020a028152600401600060405180830381600087803b15801562000ea857600080fd5b505af115801562000ebd573d6000803e3d6000fd5b505050505050505050505050505050565b600160a060020a03808216600090815260016020526040812054909116151562000efb575060006200045a565b5060016200045a565b600160205260009081526040902054600160a060020a031681565b600254600160a060020a031681565b60405161051d806200176783390190565b6040516123228062001c8483390190565b600062000f5e8235620016ef565b9392505050565b6000601f8201831362000f7757600080fd5b813562000f8e62000f88826200169a565b62001672565b81815260209384019390925082018360005b8381101562000fd0578135860162000fb9888262001004565b845250602092830192919091019060010162000fa0565b5050505092915050565b600062000f5e8251620016fb565b600062000f5e825162001703565b600062000f5e823562001700565b6000601f820183136200101657600080fd5b81356200102762000f8882620016bc565b915080825260208301602083018583830111156200104457600080fd5b620010518382846200171d565b50505092915050565b6000602082840312156200106d57600080fd5b60006200107b848462000f50565b949350505050565b600080600080600060a086880312156200109c57600080fd5b6000620010aa888862000f50565b955050602086013567ffffffffffffffff811115620010c857600080fd5b620010d68882890162001004565b945050604086013567ffffffffffffffff811115620010f457600080fd5b620011028882890162000f65565b935050606086013567ffffffffffffffff8111156200112057600080fd5b6200112e8882890162000f65565b9250506080620011418882890162000ff6565b9150509295509295909350565b600080604083850312156200116257600080fd5b600062001170858562000f50565b9250506020620011838582860162000ff6565b9150509250929050565b600080600060608486031215620011a357600080fd5b6000620011b1868662000f50565b9350506020620011c48682870162000ff6565b9250506040620011d78682870162000ff6565b9150509250925092565b600060208284031215620011f457600080fd5b60006200107b848462000fda565b6000602082840312156200121557600080fd5b60006200107b848462000fe8565b600080600080600080600060e0888a0312156200123f57600080fd5b873567ffffffffffffffff8111156200125757600080fd5b620012658a828b0162001004565b975050602088013567ffffffffffffffff8111156200128357600080fd5b620012918a828b0162001004565b965050604088013567ffffffffffffffff811115620012af57600080fd5b620012bd8a828b0162001004565b9550506060620012d08a828b0162000ff6565b9450506080620012e38a828b0162000ff6565b93505060a088013567ffffffffffffffff8111156200130157600080fd5b6200130f8a828b0162000f65565b92505060c088013567ffffffffffffffff8111156200132d57600080fd5b6200133b8a828b0162000f65565b91505092959891949750929550565b6200135581620016ef565b82525050565b60006200136882620016eb565b8084526020840193506200137c83620016e5565b60005b82811015620013b257620013958683516200134a565b620013a082620016e5565b6020969096019591506001016200137f565b5093949350505050565b6000620013c982620016eb565b80845260208401935083602082028501620013e485620016e5565b60005b8481101562001421578383038852620014028383516200144e565b92506200140f82620016e5565b602098909801979150600101620013e7565b50909695505050505050565b6200135581620016fb565b620013558162001700565b620013558162001710565b60006200145b82620016eb565b8084526200147181602086016020860162001729565b6200147c816200175c565b9093016020019392505050565b602081016200149982846200134a565b92915050565b60408101620014af82856200134a565b62000f5e602083018462001438565b6020808252810162000f5e81846200135b565b602081016200149982846200142d565b60408101620014f1828562001443565b62000f5e602083018462001443565b60408101620014af828562001443565b6020810162001499828462001443565b60c080825281016200153381896200144e565b90508181036020830152620015498188620013bc565b905081810360408301526200155f8187620013bc565b90506200157060608301866200134a565b6200157f60808301856200134a565b6200158e60a083018462001438565b979650505050505050565b6101208082528101620015ad818c6200144e565b90508181036020830152620015c3818b6200144e565b90508181036040830152620015d9818a6200144e565b9050620015ea606083018962001438565b620015f9608083018862001438565b81810360a08301526200160d8187620013bc565b905081810360c0830152620016238186620013bc565b90506200163460e08301856200134a565b620016446101008301846200134a565b9a9950505050505050505050565b6020810162001499828462001438565b60408101620014af828562001438565b60405181810167ffffffffffffffff811182821017156200169257600080fd5b604052919050565b600067ffffffffffffffff821115620016b257600080fd5b5060209081020190565b600067ffffffffffffffff821115620016d457600080fd5b506020601f91909101601f19160190565b60200190565b5190565b600160a060020a031690565b151590565b90565b60006200149982620016ef565b6000620014998262001700565b82818337506000910152565b60005b83811015620017465781810151838201526020016200172c565b8381111562001756576000848401525b50505050565b601f01601f19169056006080604052600a60005534801561001557600080fd5b5060405160208061051d8339810180604052610034919081019061006c565b60058054600160a060020a031916600160a060020a039290921691909117905561009e565b60006100658251610092565b9392505050565b60006020828403121561007e57600080fd5b600061008a8484610059565b949350505050565b600160a060020a031690565b610470806100ad6000396000f3006080604052600436106100e55763ffffffff7c01000000000000000000000000000000000000000000000000000000006000350416630a91553d81146100ea578063199a595f146101015780631aca7a801461012c57806321df0da7146101415780632d0b49ae14610156578063352173e21461016b5780634f8632ba146101805780635bf20a8c146101a25780636ac99b48146101b7578063a0c54fe5146101cc578063b3d6e1d2146101e1578063b908904714610201578063c12d1d8214610216578063e999309c14610236578063fc0c546a14610256578063ff9af5781461026b575b600080fd5b3480156100f657600080fd5b506100ff610280565b005b34801561010d57600080fd5b5061011661028b565b604051610123919061040c565b60405180910390f35b34801561013857600080fd5b50610116610291565b34801561014d57600080fd5b50610116610297565b34801561016257600080fd5b5061011661029d565b34801561017757600080fd5b506101166102a3565b34801561018c57600080fd5b506101956102cc565b60405161012391906103f8565b3480156101ae57600080fd5b506101166102e8565b3480156101c357600080fd5b506100ff6102ee565b3480156101d857600080fd5b506101166102f8565b3480156101ed57600080fd5b506100ff6101fc366004610380565b61031a565b34801561020d57600080fd5b50610116610325565b34801561022257600080fd5b506100ff6102313660046103a6565b61032b565b34801561024257600080fd5b506100ff610251366004610380565b610356565b34801561026257600080fd5b50610116610361565b34801561027757600080fd5b50610116610367565b600380546001019055565b60025481565b60015490565b60005490565b60045481565b600154600090819015156102b657600080fd5b6001546002548115156102c557fe5b0492915050565b60055473ffffffffffffffffffffffffffffffffffffffff1681565b60015481565b6001805481019055565b6003546000908190151561030b57600080fd5b6003546004548115156102c557fe5b600480549091019055565b60035490565b8160011415610341576000805482019055610352565b811515610352576000805482900390555b5050565b600280549091019055565b60005481565b60035481565b60006103798235610433565b9392505050565b60006020828403121561039257600080fd5b600061039e848461036d565b949350505050565b600080604083850312156103b957600080fd5b60006103c5858561036d565b92505060206103d68582860161036d565b9150509250929050565b6103e98161041a565b82525050565b6103e981610433565b6020810161040682846103e0565b92915050565b6020810161040682846103ef565b73ffffffffffffffffffffffffffffffffffffffff1690565b905600a265627a7a72305820ddf5444e6d1aa63913e98623fc3e41ee0e372c30c91416241d94e969d70908fe6c6578706572696d656e74616cf500376080604052600d805460ff1916905560006012553480156200002057600080fd5b50604051620023223803806200232283398101806040526200004691908101906200035e565b88516200005b9060119060208c0190620000f8565b508751620000719060039060208b0190620000f8565b508651620000879060049060208a0190620000f8565b50600586905560068590558351620000a79060019060208701906200017d565b508251620000bd9060029060208601906200017d565b5060078054600160a060020a03938416600160a060020a03199182161790915560088054929093169116179055506200055b95505050505050565b828054600181600116156101000203166002900490600052602060002090601f016020900481019282601f106200013b57805160ff19168380011785556200016b565b828001600101855582156200016b579182015b828111156200016b5782518255916020019190600101906200014e565b5062000179929150620001dd565b5090565b828054828255906000526020600020908101928215620001cf579160200282015b82811115620001cf5782518051620001be918491602090910190620000f8565b50916020019190600101906200019e565b5062000179929150620001fd565b620001fa91905b80821115620001795760008155600101620001e4565b90565b620001fa91905b80821115620001795760006200021b828262000225565b5060010162000204565b50805460018160011615610100020316600290046000825580601f106200024d57506200026d565b601f0160209004906000526020600020908101906200026d9190620001dd565b50565b60006200027e82516200051c565b9392505050565b6000601f820183136200029757600080fd5b8151620002ae620002a882620004d3565b620004ac565b81815260209384019390925082018360005b83811015620002f05781518601620002d98882620002fa565b8452506020928301929190910190600101620002c0565b5050505092915050565b6000601f820183136200030c57600080fd5b81516200031d620002a882620004f4565b915080825260208301602083018583830111156200033a57600080fd5b6200034783828462000528565b50505092915050565b60006200027e8251620001fa565b60008060008060008060008060006101208a8c0312156200037e57600080fd5b89516001604060020a038111156200039557600080fd5b620003a38c828d01620002fa565b99505060208a01516001604060020a03811115620003c057600080fd5b620003ce8c828d01620002fa565b98505060408a01516001604060020a03811115620003eb57600080fd5b620003f98c828d01620002fa565b97505060606200040c8c828d0162000350565b96505060806200041f8c828d0162000350565b95505060a08a01516001604060020a038111156200043c57600080fd5b6200044a8c828d0162000285565b94505060c08a01516001604060020a038111156200046757600080fd5b620004758c828d0162000285565b93505060e0620004888c828d0162000270565b9250506101006200049c8c828d0162000270565b9150509295985092959850929598565b6040518181016001604060020a0381118282101715620004cb57600080fd5b604052919050565b60006001604060020a03821115620004ea57600080fd5b5060209081020190565b60006001604060020a038211156200050b57600080fd5b506020601f91909101601f19160190565b600160a060020a031690565b60005b83811015620005455781810151838201526020016200052b565b8381111562000555576000848401525b50505050565b611db7806200056b6000396000f3006080604052600436106101d65763ffffffff7c0100000000000000000000000000000000000000000000000000000000600035041662a70eee81146101d857806306661abd1461020357806308f7e68f1461022557806326ce12841461023a5780632a412fdf1461024f5780633531fde8146102645780633b957317146102865780634051ddac1461029b57806349bd924c146102c357806352704204146102e3578063557ed1ba146102f857806356dde0b61461031c5780635b4246d414610331578063632b1ae114610346578063693f4b07146103685780636c9fa59e146103885780636db5c8fd1461039d5780636ec39c95146103b257806372267ab8146103d25780637284e416146103f25780637ba354ff1461040757806380258e47146104345780638896377114610449578063893d20e81461045e5780638da5cb5b1461048057806390b47d3e1461049557806397b16ab9146104aa578063b1259505146104ca578063be9a6555146104ea578063c399ec88146104ff578063c9930ee014610514578063cb90a39414610549578063ce8acbad1461055e578063d04f119a14610573578063d0e30db014610588578063d4efc2511461059d578063ef430aa6146105b2578063f0d339f6146105c7575b005b3480156101e457600080fd5b506101ed6105e7565b6040516101fa9190611b0c565b60405180910390f35b34801561020f57600080fd5b506102186105f2565b6040516101fa9190611b28565b34801561023157600080fd5b506101d66105f8565b34801561024657600080fd5b506102186105fe565b34801561025b57600080fd5b50610218610604565b34801561027057600080fd5b5061027961060a565b6040516101fa9190611afb565b34801561029257600080fd5b506101ed61090f565b3480156102a757600080fd5b506102b0610923565b6040516101fa9796959493929190611b62565b3480156102cf57600080fd5b506101d66102de36600461173f565b610c37565b3480156102ef57600080fd5b50610218610dda565b34801561030457600080fd5b5061030d610de0565b6040516101fa93929190611c6e565b34801561032857600080fd5b506101ed610deb565b34801561033d57600080fd5b50610218610e46565b34801561035257600080fd5b5061035b610e4c565b6040516101fa9190611b51565b34801561037457600080fd5b5061021861038336600461180d565b610eda565b34801561039457600080fd5b506101d6610f03565b3480156103a957600080fd5b5061021861104f565b3480156103be57600080fd5b5061035b6103cd36600461180d565b611055565b3480156103de57600080fd5b506101d66103ed36600461180d565b6110c9565b3480156103fe57600080fd5b5061035b6110d4565b34801561041357600080fd5b5061042761042236600461180d565b61112f565b6040516101fa9190611b1a565b34801561044057600080fd5b5061035b611162565b34801561045557600080fd5b506102186111f8565b34801561046a57600080fd5b506104736111fe565b6040516101fa9190611ae7565b34801561048c57600080fd5b5061047361120d565b3480156104a157600080fd5b5061042761121c565b3480156104b657600080fd5b506101d66104c5366004611833565b61122b565b3480156104d657600080fd5b5061035b6104e536600461180d565b6112ec565b3480156104f657600080fd5b506102186112fa565b34801561050b57600080fd5b50610218611300565b34801561052057600080fd5b5061053461052f36600461180d565b611306565b6040516101fa99989796959493929190611be3565b34801561055557600080fd5b506104276113f7565b34801561056a57600080fd5b50610218611406565b34801561057f57600080fd5b506101ed61140c565b34801561059457600080fd5b50610218611415565b3480156105a957600080fd5b5061021861141b565b3480156105be57600080fd5b5061035b611421565b3480156105d357600080fd5b506101d66105e236600461180d565b61147c565b600d5460ff16155b90565b60125481565b42600955565b600a5490565b600a5481565b60606000805480602002602001604051908101604052809291908181526020016000905b8282101561090657600084815260209081902060408051600b8602909201805460026001821615610100026000190190911604601f810185900490940283016101809081019092526101608301848152929390928492909184918401828280156106d95780601f106106ae576101008083540402835291602001916106d9565b820191906000526020600020905b8154815290600101906020018083116106bc57829003601f168201915b5050505050815260200160018201805480602002602001604051908101604052809291908181526020016000905b828210156107b25760008481526020908190208301805460408051601f600260001961010060018716150201909416939093049283018590048502810185019091528181529283018282801561079e5780601f106107735761010080835404028352916020019161079e565b820191906000526020600020905b81548152906001019060200180831161078157829003601f168201915b505050505081526020019060010190610707565b50505050815260200160028201805480602002602001604051908101604052809291908181526020016000905b8282101561088a5760008481526020908190208301805460408051601f60026000196101006001871615020190941693909304928301859004850281018501909152818152928301828280156108765780601f1061084b57610100808354040283529160200191610876565b820191906000526020600020905b81548152906001019060200180831161085957829003601f168201915b5050505050815260200190600101906107df565b505050908252506003820154600160a060020a03908116602080840191909152600484015490911660408301526005830154606083015260068301546080830152600783015460a0830152600883015460c0830152600983015460e0830152600a9092015461010090910152908252600192909201910161062e565b50505050905090565b6009546006544291909103908111905b5090565b606080600080600060608060036004600554600654600760009054906101000a9004600160a060020a031660016002868054600181600116156101000203166002900480601f0160208091040260200160405190810160405280929190818152602001828054600181600116156101000203166002900480156109e75780601f106109bc576101008083540402835291602001916109e7565b820191906000526020600020905b8154815290600101906020018083116109ca57829003601f168201915b5050895460408051602060026001851615610100026000190190941693909304601f8101849004840282018401909252818152959c508b945092508401905082828015610a755780601f10610a4a57610100808354040283529160200191610a75565b820191906000526020600020905b815481529060010190602001808311610a5857829003601f168201915b5050505050955081805480602002602001604051908101604052809291908181526020016000905b82821015610b485760008481526020908190208301805460408051601f6002600019610100600187161502019094169390930492830185900485028101850190915281815292830182828015610b345780601f10610b0957610100808354040283529160200191610b34565b820191906000526020600020905b815481529060010190602001808311610b1757829003601f168201915b505050505081526020019060010190610a9d565b50505050915080805480602002602001604051908101604052809291908181526020016000905b82821015610c1a5760008481526020908190208301805460408051601f6002600019610100600187161502019094169390930492830185900485028101850190915281815292830182828015610c065780601f10610bdb57610100808354040283529160200191610c06565b820191906000526020600020905b815481529060010190602001808311610be957829003601f168201915b505050505081526020019060010190610b6f565b505050509050965096509650965096509650965090919293949596565b6000610c416114a1565b826000191415610c5d5760128054600181019091559150610c63565b60001991505b5060408051610160810182528881526020808201899052918101879052600160a060020a038087166060830152851660808201524260a0820152600060c0820181905260e0820181905261010082018190526101208201859052610140820184905280546001810180835591805282518051939492938593600b9093027f290decd9548b62a8d60345a988386fc84ba6bc95484008f6362f93160ef3e5630192610d1192849291019061150e565b506020828101518051610d2a9260018501920190611588565b5060408201518051610d46916002840191602090910190611588565b506060820151600382018054600160a060020a0392831673ffffffffffffffffffffffffffffffffffffffff1991821617909155608084015160048401805491909316911617905560a0820151600582015560c0820151600682015560e082015160078201556101008201516008820155610120820151600982015561014090910151600a90910155505050505050505050565b600b5481565b600954600654429192565b60008080600054811015610e41576004600082815481101515610e0a57fe5b90600052602060002090600b020160060154101515610e2a576001909101905b6000821115610e3c5760019250610e41565b600092505b505090565b600f5481565b6003805460408051602060026001851615610100026000190190941693909304601f81018490048402820184019092528181529291830182828015610ed25780601f10610ea757610100808354040283529160200191610ed2565b820191906000526020600020905b815481529060010190602001808311610eb557829003601f168201915b505050505081565b60008082815481101515610eea57fe5b90600052602060002090600b0201600601549050919050565b60005b600054811015610f4c576004600082815481101515610f2157fe5b90600052602060002090600b020160060154101515610f44576010805460010190555b600101610f06565b601054600554811515610f5b57fe5b04600f555060005b60005481101561103f576004600082815481101515610f7e57fe5b90600052602060002090600b020160060154101515611037576000805482908110610fa557fe5b600091825260209091206004600b90920201810154600f546040517fc12d1d82000000000000000000000000000000000000000000000000000000008152600160a060020a039092169263c12d1d829261100492600192909101611b36565b600060405180830381600087803b15801561101e57600080fd5b505af1158015611032573d6000803e3d6000fd5b505050505b600101610f63565b50600d805460ff19166001179055565b60065481565b600280548290811061106357fe5b600091825260209182902001805460408051601f6002600019610100600187161502019094169390930492830185900485028101850190915281815293509091830182828015610ed25780601f10610ea757610100808354040283529160200191610ed2565b600580549091019055565b6004805460408051602060026001851615610100026000190190941693909304601f81018490048402820184019092528181529291830182828015610ed25780601f10610ea757610100808354040283529160200191610ed2565b6000808281548110151561113f57fe5b60009182526020909120600b9091020160040154600160a060020a031692915050565b60118054604080516020601f60026000196101006001881615020190951694909404938401819004810282018101909252828152606093909290918301828280156111ee5780601f106111c3576101008083540402835291602001916111ee565b820191906000526020600020905b8154815290600101906020018083116111d157829003601f168201915b5050505050905090565b600e5481565b600754600160a060020a031690565b600754600160a060020a031681565b600854600160a060020a031681565b600080548290811061123957fe5b6000918252602082206007600b90920201018054600101905580548391908390811061126157fe5b6000918252602082206008600b9092020101805490920190915580548290811061128757fe5b90600052602060002090600b0201600701546000828154811015156112a857fe5b90600052602060002090600b0201600801548115156112c357fe5b046000828154811015156112d357fe5b90600052602060002090600b0201600601819055505050565b600180548290811061106357fe5b60095481565b60055490565b600080548290811061131457fe5b6000918252602091829020600b919091020180546040805160026001841615610100026000190190931692909204601f8101859004850283018501909152808252919350918391908301828280156113ad5780601f10611382576101008083540402835291602001916113ad565b820191906000526020600020905b81548152906001019060200180831161139057829003601f168201915b50505060038401546004850154600586015460068701546007880154600889015460098a0154600a909a01549899600160a060020a03968716999590961697509295509093909289565b600854600160a060020a031690565b60105481565b600d5460ff1681565b60055481565b600c5481565b6011805460408051602060026001851615610100026000190190941693909304601f81018490048402820184019092528181529291830182828015610ed25780601f10610ea757610100808354040283529160200191610ed2565b600b805460010190819055600c805483019081905581151561149a57fe5b04600a5550565b610160604051908101604052806060815260200160608152602001606081526020016000600160a060020a031681526020016000600160a060020a031681526020016000815260200160008152602001600081526020016000815260200160008152602001600081525090565b828054600181600116156101000203166002900490600052602060002090601f016020900481019282601f1061154f57805160ff191683800117855561157c565b8280016001018555821561157c579182015b8281111561157c578251825591602001919060010190611561565b5061091f9291506115e1565b8280548282559060005260206000209081019282156115d5579160200282015b828111156115d557825180516115c591849160209091019061150e565b50916020019190600101906115a8565b5061091f9291506115fb565b6105ef91905b8082111561091f57600081556001016115e7565b6105ef91905b8082111561091f576000611615828261161e565b50600101611601565b50805460018160011615610100020316600290046000825580601f106116445750611662565b601f01602090049060005260206000209081019061166291906115e1565b50565b60006116718235611d10565b9392505050565b6000601f8201831361168957600080fd5b813561169c61169782611cbd565b611c96565b81815260209384019390925082018360005b838110156116da57813586016116c488826116f0565b84525060209283019291909101906001016116ae565b5050505092915050565b600061167182356105ef565b6000601f8201831361170157600080fd5b813561170f61169782611cde565b9150808252602083016020830185838301111561172b57600080fd5b611736838284611d37565b50505092915050565b60008060008060008060c0878903121561175857600080fd5b863567ffffffffffffffff81111561176f57600080fd5b61177b89828a016116f0565b965050602087013567ffffffffffffffff81111561179857600080fd5b6117a489828a01611678565b955050604087013567ffffffffffffffff8111156117c157600080fd5b6117cd89828a01611678565b94505060606117de89828a01611665565b93505060806117ef89828a01611665565b92505060a061180089828a016116e4565b9150509295509295509295565b60006020828403121561181f57600080fd5b600061182b84846116e4565b949350505050565b6000806040838503121561184657600080fd5b600061185285856116e4565b9250506020611863858286016116e4565b9150509250929050565b61187681611d10565b82525050565b600061188782611d0c565b808452602084019350836020820285016118a085611d06565b60005b848110156118d75783830388526118bb8383516119bd565b92506118c682611d06565b6020989098019791506001016118a3565b50909695505050505050565b60006118ee82611d0c565b8084526020840193508360208202850161190785611d06565b60005b848110156118d75783830388526119228383516119bd565b925061192d82611d06565b60209890980197915060010161190a565b600061194982611d0c565b8084526020840193508360208202850161196285611d06565b60005b848110156118d757838303885261197d8383516119f2565b925061198882611d06565b602098909801979150600101611965565b61187681611d1c565b61187681611d21565b611876816105ef565b61187681611d2c565b60006119c882611d0c565b8084526119dc816020860160208601611d43565b6119e581611d73565b9093016020019392505050565b805161016080845260009190840190611a0b82826119bd565b91505060208301518482036020860152611a2582826118e3565b91505060408301518482036040860152611a3f82826118e3565b9150506060830151611a54606086018261186d565b506080830151611a6760808601826119a2565b5060a0830151611a7a60a08601826119ab565b5060c0830151611a8d60c08601826119ab565b5060e0830151611aa060e08601826119ab565b50610100830151611ab56101008601826119ab565b50610120830151611aca6101208601826119ab565b50610140830151611adf6101408601826119ab565b509392505050565b60208101611af5828461186d565b92915050565b60208082528101611671818461193e565b60208101611af58284611999565b60208101611af582846119a2565b60208101611af582846119ab565b60408101611b4482856119b4565b61167160208301846119ab565b6020808252810161167181846119bd565b60e08082528101611b73818a6119bd565b90508181036020830152611b8781896119bd565b9050611b9660408301886119ab565b611ba360608301876119ab565b611bb0608083018661186d565b81810360a0830152611bc2818561187c565b905081810360c0830152611bd6818461187c565b9998505050505050505050565b6101208082528101611bf5818c6119bd565b9050611c04602083018b61186d565b611c11604083018a6119a2565b611c1e60608301896119ab565b611c2b60808301886119ab565b611c3860a08301876119ab565b611c4560c08301866119ab565b611c5260e08301856119ab565b611c606101008301846119ab565b9a9950505050505050505050565b60608101611c7c82866119ab565b611c8960208301856119ab565b61182b60408301846119ab565b60405181810167ffffffffffffffff81118282101715611cb557600080fd5b604052919050565b600067ffffffffffffffff821115611cd457600080fd5b5060209081020190565b600067ffffffffffffffff821115611cf557600080fd5b506020601f91909101601f19160190565b60200190565b5190565b600160a060020a031690565b151590565b6000611af582611d10565b6000611af5826105ef565b82818337506000910152565b60005b83811015611d5e578181015183820152602001611d46565b83811115611d6d576000848401525b50505050565b601f01601f1916905600a265627a7a723058207f6cc7a6badc1483357a8a4c7eb78b501d70851f115336c581a8a60e807f83ab6c6578706572696d656e74616cf50037a265627a7a72305820fbf6604500dde2e2b081712bc7828c82fed4213e4ad12c2a895edfea8bdc43e76c6578706572696d656e74616cf50037",
  "source": "pragma solidity ^0.4.25;\npragma experimental ABIEncoderV2;\nimport \"./ETLToken.sol\";\n// import \"https://github.com/OpenZeppelin/openzeppelin-contracts/blob/v3.1.0/contracts/token/ERC20/ERC20.sol\";\n// import \"./IERC20.sol\";\n// import './QKC.sol';\n\ncontract TransferToken {\n    address public msgSender = msg.sender;\n\n    function transfer() external {\n        ETLToken tokenContract = ETLToken(0x29e5416B784E71Fd157E898E9cfc767ec3149972);\n        tokenContract.transfer(msg.sender, 100);\n    }\n\n    function transferFrom(address _recipient, uint _amount) external {\n        ETLToken tokenContract = ETLToken(0x29e5416B784E71Fd157E898E9cfc767ec3149972);\n        tokenContract.transferFrom(msg.sender, _recipient, _amount);\n    }\n}\n\ncontract contractB {\n    address public msgSender = msg.sender;\n    address public thisAddress = this;\n    ETLToken tokenContract = ETLToken(0xd9145CCE52D386f254917e481eB44e9943F39138);\n    mapping ( address => uint256 ) public balances;\n\n    function depositing(uint tokens) public {\n\n        // add the deposited tokens into existing balance \n        balances[msg.sender]+= tokens;\n\n        // transfer the tokens from the sender to this contract\n        require(tokenContract.transferFrom(msg.sender, this, tokens));\n    }\n\n    function returnTokens() public {\n        balances[msg.sender] = 0;\n        tokenContract.transfer(msg.sender, balances[msg.sender]);\n    }\n\n}\n\ncontract QuestionFactory {\n    address[] private deployedQuestions;\n    mapping(address => address) public users;\n    address public msgSender = msg.sender;\n    ETLToken tokenContract = ETLToken(0xd9145CCE52D386f254917e481eB44e9943F39138);\n\n    function createQuestion(string category, string questionTitle, string description, uint deposit, \n                    uint maxDuration, string[] fileHashesQuestion, string[] fileNamesQuestion) public {\n        if (users[msg.sender] == 0) {\n            //default value 0 means no assigned value; create a profile for the user address\n            address profile = new Profile(msg.sender);\n            users[msg.sender] = profile;\n        }    \n        // require(deposit<Profile(users[msg.sender]).getToken(), \"deposit<getToken error\"); //think have to fix this line \n        address newQuestion = new Question(category, questionTitle, description, deposit, maxDuration,\n                                    fileHashesQuestion, fileNamesQuestion, msg.sender, users[msg.sender]);\n        deployedQuestions.push(newQuestion);\n        \n        Question question = Question(newQuestion);\n\n        contractB contractb = contractB(0x9E627DaBdaC07A61A281A2c9d650A5983f064708);\n        require(tokenContract.approve(0x9E627DaBdaC07A61A281A2c9d650A5983f064708, deposit));\n        contractb.depositing(deposit);\n\n\n        // question.transfer(address(this), deposit);\n        \n        //\n        // ETLToken tokenContract = ETLToken(0xF81A07E1257Db8a259631c3Bf8555279696ed7E1);\n\n        // require(tokenContract.approve(address(this), deposit), \"gg\");\n        // require(tokenContract.transferFrom(msg.sender, address(this), deposit),\"gg\");\n        // tokenContract.approve(address(this), deposit);\n        // tokenContract.transferFrom(msg.sender, address(this), deposit);\n        //\n\n        // tokenContract.approveAndCall(msg.sender, deposit);\n\n        // question.transfer(msg.value); //uses question because of fallback function () payable {}\n        // question.transfer(msg.sender, deposit);\n        Profile(users[msg.sender]).updateToken(0, deposit); //0 is subtract deposit from number of tokens of profile\n        Profile(users[msg.sender]).increaseNumOfQues();\n        question.postQuestion();  //Save posted time here\n        \n    }\n\n    // function receiveApproval(address _sender, uint256 _value, ETLToken _tokenContract) public {\n    //     require(_tokenContract == tokenContract);\n    //     require(tokenContract.transferFrom(_sender, address(this), _value));\n    // }\n\n    function createAnswer(address _question, string _reply, string[] _fileHashes, string[] _fileNames, int _parent) public {\n        if (users[msg.sender] == 0) {\n            address profile = new Profile(msg.sender);\n            users[msg.sender] = profile;\n        }   \n        Question question = Question(_question);\n        question.answer(_reply, _fileHashes, _fileNames, msg.sender, users[msg.sender], _parent);\n        Profile(users[msg.sender]).increaseNumOfAns();\n    }\n\n    function ratingQuestionAt(address _question, uint _ratingQuestion) public payable{\n        if (users[msg.sender] == 0) {\n            address profile = new Profile(msg.sender);\n            users[msg.sender] = profile;\n        }\n\n        Question question = Question(_question);\n        question.transfer(msg.value);\n        question.ratingQuestion(_ratingQuestion); \n        question.updateDeposite(1);\n        Profile(users[msg.sender]).updateToken(0, 1);\n        Profile(question.getOwnerP()).increaseSumOfQuesRate(_ratingQuestion);\n    }\n\n    function ratingAnswerAt(address _question, uint _ratingAnswer, uint _index) public payable {\n        if (users[msg.sender] == 0) {\n            address profile = new Profile(msg.sender);\n            users[msg.sender] = profile;\n        }\n\n        Question question = Question(_question);\n        question.transfer(msg.value);\n        question.updateAnswerRate(_ratingAnswer, _index);\n        Profile(question.getAnswererP(_index)).increaseSumOfAnsRate(_ratingAnswer);\n    }\n\n\n    function shareTokenAt(address _question) public payable {\n        if (users[msg.sender] == 0) {\n            address profile = new Profile(msg.sender);\n            users[msg.sender] = profile;\n        }\n\n        Question question = Question(_question);\n        question.shareToken();\n    }\n\n    function hasProfile(address _user) public returns(bool) {\n        if (users[_user] == 0) {\n            return false;\n        } else {\n            return true;\n        }\n    }\n\n    function getProfile(address _user) public returns(address) {\n        require(users[_user] != 0);\n        return users[_user];\n    }\n    \n    function getDeployedQuestions() public view returns(address[]) {\n        return deployedQuestions;\n    }\n\n\n}    \n\n\ncontract Question {\n\n    struct Answer {\n        string replyHash;\n        string[] fileHashes;\n        string[] fileNames;\n        address answerer;\n        Profile answererP;\n        uint answerTime;\n        uint answerRate; \n        uint answerNumRate;\n        uint answerSumRate;\n        int parent;\n        int id;       //Keep track parent answers\n    }\n\n    Answer[] public answerList; \n    string[] public fileHashesQuestion;\n    string[] public fileNamesQuestion;\n    string public questionTitle;\n    string public description;\n    uint public deposit;\n    uint public maxDuration;\n    address public owner;\n    Profile public ownerP;\n    uint public start;\n    uint public questionRate;\n    uint public numRate;\n    uint public sumRate;\n    bool public alreadyShareToken = false;\n    uint public tokenSum;\n    uint public proportion;\n    uint public numPeople;\n    string public category;\n    int public count = 0;\n\n    function() payable { }\n    \n    function Question (string _category, string _questionTitle, string _description, uint _deposit, uint _maxDuration, string[] _fileHashesQuestion, string[] _fileNamesQuestion, address _owner, address _ownerP) public {\n        category = _category;\n        questionTitle = _questionTitle;\n        description = _description;\n        deposit = _deposit;\n        maxDuration = _maxDuration;\n        fileHashesQuestion = _fileHashesQuestion;\n        fileNamesQuestion = _fileNamesQuestion;\n        owner = _owner;\n        ownerP = Profile(_ownerP);\n    }\n\n    function getSummary() public view returns (\n        string, string, uint, uint, address, string[], string[]\n    ) {\n        return(\n            questionTitle,\n            description,\n            deposit,\n            maxDuration,\n            owner,\n            fileHashesQuestion,\n            fileNamesQuestion\n        );\n    }\n\n    function getCategory() public view returns (string) {\n        return category;\n    }\n\n    function getOwner() public view returns (address){\n        return owner;\n    }\n\n    function getOwnerP() public view returns (Profile){\n        return ownerP;\n    }\n    \n    function getAnswererP(uint _index) public view returns (Profile){\n        return answerList[_index].answererP;\n    }\n\n    function getTime() public view returns (uint, uint, uint) {\n        return(\n            start,\n            now,\n            maxDuration\n        );\n    }\n\n    function ratingQuestion(uint _ratingQuestion) public {\n        numRate++;\n        sumRate = sumRate + _ratingQuestion;\n        questionRate = sumRate/numRate;\n    }\n\n    function getRatingQuestion() public returns (uint){\n        return questionRate;\n    }\n\n    function updateDeposite(uint _value) public {\n        deposit = deposit + _value;\n    }\n\n    function getDeposit() public returns (uint){\n        return deposit;\n    }\n\n    function isOverdue() public returns (bool) {\n        uint publishingTime = now - start;\n        return publishingTime > maxDuration;\n    }\n\n    function getCheckShareToken() returns(bool){\n        return (!alreadyShareToken);\n    }\n\n    function getNumAnswer4() returns (bool){\n        uint getNumAnswer4;\n        for (uint i = 0;i < answerList.length;i++) {\n            if(answerList[i].answerRate >= 4) \n                getNumAnswer4++;\n            if(getNumAnswer4>0) return true; \n            else return false;\n        }\n    }\n\n    function shareToken() public {\n        for (uint i = 0;i < answerList.length;i++) {\n            if(answerList[i].answerRate >= 4){ \n                numPeople++;\n            }\n        }\n        proportion = deposit/numPeople;\n        for (i = 0; i < answerList.length;i++) {\n            if(answerList[i].answerRate >= 4){ //Only take 4 stars above into account\n                answerList[i].answererP.updateToken(1, proportion);\n            }\n        }\n\n        alreadyShareToken = true;\n    }\n    \n    function postQuestion() public {\n        start = now;   \n    }\n\n    function answer(string _reply, string[] _fileHashes, string[] _fileNames, address _answerer, address _answererP, int _parent) public {\n        int _id;\n        if (_parent == -1) {   //a parent answer\n            _id = count;   \n            count++;\n        } else {               //a child answer\n            _id = -1;\n        }\n\n        Answer memory newAnswer = Answer({\n            replyHash: _reply,\n            fileHashes: _fileHashes,\n            fileNames: _fileNames,\n            answerer: _answerer,\n            answererP: Profile(_answererP),\n            answerTime: now,\n            answerRate: 0,\n            answerNumRate: 0,\n            answerSumRate: 0,\n            parent: _parent,\n            id: _id\n        }); \n        \n        answerList.push(newAnswer);\n    } \n\n\n    function getAnswerList() public view returns (Answer[]) {\n        return answerList;\n    }\n\n    function updateAnswerRate(uint _value, uint index) public {\n        answerList[index].answerNumRate ++;\n        answerList[index].answerSumRate += _value;\n        answerList[index].answerRate = answerList[index].answerSumRate/answerList[index].answerNumRate;\n    }\n\n    function getAnswerRate(uint index) public view returns (uint) {\n        return answerList[index].answerRate;\n    }\n\n\n    // function transfer(address _recipient, uint256 _amount) external {\n    //     ETLToken tokenContract = ETLToken(0xF81A07E1257Db8a259631c3Bf8555279696ed7E1);\n    //     tokenContract.approve(address(this), _amount); //correct but maybe need hardcode question / profile address?\n\n    //     TransferToken transferToken = TransferToken(0xc4a989967bd361f173667eb08886E95574525417); //(address(this))\n    //     transferToken.transferFrom(_recipient, _amount);\n\n    // }\n}\n\ncontract Profile {\n    // ETLToken public tokenContract = ETLToken(0xFF02F838ef1031B08a62a8AB24E3AC02328957d2);\n    // uint public token = tokenContract.balanceOf(msg.sender);\n    uint public token = 10;\n    uint public numOfQues;\n    uint public sumOfQuesRate;\n    uint public numOfAns;\n    uint public sumOfAnsRate;\n    address public user;\n    // constructor(ETLToken etl) public {\n    //     tokenContract = ETLToken(etl);\n    // }\n    \n    function Profile (address _user) public {\n        user = _user;\n    }\n\n    function increaseNumOfQues() public {\n        numOfQues++;\n    }\n\n    function increaseNumOfAns() public {\n        numOfAns++;\n    }\n\n    function increaseSumOfQuesRate(uint _rate) public {\n        sumOfQuesRate += _rate;\n    }\n\n    function increaseSumOfAnsRate(uint _rate) public {\n        sumOfAnsRate += _rate;\n    }\n\n    function getavgQuesRate() public returns (uint){\n        require(numOfQues != 0);\n        uint avgQuesRate = sumOfQuesRate/numOfQues;\n        return avgQuesRate;\n    }\n\n    function getavgAnsRate() public returns (uint){\n        require(numOfAns != 0);\n        uint avgAnsRate = sumOfAnsRate/numOfAns;\n        return avgAnsRate;\n    }\n\n    function getNumOfQues() public returns (uint){\n        return numOfQues;\n    }\n\n    function getNumOfAns() public returns (uint){\n        return numOfAns;\n    }\n\n    function updateToken(uint addOrSub, uint _token) public {\n        if (addOrSub==1){ //1 is add\n            token += (_token);\n        }\n        else if(addOrSub==0){ // 0 is sub\n            token -= (_token);\n        }\n    }\n\n    function getToken() public returns(uint){\n        // token = tokenContract.balanceOf(msg.sender);\n        // balance = tokenContract.balanceOf(msg.sender);\n        // return balance;\n        \n        return token;\n\n\n    }\n\n\n    // function transfer(address _recipient, uint256 _amount) external {\n    //     // ETLToken tokenContract = ETLToken(0xF81A07E1257Db8a259631c3Bf8555279696ed7E1);\n    //     tokenContract.approve(address(this), _amount);\n\n    //     TransferToken transferToken = TransferToken(0xc4a989967bd361f173667eb08886E95574525417);\n    //     transferToken.transferFrom(_recipient, _amount);\n\n    // }\n\n}\n\n\n\n\n",
  "sourcePath": "/Users/joelytj/Desktop/EtherLearn/contracts/Question.sol",
  "compiler": {
    "name": "solc",
    "version": "0.4.26+commit.4563c3fc.Emscripten.clang"
  },
  "schemaVersion": "3.4.1",
  "updatedAt": "2021-06-08T02:44:19.298Z",
  "networkType": "ethereum",
  "devdoc": {
    "methods": {}
  },
  "userdoc": {
    "methods": {}
  }
}