{
  "contractName": "Question",
  "abi": [
    {
      "constant": true,
      "inputs": [],
      "name": "count",
      "outputs": [
        {
          "name": "",
          "type": "int256"
        }
      ],
      "payable": false,
      "stateMutability": "view",
      "type": "function"
    },
    {
      "constant": true,
      "inputs": [],
      "name": "questionRate",
      "outputs": [
        {
          "name": "",
          "type": "uint256"
        }
      ],
      "payable": false,
      "stateMutability": "view",
      "type": "function"
    },
    {
      "constant": true,
      "inputs": [],
      "name": "numRate",
      "outputs": [
        {
          "name": "",
          "type": "uint256"
        }
      ],
      "payable": false,
      "stateMutability": "view",
      "type": "function"
    },
    {
      "constant": true,
      "inputs": [],
      "name": "contractbinstance",
      "outputs": [
        {
          "name": "",
          "type": "address"
        }
      ],
      "payable": false,
      "stateMutability": "view",
      "type": "function"
    },
    {
      "constant": true,
      "inputs": [],
      "name": "proportion",
      "outputs": [
        {
          "name": "",
          "type": "uint256"
        }
      ],
      "payable": false,
      "stateMutability": "view",
      "type": "function"
    },
    {
      "constant": true,
      "inputs": [],
      "name": "questionTitle",
      "outputs": [
        {
          "name": "",
          "type": "string"
        }
      ],
      "payable": false,
      "stateMutability": "view",
      "type": "function"
    },
    {
      "constant": true,
      "inputs": [],
      "name": "maxDuration",
      "outputs": [
        {
          "name": "",
          "type": "uint256"
        }
      ],
      "payable": false,
      "stateMutability": "view",
      "type": "function"
    },
    {
      "constant": true,
      "inputs": [
        {
          "name": "",
          "type": "uint256"
        }
      ],
      "name": "fileNamesQuestion",
      "outputs": [
        {
          "name": "",
          "type": "string"
        }
      ],
      "payable": false,
      "stateMutability": "view",
      "type": "function"
    },
    {
      "constant": true,
      "inputs": [],
      "name": "description",
      "outputs": [
        {
          "name": "",
          "type": "string"
        }
      ],
      "payable": false,
      "stateMutability": "view",
      "type": "function"
    },
    {
      "constant": true,
      "inputs": [],
      "name": "tokenSum",
      "outputs": [
        {
          "name": "",
          "type": "uint256"
        }
      ],
      "payable": false,
      "stateMutability": "view",
      "type": "function"
    },
    {
      "constant": true,
      "inputs": [],
      "name": "owner",
      "outputs": [
        {
          "name": "",
          "type": "address"
        }
      ],
      "payable": false,
      "stateMutability": "view",
      "type": "function"
    },
    {
      "constant": true,
      "inputs": [],
      "name": "ownerP",
      "outputs": [
        {
          "name": "",
          "type": "address"
        }
      ],
      "payable": false,
      "stateMutability": "view",
      "type": "function"
    },
    {
      "constant": true,
      "inputs": [
        {
          "name": "",
          "type": "address"
        }
      ],
      "name": "questionContractB",
      "outputs": [
        {
          "name": "",
          "type": "address"
        }
      ],
      "payable": false,
      "stateMutability": "view",
      "type": "function"
    },
    {
      "constant": true,
      "inputs": [
        {
          "name": "",
          "type": "uint256"
        }
      ],
      "name": "fileHashesQuestion",
      "outputs": [
        {
          "name": "",
          "type": "string"
        }
      ],
      "payable": false,
      "stateMutability": "view",
      "type": "function"
    },
    {
      "constant": true,
      "inputs": [],
      "name": "start",
      "outputs": [
        {
          "name": "",
          "type": "uint256"
        }
      ],
      "payable": false,
      "stateMutability": "view",
      "type": "function"
    },
    {
      "constant": true,
      "inputs": [
        {
          "name": "",
          "type": "uint256"
        }
      ],
      "name": "answerList",
      "outputs": [
        {
          "name": "replyHash",
          "type": "string"
        },
        {
          "name": "answerer",
          "type": "address"
        },
        {
          "name": "answererP",
          "type": "address"
        },
        {
          "name": "answerTime",
          "type": "uint256"
        },
        {
          "name": "answerRate",
          "type": "uint256"
        },
        {
          "name": "answerNumRate",
          "type": "uint256"
        },
        {
          "name": "answerSumRate",
          "type": "uint256"
        },
        {
          "name": "parent",
          "type": "int256"
        },
        {
          "name": "id",
          "type": "int256"
        }
      ],
      "payable": false,
      "stateMutability": "view",
      "type": "function"
    },
    {
      "constant": true,
      "inputs": [],
      "name": "numPeople",
      "outputs": [
        {
          "name": "",
          "type": "uint256"
        }
      ],
      "payable": false,
      "stateMutability": "view",
      "type": "function"
    },
    {
      "constant": true,
      "inputs": [],
      "name": "alreadyShareToken",
      "outputs": [
        {
          "name": "",
          "type": "bool"
        }
      ],
      "payable": false,
      "stateMutability": "view",
      "type": "function"
    },
    {
      "constant": true,
      "inputs": [],
      "name": "deposit",
      "outputs": [
        {
          "name": "",
          "type": "uint256"
        }
      ],
      "payable": false,
      "stateMutability": "view",
      "type": "function"
    },
    {
      "constant": true,
      "inputs": [],
      "name": "sumRate",
      "outputs": [
        {
          "name": "",
          "type": "uint256"
        }
      ],
      "payable": false,
      "stateMutability": "view",
      "type": "function"
    },
    {
      "constant": true,
      "inputs": [],
      "name": "category",
      "outputs": [
        {
          "name": "",
          "type": "string"
        }
      ],
      "payable": false,
      "stateMutability": "view",
      "type": "function"
    },
    {
      "inputs": [
        {
          "name": "_category",
          "type": "string"
        },
        {
          "name": "_questionTitle",
          "type": "string"
        },
        {
          "name": "_description",
          "type": "string"
        },
        {
          "name": "_deposit",
          "type": "uint256"
        },
        {
          "name": "_maxDuration",
          "type": "uint256"
        },
        {
          "name": "_fileHashesQuestion",
          "type": "string[]"
        },
        {
          "name": "_fileNamesQuestion",
          "type": "string[]"
        },
        {
          "name": "_owner",
          "type": "address"
        },
        {
          "name": "_ownerP",
          "type": "address"
        }
      ],
      "payable": false,
      "stateMutability": "nonpayable",
      "type": "constructor"
    },
    {
      "payable": true,
      "stateMutability": "payable",
      "type": "fallback"
    },
    {
      "constant": false,
      "inputs": [],
      "name": "getContractBInstance",
      "outputs": [
        {
          "name": "",
          "type": "address"
        }
      ],
      "payable": false,
      "stateMutability": "nonpayable",
      "type": "function"
    },
    {
      "constant": true,
      "inputs": [],
      "name": "getSummary",
      "outputs": [
        {
          "name": "",
          "type": "string"
        },
        {
          "name": "",
          "type": "string"
        },
        {
          "name": "",
          "type": "uint256"
        },
        {
          "name": "",
          "type": "uint256"
        },
        {
          "name": "",
          "type": "address"
        },
        {
          "name": "",
          "type": "string[]"
        },
        {
          "name": "",
          "type": "string[]"
        }
      ],
      "payable": false,
      "stateMutability": "view",
      "type": "function"
    },
    {
      "constant": true,
      "inputs": [],
      "name": "getCategory",
      "outputs": [
        {
          "name": "",
          "type": "string"
        }
      ],
      "payable": false,
      "stateMutability": "view",
      "type": "function"
    },
    {
      "constant": true,
      "inputs": [],
      "name": "getOwner",
      "outputs": [
        {
          "name": "",
          "type": "address"
        }
      ],
      "payable": false,
      "stateMutability": "view",
      "type": "function"
    },
    {
      "constant": true,
      "inputs": [],
      "name": "getOwnerP",
      "outputs": [
        {
          "name": "",
          "type": "address"
        }
      ],
      "payable": false,
      "stateMutability": "view",
      "type": "function"
    },
    {
      "constant": true,
      "inputs": [
        {
          "name": "_index",
          "type": "uint256"
        }
      ],
      "name": "getAnswererP",
      "outputs": [
        {
          "name": "",
          "type": "address"
        }
      ],
      "payable": false,
      "stateMutability": "view",
      "type": "function"
    },
    {
      "constant": true,
      "inputs": [],
      "name": "getTime",
      "outputs": [
        {
          "name": "",
          "type": "uint256"
        },
        {
          "name": "",
          "type": "uint256"
        },
        {
          "name": "",
          "type": "uint256"
        }
      ],
      "payable": false,
      "stateMutability": "view",
      "type": "function"
    },
    {
      "constant": false,
      "inputs": [
        {
          "name": "_ratingQuestion",
          "type": "uint256"
        }
      ],
      "name": "ratingQuestion",
      "outputs": [],
      "payable": false,
      "stateMutability": "nonpayable",
      "type": "function"
    },
    {
      "constant": false,
      "inputs": [],
      "name": "getRatingQuestion",
      "outputs": [
        {
          "name": "",
          "type": "uint256"
        }
      ],
      "payable": false,
      "stateMutability": "nonpayable",
      "type": "function"
    },
    {
      "constant": false,
      "inputs": [
        {
          "name": "_value",
          "type": "uint256"
        }
      ],
      "name": "updateDeposite",
      "outputs": [],
      "payable": false,
      "stateMutability": "nonpayable",
      "type": "function"
    },
    {
      "constant": false,
      "inputs": [],
      "name": "getDeposit",
      "outputs": [
        {
          "name": "",
          "type": "uint256"
        }
      ],
      "payable": false,
      "stateMutability": "nonpayable",
      "type": "function"
    },
    {
      "constant": false,
      "inputs": [],
      "name": "isOverdue",
      "outputs": [
        {
          "name": "",
          "type": "bool"
        }
      ],
      "payable": false,
      "stateMutability": "nonpayable",
      "type": "function"
    },
    {
      "constant": false,
      "inputs": [],
      "name": "getCheckShareToken",
      "outputs": [
        {
          "name": "",
          "type": "bool"
        }
      ],
      "payable": false,
      "stateMutability": "nonpayable",
      "type": "function"
    },
    {
      "constant": false,
      "inputs": [],
      "name": "getNumAnswer4",
      "outputs": [
        {
          "name": "",
          "type": "bool"
        }
      ],
      "payable": false,
      "stateMutability": "nonpayable",
      "type": "function"
    },
    {
      "constant": false,
      "inputs": [],
      "name": "shareToken",
      "outputs": [],
      "payable": false,
      "stateMutability": "nonpayable",
      "type": "function"
    },
    {
      "constant": false,
      "inputs": [],
      "name": "postQuestion",
      "outputs": [],
      "payable": false,
      "stateMutability": "nonpayable",
      "type": "function"
    },
    {
      "constant": false,
      "inputs": [
        {
          "name": "_reply",
          "type": "string"
        },
        {
          "name": "_fileHashes",
          "type": "string[]"
        },
        {
          "name": "_fileNames",
          "type": "string[]"
        },
        {
          "name": "_answerer",
          "type": "address"
        },
        {
          "name": "_answererP",
          "type": "address"
        },
        {
          "name": "_parent",
          "type": "int256"
        }
      ],
      "name": "answer",
      "outputs": [],
      "payable": false,
      "stateMutability": "nonpayable",
      "type": "function"
    },
    {
      "constant": true,
      "inputs": [],
      "name": "getAnswerList",
      "outputs": [
        {
          "components": [
            {
              "name": "replyHash",
              "type": "string"
            },
            {
              "name": "fileHashes",
              "type": "string[]"
            },
            {
              "name": "fileNames",
              "type": "string[]"
            },
            {
              "name": "answerer",
              "type": "address"
            },
            {
              "name": "answererP",
              "type": "address"
            },
            {
              "name": "answerTime",
              "type": "uint256"
            },
            {
              "name": "answerRate",
              "type": "uint256"
            },
            {
              "name": "answerNumRate",
              "type": "uint256"
            },
            {
              "name": "answerSumRate",
              "type": "uint256"
            },
            {
              "name": "parent",
              "type": "int256"
            },
            {
              "name": "id",
              "type": "int256"
            }
          ],
          "name": "",
          "type": "tuple[]"
        }
      ],
      "payable": false,
      "stateMutability": "view",
      "type": "function"
    },
    {
      "constant": false,
      "inputs": [
        {
          "name": "_value",
          "type": "uint256"
        },
        {
          "name": "index",
          "type": "uint256"
        }
      ],
      "name": "updateAnswerRate",
      "outputs": [],
      "payable": false,
      "stateMutability": "nonpayable",
      "type": "function"
    },
    {
      "constant": true,
      "inputs": [
        {
          "name": "index",
          "type": "uint256"
        }
      ],
      "name": "getAnswerRate",
      "outputs": [
        {
          "name": "",
          "type": "uint256"
        }
      ],
      "payable": false,
      "stateMutability": "view",
      "type": "function"
    }
  ],
  "bytecode": "0x6080604052600d805460ff19169055600060125560158054600160a060020a0319167321b4c01188c2c5299f1800263c45bae419aba5441790553480156200004657600080fd5b5060405162002a3838038062002a3883398101806040526200006c91908101906200041b565b8851600090620000849060119060208d0190620001a4565b5088516200009a9060039060208c0190620001a4565b508751620000b09060049060208b0190620001a4565b50600587905560068690558451620000d090600190602088019062000229565b508351620000e690600290602087019062000229565b5060078054600160a060020a03808616600160a060020a0319928316179092556008805485841692169190911790553060009081526014602052604090205416151562000194576200013762000289565b604051809103906000f08015801562000154573d6000803e3d6000fd5b5060138054600160a060020a03808416600160a060020a031992831617928390553060009081526014602052604090208054909216921691909117905590505b5050505050505050505062000618565b828054600181600116156101000203166002900490600052602060002090601f016020900481019282601f10620001e757805160ff191683800117855562000217565b8280016001018555821562000217579182015b8281111562000217578251825591602001919060010190620001fa565b50620002259291506200029a565b5090565b8280548282559060005260206000209081019282156200027b579160200282015b828111156200027b57825180516200026a918491602090910190620001a4565b50916020019190600101906200024a565b5062000225929150620002ba565b6040516104a8806200259083390190565b620002b791905b80821115620002255760008155600101620002a1565b90565b620002b791905b8082111562000225576000620002d88282620002e2565b50600101620002c1565b50805460018160011615610100020316600290046000825580601f106200030a57506200032a565b601f0160209004906000526020600020908101906200032a91906200029a565b50565b60006200033b8251620005d9565b9392505050565b6000601f820183136200035457600080fd5b81516200036b620003658262000590565b62000569565b81815260209384019390925082018360005b83811015620003ad5781518601620003968882620003b7565b84525060209283019291909101906001016200037d565b5050505092915050565b6000601f82018313620003c957600080fd5b8151620003da6200036582620005b1565b91508082526020830160208301858383011115620003f757600080fd5b62000404838284620005e5565b50505092915050565b60006200033b8251620002b7565b60008060008060008060008060006101208a8c0312156200043b57600080fd5b89516001604060020a038111156200045257600080fd5b620004608c828d01620003b7565b99505060208a01516001604060020a038111156200047d57600080fd5b6200048b8c828d01620003b7565b98505060408a01516001604060020a03811115620004a857600080fd5b620004b68c828d01620003b7565b9750506060620004c98c828d016200040d565b9650506080620004dc8c828d016200040d565b95505060a08a01516001604060020a03811115620004f957600080fd5b620005078c828d0162000342565b94505060c08a01516001604060020a038111156200052457600080fd5b620005328c828d0162000342565b93505060e0620005458c828d016200032d565b925050610100620005598c828d016200032d565b9150509295985092959850929598565b6040518181016001604060020a03811182821017156200058857600080fd5b604052919050565b60006001604060020a03821115620005a757600080fd5b5060209081020190565b60006001604060020a03821115620005c857600080fd5b506020601f91909101601f19160190565b600160a060020a031690565b60005b8381101562000602578181015183820152602001620005e8565b8381111562000612576000848401525b50505050565b611f6880620006286000396000f3006080604052600436106101de5763ffffffff60e060020a600035041662a70eee81146101e057806306661abd1461020b57806308f7e68f1461022d57806326ce1284146102425780632a412fdf146102575780633531fde81461026c5780633b9573171461028e5780634051ddac146102a357806349bd924c146102cb57806352704204146102eb578063557ed1ba1461030057806356abef181461032457806356dde0b6146103465780635b4246d41461035b578063632b1ae114610370578063693f4b07146103925780636c9fa59e146103b25780636db5c8fd146103c75780636ec39c95146103dc57806372267ab8146103fc5780637284e4161461041c5780637ba354ff1461043157806380258e471461045e5780638896377114610473578063893d20e8146104885780638da5cb5b1461049d57806390b47d3e146104b257806397b16ab9146104c7578063ab4fbb1f146104e7578063b125950514610507578063be9a655514610527578063c0013a7b1461053c578063c399ec8814610551578063c9930ee014610566578063cb90a3941461059b578063ce8acbad146105b0578063d04f119a146105c5578063d0e30db0146105da578063d4efc251146105ef578063ef430aa614610604578063f0d339f614610619575b005b3480156101ec57600080fd5b506101f5610639565b6040516102029190611cf0565b60405180910390f35b34801561021757600080fd5b50610220610644565b6040516102029190611d0c565b34801561023957600080fd5b506101de61064a565b34801561024e57600080fd5b50610220610650565b34801561026357600080fd5b50610220610656565b34801561027857600080fd5b5061028161065c565b6040516102029190611cdf565b34801561029a57600080fd5b506101f5610961565b3480156102af57600080fd5b506102b8610975565b6040516102029796959493929190611d2b565b3480156102d757600080fd5b506101de6102e63660046118f1565b610c89565b3480156102f757600080fd5b50610220610e2c565b34801561030c57600080fd5b50610315610e32565b60405161020293929190611e37565b34801561033057600080fd5b50610339610e3d565b6040516102029190611c88565b34801561035257600080fd5b506101f5610e4c565b34801561036757600080fd5b50610220610ea7565b34801561037c57600080fd5b50610385610ead565b6040516102029190611d1a565b34801561039e57600080fd5b506102206103ad3660046119bf565b610f3b565b3480156103be57600080fd5b506101de610f64565b3480156103d357600080fd5b5061022061117a565b3480156103e857600080fd5b506103856103f73660046119bf565b611180565b34801561040857600080fd5b506101de6104173660046119bf565b6111f4565b34801561042857600080fd5b506103856111ff565b34801561043d57600080fd5b5061045161044c3660046119bf565b61125a565b6040516102029190611cfe565b34801561046a57600080fd5b5061038561128d565b34801561047f57600080fd5b50610220611323565b34801561049457600080fd5b50610339611329565b3480156104a957600080fd5b50610339611338565b3480156104be57600080fd5b50610451611347565b3480156104d357600080fd5b506101de6104e23660046119dd565b611356565b3480156104f357600080fd5b506103396105023660046118ad565b611417565b34801561051357600080fd5b506103856105223660046119bf565b611432565b34801561053357600080fd5b50610220611440565b34801561054857600080fd5b50610339611446565b34801561055d57600080fd5b50610220611462565b34801561057257600080fd5b506105866105813660046119bf565b611468565b60405161020299989796959493929190611dac565b3480156105a757600080fd5b50610451611559565b3480156105bc57600080fd5b50610220611568565b3480156105d157600080fd5b506101f561156e565b3480156105e657600080fd5b50610220611577565b3480156105fb57600080fd5b5061022061157d565b34801561061057600080fd5b50610385611583565b34801561062557600080fd5b506101de6106343660046119bf565b6115de565b600d5460ff16155b90565b60125481565b42600955565b600a5490565b600a5481565b60606000805480602002602001604051908101604052809291908181526020016000905b8282101561095857600084815260209081902060408051600b8602909201805460026001821615610100026000190190911604601f8101859004909402830161018090810190925261016083018481529293909284929091849184018282801561072b5780601f106107005761010080835404028352916020019161072b565b820191906000526020600020905b81548152906001019060200180831161070e57829003601f168201915b5050505050815260200160018201805480602002602001604051908101604052809291908181526020016000905b828210156108045760008481526020908190208301805460408051601f60026000196101006001871615020190941693909304928301859004850281018501909152818152928301828280156107f05780601f106107c5576101008083540402835291602001916107f0565b820191906000526020600020905b8154815290600101906020018083116107d357829003601f168201915b505050505081526020019060010190610759565b50505050815260200160028201805480602002602001604051908101604052809291908181526020016000905b828210156108dc5760008481526020908190208301805460408051601f60026000196101006001871615020190941693909304928301859004850281018501909152818152928301828280156108c85780601f1061089d576101008083540402835291602001916108c8565b820191906000526020600020905b8154815290600101906020018083116108ab57829003601f168201915b505050505081526020019060010190610831565b505050908252506003820154600160a060020a03908116602080840191909152600484015490911660408301526005830154606083015260068301546080830152600783015460a0830152600883015460c0830152600983015460e0830152600a90920154610100909101529082526001929092019101610680565b50505050905090565b6009546006544291909103908111905b5090565b606080600080600060608060036004600554600654600760009054906101000a9004600160a060020a031660016002868054600181600116156101000203166002900480601f016020809104026020016040519081016040528092919081815260200182805460018160011615610100020316600290048015610a395780601f10610a0e57610100808354040283529160200191610a39565b820191906000526020600020905b815481529060010190602001808311610a1c57829003601f168201915b5050895460408051602060026001851615610100026000190190941693909304601f8101849004840282018401909252818152959c508b945092508401905082828015610ac75780601f10610a9c57610100808354040283529160200191610ac7565b820191906000526020600020905b815481529060010190602001808311610aaa57829003601f168201915b5050505050955081805480602002602001604051908101604052809291908181526020016000905b82821015610b9a5760008481526020908190208301805460408051601f6002600019610100600187161502019094169390930492830185900485028101850190915281815292830182828015610b865780601f10610b5b57610100808354040283529160200191610b86565b820191906000526020600020905b815481529060010190602001808311610b6957829003601f168201915b505050505081526020019060010190610aef565b50505050915080805480602002602001604051908101604052809291908181526020016000905b82821015610c6c5760008481526020908190208301805460408051601f6002600019610100600187161502019094169390930492830185900485028101850190915281815292830182828015610c585780601f10610c2d57610100808354040283529160200191610c58565b820191906000526020600020905b815481529060010190602001808311610c3b57829003601f168201915b505050505081526020019060010190610bc1565b505050509050965096509650965096509650965090919293949596565b6000610c93611603565b826000191415610caf5760128054600181019091559150610cb5565b60001991505b5060408051610160810182528881526020808201899052918101879052600160a060020a038087166060830152851660808201524260a0820152600060c0820181905260e0820181905261010082018190526101208201859052610140820184905280546001810180835591805282518051939492938593600b9093027f290decd9548b62a8d60345a988386fc84ba6bc95484008f6362f93160ef3e5630192610d63928492910190611670565b506020828101518051610d7c92600185019201906116ea565b5060408201518051610d989160028401916020909101906116ea565b506060820151600382018054600160a060020a0392831673ffffffffffffffffffffffffffffffffffffffff1991821617909155608084015160048401805491909316911617905560a0820151600582015560c0820151600682015560e082015160078201556101008201516008820155610120820151600982015561014090910151600a90910155505050505050505050565b600b5481565b600954600654429192565b601354600160a060020a031681565b60008080600054811015610ea2576004600082815481101515610e6b57fe5b90600052602060002090600b020160060154101515610e8b576001909101905b6000821115610e9d5760019250610ea2565b600092505b505090565b600f5481565b6003805460408051602060026001851615610100026000190190941693909304601f81018490048402820184019092528181529291830182828015610f335780601f10610f0857610100808354040283529160200191610f33565b820191906000526020600020905b815481529060010190602001808311610f1657829003601f168201915b505050505081565b60008082815481101515610f4b57fe5b90600052602060002090600b0201600601549050919050565b60005b600054811015610fad576004600082815481101515610f8257fe5b90600052602060002090600b020160060154101515610fa5576010805460010190555b600101610f67565b601054600554811515610fbc57fe5b04600f555060005b60005481101561116a576004600082815481101515610fdf57fe5b90600052602060002090600b02016006015410151561116257601554306000908152601460205260408120548154600160a060020a039384169363e1f21c6793921691908590811061102d57fe5b600091825260209091206003600b909202010154600f5460405160e060020a63ffffffff861602815261106e9392600160a060020a03169190600401611c9c565b602060405180830381600087803b15801561108857600080fd5b505af115801561109c573d6000803e3d6000fd5b505050506040513d601f19601f820116820180604052506110c091908101906118d3565b50306000908152601460205260408120548154600160a060020a039091169163ded6338b91849081106110ef57fe5b600091825260209091206003600b909202010154600f5460405160e060020a63ffffffff851602815261112f92600160a060020a03169190600401611cc4565b600060405180830381600087803b15801561114957600080fd5b505af115801561115d573d6000803e3d6000fd5b505050505b600101610fc4565b50600d805460ff19166001179055565b60065481565b600280548290811061118e57fe5b600091825260209182902001805460408051601f6002600019610100600187161502019094169390930492830185900485028101850190915281815293509091830182828015610f335780601f10610f0857610100808354040283529160200191610f33565b600580549091019055565b6004805460408051602060026001851615610100026000190190941693909304601f81018490048402820184019092528181529291830182828015610f335780601f10610f0857610100808354040283529160200191610f33565b6000808281548110151561126a57fe5b60009182526020909120600b9091020160040154600160a060020a031692915050565b60118054604080516020601f60026000196101006001881615020190951694909404938401819004810282018101909252828152606093909290918301828280156113195780601f106112ee57610100808354040283529160200191611319565b820191906000526020600020905b8154815290600101906020018083116112fc57829003601f168201915b5050505050905090565b600e5481565b600754600160a060020a031690565b600754600160a060020a031681565b600854600160a060020a031681565b600080548290811061136457fe5b6000918252602082206007600b90920201018054600101905580548391908390811061138c57fe5b6000918252602082206008600b909202010180549092019091558054829081106113b257fe5b90600052602060002090600b0201600701546000828154811015156113d357fe5b90600052602060002090600b0201600801548115156113ee57fe5b046000828154811015156113fe57fe5b90600052602060002090600b0201600601819055505050565b601460205260009081526040902054600160a060020a031681565b600180548290811061118e57fe5b60095481565b30600090815260146020526040902054600160a060020a031690565b60055490565b600080548290811061147657fe5b6000918252602091829020600b919091020180546040805160026001841615610100026000190190931692909204601f81018590048502830185019091528082529193509183919083018282801561150f5780601f106114e45761010080835404028352916020019161150f565b820191906000526020600020905b8154815290600101906020018083116114f257829003601f168201915b50505060038401546004850154600586015460068701546007880154600889015460098a0154600a909a01549899600160a060020a03968716999590961697509295509093909289565b600854600160a060020a031690565b60105481565b600d5460ff1681565b60055481565b600c5481565b6011805460408051602060026001851615610100026000190190941693909304601f81018490048402820184019092528181529291830182828015610f335780601f10610f0857610100808354040283529160200191610f33565b600b805460010190819055600c80548301908190558115156115fc57fe5b04600a5550565b610160604051908101604052806060815260200160608152602001606081526020016000600160a060020a031681526020016000600160a060020a031681526020016000815260200160008152602001600081526020016000815260200160008152602001600081525090565b828054600181600116156101000203166002900490600052602060002090601f016020900481019282601f106116b157805160ff19168380011785556116de565b828001600101855582156116de579182015b828111156116de5782518255916020019190600101906116c3565b50610971929150611743565b828054828255906000526020600020908101928215611737579160200282015b828111156117375782518051611727918491602090910190611670565b509160200191906001019061170a565b5061097192915061175d565b61064191905b808211156109715760008155600101611749565b61064191905b808211156109715760006117778282611780565b50600101611763565b50805460018160011615610100020316600290046000825580601f106117a657506117c4565b601f0160209004906000526020600020908101906117c49190611743565b50565b60006117d38235611ecc565b9392505050565b6000601f820183136117eb57600080fd5b81356117fe6117f982611e79565b611e52565b81815260209384019390925082018360005b8381101561183c5781358601611826888261185e565b8452506020928301929190910190600101611810565b5050505092915050565b60006117d38251611ed8565b60006117d38235610641565b6000601f8201831361186f57600080fd5b813561187d6117f982611e9a565b9150808252602083016020830185838301111561189957600080fd5b6118a4838284611ee8565b50505092915050565b6000602082840312156118bf57600080fd5b60006118cb84846117c7565b949350505050565b6000602082840312156118e557600080fd5b60006118cb8484611846565b60008060008060008060c0878903121561190a57600080fd5b863567ffffffffffffffff81111561192157600080fd5b61192d89828a0161185e565b965050602087013567ffffffffffffffff81111561194a57600080fd5b61195689828a016117da565b955050604087013567ffffffffffffffff81111561197357600080fd5b61197f89828a016117da565b945050606061199089828a016117c7565b93505060806119a189828a016117c7565b92505060a06119b289828a01611852565b9150509295509295509295565b6000602082840312156119d157600080fd5b60006118cb8484611852565b600080604083850312156119f057600080fd5b60006119fc8585611852565b9250506020611a0d85828601611852565b9150509250929050565b611a2081611ecc565b82525050565b6000611a3182611ec8565b80845260208401935083602082028501611a4a85611ec2565b60005b84811015611a81578383038852611a65838351611b5e565b9250611a7082611ec2565b602098909801979150600101611a4d565b50909695505050505050565b6000611a9882611ec8565b80845260208401935083602082028501611ab185611ec2565b60005b84811015611a81578383038852611acc838351611b5e565b9250611ad782611ec2565b602098909801979150600101611ab4565b6000611af382611ec8565b80845260208401935083602082028501611b0c85611ec2565b60005b84811015611a81578383038852611b27838351611b93565b9250611b3282611ec2565b602098909801979150600101611b0f565b611a2081611ed8565b611a2081611edd565b611a2081610641565b6000611b6982611ec8565b808452611b7d816020860160208601611ef4565b611b8681611f24565b9093016020019392505050565b805161016080845260009190840190611bac8282611b5e565b91505060208301518482036020860152611bc68282611a8d565b91505060408301518482036040860152611be08282611a8d565b9150506060830151611bf56060860182611a17565b506080830151611c086080860182611b4c565b5060a0830151611c1b60a0860182611b55565b5060c0830151611c2e60c0860182611b55565b5060e0830151611c4160e0860182611b55565b50610100830151611c56610100860182611b55565b50610120830151611c6b610120860182611b55565b50610140830151611c80610140860182611b55565b509392505050565b60208101611c968284611a17565b92915050565b60608101611caa8286611a17565b611cb76020830185611a17565b6118cb6040830184611b55565b60408101611cd28285611a17565b6117d36020830184611b55565b602080825281016117d38184611ae8565b60208101611c968284611b43565b60208101611c968284611b4c565b60208101611c968284611b55565b602080825281016117d38184611b5e565b60e08082528101611d3c818a611b5e565b90508181036020830152611d508189611b5e565b9050611d5f6040830188611b55565b611d6c6060830187611b55565b611d796080830186611a17565b81810360a0830152611d8b8185611a26565b905081810360c0830152611d9f8184611a26565b9998505050505050505050565b6101208082528101611dbe818c611b5e565b9050611dcd602083018b611a17565b611dda604083018a611b4c565b611de76060830189611b55565b611df46080830188611b55565b611e0160a0830187611b55565b611e0e60c0830186611b55565b611e1b60e0830185611b55565b611e29610100830184611b55565b9a9950505050505050505050565b60608101611e458286611b55565b611cb76020830185611b55565b60405181810167ffffffffffffffff81118282101715611e7157600080fd5b604052919050565b600067ffffffffffffffff821115611e9057600080fd5b5060209081020190565b600067ffffffffffffffff821115611eb157600080fd5b506020601f91909101601f19160190565b60200190565b5190565b600160a060020a031690565b151590565b6000611c9682611ecc565b82818337506000910152565b60005b83811015611f0f578181015183820152602001611ef7565b83811115611f1e576000848401525b50505050565b601f01601f1916905600a265627a7a723058207d41b395f255a220653c0fe795343dfc6237dde72eb53011cad399507d44ac9b6c6578706572696d656e74616cf50037608060405260008054600160a060020a0319167321b4c01188c2c5299f1800263c45bae419aba54417905534801561003657600080fd5b50610462806100466000396000f3006080604052600436106100615763ffffffff7c010000000000000000000000000000000000000000000000000000000060003504166327e235e3811461006657806347e7ef241461009c578063d3ef7740146100be578063ded6338b146100de575b600080fd5b34801561007257600080fd5b5061008661008136600461031a565b6100fe565b60405161009391906103f3565b60405180910390f35b3480156100a857600080fd5b506100bc6100b7366004610340565b610110565b005b3480156100ca57600080fd5b506100bc6100d936600461031a565b6101d6565b3480156100ea57600080fd5b506100bc6100f9366004610340565b610295565b60016020526000908152604090205481565b73ffffffffffffffffffffffffffffffffffffffff808316600090815260016020526040808220805485019055905490517f23b872dd0000000000000000000000000000000000000000000000000000000081529116906323b872dd9061017f908590309086906004016103b0565b602060405180830381600087803b15801561019957600080fd5b505af11580156101ad573d6000803e3d6000fd5b505050506040513d601f19601f820116820180604052506101d1919081019061037a565b505050565b73ffffffffffffffffffffffffffffffffffffffff808216600090815260016020526040808220829055815490517fa9059cbb00000000000000000000000000000000000000000000000000000000815292169163a9059cbb9161023f918591906004016103d8565b602060405180830381600087803b15801561025957600080fd5b505af115801561026d573d6000803e3d6000fd5b505050506040513d601f19601f82011682018060405250610291919081019061037a565b5050565b6000546040517f23b872dd00000000000000000000000000000000000000000000000000000000815273ffffffffffffffffffffffffffffffffffffffff909116906323b872dd9061017f903090869086906004016103b0565b60006102fb8235610407565b9392505050565b60006102fb8251610423565b60006102fb8235610420565b60006020828403121561032c57600080fd5b600061033884846102ef565b949350505050565b6000806040838503121561035357600080fd5b600061035f85856102ef565b92505060206103708582860161030e565b9150509250929050565b60006020828403121561038c57600080fd5b60006103388484610302565b6103a181610407565b82525050565b6103a181610420565b606081016103be8286610398565b6103cb6020830185610398565b61033860408301846103a7565b604081016103e68285610398565b6102fb60208301846103a7565b6020810161040182846103a7565b92915050565b73ffffffffffffffffffffffffffffffffffffffff1690565b90565b1515905600a265627a7a72305820d517c742f0620e76ebd6951a8fd62f0c89d8336fdc12d41596f9aa1cf614d2926c6578706572696d656e74616cf50037",
  "source": "pragma solidity ^0.4.25;\npragma experimental ABIEncoderV2;\nimport \"./ETLToken.sol\";\n\ncontract contractB {\n    ETLToken tokenContract = ETLToken(0x21B4c01188c2c5299F1800263c45bae419Aba544);\n    mapping ( address => uint256 ) public balances;\n\n    function deposit(address _user, uint tokens) public {\n\n        // add the deposited tokens into existing balance \n        balances[_user]+= tokens;\n\n        // transfer the tokens from the sender to this contract\n        tokenContract.transferFrom(_user, address(this), tokens);\n    }\n\n    function share(address _user, uint tokens) public {\n        tokenContract.transferFrom(address(this), _user, tokens);\n    }\n\n    function returnTokens(address _user) public {\n        balances[_user] = 0;\n        tokenContract.transfer(_user, balances[_user]);\n    }\n\n}\n\ncontract QuestionFactory {\n    address[] private deployedQuestions;\n    mapping(address => address) public users;\n    address public owner = msg.sender;\n    address public contractbinstance;\n\n    ETLToken tokenContract = ETLToken(0x21B4c01188c2c5299F1800263c45bae419Aba544);\n    \n    function createQuestion(string category, string questionTitle, string description, uint deposit, \n                    uint maxDuration, string[] fileHashesQuestion, string[] fileNamesQuestion) public {\n        if (users[msg.sender] == 0) {\n            address profile = new Profile(msg.sender);\n            users[msg.sender] = profile;\n        }\n\n        require(deposit>0, \"Deposit cannot be 0\");\n        require(deposit<=Profile(users[msg.sender]).getToken(msg.sender), \"Insufficient tokens\");\n        address newQuestion = new Question(category, questionTitle, description, deposit, maxDuration,\n                                    fileHashesQuestion, fileNamesQuestion, msg.sender, users[msg.sender]);\n        deployedQuestions.push(newQuestion);\n        \n        Question question = Question(newQuestion);\n        contractbinstance = question.getContractBInstance();\n        tokenContract.approve(msg.sender, contractbinstance, deposit); \n        contractB(contractbinstance).deposit(msg.sender, deposit);\n        Profile(users[msg.sender]).increaseNumOfQues();\n        question.postQuestion();  //Save posted time here\n        \n    }\n\n    function createAnswer(address _question, string _reply, string[] _fileHashes, string[] _fileNames, int _parent) public {\n        if (users[msg.sender] == 0) {\n            address profile = new Profile(msg.sender);\n            users[msg.sender] = profile;\n        }   \n        Question question = Question(_question);\n        question.answer(_reply, _fileHashes, _fileNames, msg.sender, users[msg.sender], _parent);\n        Profile(users[msg.sender]).increaseNumOfAns();\n    }\n\n    function ratingQuestionAt(address _question, uint _ratingQuestion) public payable{\n        if (users[msg.sender] == 0) {\n            address profile = new Profile(msg.sender);\n            users[msg.sender] = profile;\n        }\n\n        Question question = Question(_question);\n        contractbinstance = question.getContractBInstance();\n        require(1<Profile(users[msg.sender]).getToken(msg.sender), \"Insufficient tokens\");\n        tokenContract.approve(msg.sender, contractbinstance, 1); \n        contractB(contractbinstance).deposit(msg.sender, 1);\n        question.ratingQuestion(_ratingQuestion); \n        question.updateDeposite(1);\n        Profile(users[msg.sender]).updateToken(0, 1);\n        Profile(question.getOwnerP()).increaseSumOfQuesRate(_ratingQuestion);\n    }\n\n    function ratingAnswerAt(address _question, uint _ratingAnswer, uint _index) public payable {\n        if (users[msg.sender] == 0) {\n            address profile = new Profile(msg.sender);\n            users[msg.sender] = profile;\n        }\n\n        Question question = Question(_question);\n        // question.transfer(msg.value);\n        question.updateAnswerRate(_ratingAnswer, _index);\n        Profile(question.getAnswererP(_index)).increaseSumOfAnsRate(_ratingAnswer);\n    }\n\n\n    function shareTokenAt(address _question) public payable {\n        if (users[msg.sender] == 0) {\n            address profile = new Profile(msg.sender);\n            users[msg.sender] = profile;\n        }\n\n        Question question = Question(_question);\n        question.shareToken();\n    }\n\n    function hasProfile(address _user) public returns(bool) {\n        if (users[_user] == 0) {\n            return false;\n        } else {\n            return true;\n        }\n    }\n\n    function getProfile(address _user) public returns(address) {\n        require(users[_user] != 0);\n        return users[_user];\n    }\n    \n    function getDeployedQuestions() public view returns(address[]) {\n        return deployedQuestions;\n    }\n\n\n}    \n\n\ncontract Question {\n\n    struct Answer {\n        string replyHash;\n        string[] fileHashes;\n        string[] fileNames;\n        address answerer;\n        Profile answererP;\n        uint answerTime;\n        uint answerRate; \n        uint answerNumRate;\n        uint answerSumRate;\n        int parent;\n        int id;       //Keep track parent answers\n    }\n\n    Answer[] public answerList; \n    string[] public fileHashesQuestion;\n    string[] public fileNamesQuestion;\n    string public questionTitle;\n    string public description;\n    uint public deposit;\n    uint public maxDuration;\n    address public owner;\n    Profile public ownerP;\n    uint public start;\n    uint public questionRate;\n    uint public numRate;\n    uint public sumRate;\n    bool public alreadyShareToken = false;\n    uint public tokenSum;\n    uint public proportion;\n    uint public numPeople;\n    string public category;\n    int public count = 0;\n    address public contractbinstance;\n    mapping(address => address) public questionContractB;\n    ETLToken tokenContract = ETLToken(0x21B4c01188c2c5299F1800263c45bae419Aba544);\n\n\n    function() payable { }\n    \n    function Question (string _category, string _questionTitle, string _description, uint _deposit, uint _maxDuration, string[] _fileHashesQuestion, string[] _fileNamesQuestion, address _owner, address _ownerP) public {\n        category = _category;\n        questionTitle = _questionTitle;\n        description = _description;\n        deposit = _deposit;\n        maxDuration = _maxDuration;\n        fileHashesQuestion = _fileHashesQuestion;\n        fileNamesQuestion = _fileNamesQuestion;\n        owner = _owner;\n        ownerP = Profile(_ownerP);\n        \n        if (questionContractB[this] == 0) {\n            contractB contractb = new contractB();\n            contractbinstance = contractb;\n            questionContractB[this] = contractbinstance;\n        }\n         \n    }\n    \n    function getContractBInstance() public returns (address) {\n        return questionContractB[this];\n    }\n\n    function getSummary() public view returns (\n        string, string, uint, uint, address, string[], string[]\n    ) {\n        return(\n            questionTitle,\n            description,\n            deposit,\n            maxDuration,\n            owner,\n            fileHashesQuestion,\n            fileNamesQuestion\n        );\n    }\n\n    function getCategory() public view returns (string) {\n        return category;\n    }\n\n    function getOwner() public view returns (address){\n        return owner;\n    }\n\n    function getOwnerP() public view returns (Profile){\n        return ownerP;\n    }\n    \n    function getAnswererP(uint _index) public view returns (Profile){\n        return answerList[_index].answererP;\n    }\n\n    function getTime() public view returns (uint, uint, uint) {\n        return(\n            start,\n            now,\n            maxDuration\n        );\n    }\n\n    function ratingQuestion(uint _ratingQuestion) public {\n        numRate++;\n        sumRate = sumRate + _ratingQuestion;\n        questionRate = sumRate/numRate;\n    }\n\n    function getRatingQuestion() public returns (uint){\n        return questionRate;\n    }\n\n    function updateDeposite(uint _value) public {\n        deposit = deposit + _value;\n    }\n\n    function getDeposit() public returns (uint){\n        return deposit;\n    }\n\n    function isOverdue() public returns (bool) {\n        uint publishingTime = now - start;\n        return publishingTime > maxDuration;\n    }\n\n    function getCheckShareToken() returns(bool){\n        return (!alreadyShareToken);\n    }\n\n    function getNumAnswer4() returns (bool){\n        uint getNumAnswer4;\n        for (uint i = 0;i < answerList.length;i++) {\n            if(answerList[i].answerRate >= 4) \n                getNumAnswer4++;\n            if(getNumAnswer4>0) return true; \n            else return false;\n        }\n    }\n\n    function shareToken() public {\n        for (uint i = 0;i < answerList.length;i++) {\n            if(answerList[i].answerRate >= 4){ \n                numPeople++;\n            }\n        }\n        proportion = deposit/numPeople;\n        for (i = 0; i < answerList.length;i++) {\n            if(answerList[i].answerRate >= 4){ //Only take 4 stars above into account\n                tokenContract.approve(questionContractB[this], answerList[i].answerer, proportion); \n                contractB(questionContractB[this]).share(answerList[i].answerer, proportion);\n\n                // answerList[i].answererP.updateToken(1, proportion); \n            }\n        }\n\n        alreadyShareToken = true;\n    }\n    \n    function postQuestion() public {\n        start = now;   \n    }\n\n    function answer(string _reply, string[] _fileHashes, string[] _fileNames, address _answerer, address _answererP, int _parent) public {\n        int _id;\n        if (_parent == -1) {   //a parent answer\n            _id = count;   \n            count++;\n        } else {               //a child answer\n            _id = -1;\n        }\n\n        Answer memory newAnswer = Answer({\n            replyHash: _reply,\n            fileHashes: _fileHashes,\n            fileNames: _fileNames,\n            answerer: _answerer,\n            answererP: Profile(_answererP),\n            answerTime: now,\n            answerRate: 0,\n            answerNumRate: 0,\n            answerSumRate: 0,\n            parent: _parent,\n            id: _id\n        }); \n        \n        answerList.push(newAnswer);\n    } \n\n\n    function getAnswerList() public view returns (Answer[]) {\n        return answerList;\n    }\n\n    function updateAnswerRate(uint _value, uint index) public {\n        answerList[index].answerNumRate ++;\n        answerList[index].answerSumRate += _value;\n        answerList[index].answerRate = answerList[index].answerSumRate/answerList[index].answerNumRate;\n    }\n\n    function getAnswerRate(uint index) public view returns (uint) {\n        return answerList[index].answerRate;\n    }\n\n}\n\ncontract Profile {\n    ETLToken public tokenContract = ETLToken(0x21B4c01188c2c5299F1800263c45bae419Aba544);\n    uint public token;\n    uint public numOfQues;\n    uint public sumOfQuesRate;\n    uint public numOfAns;\n    uint public sumOfAnsRate;\n    uint public avgQuesRate;\n    uint public avgAnsRate;\n    address public user;\n    \n    function Profile (address _user) public {\n        user = _user;\n    }\n\n    function increaseNumOfQues() public {\n        numOfQues++;\n    }\n\n    function increaseNumOfAns() public {\n        numOfAns++;\n    }\n\n    function increaseSumOfQuesRate(uint _rate) public {\n        sumOfQuesRate += _rate;\n    }\n\n    function increaseSumOfAnsRate(uint _rate) public {\n        sumOfAnsRate += _rate;\n    }\n\n    function getavgQuesRate() public returns (uint){\n        if (numOfQues == 0) {\n            avgQuesRate = 0;\n            return avgQuesRate;\n        }\n        else {\n            avgQuesRate = sumOfQuesRate/numOfQues;\n            return avgQuesRate;\n        }\n    }\n\n    function getavgAnsRate() public returns (uint){\n        // require(numOfAns != 0);\n        // uint avgAnsRate = sumOfAnsRate/numOfAns;\n        // return avgAnsRate;\n        if (numOfAns == 0) {\n            avgAnsRate = 0;\n            return avgAnsRate;\n        }\n        else {\n            avgAnsRate = sumOfAnsRate/numOfAns;\n            return avgAnsRate;\n        }\n    }\n\n    function getNumOfQues() public returns (uint){\n        return numOfQues;\n    }\n\n    function getNumOfAns() public returns (uint){\n        return numOfAns;\n    }\n\n    function updateToken(uint addOrSub, uint _token) public {\n        if (addOrSub==1){ //1 is add\n            token += (_token);\n        }\n        else if(addOrSub==0){ // 0 is sub\n            token -= (_token);\n        }\n    }\n\n    function getToken(address _user) public returns(uint){\n        token = tokenContract.balanceOf(_user);\n        \n        return token;\n\n\n    }\n\n\n}\n\n\n\n\n",
  "sourcePath": "/Users/joelytj/Desktop/EtherLearn/contracts/Question.sol",
  "compiler": {
    "name": "solc",
    "version": "0.4.26+commit.4563c3fc.Emscripten.clang"
  },
  "schemaVersion": "3.4.1",
  "updatedAt": "2021-06-11T12:55:41.144Z",
  "devdoc": {
    "methods": {}
  },
  "userdoc": {
    "methods": {}
  }
}