{
  "contractName": "Question",
  "abi": [
    {
      "inputs": [
        {
          "internalType": "string",
          "name": "_category",
          "type": "string"
        },
        {
          "internalType": "string",
          "name": "_questionTitle",
          "type": "string"
        },
        {
          "internalType": "string",
          "name": "_description",
          "type": "string"
        },
        {
          "internalType": "uint256",
          "name": "_deposit",
          "type": "uint256"
        },
        {
          "internalType": "uint256",
          "name": "_maxDuration",
          "type": "uint256"
        },
        {
          "internalType": "string[]",
          "name": "_fileHashesQuestion",
          "type": "string[]"
        },
        {
          "internalType": "string[]",
          "name": "_fileNamesQuestion",
          "type": "string[]"
        },
        {
          "internalType": "address",
          "name": "_owner",
          "type": "address"
        },
        {
          "internalType": "address",
          "name": "_ownerP",
          "type": "address"
        }
      ],
      "stateMutability": "nonpayable",
      "type": "constructor"
    },
    {
      "inputs": [],
      "name": "alreadyReturnDeposit",
      "outputs": [
        {
          "internalType": "bool",
          "name": "",
          "type": "bool"
        }
      ],
      "stateMutability": "view",
      "type": "function"
    },
    {
      "inputs": [],
      "name": "alreadyShareToken",
      "outputs": [
        {
          "internalType": "bool",
          "name": "",
          "type": "bool"
        }
      ],
      "stateMutability": "view",
      "type": "function"
    },
    {
      "inputs": [
        {
          "internalType": "uint256",
          "name": "",
          "type": "uint256"
        }
      ],
      "name": "answerList",
      "outputs": [
        {
          "internalType": "string",
          "name": "replyHash",
          "type": "string"
        },
        {
          "internalType": "address",
          "name": "answerer",
          "type": "address"
        },
        {
          "internalType": "contract Profile",
          "name": "answererP",
          "type": "address"
        },
        {
          "internalType": "uint256",
          "name": "answerTime",
          "type": "uint256"
        },
        {
          "internalType": "uint256",
          "name": "answerRate",
          "type": "uint256"
        },
        {
          "internalType": "uint256",
          "name": "answerNumRate",
          "type": "uint256"
        },
        {
          "internalType": "uint256",
          "name": "answerSumRate",
          "type": "uint256"
        },
        {
          "internalType": "int256",
          "name": "parent",
          "type": "int256"
        },
        {
          "internalType": "int256",
          "name": "id",
          "type": "int256"
        }
      ],
      "stateMutability": "view",
      "type": "function"
    },
    {
      "inputs": [],
      "name": "category",
      "outputs": [
        {
          "internalType": "string",
          "name": "",
          "type": "string"
        }
      ],
      "stateMutability": "view",
      "type": "function"
    },
    {
      "inputs": [],
      "name": "contractbinstance",
      "outputs": [
        {
          "internalType": "address",
          "name": "",
          "type": "address"
        }
      ],
      "stateMutability": "view",
      "type": "function"
    },
    {
      "inputs": [],
      "name": "count",
      "outputs": [
        {
          "internalType": "int256",
          "name": "",
          "type": "int256"
        }
      ],
      "stateMutability": "view",
      "type": "function"
    },
    {
      "inputs": [],
      "name": "deposit",
      "outputs": [
        {
          "internalType": "uint256",
          "name": "",
          "type": "uint256"
        }
      ],
      "stateMutability": "view",
      "type": "function"
    },
    {
      "inputs": [],
      "name": "description",
      "outputs": [
        {
          "internalType": "string",
          "name": "",
          "type": "string"
        }
      ],
      "stateMutability": "view",
      "type": "function"
    },
    {
      "inputs": [
        {
          "internalType": "uint256",
          "name": "",
          "type": "uint256"
        }
      ],
      "name": "fileHashesQuestion",
      "outputs": [
        {
          "internalType": "string",
          "name": "",
          "type": "string"
        }
      ],
      "stateMutability": "view",
      "type": "function"
    },
    {
      "inputs": [
        {
          "internalType": "uint256",
          "name": "",
          "type": "uint256"
        }
      ],
      "name": "fileNamesQuestion",
      "outputs": [
        {
          "internalType": "string",
          "name": "",
          "type": "string"
        }
      ],
      "stateMutability": "view",
      "type": "function"
    },
    {
      "inputs": [],
      "name": "initialDeposit",
      "outputs": [
        {
          "internalType": "uint256",
          "name": "",
          "type": "uint256"
        }
      ],
      "stateMutability": "view",
      "type": "function"
    },
    {
      "inputs": [],
      "name": "maxDuration",
      "outputs": [
        {
          "internalType": "uint256",
          "name": "",
          "type": "uint256"
        }
      ],
      "stateMutability": "view",
      "type": "function"
    },
    {
      "inputs": [],
      "name": "numAnswer4Bool",
      "outputs": [
        {
          "internalType": "bool",
          "name": "",
          "type": "bool"
        }
      ],
      "stateMutability": "view",
      "type": "function"
    },
    {
      "inputs": [],
      "name": "numPeople",
      "outputs": [
        {
          "internalType": "uint256",
          "name": "",
          "type": "uint256"
        }
      ],
      "stateMutability": "view",
      "type": "function"
    },
    {
      "inputs": [],
      "name": "numRate",
      "outputs": [
        {
          "internalType": "uint256",
          "name": "",
          "type": "uint256"
        }
      ],
      "stateMutability": "view",
      "type": "function"
    },
    {
      "inputs": [],
      "name": "owner",
      "outputs": [
        {
          "internalType": "address",
          "name": "",
          "type": "address"
        }
      ],
      "stateMutability": "view",
      "type": "function"
    },
    {
      "inputs": [],
      "name": "ownerP",
      "outputs": [
        {
          "internalType": "contract Profile",
          "name": "",
          "type": "address"
        }
      ],
      "stateMutability": "view",
      "type": "function"
    },
    {
      "inputs": [],
      "name": "proportion",
      "outputs": [
        {
          "internalType": "uint256",
          "name": "",
          "type": "uint256"
        }
      ],
      "stateMutability": "view",
      "type": "function"
    },
    {
      "inputs": [
        {
          "internalType": "address",
          "name": "",
          "type": "address"
        }
      ],
      "name": "questionContractB",
      "outputs": [
        {
          "internalType": "address",
          "name": "",
          "type": "address"
        }
      ],
      "stateMutability": "view",
      "type": "function"
    },
    {
      "inputs": [
        {
          "internalType": "address",
          "name": "",
          "type": "address"
        },
        {
          "internalType": "uint256",
          "name": "",
          "type": "uint256"
        }
      ],
      "name": "questionDepositers",
      "outputs": [
        {
          "internalType": "address",
          "name": "",
          "type": "address"
        }
      ],
      "stateMutability": "view",
      "type": "function"
    },
    {
      "inputs": [],
      "name": "questionRate",
      "outputs": [
        {
          "internalType": "uint256",
          "name": "",
          "type": "uint256"
        }
      ],
      "stateMutability": "view",
      "type": "function"
    },
    {
      "inputs": [],
      "name": "questionTitle",
      "outputs": [
        {
          "internalType": "string",
          "name": "",
          "type": "string"
        }
      ],
      "stateMutability": "view",
      "type": "function"
    },
    {
      "inputs": [],
      "name": "start",
      "outputs": [
        {
          "internalType": "uint256",
          "name": "",
          "type": "uint256"
        }
      ],
      "stateMutability": "view",
      "type": "function"
    },
    {
      "inputs": [],
      "name": "sumRate",
      "outputs": [
        {
          "internalType": "uint256",
          "name": "",
          "type": "uint256"
        }
      ],
      "stateMutability": "view",
      "type": "function"
    },
    {
      "inputs": [],
      "name": "tokenSum",
      "outputs": [
        {
          "internalType": "uint256",
          "name": "",
          "type": "uint256"
        }
      ],
      "stateMutability": "view",
      "type": "function"
    },
    {
      "inputs": [],
      "name": "getContractBInstance",
      "outputs": [
        {
          "internalType": "address",
          "name": "",
          "type": "address"
        }
      ],
      "stateMutability": "nonpayable",
      "type": "function"
    },
    {
      "inputs": [],
      "name": "getSummary",
      "outputs": [
        {
          "internalType": "string",
          "name": "",
          "type": "string"
        },
        {
          "internalType": "string",
          "name": "",
          "type": "string"
        },
        {
          "internalType": "uint256",
          "name": "",
          "type": "uint256"
        },
        {
          "internalType": "uint256",
          "name": "",
          "type": "uint256"
        },
        {
          "internalType": "address",
          "name": "",
          "type": "address"
        },
        {
          "internalType": "string[]",
          "name": "",
          "type": "string[]"
        },
        {
          "internalType": "string[]",
          "name": "",
          "type": "string[]"
        }
      ],
      "stateMutability": "view",
      "type": "function"
    },
    {
      "inputs": [],
      "name": "getCategory",
      "outputs": [
        {
          "internalType": "string",
          "name": "",
          "type": "string"
        }
      ],
      "stateMutability": "view",
      "type": "function"
    },
    {
      "inputs": [],
      "name": "getOwner",
      "outputs": [
        {
          "internalType": "address",
          "name": "",
          "type": "address"
        }
      ],
      "stateMutability": "view",
      "type": "function"
    },
    {
      "inputs": [],
      "name": "getOwnerP",
      "outputs": [
        {
          "internalType": "contract Profile",
          "name": "",
          "type": "address"
        }
      ],
      "stateMutability": "view",
      "type": "function"
    },
    {
      "inputs": [
        {
          "internalType": "uint256",
          "name": "_index",
          "type": "uint256"
        }
      ],
      "name": "getAnswererP",
      "outputs": [
        {
          "internalType": "contract Profile",
          "name": "",
          "type": "address"
        }
      ],
      "stateMutability": "view",
      "type": "function"
    },
    {
      "inputs": [],
      "name": "getTime",
      "outputs": [
        {
          "internalType": "uint256",
          "name": "",
          "type": "uint256"
        },
        {
          "internalType": "uint256",
          "name": "",
          "type": "uint256"
        },
        {
          "internalType": "uint256",
          "name": "",
          "type": "uint256"
        }
      ],
      "stateMutability": "view",
      "type": "function"
    },
    {
      "inputs": [
        {
          "internalType": "uint256",
          "name": "_ratingQuestion",
          "type": "uint256"
        }
      ],
      "name": "ratingQuestion",
      "outputs": [],
      "stateMutability": "nonpayable",
      "type": "function"
    },
    {
      "inputs": [],
      "name": "getRatingQuestion",
      "outputs": [
        {
          "internalType": "uint256",
          "name": "",
          "type": "uint256"
        }
      ],
      "stateMutability": "nonpayable",
      "type": "function"
    },
    {
      "inputs": [
        {
          "internalType": "uint256",
          "name": "_value",
          "type": "uint256"
        }
      ],
      "name": "updateDeposite",
      "outputs": [],
      "stateMutability": "nonpayable",
      "type": "function"
    },
    {
      "inputs": [],
      "name": "getDeposit",
      "outputs": [
        {
          "internalType": "uint256",
          "name": "",
          "type": "uint256"
        }
      ],
      "stateMutability": "nonpayable",
      "type": "function"
    },
    {
      "inputs": [
        {
          "internalType": "address",
          "name": "_question",
          "type": "address"
        }
      ],
      "name": "getQuestionDepositers",
      "outputs": [
        {
          "internalType": "address[]",
          "name": "",
          "type": "address[]"
        }
      ],
      "stateMutability": "view",
      "type": "function"
    },
    {
      "inputs": [
        {
          "internalType": "address",
          "name": "_questionDepositer",
          "type": "address"
        }
      ],
      "name": "setQuestionDepositers",
      "outputs": [],
      "stateMutability": "nonpayable",
      "type": "function"
    },
    {
      "inputs": [],
      "name": "isOverdue",
      "outputs": [
        {
          "internalType": "bool",
          "name": "",
          "type": "bool"
        }
      ],
      "stateMutability": "nonpayable",
      "type": "function"
    },
    {
      "inputs": [],
      "name": "getCheckShareToken",
      "outputs": [
        {
          "internalType": "bool",
          "name": "",
          "type": "bool"
        }
      ],
      "stateMutability": "nonpayable",
      "type": "function"
    },
    {
      "inputs": [],
      "name": "getCheckReturnDeposit",
      "outputs": [
        {
          "internalType": "bool",
          "name": "",
          "type": "bool"
        }
      ],
      "stateMutability": "nonpayable",
      "type": "function"
    },
    {
      "inputs": [],
      "name": "getNumAnswer4",
      "outputs": [
        {
          "internalType": "bool",
          "name": "",
          "type": "bool"
        }
      ],
      "stateMutability": "nonpayable",
      "type": "function"
    },
    {
      "inputs": [],
      "name": "returnDeposit",
      "outputs": [],
      "stateMutability": "nonpayable",
      "type": "function"
    },
    {
      "inputs": [],
      "name": "shareToken",
      "outputs": [],
      "stateMutability": "nonpayable",
      "type": "function"
    },
    {
      "inputs": [],
      "name": "postQuestion",
      "outputs": [],
      "stateMutability": "nonpayable",
      "type": "function"
    },
    {
      "inputs": [
        {
          "internalType": "string",
          "name": "_reply",
          "type": "string"
        },
        {
          "internalType": "string[]",
          "name": "_fileHashes",
          "type": "string[]"
        },
        {
          "internalType": "string[]",
          "name": "_fileNames",
          "type": "string[]"
        },
        {
          "internalType": "address",
          "name": "_answerer",
          "type": "address"
        },
        {
          "internalType": "address",
          "name": "_answererP",
          "type": "address"
        },
        {
          "internalType": "int256",
          "name": "_parent",
          "type": "int256"
        }
      ],
      "name": "answer",
      "outputs": [],
      "stateMutability": "nonpayable",
      "type": "function"
    },
    {
      "inputs": [],
      "name": "getAnswerList",
      "outputs": [
        {
          "components": [
            {
              "internalType": "string",
              "name": "replyHash",
              "type": "string"
            },
            {
              "internalType": "string[]",
              "name": "fileHashes",
              "type": "string[]"
            },
            {
              "internalType": "string[]",
              "name": "fileNames",
              "type": "string[]"
            },
            {
              "internalType": "address",
              "name": "answerer",
              "type": "address"
            },
            {
              "internalType": "contract Profile",
              "name": "answererP",
              "type": "address"
            },
            {
              "internalType": "uint256",
              "name": "answerTime",
              "type": "uint256"
            },
            {
              "internalType": "uint256",
              "name": "answerRate",
              "type": "uint256"
            },
            {
              "internalType": "uint256",
              "name": "answerNumRate",
              "type": "uint256"
            },
            {
              "internalType": "uint256",
              "name": "answerSumRate",
              "type": "uint256"
            },
            {
              "internalType": "int256",
              "name": "parent",
              "type": "int256"
            },
            {
              "internalType": "int256",
              "name": "id",
              "type": "int256"
            }
          ],
          "internalType": "struct Question.Answer[]",
          "name": "",
          "type": "tuple[]"
        }
      ],
      "stateMutability": "view",
      "type": "function"
    },
    {
      "inputs": [
        {
          "internalType": "uint256",
          "name": "_value",
          "type": "uint256"
        },
        {
          "internalType": "uint256",
          "name": "index",
          "type": "uint256"
        }
      ],
      "name": "updateAnswerRate",
      "outputs": [],
      "stateMutability": "nonpayable",
      "type": "function"
    },
    {
      "inputs": [
        {
          "internalType": "uint256",
          "name": "index",
          "type": "uint256"
        }
      ],
      "name": "getAnswerRate",
      "outputs": [
        {
          "internalType": "uint256",
          "name": "",
          "type": "uint256"
        }
      ],
      "stateMutability": "view",
      "type": "function"
    }
  ],
  "bytecode": "0x6080604052600d805461ffff191690556000601255601780546001600160a01b0319167306c3cafae04f15851be7e3b72dea2da3e0f696e01790553480156200004757600080fd5b5060405162002af638038062002af68339810160408190526200006a91620004b8565b88516200007f9060119060208c01906200019c565b508751620000959060039060208b01906200019c565b508651620000ab9060049060208a01906200019c565b50600586905560068590558351620000cb9060019060208701906200022b565b508251620000e19060029060208601906200022b565b50600780546001600160a01b038085166001600160a01b03199283161790925560088054848416921691909117905530600090815260146020526040902054166200018d57600060405162000136906200028b565b604051809103906000f08015801562000153573d6000803e3d6000fd5b50601380546001600160a01b039092166001600160a01b031992831681179091553060009081526014602052604090208054909216179055505b5050505050505050506200060f565b828054620001aa90620005d2565b90600052602060002090601f016020900481019282620001ce576000855562000219565b82601f10620001e957805160ff191683800117855562000219565b8280016001018555821562000219579182015b8281111562000219578251825591602001919060010190620001fc565b506200022792915062000299565b5090565b8280548282559060005260206000209081019282156200027d579160200282015b828111156200027d57825180516200026c9184916020909101906200019c565b50916020019190600101906200024c565b5062000227929150620002b0565b61038c806200276a83390190565b5b808211156200022757600081556001016200029a565b8082111562000227576000620002c78282620002d1565b50600101620002b0565b508054620002df90620005d2565b6000825580601f10620002f0575050565b601f01602090049060005260206000209081019062000310919062000299565b50565b634e487b7160e01b600052604160045260246000fd5b604051601f8201601f191681016001600160401b038111828210171562000354576200035462000313565b604052919050565b600082601f8301126200036e57600080fd5b81516001600160401b038111156200038a576200038a62000313565b6020620003a0601f8301601f1916820162000329565b8281528582848701011115620003b557600080fd5b60005b83811015620003d5578581018301518282018401528201620003b8565b83811115620003e75760008385840101525b5095945050505050565b600082601f8301126200040357600080fd5b815160206001600160401b038083111562000422576200042262000313565b8260051b6200043383820162000329565b93845285810183019383810190888611156200044e57600080fd5b84880192505b858310156200048f578251848111156200046e5760008081fd5b6200047e8a87838c01016200035c565b835250918401919084019062000454565b98975050505050505050565b80516001600160a01b0381168114620004b357600080fd5b919050565b60008060008060008060008060006101208a8c031215620004d857600080fd5b89516001600160401b0380821115620004f057600080fd5b620004fe8d838e016200035c565b9a5060208c01519150808211156200051557600080fd5b620005238d838e016200035c565b995060408c01519150808211156200053a57600080fd5b620005488d838e016200035c565b985060608c0151975060808c0151965060a08c01519150808211156200056d57600080fd5b6200057b8d838e01620003f1565b955060c08c01519150808211156200059257600080fd5b50620005a18c828d01620003f1565b935050620005b260e08b016200049b565b9150620005c36101008b016200049b565b90509295985092959850929598565b600181811c90821680620005e757607f821691505b602082108114156200060957634e487b7160e01b600052602260045260246000fd5b50919050565b61214b806200061f6000396000f3fe608060405234801561001057600080fd5b50600436106102ba5760003560e01c80637ba354ff11610182578063c0013a7b116100e9578063d0e30db0116100a2578063e1cd8b2f1161007c578063e1cd8b2f146105f2578063e901a65914610612578063ef430aa614610625578063f0d339f61461062d57600080fd5b8063d0e30db0146105d7578063d4efc251146105e0578063e037f889146105e957600080fd5b8063c0013a7b14610562578063c399ec8814610580578063c9930ee014610588578063cb90a394146105b0578063ce8acbad146105c1578063d04f119a146105ca57600080fd5b806390b47d3e1161013b57806390b47d3e146104e457806397b16ab9146104f7578063ab4fbb1f1461050a578063b125950514610533578063bb17ed0814610546578063be9a65551461055957600080fd5b80637ba354ff146104945780637e88f603146104a757806380258e47146104af57806388963771146104b7578063893d20e8146104c05780638da5cb5b146104d157600080fd5b80635270420411610226578063693f4b07116101df578063693f4b07146104425780636c9fa59e146104555780636db5c8fd1461045d5780636ec39c951461046657806372267ab8146104795780637284e4161461048c57600080fd5b806352704204146103ca578063557ed1ba146103d357806356abef18146103f157806356dde0b61461041c5780635b4246d414610424578063632b1ae11461042d57600080fd5b80633531fde8116102785780633531fde81461035c5780633b957317146103715780634051ddac1461037957806346d9b4391461039457806347239353146103a657806349bd924c146103b757600080fd5b8062a70eee146102bf57806306661abd146102dc57806308f7e68f146102f35780630d03b85e146102fe57806326ce12841461034b5780632a412fdf14610353575b600080fd5b600d5460ff16155b60405190151581526020015b60405180910390f35b6102e560125481565b6040519081526020016102d3565b6102fc42600955565b005b6102fc61030c366004611a1c565b3060009081526015602090815260408220805460018101825590835291200180546001600160a01b0319166001600160a01b0392909216919091179055565b600a546102e5565b6102e5600a5481565b610364610640565b6040516102d39190611ae3565b6102c7610949565b610381610964565b6040516102d39796959493929190611c46565b600d546102c790610100900460ff1681565b600d54610100900460ff16156102c7565b6102fc6103c5366004611e14565b610c68565b6102e5600b5481565b600954600654604080519283524260208401528201526060016102d3565b601354610404906001600160a01b031681565b6040516001600160a01b0390911681526020016102d3565b6102c7610dfa565b6102e5600f5481565b610435610e7a565b6040516102d39190611ec6565b6102e5610450366004611ed9565b610f08565b6102fc610f35565b6102e560065481565b610435610474366004611ed9565b611189565b6102fc610487366004611ed9565b6111b4565b6104356111c8565b6104046104a2366004611ed9565b6111d5565b6102fc61120c565b610435611537565b6102e5600e5481565b6007546001600160a01b0316610404565b600754610404906001600160a01b031681565b600854610404906001600160a01b031681565b6102fc610505366004611ef2565b6115c9565b610404610518366004611a1c565b6014602052600090815260409020546001600160a01b031681565b610435610541366004611ed9565b6116b9565b610404610554366004611f14565b6116c9565b6102e560095481565b306000908152601460205260409020546001600160a01b0316610404565b6005546102e5565b61059b610596366004611ed9565b611701565b6040516102d399989796959493929190611f3e565b6008546001600160a01b0316610404565b6102e560105481565b600d546102c79060ff1681565b6102e560055481565b6102e5600c5481565b6102e560165481565b610605610600366004611a1c565b6117f7565b6040516102d39190611f9b565b600d546102c79062010000900460ff1681565b61043561186d565b6102fc61063b366004611ed9565b61187a565b60606000805480602002602001604051908101604052809291908181526020016000905b8282101561094057838290600052602060002090600b02016040518061016001604052908160008201805461069890611fe8565b80601f01602080910402602001604051908101604052809291908181526020018280546106c490611fe8565b80156107115780601f106106e657610100808354040283529160200191610711565b820191906000526020600020905b8154815290600101906020018083116106f457829003601f168201915b5050505050815260200160018201805480602002602001604051908101604052809291908181526020016000905b828210156107eb57838290600052602060002001805461075e90611fe8565b80601f016020809104026020016040519081016040528092919081815260200182805461078a90611fe8565b80156107d75780601f106107ac576101008083540402835291602001916107d7565b820191906000526020600020905b8154815290600101906020018083116107ba57829003601f168201915b50505050508152602001906001019061073f565b50505050815260200160028201805480602002602001604051908101604052809291908181526020016000905b828210156108c457838290600052602060002001805461083790611fe8565b80601f016020809104026020016040519081016040528092919081815260200182805461086390611fe8565b80156108b05780601f10610885576101008083540402835291602001916108b0565b820191906000526020600020905b81548152906001019060200180831161089357829003601f168201915b505050505081526020019060010190610818565b5050509082525060038201546001600160a01b03908116602080840191909152600484015490911660408301526005830154606083015260068301546080830152600783015460a0830152600883015460c0830152600983015460e0830152600a90920154610100909101529082526001929092019101610664565b50505050905090565b6000806009544261095a9190612039565b6006541092915050565b606080600080600060608060036004600554600654600760009054906101000a90046001600160a01b03166001600286805461099f90611fe8565b80601f01602080910402602001604051908101604052809291908181526020018280546109cb90611fe8565b8015610a185780601f106109ed57610100808354040283529160200191610a18565b820191906000526020600020905b8154815290600101906020018083116109fb57829003601f168201915b50505050509650858054610a2b90611fe8565b80601f0160208091040260200160405190810160405280929190818152602001828054610a5790611fe8565b8015610aa45780601f10610a7957610100808354040283529160200191610aa4565b820191906000526020600020905b815481529060010190602001808311610a8757829003601f168201915b5050505050955081805480602002602001604051908101604052809291908181526020016000905b82821015610b78578382906000526020600020018054610aeb90611fe8565b80601f0160208091040260200160405190810160405280929190818152602001828054610b1790611fe8565b8015610b645780601f10610b3957610100808354040283529160200191610b64565b820191906000526020600020905b815481529060010190602001808311610b4757829003601f168201915b505050505081526020019060010190610acc565b50505050915080805480602002602001604051908101604052809291908181526020016000905b82821015610c4b578382906000526020600020018054610bbe90611fe8565b80601f0160208091040260200160405190810160405280929190818152602001828054610bea90611fe8565b8015610c375780601f10610c0c57610100808354040283529160200191610c37565b820191906000526020600020905b815481529060010190602001808311610c1a57829003601f168201915b505050505081526020019060010190610b9f565b505050509050965096509650965096509650965090919293949596565b6000816000191415610c915750601280549081906000610c8783612050565b9190505550610c96565b506000195b604080516101608101825288815260208082018990529181018790526001600160a01b038087166060830152851660808201524260a0820152600060c0820181905260e0820181905261010082018190526101208201859052610140820184905280546001810182559080528151805192938493600b9093027f290decd9548b62a8d60345a988386fc84ba6bc95484008f6362f93160ef3e5630192610d3f92849201906118b4565b506020828101518051610d589260018501920190611938565b5060408201518051610d74916002840191602090910190611938565b5060608201516003820180546001600160a01b039283166001600160a01b031991821617909155608084015160048401805491909316911617905560a0820151600582015560c0820151600682015560e082015160078201556101008201516008820155610120820151600982015561014090910151600a909101555050505050505050565b60008060008054811015610e7557600460008281548110610e1d57610e1d612070565b90600052602060002090600b02016006015410610e425781610e3e81612086565b9250505b8115610e61575050600d805462ff000019166201000017905550600190565b5050600d805462ff00001916905550600090565b505090565b60038054610e8790611fe8565b80601f0160208091040260200160405190810160405280929190818152602001828054610eb390611fe8565b8015610f005780601f10610ed557610100808354040283529160200191610f00565b820191906000526020600020905b815481529060010190602001808311610ee357829003601f168201915b505050505081565b6000808281548110610f1c57610f1c612070565b90600052602060002090600b0201600601549050919050565b60005b600054811015610f9657600460008281548110610f5757610f57612070565b90600052602060002090600b02016006015410610f845760108054906000610f7e83612086565b91905055505b80610f8e81612086565b915050610f38565b50601054600554610fa7919061209a565b600f5560005b60005481101561117957600460008281548110610fcc57610fcc612070565b90600052602060002090600b02016006015410611167576017543060009081526014602052604081205481546001600160a01b039384169363e1f21c6793921691908590811061101e5761101e612070565b60009182526020909120600b9091020160030154600f5460405160e085901b6001600160e01b03191681526001600160a01b0393841660048201529290911660248301526044820152606401602060405180830381600087803b15801561108457600080fd5b505af1158015611098573d6000803e3d6000fd5b505050506040513d601f19601f820116820180604052508101906110bc91906120bc565b503060009081526014602052604081205481546001600160a01b039091169163ded6338b91849081106110f1576110f1612070565b60009182526020909120600b9091020160030154600f5460405160e084901b6001600160e01b03191681526001600160a01b0390921660048301526024820152604401600060405180830381600087803b15801561114e57600080fd5b505af1158015611162573d6000803e3d6000fd5b505050505b8061117181612086565b915050610fad565b50600d805460ff19166001179055565b6002818154811061119957600080fd5b906000526020600020016000915090508054610e8790611fe8565b806005546111c291906120de565b60055550565b60048054610e8790611fe8565b60008082815481106111e9576111e9612070565b600091825260209091206004600b9092020101546001600160a01b031692915050565b60006009544261121c9190612039565b90506006548111156115255760005b306000908152601560205260409020548110156113da5760175430600090815260146020908152604080832054601590925290912080546001600160a01b039384169363e1f21c67931691908590811061128757611287612070565b60009182526020909120015460405160e084901b6001600160e01b03191681526001600160a01b0392831660048201529116602482015260646044820181905201602060405180830381600087803b1580156112e257600080fd5b505af11580156112f6573d6000803e3d6000fd5b505050506040513d601f19601f8201168201806040525081019061131a91906120bc565b5030600090815260146020908152604080832054601590925290912080546001600160a01b039092169163ded6338b91908490811061135b5761135b612070565b60009182526020909120015460405160e083901b6001600160e01b03191681526001600160a01b03909116600482015260646024820152604401600060405180830381600087803b1580156113af57600080fd5b505af11580156113c3573d6000803e3d6000fd5b5050505080806113d290612086565b91505061122b565b50306000908152601560205260409020546113f69060646120f6565b6005546114039190612039565b6016819055601754306000908152601460205260409081902054600754915163e1f21c6760e01b81526001600160a01b0391821660048201529181166024830152604482019390935291169063e1f21c6790606401602060405180830381600087803b15801561147257600080fd5b505af1158015611486573d6000803e3d6000fd5b505050506040513d601f19601f820116820180604052508101906114aa91906120bc565b50306000908152601460205260409081902054600754601654925163ded6338b60e01b81526001600160a01b0391821660048201526024810193909352169063ded6338b90604401600060405180830381600087803b15801561150c57600080fd5b505af1158015611520573d6000803e3d6000fd5b505050505b50600d805461ff001916610100179055565b60606011805461154690611fe8565b80601f016020809104026020016040519081016040528092919081815260200182805461157290611fe8565b80156115bf5780601f10611594576101008083540402835291602001916115bf565b820191906000526020600020905b8154815290600101906020018083116115a257829003601f168201915b5050505050905090565b600081815481106115dc576115dc612070565b6000918252602082206007600b90920201018054916115fa83612086565b9190505550816000828154811061161357611613612070565b90600052602060002090600b0201600801600082825461163391906120de565b9091555050600080548290811061164c5761164c612070565b90600052602060002090600b0201600701546000828154811061167157611671612070565b90600052602060002090600b02016008015461168d919061209a565b600082815481106116a0576116a0612070565b90600052602060002090600b0201600601819055505050565b6001818154811061119957600080fd5b601560205281600052604060002081815481106116e557600080fd5b6000918252602090912001546001600160a01b03169150829050565b6000818154811061171157600080fd5b90600052602060002090600b020160009150905080600001805461173490611fe8565b80601f016020809104026020016040519081016040528092919081815260200182805461176090611fe8565b80156117ad5780601f10611782576101008083540402835291602001916117ad565b820191906000526020600020905b81548152906001019060200180831161179057829003601f168201915b50505060038401546004850154600586015460068701546007880154600889015460098a0154600a909a015498996001600160a01b03968716999590961697509295509093909289565b6001600160a01b03811660009081526015602090815260409182902080548351818402810184019094528084526060939283018282801561186157602002820191906000526020600020905b81546001600160a01b03168152600190910190602001808311611843575b50505050509050919050565b60118054610e8790611fe8565b600b805490600061188a83612086565b919050555080600c5461189d91906120de565b600c819055600b546118ae9161209a565b600a5550565b8280546118c090611fe8565b90600052602060002090601f0160209004810192826118e25760008555611928565b82601f106118fb57805160ff1916838001178555611928565b82800160010185558215611928579182015b8281111561192857825182559160200191906001019061190d565b50611934929150611991565b5090565b828054828255906000526020600020908101928215611985579160200282015b8281111561198557825180516119759184916020909101906118b4565b5091602001919060010190611958565b506119349291506119a6565b5b808211156119345760008155600101611992565b808211156119345760006119ba82826119c3565b506001016119a6565b5080546119cf90611fe8565b6000825580601f106119df575050565b601f0160209004906000526020600020908101906119fd9190611991565b50565b80356001600160a01b0381168114611a1757600080fd5b919050565b600060208284031215611a2e57600080fd5b611a3782611a00565b9392505050565b6000815180845260005b81811015611a6457602081850181015186830182015201611a48565b81811115611a76576000602083870101525b50601f01601f19169290920160200192915050565b600082825180855260208086019550808260051b84010181860160005b84811015611ad657601f19868403018952611ac4838351611a3e565b98840198925090830190600101611aa8565b5090979650505050505050565b60006020808301818452808551808352604092508286019150828160051b87010184880160005b83811015611be357603f1989840301855281516101608151818652611b3182870182611a3e565b915050888201518582038a870152611b498282611a8b565b9150508782015185820389870152611b618282611a8b565b915050606080830151611b7e828801826001600160a01b03169052565b50506080828101516001600160a01b03169086015260a0808301519086015260c0808301519086015260e08083015190860152610100808301519086015261012080830151908601526101409182015191909401529386019390860190600101611b0a565b509098975050505050505050565b600081518084526020808501808196508360051b8101915082860160005b85811015611c39578284038952611c27848351611a3e565b98850198935090840190600101611c0f565b5091979650505050505050565b60e081526000611c5960e083018a611a3e565b8281036020840152611c6b818a611a3e565b60408401899052606084018890526001600160a01b038716608085015283810360a08501529050611c9c8186611bf1565b905082810360c0840152611cb08185611bf1565b9a9950505050505050505050565b634e487b7160e01b600052604160045260246000fd5b604051601f8201601f1916810167ffffffffffffffff81118282101715611cfd57611cfd611cbe565b604052919050565b600082601f830112611d1657600080fd5b813567ffffffffffffffff811115611d3057611d30611cbe565b611d43601f8201601f1916602001611cd4565b818152846020838601011115611d5857600080fd5b816020850160208301376000918101602001919091529392505050565b600082601f830112611d8657600080fd5b8135602067ffffffffffffffff80831115611da357611da3611cbe565b8260051b611db2838201611cd4565b9384528581018301938381019088861115611dcc57600080fd5b84880192505b85831015611e0857823584811115611dea5760008081fd5b611df88a87838c0101611d05565b8352509184019190840190611dd2565b98975050505050505050565b60008060008060008060c08789031215611e2d57600080fd5b863567ffffffffffffffff80821115611e4557600080fd5b611e518a838b01611d05565b97506020890135915080821115611e6757600080fd5b611e738a838b01611d75565b96506040890135915080821115611e8957600080fd5b50611e9689828a01611d75565b945050611ea560608801611a00565b9250611eb360808801611a00565b915060a087013590509295509295509295565b602081526000611a376020830184611a3e565b600060208284031215611eeb57600080fd5b5035919050565b60008060408385031215611f0557600080fd5b50508035926020909101359150565b60008060408385031215611f2757600080fd5b611f3083611a00565b946020939093013593505050565b6000610120808352611f528184018d611a3e565b6001600160a01b039b8c16602085015299909a166040830152506060810196909652608086019490945260a085019290925260c084015260e08301526101009091015292915050565b6020808252825182820181905260009190848201906040850190845b81811015611fdc5783516001600160a01b031683529284019291840191600101611fb7565b50909695505050505050565b600181811c90821680611ffc57607f821691505b6020821081141561201d57634e487b7160e01b600052602260045260246000fd5b50919050565b634e487b7160e01b600052601160045260246000fd5b60008282101561204b5761204b612023565b500390565b60006001600160ff1b0382141561206957612069612023565b5060010190565b634e487b7160e01b600052603260045260246000fd5b600060001982141561206957612069612023565b6000826120b757634e487b7160e01b600052601260045260246000fd5b500490565b6000602082840312156120ce57600080fd5b81518015158114611a3757600080fd5b600082198211156120f1576120f1612023565b500190565b600081600019048311821515161561211057612110612023565b50029056fea26469706673582212208af429350e522e9592a09ab859ad682af1c15bda1a3691ae15c2995b7db0672864736f6c634300080900336080604052600080546001600160a01b0319167306c3cafae04f15851be7e3b72dea2da3e0f696e017905534801561003657600080fd5b50610346806100466000396000f3fe608060405234801561001057600080fd5b506004361061004c5760003560e01c806327e235e31461005157806347e7ef2414610083578063d3ef774014610098578063ded6338b146100ab575b600080fd5b61007161005f36600461027c565b60016020526000908152604090205481565b60405190815260200160405180910390f35b61009661009136600461029e565b6100be565b005b6100966100a636600461027c565b61017d565b6100966100b936600461029e565b610221565b6001600160a01b038216600090815260016020526040812080548392906100e69084906102c8565b90915550506000546040516323b872dd60e01b81526001600160a01b03848116600483015230602483015260448201849052909116906323b872dd906064015b602060405180830381600087803b15801561014057600080fd5b505af1158015610154573d6000803e3d6000fd5b505050506040513d601f19601f8201168201806040525081019061017891906102ee565b505050565b6001600160a01b03818116600081815260016020526040808220829055815490516323b872dd60e01b815230600482015260248101939093526044830191909152909116906323b872dd90606401602060405180830381600087803b1580156101e557600080fd5b505af11580156101f9573d6000803e3d6000fd5b505050506040513d601f19601f8201168201806040525081019061021d91906102ee565b5050565b6000546040516323b872dd60e01b81523060048201526001600160a01b03848116602483015260448201849052909116906323b872dd90606401610126565b80356001600160a01b038116811461027757600080fd5b919050565b60006020828403121561028e57600080fd5b61029782610260565b9392505050565b600080604083850312156102b157600080fd5b6102ba83610260565b946020939093013593505050565b600082198211156102e957634e487b7160e01b600052601160045260246000fd5b500190565b60006020828403121561030057600080fd5b8151801515811461029757600080fdfea2646970667358221220ffec157bdea7f721f3eab2cb002fcd86c89e665f16508506a0a4e8f98ea10fcf64736f6c63430008090033",
  "immutableReferences": {},
  "source": "pragma solidity ^0.8.0;\npragma experimental ABIEncoderV2;\nimport \"./ETLToken.sol\";\n\ncontract contractB {\n    ETLToken tokenContract = ETLToken(0x06c3caFae04F15851be7E3B72deA2dA3E0f696E0); \n    mapping ( address => uint256 ) public balances;\n\n    function deposit(address _user, uint tokens) public {\n\n        // add the deposited tokens into existing balance \n        balances[_user]+= tokens;\n\n        // transfer the tokens from the sender to this contract\n        tokenContract.transferFrom(_user, address(this), tokens);\n    }\n\n    function share(address _user, uint tokens) public {\n        tokenContract.transferFrom(address(this), _user, tokens);\n    }\n\n    function returnTokens(address _user) public {\n        balances[_user] = 0;\n        tokenContract.transferFrom(address(this), _user, balances[_user]);\n    }\n\n}\n\ncontract QuestionFactory {\n    address[] private deployedQuestions;\n    mapping(address => address) public users;\n    mapping(address => address) public owner;\n    address public contractbinstance;\n\n    ETLToken tokenContract = ETLToken(0x06c3caFae04F15851be7E3B72deA2dA3E0f696E0);\n\n    function createQuestion(string memory category, string memory questionTitle, string memory description, uint deposit, \n                    uint maxDuration, string[] memory fileHashesQuestion, string[] memory fileNamesQuestion) public {\n        if (users[msg.sender] == address(0x0)) {\n            Profile profile = new Profile(msg.sender);\n            users[msg.sender] = address(profile);\n        }\n\n        require(deposit>0, \"Deposit cannot be 0\");\n        require((deposit/10**4)<=Profile(users[msg.sender]).getToken(msg.sender), \"Insufficient tokens\");\n        Question newQuestion = new Question(category, questionTitle, description, deposit, maxDuration,\n                                    fileHashesQuestion, fileNamesQuestion, msg.sender, users[msg.sender]);\n        deployedQuestions.push(address(newQuestion));\n        \n        Question question = Question(newQuestion);\n        //transfer deposit from user to contractB instance\n        contractbinstance = question.getContractBInstance();\n        tokenContract.approve(msg.sender, contractbinstance, deposit); \n        contractB(contractbinstance).deposit(msg.sender, deposit);\n\n        Profile(users[msg.sender]).increaseNumOfQues();\n        question.postQuestion();  //Save posted time here\n        \n\n    }\n\n    function createAnswer(address _question, string memory _reply, string[] memory _fileHashes, string[] memory _fileNames, int _parent) public {\n        if (users[msg.sender] == address(0x0)) {\n            Profile profile = new Profile(msg.sender);\n            users[msg.sender] = address(profile);\n        }   \n        Question question = Question(_question);\n        question.answer(_reply, _fileHashes, _fileNames, msg.sender, users[msg.sender], _parent);\n        Profile(users[msg.sender]).increaseNumOfAns();\n    }\n\n    function ratingQuestionAt(address _question, uint _ratingQuestion) public payable{\n        if (users[msg.sender] == address(0x0)) {\n            Profile profile = new Profile(msg.sender);\n            users[msg.sender] = address(profile);\n        }\n\n        Question question = Question(_question);\n        contractbinstance = question.getContractBInstance();\n        //Require user to have at least one token to rate question\n        require(1<Profile(users[msg.sender]).getToken(msg.sender), \"Insufficient tokens\");\n        \n        //transfer 1 token as deposit from user to contractB instance to rate question\n        tokenContract.approve(msg.sender, contractbinstance, 1*10**2); \n        contractB(contractbinstance).deposit(msg.sender, 1*10**2);\n        \n        question.ratingQuestion(_ratingQuestion); \n        question.updateDeposite(1*10**2);\n        Profile(users[msg.sender]).updateToken(0, 1*10**2);\n        Profile(question.getOwnerP()).increaseSumOfQuesRate(_ratingQuestion);\n        \n        //store who deposited tokens\n        question.setQuestionDepositers(msg.sender);\n    \n    }\n\n    function ratingAnswerAt(address _question, uint _ratingAnswer, uint _index) public payable {\n        if (users[msg.sender] == address(0x0)) {\n            Profile profile = new Profile(msg.sender);\n            users[msg.sender] = address(profile);\n        }\n\n        Question question = Question(_question);\n        //rating answer doesnt require deposit\n        question.updateAnswerRate(_ratingAnswer, _index);\n        Profile(question.getAnswererP(_index)).increaseSumOfAnsRate(_ratingAnswer);\n    }\n\n\n    function shareTokenAt(address _question) public payable {\n        if (users[msg.sender] == address(0x0)) {\n            Profile profile = new Profile(msg.sender);\n            users[msg.sender] = address(profile);\n        }\n\n        Question question = Question(_question);\n        question.shareToken();\n    }\n\n    function returnDepositAt(address _question) public payable {\n        if (users[msg.sender] == address(0x0)) {\n            Profile profile = new Profile(msg.sender);\n            users[msg.sender] = address(profile);\n        }\n\n        Question question = Question(_question);\n        question.returnDeposit();\n    }\n\n    function hasProfile(address _user) public returns(bool) {\n        if (users[_user] == address(0x0)) {\n            return false;\n        } else {\n            return true;\n        }\n    }\n\n    function getProfile(address _user) public returns(address) {\n        require(users[_user] != address(0x0));\n        return users[_user];\n    }\n    \n    function getDeployedQuestions() public view returns(address[] memory) {\n        return deployedQuestions;\n    }\n\n}    \n\n\ncontract Question {\n\n    struct Answer {\n        string replyHash;\n        string[] fileHashes;\n        string[] fileNames;\n        address answerer;\n        Profile answererP;\n        uint answerTime;\n        uint answerRate; \n        uint answerNumRate;\n        uint answerSumRate;\n        int parent;\n        int id;       //Keep track parent answers\n    }\n\n    Answer[] public answerList; \n    string[] public fileHashesQuestion;\n    string[] public fileNamesQuestion;\n    string public questionTitle;\n    string public description;\n    uint public deposit;\n    uint public maxDuration;\n    address public owner;\n    Profile public ownerP;\n    uint public start;\n    uint public questionRate;\n    uint public numRate;\n    uint public sumRate;\n    bool public alreadyShareToken = false;\n    bool public alreadyReturnDeposit =  false;\n    bool public numAnswer4Bool;\n    uint public tokenSum;\n    uint public proportion;\n    uint public numPeople;\n    string public category;\n    int public count = 0;\n    address public contractbinstance;\n    //map each question to its own contractB instance\n    mapping(address => address) public questionContractB;\n    mapping(address => address[]) public questionDepositers;\n    uint public initialDeposit;\n    ETLToken tokenContract = ETLToken(0x06c3caFae04F15851be7E3B72deA2dA3E0f696E0);\n\n\n    constructor (string memory _category, string memory _questionTitle, string memory _description, uint _deposit, uint _maxDuration, string[] memory _fileHashesQuestion, string[] memory _fileNamesQuestion, address _owner, address _ownerP) public {\n        category = _category;\n        questionTitle = _questionTitle;\n        description = _description;\n        deposit = _deposit;\n        maxDuration = _maxDuration;\n        fileHashesQuestion = _fileHashesQuestion;\n        fileNamesQuestion = _fileNamesQuestion;\n        owner = _owner;\n        ownerP = Profile(_ownerP);\n        \n        //create contractB instance each time a new Question is created\n        if (questionContractB[address(this)] == address(0x0)) {\n            contractB contractb = new contractB();\n            contractbinstance = address(contractb);\n            questionContractB[address(this)] = contractbinstance;\n        }\n         \n    }\n    \n    function getContractBInstance() public returns (address) {\n        return questionContractB[address(this)];\n    }\n\n    function getSummary() public view returns (\n        string memory, string memory, uint, uint, address, string[] memory, string[] memory\n    ) {\n        return(\n            questionTitle,\n            description,\n            deposit,\n            maxDuration,\n            owner,\n            fileHashesQuestion,\n            fileNamesQuestion\n        );\n    }\n\n    function getCategory() public view returns (string memory) {\n        return category;\n    }\n\n    function getOwner() public view returns (address){\n        return owner;\n    }\n\n    function getOwnerP() public view returns (Profile){\n        return ownerP;\n    }\n    \n    function getAnswererP(uint _index) public view returns (Profile){\n        return answerList[_index].answererP;\n    }\n\n    function getTime() public view returns (uint, uint, uint) {\n        return(\n            start,\n            block.timestamp,\n            maxDuration\n        );\n    }\n\n    function ratingQuestion(uint _ratingQuestion) public {\n        numRate++;\n        sumRate = sumRate + _ratingQuestion;\n        questionRate = sumRate/numRate;\n    }\n\n    function getRatingQuestion() public returns (uint){\n        return questionRate;\n    }\n\n    function updateDeposite(uint _value) public {\n        deposit = deposit + _value;\n    }\n\n    function getDeposit() public returns (uint){\n        return deposit;\n    }\n    \n    function getQuestionDepositers(address _question) public view returns (address[] memory) {\n        return questionDepositers[_question];\n    }\n    \n    function setQuestionDepositers(address _questionDepositer) public {\n        questionDepositers[address(this)].push(_questionDepositer);\n    }\n\n    function isOverdue() public returns (bool) {\n        uint publishingTime = block.timestamp - start;\n\n        return publishingTime > maxDuration;\n\n    }\n\n    function getCheckShareToken() public returns(bool){\n        return (!alreadyShareToken);\n    }\n\n    function getCheckReturnDeposit() public returns(bool) {\n        return(!alreadyReturnDeposit);\n    }\n\n    function getNumAnswer4() public returns (bool){\n        uint getNumAnswer4;\n        for (uint i = 0;i < answerList.length;i++) {\n            if(answerList[i].answerRate >= 4) \n                getNumAnswer4++;\n            if(getNumAnswer4>0) {\n                numAnswer4Bool = true;\n                return true; \n            }\n            else {\n                numAnswer4Bool = false;\n                return false;\n            }\n        }\n    }\n\n    function returnDeposit() public {\n        uint publishingTime = block.timestamp - start;\n\n        if (publishingTime > maxDuration) {\n            for (uint i=0; i<questionDepositers[address(this)].length;i++) {\n                tokenContract.approve(questionContractB[address(this)], questionDepositers[address(this)][i], 1*10**2); \n                contractB(questionContractB[address(this)]).share(questionDepositers[address(this)][i], 1*10**2);\n            }\n            //transfer initial deposit back to owner of question\n            initialDeposit = deposit - (questionDepositers[address(this)].length * 10**2);\n            tokenContract.approve(questionContractB[address(this)], owner, initialDeposit); \n            contractB(questionContractB[address(this)]).share(owner, initialDeposit);\n        \n        }\n\n        alreadyReturnDeposit = true;\n    }\n\n    function shareToken() public {\n        for (uint i = 0;i < answerList.length;i++) {\n            if(answerList[i].answerRate >= 4){ \n                numPeople++;\n            }\n        }\n        \n        proportion = (deposit) / numPeople; //if uint solidity rounds down eg 1/6 * 100 = 16 (not 16.23.)\n        for (uint i = 0; i < answerList.length;i++) {\n            if(answerList[i].answerRate >= 4){ //Only take 4 stars above into account\n                tokenContract.approve(questionContractB[address(this)], answerList[i].answerer, proportion); \n                contractB(questionContractB[address(this)]).share(answerList[i].answerer, proportion);\n\n            }\n        }\n\n        alreadyShareToken = true;\n    }\n    \n    function postQuestion() public {\n        start = block.timestamp;   \n    }\n\n    function answer(string memory _reply, string[] memory _fileHashes, string[] memory _fileNames, address _answerer, address _answererP, int _parent) public {\n        int _id;\n        if (_parent == -1) {   //a parent answer\n            _id = count;   \n            count++;\n        } else {               //a child answer\n            _id = -1;\n        }\n\n        Answer memory newAnswer = Answer({\n            replyHash: _reply,\n            fileHashes: _fileHashes,\n            fileNames: _fileNames,\n            answerer: _answerer,\n            answererP: Profile(_answererP),\n            answerTime: block.timestamp,\n            answerRate: 0,\n            answerNumRate: 0,\n            answerSumRate: 0,\n            parent: _parent,\n            id: _id\n        }); \n        \n        answerList.push(newAnswer);\n    } \n\n\n    function getAnswerList() public view returns (Answer[] memory) {\n        return answerList;\n    }\n\n    function updateAnswerRate(uint _value, uint index) public {\n        answerList[index].answerNumRate ++;\n        answerList[index].answerSumRate += _value;\n        answerList[index].answerRate = answerList[index].answerSumRate/answerList[index].answerNumRate;\n    }\n\n    function getAnswerRate(uint index) public view returns (uint) {\n        return answerList[index].answerRate;\n    }\n\n}\n\ncontract Profile {\n    ETLToken public tokenContract = ETLToken(0x06c3caFae04F15851be7E3B72deA2dA3E0f696E0);\n    uint public token;\n    uint public numOfQues;\n    uint public sumOfQuesRate;\n    uint public numOfAns;\n    uint public sumOfAnsRate;\n    uint public avgQuesRate;\n    uint public avgAnsRate;\n    address public user;\n    \n    constructor (address _user) public {\n        user = _user;\n    }\n\n    function increaseNumOfQues() public {\n        numOfQues++;\n    }\n\n    function increaseNumOfAns() public {\n        numOfAns++;\n    }\n\n    function increaseSumOfQuesRate(uint _rate) public {\n        sumOfQuesRate += _rate;\n    }\n\n    function increaseSumOfAnsRate(uint _rate) public {\n        sumOfAnsRate += _rate;\n    }\n\n    function getavgQuesRate() public returns (uint){\n        if (numOfQues == 0) {\n            avgQuesRate = 0;\n            return avgQuesRate;\n        }\n        else {\n            avgQuesRate = sumOfQuesRate/numOfQues;\n            return avgQuesRate;\n        }\n    }\n\n    function getavgAnsRate() public returns (uint){\n        if (numOfAns == 0) {\n            avgAnsRate = 0;\n            return avgAnsRate;\n        }\n        else {\n            avgAnsRate = sumOfAnsRate/numOfAns;\n            return avgAnsRate;\n        }\n    }\n\n    function getNumOfQues() public returns (uint){\n        return numOfQues;\n    }\n\n    function getNumOfAns() public returns (uint){\n        return numOfAns;\n    }\n\n    function updateToken(uint addOrSub, uint _token) public {\n        if (addOrSub==1){ //1 is add\n            token += (_token);\n        }\n        else if(addOrSub==0){ // 0 is sub\n            token -= (_token);\n        }\n    }\n\n    function getToken(address _user) public returns(uint){\n        token = tokenContract.balanceOf(_user); //removed /10**2 => => 5 token == 500\n        \n        return token;\n\n\n    }\n\n\n}\n\n\n\n\n",
  "sourcePath": "/Users/joelytj/Desktop/EtherLearn/contracts/Question.sol",
  "compiler": {
    "name": "solc",
    "version": "0.8.9+commit.e5eed63a.Emscripten.clang"
  },
  "schemaVersion": "3.4.3",
  "updatedAt": "2021-09-30T03:28:49.171Z",
  "devdoc": {
    "kind": "dev",
    "methods": {},
    "version": 1
  },
  "userdoc": {
    "kind": "user",
    "methods": {},
    "version": 1
  }
}